{
	"contracts/contratos/Herramientas.sol": {
		"Herramientas": {
			"abi": [
				{
					"anonymous": false,
					"inputs": [
						{
							"indexed": true,
							"internalType": "uint256",
							"name": "id",
							"type": "uint256"
						},
						{
							"indexed": false,
							"internalType": "string",
							"name": "nombre",
							"type": "string"
						},
						{
							"indexed": false,
							"internalType": "string",
							"name": "descripcion",
							"type": "string"
						}
					],
					"name": "HerramientaAdded",
					"type": "event"
				},
				{
					"anonymous": false,
					"inputs": [
						{
							"indexed": true,
							"internalType": "uint256",
							"name": "id",
							"type": "uint256"
						}
					],
					"name": "HerramientaDeleted",
					"type": "event"
				},
				{
					"anonymous": false,
					"inputs": [
						{
							"indexed": true,
							"internalType": "uint256",
							"name": "id",
							"type": "uint256"
						},
						{
							"indexed": false,
							"internalType": "string",
							"name": "nombre",
							"type": "string"
						},
						{
							"indexed": false,
							"internalType": "string",
							"name": "descripcion",
							"type": "string"
						}
					],
					"name": "HerramientaUpdated",
					"type": "event"
				},
				{
					"inputs": [
						{
							"internalType": "uint256",
							"name": "id",
							"type": "uint256"
						},
						{
							"internalType": "string",
							"name": "nombre",
							"type": "string"
						},
						{
							"internalType": "string",
							"name": "descripcion",
							"type": "string"
						}
					],
					"name": "actualizarHerramienta",
					"outputs": [],
					"stateMutability": "nonpayable",
					"type": "function"
				},
				{
					"inputs": [
						{
							"internalType": "string",
							"name": "nombre",
							"type": "string"
						},
						{
							"internalType": "string",
							"name": "descripcion",
							"type": "string"
						}
					],
					"name": "agregarHerramienta",
					"outputs": [],
					"stateMutability": "nonpayable",
					"type": "function"
				},
				{
					"inputs": [
						{
							"internalType": "uint256",
							"name": "id",
							"type": "uint256"
						}
					],
					"name": "eliminarHerramienta",
					"outputs": [],
					"stateMutability": "nonpayable",
					"type": "function"
				},
				{
					"inputs": [
						{
							"internalType": "uint256",
							"name": "id",
							"type": "uint256"
						}
					],
					"name": "obtenerHerramienta",
					"outputs": [
						{
							"internalType": "string",
							"name": "nombre",
							"type": "string"
						},
						{
							"internalType": "string",
							"name": "descripcion",
							"type": "string"
						},
						{
							"internalType": "address",
							"name": "reportadoPor",
							"type": "address"
						},
						{
							"internalType": "uint256",
							"name": "fechaReporte",
							"type": "uint256"
						}
					],
					"stateMutability": "view",
					"type": "function"
				},
				{
					"inputs": [],
					"name": "obtenerTodasHerramientas",
					"outputs": [
						{
							"components": [
								{
									"internalType": "string",
									"name": "nombre",
									"type": "string"
								},
								{
									"internalType": "string",
									"name": "descripcion",
									"type": "string"
								},
								{
									"internalType": "address",
									"name": "reportadoPor",
									"type": "address"
								},
								{
									"internalType": "uint256",
									"name": "fechaReporte",
									"type": "uint256"
								}
							],
							"internalType": "struct IHerramientas.Herramienta[]",
							"name": "",
							"type": "tuple[]"
						}
					],
					"stateMutability": "view",
					"type": "function"
				}
			],
			"devdoc": {
				"kind": "dev",
				"methods": {},
				"version": 1
			},
			"evm": {
				"assembly": "    /* \"contracts/contratos/Herramientas.sol\":105:2276  contract Herramientas is IHerramientas {... */\n  mstore(0x40, 0x80)\n    /* \"contracts/contratos/Herramientas.sol\":246:247  0 */\n  0x00\n    /* \"contracts/contratos/Herramientas.sol\":210:247  uint256 private totalHerramientas = 0 */\n  0x01\n  sstore\n    /* \"contracts/contratos/Herramientas.sol\":105:2276  contract Herramientas is IHerramientas {... */\n  callvalue\n  dup1\n  iszero\n  tag_1\n  jumpi\n  0x00\n  dup1\n  revert\ntag_1:\n  pop\n  dataSize(sub_0)\n  dup1\n  dataOffset(sub_0)\n  0x00\n  codecopy\n  0x00\n  return\nstop\n\nsub_0: assembly {\n        /* \"contracts/contratos/Herramientas.sol\":105:2276  contract Herramientas is IHerramientas {... */\n      mstore(0x40, 0x80)\n      callvalue\n      dup1\n      iszero\n      tag_1\n      jumpi\n      0x00\n      dup1\n      revert\n    tag_1:\n      pop\n      jumpi(tag_2, lt(calldatasize, 0x04))\n      shr(0xe0, calldataload(0x00))\n      dup1\n      0x7cc5e41c\n      eq\n      tag_3\n      jumpi\n      dup1\n      0x94cec54b\n      eq\n      tag_4\n      jumpi\n      dup1\n      0x9ef07244\n      eq\n      tag_5\n      jumpi\n      dup1\n      0xd62ac10c\n      eq\n      tag_6\n      jumpi\n      dup1\n      0xe2921ea5\n      eq\n      tag_7\n      jumpi\n    tag_2:\n      0x00\n      dup1\n      revert\n        /* \"contracts/contratos/Herramientas.sol\":1976:2273  function obtenerTodasHerramientas() public view returns (Herramienta[] memory) {... */\n    tag_3:\n      tag_8\n      tag_9\n      jump\t// in\n    tag_8:\n      mload(0x40)\n      tag_10\n      swap2\n      swap1\n      tag_11\n      jump\t// in\n    tag_10:\n      mload(0x40)\n      dup1\n      swap2\n      sub\n      swap1\n      return\n        /* \"contracts/contratos/Herramientas.sol\":479:964  function agregarHerramienta(string memory nombre, string memory descripcion) public {... */\n    tag_4:\n      tag_12\n      0x04\n      dup1\n      calldatasize\n      sub\n      dup2\n      add\n      swap1\n      tag_13\n      swap2\n      swap1\n      tag_14\n      jump\t// in\n    tag_13:\n      tag_15\n      jump\t// in\n    tag_12:\n      stop\n        /* \"contracts/contratos/Herramientas.sol\":1360:1555  function eliminarHerramienta(uint256 id) public {... */\n    tag_5:\n      tag_16\n      0x04\n      dup1\n      calldatasize\n      sub\n      dup2\n      add\n      swap1\n      tag_17\n      swap2\n      swap1\n      tag_18\n      jump\t// in\n    tag_17:\n      tag_19\n      jump\t// in\n    tag_16:\n      stop\n        /* \"contracts/contratos/Herramientas.sol\":972:1352  function actualizarHerramienta(uint256 id, string memory nombre, string memory descripcion) public {... */\n    tag_6:\n      tag_20\n      0x04\n      dup1\n      calldatasize\n      sub\n      dup2\n      add\n      swap1\n      tag_21\n      swap2\n      swap1\n      tag_22\n      jump\t// in\n    tag_21:\n      tag_23\n      jump\t// in\n    tag_20:\n      stop\n        /* \"contracts/contratos/Herramientas.sol\":1563:1968  function obtenerHerramienta(uint256 id) public view returns (string memory nombre, string memory descripcion, address reportadoPor, uint256 fechaReporte) {... */\n    tag_7:\n      tag_24\n      0x04\n      dup1\n      calldatasize\n      sub\n      dup2\n      add\n      swap1\n      tag_25\n      swap2\n      swap1\n      tag_18\n      jump\t// in\n    tag_25:\n      tag_26\n      jump\t// in\n    tag_24:\n      mload(0x40)\n      tag_27\n      swap5\n      swap4\n      swap3\n      swap2\n      swap1\n      tag_28\n      jump\t// in\n    tag_27:\n      mload(0x40)\n      dup1\n      swap2\n      sub\n      swap1\n      return\n        /* \"contracts/contratos/Herramientas.sol\":1976:2273  function obtenerTodasHerramientas() public view returns (Herramienta[] memory) {... */\n    tag_9:\n        /* \"contracts/contratos/Herramientas.sol\":2033:2053  Herramienta[] memory */\n      0x60\n        /* \"contracts/contratos/Herramientas.sol\":2066:2092  Herramienta[] memory todas */\n      0x00\n        /* \"contracts/contratos/Herramientas.sol\":2113:2130  totalHerramientas */\n      sload(0x01)\n        /* \"contracts/contratos/Herramientas.sol\":2095:2131  new Herramienta[](totalHerramientas) */\n      0xffffffffffffffff\n      dup2\n      gt\n      iszero\n      tag_30\n      jumpi\n      tag_31\n      tag_32\n      jump\t// in\n    tag_31:\n    tag_30:\n      mload(0x40)\n      swap1\n      dup1\n      dup3\n      mstore\n      dup1\n      0x20\n      mul\n      0x20\n      add\n      dup3\n      add\n      0x40\n      mstore\n      dup1\n      iszero\n      tag_33\n      jumpi\n      dup2\n      0x20\n      add\n    tag_34:\n      tag_35\n      tag_36\n      jump\t// in\n    tag_35:\n      dup2\n      mstore\n      0x20\n      add\n      swap1\n      0x01\n      swap1\n      sub\n      swap1\n      dup2\n      tag_34\n      jumpi\n      swap1\n      pop\n    tag_33:\n      pop\n        /* \"contracts/contratos/Herramientas.sol\":2066:2131  Herramienta[] memory todas = new Herramienta[](totalHerramientas) */\n      swap1\n      pop\n        /* \"contracts/contratos/Herramientas.sol\":2147:2156  uint256 i */\n      0x00\n        /* \"contracts/contratos/Herramientas.sol\":2142:2243  for (uint256 i = 0; i < totalHerramientas; i++) {... */\n    tag_37:\n        /* \"contracts/contratos/Herramientas.sol\":2166:2183  totalHerramientas */\n      sload(0x01)\n        /* \"contracts/contratos/Herramientas.sol\":2162:2163  i */\n      dup2\n        /* \"contracts/contratos/Herramientas.sol\":2162:2183  i < totalHerramientas */\n      lt\n        /* \"contracts/contratos/Herramientas.sol\":2142:2243  for (uint256 i = 0; i < totalHerramientas; i++) {... */\n      iszero\n      tag_38\n      jumpi\n        /* \"contracts/contratos/Herramientas.sol\":2216:2228  herramientas */\n      0x00\n        /* \"contracts/contratos/Herramientas.sol\":2216:2231  herramientas[i] */\n      dup1\n        /* \"contracts/contratos/Herramientas.sol\":2229:2230  i */\n      dup3\n        /* \"contracts/contratos/Herramientas.sol\":2216:2231  herramientas[i] */\n      dup2\n      mstore\n      0x20\n      add\n      swap1\n      dup2\n      mstore\n      0x20\n      add\n      0x00\n      keccak256\n        /* \"contracts/contratos/Herramientas.sol\":2205:2231  todas[i] = herramientas[i] */\n      mload(0x40)\n      dup1\n      0x80\n      add\n      0x40\n      mstore\n      swap1\n      dup2\n      0x00\n      dup3\n      add\n      dup1\n      sload\n      tag_40\n      swap1\n      tag_41\n      jump\t// in\n    tag_40:\n      dup1\n      0x1f\n      add\n      0x20\n      dup1\n      swap2\n      div\n      mul\n      0x20\n      add\n      mload(0x40)\n      swap1\n      dup2\n      add\n      0x40\n      mstore\n      dup1\n      swap3\n      swap2\n      swap1\n      dup2\n      dup2\n      mstore\n      0x20\n      add\n      dup3\n      dup1\n      sload\n      tag_42\n      swap1\n      tag_41\n      jump\t// in\n    tag_42:\n      dup1\n      iszero\n      tag_43\n      jumpi\n      dup1\n      0x1f\n      lt\n      tag_44\n      jumpi\n      0x0100\n      dup1\n      dup4\n      sload\n      div\n      mul\n      dup4\n      mstore\n      swap2\n      0x20\n      add\n      swap2\n      jump(tag_43)\n    tag_44:\n      dup3\n      add\n      swap2\n      swap1\n      0x00\n      mstore\n      keccak256(0x00, 0x20)\n      swap1\n    tag_45:\n      dup2\n      sload\n      dup2\n      mstore\n      swap1\n      0x01\n      add\n      swap1\n      0x20\n      add\n      dup1\n      dup4\n      gt\n      tag_45\n      jumpi\n      dup3\n      swap1\n      sub\n      0x1f\n      and\n      dup3\n      add\n      swap2\n    tag_43:\n      pop\n      pop\n      pop\n      pop\n      pop\n      dup2\n      mstore\n      0x20\n      add\n      0x01\n      dup3\n      add\n      dup1\n      sload\n      tag_46\n      swap1\n      tag_41\n      jump\t// in\n    tag_46:\n      dup1\n      0x1f\n      add\n      0x20\n      dup1\n      swap2\n      div\n      mul\n      0x20\n      add\n      mload(0x40)\n      swap1\n      dup2\n      add\n      0x40\n      mstore\n      dup1\n      swap3\n      swap2\n      swap1\n      dup2\n      dup2\n      mstore\n      0x20\n      add\n      dup3\n      dup1\n      sload\n      tag_47\n      swap1\n      tag_41\n      jump\t// in\n    tag_47:\n      dup1\n      iszero\n      tag_48\n      jumpi\n      dup1\n      0x1f\n      lt\n      tag_49\n      jumpi\n      0x0100\n      dup1\n      dup4\n      sload\n      div\n      mul\n      dup4\n      mstore\n      swap2\n      0x20\n      add\n      swap2\n      jump(tag_48)\n    tag_49:\n      dup3\n      add\n      swap2\n      swap1\n      0x00\n      mstore\n      keccak256(0x00, 0x20)\n      swap1\n    tag_50:\n      dup2\n      sload\n      dup2\n      mstore\n      swap1\n      0x01\n      add\n      swap1\n      0x20\n      add\n      dup1\n      dup4\n      gt\n      tag_50\n      jumpi\n      dup3\n      swap1\n      sub\n      0x1f\n      and\n      dup3\n      add\n      swap2\n    tag_48:\n      pop\n      pop\n      pop\n      pop\n      pop\n      dup2\n      mstore\n      0x20\n      add\n      0x02\n      dup3\n      add\n      0x00\n      swap1\n      sload\n      swap1\n      0x0100\n      exp\n      swap1\n      div\n      0xffffffffffffffffffffffffffffffffffffffff\n      and\n      0xffffffffffffffffffffffffffffffffffffffff\n      and\n      0xffffffffffffffffffffffffffffffffffffffff\n      and\n      dup2\n      mstore\n      0x20\n      add\n      0x03\n      dup3\n      add\n      sload\n      dup2\n      mstore\n      pop\n      pop\n        /* \"contracts/contratos/Herramientas.sol\":2205:2210  todas */\n      dup3\n        /* \"contracts/contratos/Herramientas.sol\":2211:2212  i */\n      dup3\n        /* \"contracts/contratos/Herramientas.sol\":2205:2213  todas[i] */\n      dup2\n      mload\n      dup2\n      lt\n      tag_51\n      jumpi\n      tag_52\n      tag_53\n      jump\t// in\n    tag_52:\n    tag_51:\n      0x20\n      mul\n      0x20\n      add\n      add\n        /* \"contracts/contratos/Herramientas.sol\":2205:2231  todas[i] = herramientas[i] */\n      dup2\n      swap1\n      mstore\n      pop\n        /* \"contracts/contratos/Herramientas.sol\":2185:2188  i++ */\n      dup1\n      dup1\n      0x01\n      add\n      swap2\n      pop\n      pop\n        /* \"contracts/contratos/Herramientas.sol\":2142:2243  for (uint256 i = 0; i < totalHerramientas; i++) {... */\n      jump(tag_37)\n    tag_38:\n      pop\n        /* \"contracts/contratos/Herramientas.sol\":2260:2265  todas */\n      dup1\n        /* \"contracts/contratos/Herramientas.sol\":2253:2265  return todas */\n      swap2\n      pop\n      pop\n        /* \"contracts/contratos/Herramientas.sol\":1976:2273  function obtenerTodasHerramientas() public view returns (Herramienta[] memory) {... */\n      swap1\n      jump\t// out\n        /* \"contracts/contratos/Herramientas.sol\":479:964  function agregarHerramienta(string memory nombre, string memory descripcion) public {... */\n    tag_15:\n        /* \"contracts/contratos/Herramientas.sol\":574:609  Herramienta memory nuevaHerramienta */\n      0x00\n        /* \"contracts/contratos/Herramientas.sol\":612:787  Herramienta({... */\n      mload(0x40)\n      dup1\n      0x80\n      add\n      0x40\n      mstore\n      dup1\n        /* \"contracts/contratos/Herramientas.sol\":647:653  nombre */\n      dup5\n        /* \"contracts/contratos/Herramientas.sol\":612:787  Herramienta({... */\n      dup2\n      mstore\n      0x20\n      add\n        /* \"contracts/contratos/Herramientas.sol\":681:692  descripcion */\n      dup4\n        /* \"contracts/contratos/Herramientas.sol\":612:787  Herramienta({... */\n      dup2\n      mstore\n      0x20\n      add\n        /* \"contracts/contratos/Herramientas.sol\":721:731  msg.sender */\n      caller\n        /* \"contracts/contratos/Herramientas.sol\":612:787  Herramienta({... */\n      0xffffffffffffffffffffffffffffffffffffffff\n      and\n      dup2\n      mstore\n      0x20\n      add\n        /* \"contracts/contratos/Herramientas.sol\":760:775  block.timestamp */\n      timestamp\n        /* \"contracts/contratos/Herramientas.sol\":612:787  Herramienta({... */\n      dup2\n      mstore\n      pop\n        /* \"contracts/contratos/Herramientas.sol\":574:787  Herramienta memory nuevaHerramienta = Herramienta({... */\n      swap1\n      pop\n        /* \"contracts/contratos/Herramientas.sol\":834:850  nuevaHerramienta */\n      dup1\n        /* \"contracts/contratos/Herramientas.sol\":800:812  herramientas */\n      0x00\n        /* \"contracts/contratos/Herramientas.sol\":800:831  herramientas[totalHerramientas] */\n      dup1\n        /* \"contracts/contratos/Herramientas.sol\":813:830  totalHerramientas */\n      sload(0x01)\n        /* \"contracts/contratos/Herramientas.sol\":800:831  herramientas[totalHerramientas] */\n      dup2\n      mstore\n      0x20\n      add\n      swap1\n      dup2\n      mstore\n      0x20\n      add\n      0x00\n      keccak256\n        /* \"contracts/contratos/Herramientas.sol\":800:850  herramientas[totalHerramientas] = nuevaHerramienta */\n      0x00\n      dup3\n      add\n      mload\n      dup2\n      0x00\n      add\n      swap1\n      dup2\n      tag_55\n      swap2\n      swap1\n      tag_56\n      jump\t// in\n    tag_55:\n      pop\n      0x20\n      dup3\n      add\n      mload\n      dup2\n      0x01\n      add\n      swap1\n      dup2\n      tag_57\n      swap2\n      swap1\n      tag_56\n      jump\t// in\n    tag_57:\n      pop\n      0x40\n      dup3\n      add\n      mload\n      dup2\n      0x02\n      add\n      exp(0x0100, 0x00)\n      dup2\n      sload\n      dup2\n      0xffffffffffffffffffffffffffffffffffffffff\n      mul\n      not\n      and\n      swap1\n      dup4\n      0xffffffffffffffffffffffffffffffffffffffff\n      and\n      mul\n      or\n      swap1\n      sstore\n      pop\n      0x60\n      dup3\n      add\n      mload\n      dup2\n      0x03\n      add\n      sstore\n      swap1\n      pop\n      pop\n        /* \"contracts/contratos/Herramientas.sol\":861:878  totalHerramientas */\n      0x01\n      0x00\n        /* \"contracts/contratos/Herramientas.sol\":861:880  totalHerramientas++ */\n      dup2\n      sload\n      dup1\n      swap3\n      swap2\n      swap1\n      tag_58\n      swap1\n      tag_59\n      jump\t// in\n    tag_58:\n      swap2\n      swap1\n      pop\n      sstore\n      pop\n        /* \"contracts/contratos/Herramientas.sol\":933:934  1 */\n      0x01\n        /* \"contracts/contratos/Herramientas.sol\":913:930  totalHerramientas */\n      dup1\n      sload\n        /* \"contracts/contratos/Herramientas.sol\":913:934  totalHerramientas - 1 */\n      tag_60\n      swap2\n      swap1\n      tag_61\n      jump\t// in\n    tag_60:\n        /* \"contracts/contratos/Herramientas.sol\":896:956  HerramientaAdded(totalHerramientas - 1, nombre, descripcion) */\n      0x2e80a924c7797346825e24b6d35c6bfb3b329db31cbcc1a2cc087e79932f1f07\n        /* \"contracts/contratos/Herramientas.sol\":936:942  nombre */\n      dup5\n        /* \"contracts/contratos/Herramientas.sol\":944:955  descripcion */\n      dup5\n        /* \"contracts/contratos/Herramientas.sol\":896:956  HerramientaAdded(totalHerramientas - 1, nombre, descripcion) */\n      mload(0x40)\n      tag_62\n      swap3\n      swap2\n      swap1\n      tag_63\n      jump\t// in\n    tag_62:\n      mload(0x40)\n      dup1\n      swap2\n      sub\n      swap1\n      log2\n        /* \"contracts/contratos/Herramientas.sol\":563:964  {... */\n      pop\n        /* \"contracts/contratos/Herramientas.sol\":479:964  function agregarHerramienta(string memory nombre, string memory descripcion) public {... */\n      pop\n      pop\n      jump\t// out\n        /* \"contracts/contratos/Herramientas.sol\":1360:1555  function eliminarHerramienta(uint256 id) public {... */\n    tag_19:\n        /* \"contracts/contratos/Herramientas.sol\":1432:1449  totalHerramientas */\n      sload(0x01)\n        /* \"contracts/contratos/Herramientas.sol\":1427:1429  id */\n      dup2\n        /* \"contracts/contratos/Herramientas.sol\":1427:1449  id < totalHerramientas */\n      lt\n        /* \"contracts/contratos/Herramientas.sol\":1419:1475  require(id < totalHerramientas, \"Herramienta no existe\") */\n      tag_65\n      jumpi\n      mload(0x40)\n      0x08c379a000000000000000000000000000000000000000000000000000000000\n      dup2\n      mstore\n      0x04\n      add\n      tag_66\n      swap1\n      tag_67\n      jump\t// in\n    tag_66:\n      mload(0x40)\n      dup1\n      swap2\n      sub\n      swap1\n      revert\n    tag_65:\n        /* \"contracts/contratos/Herramientas.sol\":1493:1505  herramientas */\n      0x00\n        /* \"contracts/contratos/Herramientas.sol\":1493:1509  herramientas[id] */\n      dup1\n        /* \"contracts/contratos/Herramientas.sol\":1506:1508  id */\n      dup3\n        /* \"contracts/contratos/Herramientas.sol\":1493:1509  herramientas[id] */\n      dup2\n      mstore\n      0x20\n      add\n      swap1\n      dup2\n      mstore\n      0x20\n      add\n      0x00\n      keccak256\n      0x00\n        /* \"contracts/contratos/Herramientas.sol\":1486:1509  delete herramientas[id] */\n      dup1\n      dup3\n      add\n      0x00\n      tag_68\n      swap2\n      swap1\n      tag_69\n      jump\t// in\n    tag_68:\n      0x01\n      dup3\n      add\n      0x00\n      tag_70\n      swap2\n      swap1\n      tag_69\n      jump\t// in\n    tag_70:\n      0x02\n      dup3\n      add\n      exp(0x0100, 0x00)\n      dup2\n      sload\n      swap1\n      0xffffffffffffffffffffffffffffffffffffffff\n      mul\n      not\n      and\n      swap1\n      sstore\n      0x03\n      dup3\n      add\n      0x00\n      swap1\n      sstore\n      pop\n      pop\n        /* \"contracts/contratos/Herramientas.sol\":1544:1546  id */\n      dup1\n        /* \"contracts/contratos/Herramientas.sol\":1525:1547  HerramientaDeleted(id) */\n      0x6b8b19fc5f5218056f214a8ec905eee5cd61f29b46231c273340050d340ed599\n      mload(0x40)\n      mload(0x40)\n      dup1\n      swap2\n      sub\n      swap1\n      log2\n        /* \"contracts/contratos/Herramientas.sol\":1360:1555  function eliminarHerramienta(uint256 id) public {... */\n      pop\n      jump\t// out\n        /* \"contracts/contratos/Herramientas.sol\":972:1352  function actualizarHerramienta(uint256 id, string memory nombre, string memory descripcion) public {... */\n    tag_23:\n        /* \"contracts/contratos/Herramientas.sol\":1095:1112  totalHerramientas */\n      sload(0x01)\n        /* \"contracts/contratos/Herramientas.sol\":1090:1092  id */\n      dup4\n        /* \"contracts/contratos/Herramientas.sol\":1090:1112  id < totalHerramientas */\n      lt\n        /* \"contracts/contratos/Herramientas.sol\":1082:1138  require(id < totalHerramientas, \"Herramienta no existe\") */\n      tag_72\n      jumpi\n      mload(0x40)\n      0x08c379a000000000000000000000000000000000000000000000000000000000\n      dup2\n      mstore\n      0x04\n      add\n      tag_73\n      swap1\n      tag_67\n      jump\t// in\n    tag_73:\n      mload(0x40)\n      dup1\n      swap2\n      sub\n      swap1\n      revert\n    tag_72:\n        /* \"contracts/contratos/Herramientas.sol\":1149:1180  Herramienta storage herramienta */\n      0x00\n        /* \"contracts/contratos/Herramientas.sol\":1183:1195  herramientas */\n      dup1\n        /* \"contracts/contratos/Herramientas.sol\":1183:1199  herramientas[id] */\n      0x00\n        /* \"contracts/contratos/Herramientas.sol\":1196:1198  id */\n      dup6\n        /* \"contracts/contratos/Herramientas.sol\":1183:1199  herramientas[id] */\n      dup2\n      mstore\n      0x20\n      add\n      swap1\n      dup2\n      mstore\n      0x20\n      add\n      0x00\n      keccak256\n        /* \"contracts/contratos/Herramientas.sol\":1149:1199  Herramienta storage herramienta = herramientas[id] */\n      swap1\n      pop\n        /* \"contracts/contratos/Herramientas.sol\":1231:1237  nombre */\n      dup3\n        /* \"contracts/contratos/Herramientas.sol\":1210:1221  herramienta */\n      dup2\n        /* \"contracts/contratos/Herramientas.sol\":1210:1228  herramienta.nombre */\n      0x00\n      add\n        /* \"contracts/contratos/Herramientas.sol\":1210:1237  herramienta.nombre = nombre */\n      swap1\n      dup2\n      tag_74\n      swap2\n      swap1\n      tag_56\n      jump\t// in\n    tag_74:\n      pop\n        /* \"contracts/contratos/Herramientas.sol\":1274:1285  descripcion */\n      dup2\n        /* \"contracts/contratos/Herramientas.sol\":1248:1259  herramienta */\n      dup2\n        /* \"contracts/contratos/Herramientas.sol\":1248:1271  herramienta.descripcion */\n      0x01\n      add\n        /* \"contracts/contratos/Herramientas.sol\":1248:1285  herramienta.descripcion = descripcion */\n      swap1\n      dup2\n      tag_75\n      swap2\n      swap1\n      tag_56\n      jump\t// in\n    tag_75:\n      pop\n        /* \"contracts/contratos/Herramientas.sol\":1320:1322  id */\n      dup4\n        /* \"contracts/contratos/Herramientas.sol\":1301:1344  HerramientaUpdated(id, nombre, descripcion) */\n      0xbca83537e657e46f599579d0330396d6ff30198890806da12350a50bfd08cfb0\n        /* \"contracts/contratos/Herramientas.sol\":1324:1330  nombre */\n      dup5\n        /* \"contracts/contratos/Herramientas.sol\":1332:1343  descripcion */\n      dup5\n        /* \"contracts/contratos/Herramientas.sol\":1301:1344  HerramientaUpdated(id, nombre, descripcion) */\n      mload(0x40)\n      tag_76\n      swap3\n      swap2\n      swap1\n      tag_63\n      jump\t// in\n    tag_76:\n      mload(0x40)\n      dup1\n      swap2\n      sub\n      swap1\n      log2\n        /* \"contracts/contratos/Herramientas.sol\":1071:1352  {... */\n      pop\n        /* \"contracts/contratos/Herramientas.sol\":972:1352  function actualizarHerramienta(uint256 id, string memory nombre, string memory descripcion) public {... */\n      pop\n      pop\n      pop\n      jump\t// out\n        /* \"contracts/contratos/Herramientas.sol\":1563:1968  function obtenerHerramienta(uint256 id) public view returns (string memory nombre, string memory descripcion, address reportadoPor, uint256 fechaReporte) {... */\n    tag_26:\n        /* \"contracts/contratos/Herramientas.sol\":1624:1644  string memory nombre */\n      0x60\n        /* \"contracts/contratos/Herramientas.sol\":1646:1671  string memory descripcion */\n      dup1\n        /* \"contracts/contratos/Herramientas.sol\":1673:1693  address reportadoPor */\n      0x00\n        /* \"contracts/contratos/Herramientas.sol\":1695:1715  uint256 fechaReporte */\n      dup1\n        /* \"contracts/contratos/Herramientas.sol\":1741:1758  totalHerramientas */\n      sload(0x01)\n        /* \"contracts/contratos/Herramientas.sol\":1736:1738  id */\n      dup6\n        /* \"contracts/contratos/Herramientas.sol\":1736:1758  id < totalHerramientas */\n      lt\n        /* \"contracts/contratos/Herramientas.sol\":1728:1784  require(id < totalHerramientas, \"Herramienta no existe\") */\n      tag_78\n      jumpi\n      mload(0x40)\n      0x08c379a000000000000000000000000000000000000000000000000000000000\n      dup2\n      mstore\n      0x04\n      add\n      tag_79\n      swap1\n      tag_67\n      jump\t// in\n    tag_79:\n      mload(0x40)\n      dup1\n      swap2\n      sub\n      swap1\n      revert\n    tag_78:\n        /* \"contracts/contratos/Herramientas.sol\":1795:1826  Herramienta storage herramienta */\n      0x00\n        /* \"contracts/contratos/Herramientas.sol\":1829:1841  herramientas */\n      dup1\n        /* \"contracts/contratos/Herramientas.sol\":1829:1845  herramientas[id] */\n      0x00\n        /* \"contracts/contratos/Herramientas.sol\":1842:1844  id */\n      dup8\n        /* \"contracts/contratos/Herramientas.sol\":1829:1845  herramientas[id] */\n      dup2\n      mstore\n      0x20\n      add\n      swap1\n      dup2\n      mstore\n      0x20\n      add\n      0x00\n      keccak256\n        /* \"contracts/contratos/Herramientas.sol\":1795:1845  Herramienta storage herramienta = herramientas[id] */\n      swap1\n      pop\n        /* \"contracts/contratos/Herramientas.sol\":1864:1875  herramienta */\n      dup1\n        /* \"contracts/contratos/Herramientas.sol\":1864:1882  herramienta.nombre */\n      0x00\n      add\n        /* \"contracts/contratos/Herramientas.sol\":1884:1895  herramienta */\n      dup2\n        /* \"contracts/contratos/Herramientas.sol\":1884:1907  herramienta.descripcion */\n      0x01\n      add\n        /* \"contracts/contratos/Herramientas.sol\":1909:1920  herramienta */\n      dup3\n        /* \"contracts/contratos/Herramientas.sol\":1909:1933  herramienta.reportadoPor */\n      0x02\n      add\n      0x00\n      swap1\n      sload\n      swap1\n      0x0100\n      exp\n      swap1\n      div\n      0xffffffffffffffffffffffffffffffffffffffff\n      and\n        /* \"contracts/contratos/Herramientas.sol\":1935:1946  herramienta */\n      dup4\n        /* \"contracts/contratos/Herramientas.sol\":1935:1959  herramienta.fechaReporte */\n      0x03\n      add\n      sload\n        /* \"contracts/contratos/Herramientas.sol\":1856:1960  return (herramienta.nombre, herramienta.descripcion, herramienta.reportadoPor, herramienta.fechaReporte) */\n      dup4\n      dup1\n      sload\n      tag_80\n      swap1\n      tag_41\n      jump\t// in\n    tag_80:\n      dup1\n      0x1f\n      add\n      0x20\n      dup1\n      swap2\n      div\n      mul\n      0x20\n      add\n      mload(0x40)\n      swap1\n      dup2\n      add\n      0x40\n      mstore\n      dup1\n      swap3\n      swap2\n      swap1\n      dup2\n      dup2\n      mstore\n      0x20\n      add\n      dup3\n      dup1\n      sload\n      tag_81\n      swap1\n      tag_41\n      jump\t// in\n    tag_81:\n      dup1\n      iszero\n      tag_82\n      jumpi\n      dup1\n      0x1f\n      lt\n      tag_83\n      jumpi\n      0x0100\n      dup1\n      dup4\n      sload\n      div\n      mul\n      dup4\n      mstore\n      swap2\n      0x20\n      add\n      swap2\n      jump(tag_82)\n    tag_83:\n      dup3\n      add\n      swap2\n      swap1\n      0x00\n      mstore\n      keccak256(0x00, 0x20)\n      swap1\n    tag_84:\n      dup2\n      sload\n      dup2\n      mstore\n      swap1\n      0x01\n      add\n      swap1\n      0x20\n      add\n      dup1\n      dup4\n      gt\n      tag_84\n      jumpi\n      dup3\n      swap1\n      sub\n      0x1f\n      and\n      dup3\n      add\n      swap2\n    tag_82:\n      pop\n      pop\n      pop\n      pop\n      pop\n      swap4\n      pop\n      dup3\n      dup1\n      sload\n      tag_85\n      swap1\n      tag_41\n      jump\t// in\n    tag_85:\n      dup1\n      0x1f\n      add\n      0x20\n      dup1\n      swap2\n      div\n      mul\n      0x20\n      add\n      mload(0x40)\n      swap1\n      dup2\n      add\n      0x40\n      mstore\n      dup1\n      swap3\n      swap2\n      swap1\n      dup2\n      dup2\n      mstore\n      0x20\n      add\n      dup3\n      dup1\n      sload\n      tag_86\n      swap1\n      tag_41\n      jump\t// in\n    tag_86:\n      dup1\n      iszero\n      tag_87\n      jumpi\n      dup1\n      0x1f\n      lt\n      tag_88\n      jumpi\n      0x0100\n      dup1\n      dup4\n      sload\n      div\n      mul\n      dup4\n      mstore\n      swap2\n      0x20\n      add\n      swap2\n      jump(tag_87)\n    tag_88:\n      dup3\n      add\n      swap2\n      swap1\n      0x00\n      mstore\n      keccak256(0x00, 0x20)\n      swap1\n    tag_89:\n      dup2\n      sload\n      dup2\n      mstore\n      swap1\n      0x01\n      add\n      swap1\n      0x20\n      add\n      dup1\n      dup4\n      gt\n      tag_89\n      jumpi\n      dup3\n      swap1\n      sub\n      0x1f\n      and\n      dup3\n      add\n      swap2\n    tag_87:\n      pop\n      pop\n      pop\n      pop\n      pop\n      swap3\n      pop\n      swap5\n      pop\n      swap5\n      pop\n      swap5\n      pop\n      swap5\n      pop\n      pop\n        /* \"contracts/contratos/Herramientas.sol\":1563:1968  function obtenerHerramienta(uint256 id) public view returns (string memory nombre, string memory descripcion, address reportadoPor, uint256 fechaReporte) {... */\n      swap2\n      swap4\n      pop\n      swap2\n      swap4\n      jump\t// out\n    tag_36:\n      mload(0x40)\n      dup1\n      0x80\n      add\n      0x40\n      mstore\n      dup1\n      0x60\n      dup2\n      mstore\n      0x20\n      add\n      0x60\n      dup2\n      mstore\n      0x20\n      add\n      and(0xffffffffffffffffffffffffffffffffffffffff, 0x00)\n      dup2\n      mstore\n      0x20\n      add\n      0x00\n      dup2\n      mstore\n      pop\n      swap1\n      jump\t// out\n    tag_69:\n      pop\n      dup1\n      sload\n      tag_90\n      swap1\n      tag_41\n      jump\t// in\n    tag_90:\n      0x00\n      dup3\n      sstore\n      dup1\n      0x1f\n      lt\n      tag_92\n      jumpi\n      pop\n      jump(tag_91)\n    tag_92:\n      0x1f\n      add\n      0x20\n      swap1\n      div\n      swap1\n      0x00\n      mstore\n      keccak256(0x00, 0x20)\n      swap1\n      dup2\n      add\n      swap1\n      tag_93\n      swap2\n      swap1\n      tag_94\n      jump\t// in\n    tag_93:\n    tag_91:\n      pop\n      jump\t// out\n    tag_94:\n    tag_95:\n      dup1\n      dup3\n      gt\n      iszero\n      tag_96\n      jumpi\n      0x00\n      dup2\n      0x00\n      swap1\n      sstore\n      pop\n      0x01\n      add\n      jump(tag_95)\n    tag_96:\n      pop\n      swap1\n      jump\t// out\n        /* \"#utility.yul\":7:149   */\n    tag_97:\n        /* \"#utility.yul\":102:108   */\n      0x00\n        /* \"#utility.yul\":136:141   */\n      dup2\n        /* \"#utility.yul\":130:142   */\n      mload\n        /* \"#utility.yul\":120:142   */\n      swap1\n      pop\n        /* \"#utility.yul\":7:149   */\n      swap2\n      swap1\n      pop\n      jump\t// out\n        /* \"#utility.yul\":155:367   */\n    tag_98:\n        /* \"#utility.yul\":282:293   */\n      0x00\n        /* \"#utility.yul\":316:322   */\n      dup3\n        /* \"#utility.yul\":311:314   */\n      dup3\n        /* \"#utility.yul\":304:323   */\n      mstore\n        /* \"#utility.yul\":356:360   */\n      0x20\n        /* \"#utility.yul\":351:354   */\n      dup3\n        /* \"#utility.yul\":347:361   */\n      add\n        /* \"#utility.yul\":332:361   */\n      swap1\n      pop\n        /* \"#utility.yul\":155:367   */\n      swap3\n      swap2\n      pop\n      pop\n      jump\t// out\n        /* \"#utility.yul\":373:533   */\n    tag_99:\n        /* \"#utility.yul\":468:472   */\n      0x00\n        /* \"#utility.yul\":491:494   */\n      dup2\n        /* \"#utility.yul\":483:494   */\n      swap1\n      pop\n        /* \"#utility.yul\":521:525   */\n      0x20\n        /* \"#utility.yul\":516:519   */\n      dup3\n        /* \"#utility.yul\":512:526   */\n      add\n        /* \"#utility.yul\":504:526   */\n      swap1\n      pop\n        /* \"#utility.yul\":373:533   */\n      swap2\n      swap1\n      pop\n      jump\t// out\n        /* \"#utility.yul\":539:638   */\n    tag_100:\n        /* \"#utility.yul\":591:597   */\n      0x00\n        /* \"#utility.yul\":625:630   */\n      dup2\n        /* \"#utility.yul\":619:631   */\n      mload\n        /* \"#utility.yul\":609:631   */\n      swap1\n      pop\n        /* \"#utility.yul\":539:638   */\n      swap2\n      swap1\n      pop\n      jump\t// out\n        /* \"#utility.yul\":644:803   */\n    tag_101:\n        /* \"#utility.yul\":718:729   */\n      0x00\n        /* \"#utility.yul\":752:758   */\n      dup3\n        /* \"#utility.yul\":747:750   */\n      dup3\n        /* \"#utility.yul\":740:759   */\n      mstore\n        /* \"#utility.yul\":792:796   */\n      0x20\n        /* \"#utility.yul\":787:790   */\n      dup3\n        /* \"#utility.yul\":783:797   */\n      add\n        /* \"#utility.yul\":768:797   */\n      swap1\n      pop\n        /* \"#utility.yul\":644:803   */\n      swap3\n      swap2\n      pop\n      pop\n      jump\t// out\n        /* \"#utility.yul\":809:948   */\n    tag_102:\n        /* \"#utility.yul\":898:904   */\n      dup3\n        /* \"#utility.yul\":893:896   */\n      dup2\n        /* \"#utility.yul\":888:891   */\n      dup4\n        /* \"#utility.yul\":882:905   */\n      mcopy\n        /* \"#utility.yul\":939:940   */\n      0x00\n        /* \"#utility.yul\":930:936   */\n      dup4\n        /* \"#utility.yul\":925:928   */\n      dup4\n        /* \"#utility.yul\":921:937   */\n      add\n        /* \"#utility.yul\":914:941   */\n      mstore\n        /* \"#utility.yul\":809:948   */\n      pop\n      pop\n      pop\n      jump\t// out\n        /* \"#utility.yul\":954:1056   */\n    tag_103:\n        /* \"#utility.yul\":995:1001   */\n      0x00\n        /* \"#utility.yul\":1046:1048   */\n      0x1f\n        /* \"#utility.yul\":1042:1049   */\n      not\n        /* \"#utility.yul\":1037:1039   */\n      0x1f\n        /* \"#utility.yul\":1030:1035   */\n      dup4\n        /* \"#utility.yul\":1026:1040   */\n      add\n        /* \"#utility.yul\":1022:1050   */\n      and\n        /* \"#utility.yul\":1012:1050   */\n      swap1\n      pop\n        /* \"#utility.yul\":954:1056   */\n      swap2\n      swap1\n      pop\n      jump\t// out\n        /* \"#utility.yul\":1062:1419   */\n    tag_104:\n        /* \"#utility.yul\":1140:1143   */\n      0x00\n        /* \"#utility.yul\":1168:1207   */\n      tag_159\n        /* \"#utility.yul\":1201:1206   */\n      dup3\n        /* \"#utility.yul\":1168:1207   */\n      tag_100\n      jump\t// in\n    tag_159:\n        /* \"#utility.yul\":1223:1284   */\n      tag_160\n        /* \"#utility.yul\":1277:1283   */\n      dup2\n        /* \"#utility.yul\":1272:1275   */\n      dup6\n        /* \"#utility.yul\":1223:1284   */\n      tag_101\n      jump\t// in\n    tag_160:\n        /* \"#utility.yul\":1216:1284   */\n      swap4\n      pop\n        /* \"#utility.yul\":1293:1358   */\n      tag_161\n        /* \"#utility.yul\":1351:1357   */\n      dup2\n        /* \"#utility.yul\":1346:1349   */\n      dup6\n        /* \"#utility.yul\":1339:1343   */\n      0x20\n        /* \"#utility.yul\":1332:1337   */\n      dup7\n        /* \"#utility.yul\":1328:1344   */\n      add\n        /* \"#utility.yul\":1293:1358   */\n      tag_102\n      jump\t// in\n    tag_161:\n        /* \"#utility.yul\":1383:1412   */\n      tag_162\n        /* \"#utility.yul\":1405:1411   */\n      dup2\n        /* \"#utility.yul\":1383:1412   */\n      tag_103\n      jump\t// in\n    tag_162:\n        /* \"#utility.yul\":1378:1381   */\n      dup5\n        /* \"#utility.yul\":1374:1413   */\n      add\n        /* \"#utility.yul\":1367:1413   */\n      swap2\n      pop\n        /* \"#utility.yul\":1144:1419   */\n      pop\n        /* \"#utility.yul\":1062:1419   */\n      swap3\n      swap2\n      pop\n      pop\n      jump\t// out\n        /* \"#utility.yul\":1425:1551   */\n    tag_105:\n        /* \"#utility.yul\":1462:1469   */\n      0x00\n        /* \"#utility.yul\":1502:1544   */\n      0xffffffffffffffffffffffffffffffffffffffff\n        /* \"#utility.yul\":1495:1500   */\n      dup3\n        /* \"#utility.yul\":1491:1545   */\n      and\n        /* \"#utility.yul\":1480:1545   */\n      swap1\n      pop\n        /* \"#utility.yul\":1425:1551   */\n      swap2\n      swap1\n      pop\n      jump\t// out\n        /* \"#utility.yul\":1557:1653   */\n    tag_106:\n        /* \"#utility.yul\":1594:1601   */\n      0x00\n        /* \"#utility.yul\":1623:1647   */\n      tag_165\n        /* \"#utility.yul\":1641:1646   */\n      dup3\n        /* \"#utility.yul\":1623:1647   */\n      tag_105\n      jump\t// in\n    tag_165:\n        /* \"#utility.yul\":1612:1647   */\n      swap1\n      pop\n        /* \"#utility.yul\":1557:1653   */\n      swap2\n      swap1\n      pop\n      jump\t// out\n        /* \"#utility.yul\":1659:1767   */\n    tag_107:\n        /* \"#utility.yul\":1736:1760   */\n      tag_167\n        /* \"#utility.yul\":1754:1759   */\n      dup2\n        /* \"#utility.yul\":1736:1760   */\n      tag_106\n      jump\t// in\n    tag_167:\n        /* \"#utility.yul\":1731:1734   */\n      dup3\n        /* \"#utility.yul\":1724:1761   */\n      mstore\n        /* \"#utility.yul\":1659:1767   */\n      pop\n      pop\n      jump\t// out\n        /* \"#utility.yul\":1773:1850   */\n    tag_108:\n        /* \"#utility.yul\":1810:1817   */\n      0x00\n        /* \"#utility.yul\":1839:1844   */\n      dup2\n        /* \"#utility.yul\":1828:1844   */\n      swap1\n      pop\n        /* \"#utility.yul\":1773:1850   */\n      swap2\n      swap1\n      pop\n      jump\t// out\n        /* \"#utility.yul\":1856:1964   */\n    tag_109:\n        /* \"#utility.yul\":1933:1957   */\n      tag_170\n        /* \"#utility.yul\":1951:1956   */\n      dup2\n        /* \"#utility.yul\":1933:1957   */\n      tag_108\n      jump\t// in\n    tag_170:\n        /* \"#utility.yul\":1928:1931   */\n      dup3\n        /* \"#utility.yul\":1921:1958   */\n      mstore\n        /* \"#utility.yul\":1856:1964   */\n      pop\n      pop\n      jump\t// out\n        /* \"#utility.yul\":2046:3092   */\n    tag_110:\n        /* \"#utility.yul\":2161:2164   */\n      0x00\n        /* \"#utility.yul\":2197:2201   */\n      0x80\n        /* \"#utility.yul\":2192:2195   */\n      dup4\n        /* \"#utility.yul\":2188:2202   */\n      add\n        /* \"#utility.yul\":2286:2290   */\n      0x00\n        /* \"#utility.yul\":2279:2284   */\n      dup4\n        /* \"#utility.yul\":2275:2291   */\n      add\n        /* \"#utility.yul\":2269:2292   */\n      mload\n        /* \"#utility.yul\":2339:2342   */\n      dup5\n        /* \"#utility.yul\":2333:2337   */\n      dup3\n        /* \"#utility.yul\":2329:2343   */\n      sub\n        /* \"#utility.yul\":2322:2326   */\n      0x00\n        /* \"#utility.yul\":2317:2320   */\n      dup7\n        /* \"#utility.yul\":2313:2327   */\n      add\n        /* \"#utility.yul\":2306:2344   */\n      mstore\n        /* \"#utility.yul\":2365:2438   */\n      tag_172\n        /* \"#utility.yul\":2433:2437   */\n      dup3\n        /* \"#utility.yul\":2419:2431   */\n      dup3\n        /* \"#utility.yul\":2365:2438   */\n      tag_104\n      jump\t// in\n    tag_172:\n        /* \"#utility.yul\":2357:2438   */\n      swap2\n      pop\n        /* \"#utility.yul\":2212:2449   */\n      pop\n        /* \"#utility.yul\":2538:2542   */\n      0x20\n        /* \"#utility.yul\":2531:2536   */\n      dup4\n        /* \"#utility.yul\":2527:2543   */\n      add\n        /* \"#utility.yul\":2521:2544   */\n      mload\n        /* \"#utility.yul\":2591:2594   */\n      dup5\n        /* \"#utility.yul\":2585:2589   */\n      dup3\n        /* \"#utility.yul\":2581:2595   */\n      sub\n        /* \"#utility.yul\":2574:2578   */\n      0x20\n        /* \"#utility.yul\":2569:2572   */\n      dup7\n        /* \"#utility.yul\":2565:2579   */\n      add\n        /* \"#utility.yul\":2558:2596   */\n      mstore\n        /* \"#utility.yul\":2617:2690   */\n      tag_173\n        /* \"#utility.yul\":2685:2689   */\n      dup3\n        /* \"#utility.yul\":2671:2683   */\n      dup3\n        /* \"#utility.yul\":2617:2690   */\n      tag_104\n      jump\t// in\n    tag_173:\n        /* \"#utility.yul\":2609:2690   */\n      swap2\n      pop\n        /* \"#utility.yul\":2459:2701   */\n      pop\n        /* \"#utility.yul\":2791:2795   */\n      0x40\n        /* \"#utility.yul\":2784:2789   */\n      dup4\n        /* \"#utility.yul\":2780:2796   */\n      add\n        /* \"#utility.yul\":2774:2797   */\n      mload\n        /* \"#utility.yul\":2810:2873   */\n      tag_174\n        /* \"#utility.yul\":2867:2871   */\n      0x40\n        /* \"#utility.yul\":2862:2865   */\n      dup7\n        /* \"#utility.yul\":2858:2872   */\n      add\n        /* \"#utility.yul\":2844:2856   */\n      dup3\n        /* \"#utility.yul\":2810:2873   */\n      tag_107\n      jump\t// in\n    tag_174:\n        /* \"#utility.yul\":2711:2883   */\n      pop\n        /* \"#utility.yul\":2973:2977   */\n      0x60\n        /* \"#utility.yul\":2966:2971   */\n      dup4\n        /* \"#utility.yul\":2962:2978   */\n      add\n        /* \"#utility.yul\":2956:2979   */\n      mload\n        /* \"#utility.yul\":2992:3055   */\n      tag_175\n        /* \"#utility.yul\":3049:3053   */\n      0x60\n        /* \"#utility.yul\":3044:3047   */\n      dup7\n        /* \"#utility.yul\":3040:3054   */\n      add\n        /* \"#utility.yul\":3026:3038   */\n      dup3\n        /* \"#utility.yul\":2992:3055   */\n      tag_109\n      jump\t// in\n    tag_175:\n        /* \"#utility.yul\":2893:3065   */\n      pop\n        /* \"#utility.yul\":3082:3086   */\n      dup1\n        /* \"#utility.yul\":3075:3086   */\n      swap2\n      pop\n        /* \"#utility.yul\":2166:3092   */\n      pop\n        /* \"#utility.yul\":2046:3092   */\n      swap3\n      swap2\n      pop\n      pop\n      jump\t// out\n        /* \"#utility.yul\":3098:3366   */\n    tag_111:\n        /* \"#utility.yul\":3223:3233   */\n      0x00\n        /* \"#utility.yul\":3258:3360   */\n      tag_177\n        /* \"#utility.yul\":3356:3359   */\n      dup4\n        /* \"#utility.yul\":3348:3354   */\n      dup4\n        /* \"#utility.yul\":3258:3360   */\n      tag_110\n      jump\t// in\n    tag_177:\n        /* \"#utility.yul\":3244:3360   */\n      swap1\n      pop\n        /* \"#utility.yul\":3098:3366   */\n      swap3\n      swap2\n      pop\n      pop\n      jump\t// out\n        /* \"#utility.yul\":3372:3513   */\n    tag_112:\n        /* \"#utility.yul\":3470:3474   */\n      0x00\n        /* \"#utility.yul\":3502:3506   */\n      0x20\n        /* \"#utility.yul\":3497:3500   */\n      dup3\n        /* \"#utility.yul\":3493:3507   */\n      add\n        /* \"#utility.yul\":3485:3507   */\n      swap1\n      pop\n        /* \"#utility.yul\":3372:3513   */\n      swap2\n      swap1\n      pop\n      jump\t// out\n        /* \"#utility.yul\":3599:4734   */\n    tag_113:\n        /* \"#utility.yul\":3774:3777   */\n      0x00\n        /* \"#utility.yul\":3803:3885   */\n      tag_180\n        /* \"#utility.yul\":3879:3884   */\n      dup3\n        /* \"#utility.yul\":3803:3885   */\n      tag_97\n      jump\t// in\n    tag_180:\n        /* \"#utility.yul\":3901:4015   */\n      tag_181\n        /* \"#utility.yul\":4008:4014   */\n      dup2\n        /* \"#utility.yul\":4003:4006   */\n      dup6\n        /* \"#utility.yul\":3901:4015   */\n      tag_98\n      jump\t// in\n    tag_181:\n        /* \"#utility.yul\":3894:4015   */\n      swap4\n      pop\n        /* \"#utility.yul\":4041:4044   */\n      dup4\n        /* \"#utility.yul\":4086:4090   */\n      0x20\n        /* \"#utility.yul\":4078:4084   */\n      dup3\n        /* \"#utility.yul\":4074:4091   */\n      mul\n        /* \"#utility.yul\":4069:4072   */\n      dup6\n        /* \"#utility.yul\":4065:4092   */\n      add\n        /* \"#utility.yul\":4116:4200   */\n      tag_182\n        /* \"#utility.yul\":4194:4199   */\n      dup6\n        /* \"#utility.yul\":4116:4200   */\n      tag_99\n      jump\t// in\n    tag_182:\n        /* \"#utility.yul\":4223:4230   */\n      dup1\n        /* \"#utility.yul\":4254:4255   */\n      0x00\n        /* \"#utility.yul\":4239:4689   */\n    tag_183:\n        /* \"#utility.yul\":4264:4270   */\n      dup6\n        /* \"#utility.yul\":4261:4262   */\n      dup2\n        /* \"#utility.yul\":4258:4271   */\n      lt\n        /* \"#utility.yul\":4239:4689   */\n      iszero\n      tag_185\n      jumpi\n        /* \"#utility.yul\":4335:4344   */\n      dup5\n        /* \"#utility.yul\":4329:4333   */\n      dup5\n        /* \"#utility.yul\":4325:4345   */\n      sub\n        /* \"#utility.yul\":4320:4323   */\n      dup10\n        /* \"#utility.yul\":4313:4346   */\n      mstore\n        /* \"#utility.yul\":4386:4392   */\n      dup2\n        /* \"#utility.yul\":4380:4393   */\n      mload\n        /* \"#utility.yul\":4414:4534   */\n      tag_186\n        /* \"#utility.yul\":4529:4533   */\n      dup6\n        /* \"#utility.yul\":4514:4527   */\n      dup3\n        /* \"#utility.yul\":4414:4534   */\n      tag_111\n      jump\t// in\n    tag_186:\n        /* \"#utility.yul\":4406:4534   */\n      swap5\n      pop\n        /* \"#utility.yul\":4557:4645   */\n      tag_187\n        /* \"#utility.yul\":4638:4644   */\n      dup4\n        /* \"#utility.yul\":4557:4645   */\n      tag_112\n      jump\t// in\n    tag_187:\n        /* \"#utility.yul\":4547:4645   */\n      swap3\n      pop\n        /* \"#utility.yul\":4674:4678   */\n      0x20\n        /* \"#utility.yul\":4669:4672   */\n      dup11\n        /* \"#utility.yul\":4665:4679   */\n      add\n        /* \"#utility.yul\":4658:4679   */\n      swap10\n      pop\n        /* \"#utility.yul\":4299:4689   */\n      pop\n        /* \"#utility.yul\":4286:4287   */\n      0x01\n        /* \"#utility.yul\":4283:4284   */\n      dup2\n        /* \"#utility.yul\":4279:4288   */\n      add\n        /* \"#utility.yul\":4274:4288   */\n      swap1\n      pop\n        /* \"#utility.yul\":4239:4689   */\n      jump(tag_183)\n    tag_185:\n        /* \"#utility.yul\":4243:4257   */\n      pop\n        /* \"#utility.yul\":4705:4709   */\n      dup3\n        /* \"#utility.yul\":4698:4709   */\n      swap8\n      pop\n        /* \"#utility.yul\":4725:4728   */\n      dup8\n        /* \"#utility.yul\":4718:4728   */\n      swap6\n      pop\n        /* \"#utility.yul\":3779:4734   */\n      pop\n      pop\n      pop\n      pop\n      pop\n        /* \"#utility.yul\":3599:4734   */\n      swap3\n      swap2\n      pop\n      pop\n      jump\t// out\n        /* \"#utility.yul\":4740:5225   */\n    tag_11:\n        /* \"#utility.yul\":4939:4943   */\n      0x00\n        /* \"#utility.yul\":4977:4979   */\n      0x20\n        /* \"#utility.yul\":4966:4975   */\n      dup3\n        /* \"#utility.yul\":4962:4980   */\n      add\n        /* \"#utility.yul\":4954:4980   */\n      swap1\n      pop\n        /* \"#utility.yul\":5026:5035   */\n      dup2\n        /* \"#utility.yul\":5020:5024   */\n      dup2\n        /* \"#utility.yul\":5016:5036   */\n      sub\n        /* \"#utility.yul\":5012:5013   */\n      0x00\n        /* \"#utility.yul\":5001:5010   */\n      dup4\n        /* \"#utility.yul\":4997:5014   */\n      add\n        /* \"#utility.yul\":4990:5037   */\n      mstore\n        /* \"#utility.yul\":5054:5218   */\n      tag_189\n        /* \"#utility.yul\":5213:5217   */\n      dup2\n        /* \"#utility.yul\":5204:5210   */\n      dup5\n        /* \"#utility.yul\":5054:5218   */\n      tag_113\n      jump\t// in\n    tag_189:\n        /* \"#utility.yul\":5046:5218   */\n      swap1\n      pop\n        /* \"#utility.yul\":4740:5225   */\n      swap3\n      swap2\n      pop\n      pop\n      jump\t// out\n        /* \"#utility.yul\":5231:5306   */\n    tag_114:\n        /* \"#utility.yul\":5264:5270   */\n      0x00\n        /* \"#utility.yul\":5297:5299   */\n      0x40\n        /* \"#utility.yul\":5291:5300   */\n      mload\n        /* \"#utility.yul\":5281:5300   */\n      swap1\n      pop\n        /* \"#utility.yul\":5231:5306   */\n      swap1\n      jump\t// out\n        /* \"#utility.yul\":5312:5429   */\n    tag_115:\n        /* \"#utility.yul\":5421:5422   */\n      0x00\n        /* \"#utility.yul\":5418:5419   */\n      dup1\n        /* \"#utility.yul\":5411:5423   */\n      revert\n        /* \"#utility.yul\":5435:5552   */\n    tag_116:\n        /* \"#utility.yul\":5544:5545   */\n      0x00\n        /* \"#utility.yul\":5541:5542   */\n      dup1\n        /* \"#utility.yul\":5534:5546   */\n      revert\n        /* \"#utility.yul\":5558:5675   */\n    tag_117:\n        /* \"#utility.yul\":5667:5668   */\n      0x00\n        /* \"#utility.yul\":5664:5665   */\n      dup1\n        /* \"#utility.yul\":5657:5669   */\n      revert\n        /* \"#utility.yul\":5681:5798   */\n    tag_118:\n        /* \"#utility.yul\":5790:5791   */\n      0x00\n        /* \"#utility.yul\":5787:5788   */\n      dup1\n        /* \"#utility.yul\":5780:5792   */\n      revert\n        /* \"#utility.yul\":5804:5984   */\n    tag_32:\n        /* \"#utility.yul\":5852:5929   */\n      0x4e487b7100000000000000000000000000000000000000000000000000000000\n        /* \"#utility.yul\":5849:5850   */\n      0x00\n        /* \"#utility.yul\":5842:5930   */\n      mstore\n        /* \"#utility.yul\":5949:5953   */\n      0x41\n        /* \"#utility.yul\":5946:5947   */\n      0x04\n        /* \"#utility.yul\":5939:5954   */\n      mstore\n        /* \"#utility.yul\":5973:5977   */\n      0x24\n        /* \"#utility.yul\":5970:5971   */\n      0x00\n        /* \"#utility.yul\":5963:5978   */\n      revert\n        /* \"#utility.yul\":5990:6271   */\n    tag_119:\n        /* \"#utility.yul\":6073:6100   */\n      tag_197\n        /* \"#utility.yul\":6095:6099   */\n      dup3\n        /* \"#utility.yul\":6073:6100   */\n      tag_103\n      jump\t// in\n    tag_197:\n        /* \"#utility.yul\":6065:6071   */\n      dup2\n        /* \"#utility.yul\":6061:6101   */\n      add\n        /* \"#utility.yul\":6203:6209   */\n      dup2\n        /* \"#utility.yul\":6191:6201   */\n      dup2\n        /* \"#utility.yul\":6188:6210   */\n      lt\n        /* \"#utility.yul\":6167:6185   */\n      0xffffffffffffffff\n        /* \"#utility.yul\":6155:6165   */\n      dup3\n        /* \"#utility.yul\":6152:6186   */\n      gt\n        /* \"#utility.yul\":6149:6211   */\n      or\n        /* \"#utility.yul\":6146:6234   */\n      iszero\n      tag_198\n      jumpi\n        /* \"#utility.yul\":6214:6232   */\n      tag_199\n      tag_32\n      jump\t// in\n    tag_199:\n        /* \"#utility.yul\":6146:6234   */\n    tag_198:\n        /* \"#utility.yul\":6254:6264   */\n      dup1\n        /* \"#utility.yul\":6250:6252   */\n      0x40\n        /* \"#utility.yul\":6243:6265   */\n      mstore\n        /* \"#utility.yul\":6033:6271   */\n      pop\n        /* \"#utility.yul\":5990:6271   */\n      pop\n      pop\n      jump\t// out\n        /* \"#utility.yul\":6277:6406   */\n    tag_120:\n        /* \"#utility.yul\":6311:6317   */\n      0x00\n        /* \"#utility.yul\":6338:6358   */\n      tag_201\n      tag_114\n      jump\t// in\n    tag_201:\n        /* \"#utility.yul\":6328:6358   */\n      swap1\n      pop\n        /* \"#utility.yul\":6367:6400   */\n      tag_202\n        /* \"#utility.yul\":6395:6399   */\n      dup3\n        /* \"#utility.yul\":6387:6393   */\n      dup3\n        /* \"#utility.yul\":6367:6400   */\n      tag_119\n      jump\t// in\n    tag_202:\n        /* \"#utility.yul\":6277:6406   */\n      swap2\n      swap1\n      pop\n      jump\t// out\n        /* \"#utility.yul\":6412:6720   */\n    tag_121:\n        /* \"#utility.yul\":6474:6478   */\n      0x00\n        /* \"#utility.yul\":6564:6582   */\n      0xffffffffffffffff\n        /* \"#utility.yul\":6556:6562   */\n      dup3\n        /* \"#utility.yul\":6553:6583   */\n      gt\n        /* \"#utility.yul\":6550:6606   */\n      iszero\n      tag_204\n      jumpi\n        /* \"#utility.yul\":6586:6604   */\n      tag_205\n      tag_32\n      jump\t// in\n    tag_205:\n        /* \"#utility.yul\":6550:6606   */\n    tag_204:\n        /* \"#utility.yul\":6624:6653   */\n      tag_206\n        /* \"#utility.yul\":6646:6652   */\n      dup3\n        /* \"#utility.yul\":6624:6653   */\n      tag_103\n      jump\t// in\n    tag_206:\n        /* \"#utility.yul\":6616:6653   */\n      swap1\n      pop\n        /* \"#utility.yul\":6708:6712   */\n      0x20\n        /* \"#utility.yul\":6702:6706   */\n      dup2\n        /* \"#utility.yul\":6698:6713   */\n      add\n        /* \"#utility.yul\":6690:6713   */\n      swap1\n      pop\n        /* \"#utility.yul\":6412:6720   */\n      swap2\n      swap1\n      pop\n      jump\t// out\n        /* \"#utility.yul\":6726:6874   */\n    tag_122:\n        /* \"#utility.yul\":6824:6830   */\n      dup3\n        /* \"#utility.yul\":6819:6822   */\n      dup2\n        /* \"#utility.yul\":6814:6817   */\n      dup4\n        /* \"#utility.yul\":6801:6831   */\n      calldatacopy\n        /* \"#utility.yul\":6865:6866   */\n      0x00\n        /* \"#utility.yul\":6856:6862   */\n      dup4\n        /* \"#utility.yul\":6851:6854   */\n      dup4\n        /* \"#utility.yul\":6847:6863   */\n      add\n        /* \"#utility.yul\":6840:6867   */\n      mstore\n        /* \"#utility.yul\":6726:6874   */\n      pop\n      pop\n      pop\n      jump\t// out\n        /* \"#utility.yul\":6880:7305   */\n    tag_123:\n        /* \"#utility.yul\":6958:6963   */\n      0x00\n        /* \"#utility.yul\":6983:7049   */\n      tag_209\n        /* \"#utility.yul\":6999:7048   */\n      tag_210\n        /* \"#utility.yul\":7041:7047   */\n      dup5\n        /* \"#utility.yul\":6999:7048   */\n      tag_121\n      jump\t// in\n    tag_210:\n        /* \"#utility.yul\":6983:7049   */\n      tag_120\n      jump\t// in\n    tag_209:\n        /* \"#utility.yul\":6974:7049   */\n      swap1\n      pop\n        /* \"#utility.yul\":7072:7078   */\n      dup3\n        /* \"#utility.yul\":7065:7070   */\n      dup2\n        /* \"#utility.yul\":7058:7079   */\n      mstore\n        /* \"#utility.yul\":7110:7114   */\n      0x20\n        /* \"#utility.yul\":7103:7108   */\n      dup2\n        /* \"#utility.yul\":7099:7115   */\n      add\n        /* \"#utility.yul\":7148:7151   */\n      dup5\n        /* \"#utility.yul\":7139:7145   */\n      dup5\n        /* \"#utility.yul\":7134:7137   */\n      dup5\n        /* \"#utility.yul\":7130:7146   */\n      add\n        /* \"#utility.yul\":7127:7152   */\n      gt\n        /* \"#utility.yul\":7124:7236   */\n      iszero\n      tag_211\n      jumpi\n        /* \"#utility.yul\":7155:7234   */\n      tag_212\n      tag_118\n      jump\t// in\n    tag_212:\n        /* \"#utility.yul\":7124:7236   */\n    tag_211:\n        /* \"#utility.yul\":7245:7299   */\n      tag_213\n        /* \"#utility.yul\":7292:7298   */\n      dup5\n        /* \"#utility.yul\":7287:7290   */\n      dup3\n        /* \"#utility.yul\":7282:7285   */\n      dup6\n        /* \"#utility.yul\":7245:7299   */\n      tag_122\n      jump\t// in\n    tag_213:\n        /* \"#utility.yul\":6964:7305   */\n      pop\n        /* \"#utility.yul\":6880:7305   */\n      swap4\n      swap3\n      pop\n      pop\n      pop\n      jump\t// out\n        /* \"#utility.yul\":7325:7665   */\n    tag_124:\n        /* \"#utility.yul\":7381:7386   */\n      0x00\n        /* \"#utility.yul\":7430:7433   */\n      dup3\n        /* \"#utility.yul\":7423:7427   */\n      0x1f\n        /* \"#utility.yul\":7415:7421   */\n      dup4\n        /* \"#utility.yul\":7411:7428   */\n      add\n        /* \"#utility.yul\":7407:7434   */\n      slt\n        /* \"#utility.yul\":7397:7519   */\n      tag_215\n      jumpi\n        /* \"#utility.yul\":7438:7517   */\n      tag_216\n      tag_117\n      jump\t// in\n    tag_216:\n        /* \"#utility.yul\":7397:7519   */\n    tag_215:\n        /* \"#utility.yul\":7555:7561   */\n      dup2\n        /* \"#utility.yul\":7542:7562   */\n      calldataload\n        /* \"#utility.yul\":7580:7659   */\n      tag_217\n        /* \"#utility.yul\":7655:7658   */\n      dup5\n        /* \"#utility.yul\":7647:7653   */\n      dup3\n        /* \"#utility.yul\":7640:7644   */\n      0x20\n        /* \"#utility.yul\":7632:7638   */\n      dup7\n        /* \"#utility.yul\":7628:7645   */\n      add\n        /* \"#utility.yul\":7580:7659   */\n      tag_123\n      jump\t// in\n    tag_217:\n        /* \"#utility.yul\":7571:7659   */\n      swap2\n      pop\n        /* \"#utility.yul\":7387:7665   */\n      pop\n        /* \"#utility.yul\":7325:7665   */\n      swap3\n      swap2\n      pop\n      pop\n      jump\t// out\n        /* \"#utility.yul\":7671:8505   */\n    tag_14:\n        /* \"#utility.yul\":7759:7765   */\n      0x00\n        /* \"#utility.yul\":7767:7773   */\n      dup1\n        /* \"#utility.yul\":7816:7818   */\n      0x40\n        /* \"#utility.yul\":7804:7813   */\n      dup4\n        /* \"#utility.yul\":7795:7802   */\n      dup6\n        /* \"#utility.yul\":7791:7814   */\n      sub\n        /* \"#utility.yul\":7787:7819   */\n      slt\n        /* \"#utility.yul\":7784:7903   */\n      iszero\n      tag_219\n      jumpi\n        /* \"#utility.yul\":7822:7901   */\n      tag_220\n      tag_115\n      jump\t// in\n    tag_220:\n        /* \"#utility.yul\":7784:7903   */\n    tag_219:\n        /* \"#utility.yul\":7970:7971   */\n      0x00\n        /* \"#utility.yul\":7959:7968   */\n      dup4\n        /* \"#utility.yul\":7955:7972   */\n      add\n        /* \"#utility.yul\":7942:7973   */\n      calldataload\n        /* \"#utility.yul\":8000:8018   */\n      0xffffffffffffffff\n        /* \"#utility.yul\":7992:7998   */\n      dup2\n        /* \"#utility.yul\":7989:8019   */\n      gt\n        /* \"#utility.yul\":7986:8103   */\n      iszero\n      tag_221\n      jumpi\n        /* \"#utility.yul\":8022:8101   */\n      tag_222\n      tag_116\n      jump\t// in\n    tag_222:\n        /* \"#utility.yul\":7986:8103   */\n    tag_221:\n        /* \"#utility.yul\":8127:8190   */\n      tag_223\n        /* \"#utility.yul\":8182:8189   */\n      dup6\n        /* \"#utility.yul\":8173:8179   */\n      dup3\n        /* \"#utility.yul\":8162:8171   */\n      dup7\n        /* \"#utility.yul\":8158:8180   */\n      add\n        /* \"#utility.yul\":8127:8190   */\n      tag_124\n      jump\t// in\n    tag_223:\n        /* \"#utility.yul\":8117:8190   */\n      swap3\n      pop\n        /* \"#utility.yul\":7913:8200   */\n      pop\n        /* \"#utility.yul\":8267:8269   */\n      0x20\n        /* \"#utility.yul\":8256:8265   */\n      dup4\n        /* \"#utility.yul\":8252:8270   */\n      add\n        /* \"#utility.yul\":8239:8271   */\n      calldataload\n        /* \"#utility.yul\":8298:8316   */\n      0xffffffffffffffff\n        /* \"#utility.yul\":8290:8296   */\n      dup2\n        /* \"#utility.yul\":8287:8317   */\n      gt\n        /* \"#utility.yul\":8284:8401   */\n      iszero\n      tag_224\n      jumpi\n        /* \"#utility.yul\":8320:8399   */\n      tag_225\n      tag_116\n      jump\t// in\n    tag_225:\n        /* \"#utility.yul\":8284:8401   */\n    tag_224:\n        /* \"#utility.yul\":8425:8488   */\n      tag_226\n        /* \"#utility.yul\":8480:8487   */\n      dup6\n        /* \"#utility.yul\":8471:8477   */\n      dup3\n        /* \"#utility.yul\":8460:8469   */\n      dup7\n        /* \"#utility.yul\":8456:8478   */\n      add\n        /* \"#utility.yul\":8425:8488   */\n      tag_124\n      jump\t// in\n    tag_226:\n        /* \"#utility.yul\":8415:8488   */\n      swap2\n      pop\n        /* \"#utility.yul\":8210:8498   */\n      pop\n        /* \"#utility.yul\":7671:8505   */\n      swap3\n      pop\n      swap3\n      swap1\n      pop\n      jump\t// out\n        /* \"#utility.yul\":8511:8633   */\n    tag_125:\n        /* \"#utility.yul\":8584:8608   */\n      tag_228\n        /* \"#utility.yul\":8602:8607   */\n      dup2\n        /* \"#utility.yul\":8584:8608   */\n      tag_108\n      jump\t// in\n    tag_228:\n        /* \"#utility.yul\":8577:8582   */\n      dup2\n        /* \"#utility.yul\":8574:8609   */\n      eq\n        /* \"#utility.yul\":8564:8627   */\n      tag_229\n      jumpi\n        /* \"#utility.yul\":8623:8624   */\n      0x00\n        /* \"#utility.yul\":8620:8621   */\n      dup1\n        /* \"#utility.yul\":8613:8625   */\n      revert\n        /* \"#utility.yul\":8564:8627   */\n    tag_229:\n        /* \"#utility.yul\":8511:8633   */\n      pop\n      jump\t// out\n        /* \"#utility.yul\":8639:8778   */\n    tag_126:\n        /* \"#utility.yul\":8685:8690   */\n      0x00\n        /* \"#utility.yul\":8723:8729   */\n      dup2\n        /* \"#utility.yul\":8710:8730   */\n      calldataload\n        /* \"#utility.yul\":8701:8730   */\n      swap1\n      pop\n        /* \"#utility.yul\":8739:8772   */\n      tag_231\n        /* \"#utility.yul\":8766:8771   */\n      dup2\n        /* \"#utility.yul\":8739:8772   */\n      tag_125\n      jump\t// in\n    tag_231:\n        /* \"#utility.yul\":8639:8778   */\n      swap3\n      swap2\n      pop\n      pop\n      jump\t// out\n        /* \"#utility.yul\":8784:9113   */\n    tag_18:\n        /* \"#utility.yul\":8843:8849   */\n      0x00\n        /* \"#utility.yul\":8892:8894   */\n      0x20\n        /* \"#utility.yul\":8880:8889   */\n      dup3\n        /* \"#utility.yul\":8871:8878   */\n      dup5\n        /* \"#utility.yul\":8867:8890   */\n      sub\n        /* \"#utility.yul\":8863:8895   */\n      slt\n        /* \"#utility.yul\":8860:8979   */\n      iszero\n      tag_233\n      jumpi\n        /* \"#utility.yul\":8898:8977   */\n      tag_234\n      tag_115\n      jump\t// in\n    tag_234:\n        /* \"#utility.yul\":8860:8979   */\n    tag_233:\n        /* \"#utility.yul\":9018:9019   */\n      0x00\n        /* \"#utility.yul\":9043:9096   */\n      tag_235\n        /* \"#utility.yul\":9088:9095   */\n      dup5\n        /* \"#utility.yul\":9079:9085   */\n      dup3\n        /* \"#utility.yul\":9068:9077   */\n      dup6\n        /* \"#utility.yul\":9064:9086   */\n      add\n        /* \"#utility.yul\":9043:9096   */\n      tag_126\n      jump\t// in\n    tag_235:\n        /* \"#utility.yul\":9033:9096   */\n      swap2\n      pop\n        /* \"#utility.yul\":8989:9106   */\n      pop\n        /* \"#utility.yul\":8784:9113   */\n      swap3\n      swap2\n      pop\n      pop\n      jump\t// out\n        /* \"#utility.yul\":9119:10098   */\n    tag_22:\n        /* \"#utility.yul\":9216:9222   */\n      0x00\n        /* \"#utility.yul\":9224:9230   */\n      dup1\n        /* \"#utility.yul\":9232:9238   */\n      0x00\n        /* \"#utility.yul\":9281:9283   */\n      0x60\n        /* \"#utility.yul\":9269:9278   */\n      dup5\n        /* \"#utility.yul\":9260:9267   */\n      dup7\n        /* \"#utility.yul\":9256:9279   */\n      sub\n        /* \"#utility.yul\":9252:9284   */\n      slt\n        /* \"#utility.yul\":9249:9368   */\n      iszero\n      tag_237\n      jumpi\n        /* \"#utility.yul\":9287:9366   */\n      tag_238\n      tag_115\n      jump\t// in\n    tag_238:\n        /* \"#utility.yul\":9249:9368   */\n    tag_237:\n        /* \"#utility.yul\":9407:9408   */\n      0x00\n        /* \"#utility.yul\":9432:9485   */\n      tag_239\n        /* \"#utility.yul\":9477:9484   */\n      dup7\n        /* \"#utility.yul\":9468:9474   */\n      dup3\n        /* \"#utility.yul\":9457:9466   */\n      dup8\n        /* \"#utility.yul\":9453:9475   */\n      add\n        /* \"#utility.yul\":9432:9485   */\n      tag_126\n      jump\t// in\n    tag_239:\n        /* \"#utility.yul\":9422:9485   */\n      swap4\n      pop\n        /* \"#utility.yul\":9378:9495   */\n      pop\n        /* \"#utility.yul\":9562:9564   */\n      0x20\n        /* \"#utility.yul\":9551:9560   */\n      dup5\n        /* \"#utility.yul\":9547:9565   */\n      add\n        /* \"#utility.yul\":9534:9566   */\n      calldataload\n        /* \"#utility.yul\":9593:9611   */\n      0xffffffffffffffff\n        /* \"#utility.yul\":9585:9591   */\n      dup2\n        /* \"#utility.yul\":9582:9612   */\n      gt\n        /* \"#utility.yul\":9579:9696   */\n      iszero\n      tag_240\n      jumpi\n        /* \"#utility.yul\":9615:9694   */\n      tag_241\n      tag_116\n      jump\t// in\n    tag_241:\n        /* \"#utility.yul\":9579:9696   */\n    tag_240:\n        /* \"#utility.yul\":9720:9783   */\n      tag_242\n        /* \"#utility.yul\":9775:9782   */\n      dup7\n        /* \"#utility.yul\":9766:9772   */\n      dup3\n        /* \"#utility.yul\":9755:9764   */\n      dup8\n        /* \"#utility.yul\":9751:9773   */\n      add\n        /* \"#utility.yul\":9720:9783   */\n      tag_124\n      jump\t// in\n    tag_242:\n        /* \"#utility.yul\":9710:9783   */\n      swap3\n      pop\n        /* \"#utility.yul\":9505:9793   */\n      pop\n        /* \"#utility.yul\":9860:9862   */\n      0x40\n        /* \"#utility.yul\":9849:9858   */\n      dup5\n        /* \"#utility.yul\":9845:9863   */\n      add\n        /* \"#utility.yul\":9832:9864   */\n      calldataload\n        /* \"#utility.yul\":9891:9909   */\n      0xffffffffffffffff\n        /* \"#utility.yul\":9883:9889   */\n      dup2\n        /* \"#utility.yul\":9880:9910   */\n      gt\n        /* \"#utility.yul\":9877:9994   */\n      iszero\n      tag_243\n      jumpi\n        /* \"#utility.yul\":9913:9992   */\n      tag_244\n      tag_116\n      jump\t// in\n    tag_244:\n        /* \"#utility.yul\":9877:9994   */\n    tag_243:\n        /* \"#utility.yul\":10018:10081   */\n      tag_245\n        /* \"#utility.yul\":10073:10080   */\n      dup7\n        /* \"#utility.yul\":10064:10070   */\n      dup3\n        /* \"#utility.yul\":10053:10062   */\n      dup8\n        /* \"#utility.yul\":10049:10071   */\n      add\n        /* \"#utility.yul\":10018:10081   */\n      tag_124\n      jump\t// in\n    tag_245:\n        /* \"#utility.yul\":10008:10081   */\n      swap2\n      pop\n        /* \"#utility.yul\":9803:10091   */\n      pop\n        /* \"#utility.yul\":9119:10098   */\n      swap3\n      pop\n      swap3\n      pop\n      swap3\n      jump\t// out\n        /* \"#utility.yul\":10104:10273   */\n    tag_127:\n        /* \"#utility.yul\":10188:10199   */\n      0x00\n        /* \"#utility.yul\":10222:10228   */\n      dup3\n        /* \"#utility.yul\":10217:10220   */\n      dup3\n        /* \"#utility.yul\":10210:10229   */\n      mstore\n        /* \"#utility.yul\":10262:10266   */\n      0x20\n        /* \"#utility.yul\":10257:10260   */\n      dup3\n        /* \"#utility.yul\":10253:10267   */\n      add\n        /* \"#utility.yul\":10238:10267   */\n      swap1\n      pop\n        /* \"#utility.yul\":10104:10273   */\n      swap3\n      swap2\n      pop\n      pop\n      jump\t// out\n        /* \"#utility.yul\":10279:10656   */\n    tag_128:\n        /* \"#utility.yul\":10367:10370   */\n      0x00\n        /* \"#utility.yul\":10395:10434   */\n      tag_248\n        /* \"#utility.yul\":10428:10433   */\n      dup3\n        /* \"#utility.yul\":10395:10434   */\n      tag_100\n      jump\t// in\n    tag_248:\n        /* \"#utility.yul\":10450:10521   */\n      tag_249\n        /* \"#utility.yul\":10514:10520   */\n      dup2\n        /* \"#utility.yul\":10509:10512   */\n      dup6\n        /* \"#utility.yul\":10450:10521   */\n      tag_127\n      jump\t// in\n    tag_249:\n        /* \"#utility.yul\":10443:10521   */\n      swap4\n      pop\n        /* \"#utility.yul\":10530:10595   */\n      tag_250\n        /* \"#utility.yul\":10588:10594   */\n      dup2\n        /* \"#utility.yul\":10583:10586   */\n      dup6\n        /* \"#utility.yul\":10576:10580   */\n      0x20\n        /* \"#utility.yul\":10569:10574   */\n      dup7\n        /* \"#utility.yul\":10565:10581   */\n      add\n        /* \"#utility.yul\":10530:10595   */\n      tag_102\n      jump\t// in\n    tag_250:\n        /* \"#utility.yul\":10620:10649   */\n      tag_251\n        /* \"#utility.yul\":10642:10648   */\n      dup2\n        /* \"#utility.yul\":10620:10649   */\n      tag_103\n      jump\t// in\n    tag_251:\n        /* \"#utility.yul\":10615:10618   */\n      dup5\n        /* \"#utility.yul\":10611:10650   */\n      add\n        /* \"#utility.yul\":10604:10650   */\n      swap2\n      pop\n        /* \"#utility.yul\":10371:10656   */\n      pop\n        /* \"#utility.yul\":10279:10656   */\n      swap3\n      swap2\n      pop\n      pop\n      jump\t// out\n        /* \"#utility.yul\":10662:10780   */\n    tag_129:\n        /* \"#utility.yul\":10749:10773   */\n      tag_253\n        /* \"#utility.yul\":10767:10772   */\n      dup2\n        /* \"#utility.yul\":10749:10773   */\n      tag_106\n      jump\t// in\n    tag_253:\n        /* \"#utility.yul\":10744:10747   */\n      dup3\n        /* \"#utility.yul\":10737:10774   */\n      mstore\n        /* \"#utility.yul\":10662:10780   */\n      pop\n      pop\n      jump\t// out\n        /* \"#utility.yul\":10786:10904   */\n    tag_130:\n        /* \"#utility.yul\":10873:10897   */\n      tag_255\n        /* \"#utility.yul\":10891:10896   */\n      dup2\n        /* \"#utility.yul\":10873:10897   */\n      tag_108\n      jump\t// in\n    tag_255:\n        /* \"#utility.yul\":10868:10871   */\n      dup3\n        /* \"#utility.yul\":10861:10898   */\n      mstore\n        /* \"#utility.yul\":10786:10904   */\n      pop\n      pop\n      jump\t// out\n        /* \"#utility.yul\":10910:11645   */\n    tag_28:\n        /* \"#utility.yul\":11127:11131   */\n      0x00\n        /* \"#utility.yul\":11165:11168   */\n      0x80\n        /* \"#utility.yul\":11154:11163   */\n      dup3\n        /* \"#utility.yul\":11150:11169   */\n      add\n        /* \"#utility.yul\":11142:11169   */\n      swap1\n      pop\n        /* \"#utility.yul\":11215:11224   */\n      dup2\n        /* \"#utility.yul\":11209:11213   */\n      dup2\n        /* \"#utility.yul\":11205:11225   */\n      sub\n        /* \"#utility.yul\":11201:11202   */\n      0x00\n        /* \"#utility.yul\":11190:11199   */\n      dup4\n        /* \"#utility.yul\":11186:11203   */\n      add\n        /* \"#utility.yul\":11179:11226   */\n      mstore\n        /* \"#utility.yul\":11243:11321   */\n      tag_257\n        /* \"#utility.yul\":11316:11320   */\n      dup2\n        /* \"#utility.yul\":11307:11313   */\n      dup8\n        /* \"#utility.yul\":11243:11321   */\n      tag_128\n      jump\t// in\n    tag_257:\n        /* \"#utility.yul\":11235:11321   */\n      swap1\n      pop\n        /* \"#utility.yul\":11368:11377   */\n      dup2\n        /* \"#utility.yul\":11362:11366   */\n      dup2\n        /* \"#utility.yul\":11358:11378   */\n      sub\n        /* \"#utility.yul\":11353:11355   */\n      0x20\n        /* \"#utility.yul\":11342:11351   */\n      dup4\n        /* \"#utility.yul\":11338:11356   */\n      add\n        /* \"#utility.yul\":11331:11379   */\n      mstore\n        /* \"#utility.yul\":11396:11474   */\n      tag_258\n        /* \"#utility.yul\":11469:11473   */\n      dup2\n        /* \"#utility.yul\":11460:11466   */\n      dup7\n        /* \"#utility.yul\":11396:11474   */\n      tag_128\n      jump\t// in\n    tag_258:\n        /* \"#utility.yul\":11388:11474   */\n      swap1\n      pop\n        /* \"#utility.yul\":11484:11556   */\n      tag_259\n        /* \"#utility.yul\":11552:11554   */\n      0x40\n        /* \"#utility.yul\":11541:11550   */\n      dup4\n        /* \"#utility.yul\":11537:11555   */\n      add\n        /* \"#utility.yul\":11528:11534   */\n      dup6\n        /* \"#utility.yul\":11484:11556   */\n      tag_129\n      jump\t// in\n    tag_259:\n        /* \"#utility.yul\":11566:11638   */\n      tag_260\n        /* \"#utility.yul\":11634:11636   */\n      0x60\n        /* \"#utility.yul\":11623:11632   */\n      dup4\n        /* \"#utility.yul\":11619:11637   */\n      add\n        /* \"#utility.yul\":11610:11616   */\n      dup5\n        /* \"#utility.yul\":11566:11638   */\n      tag_130\n      jump\t// in\n    tag_260:\n        /* \"#utility.yul\":10910:11645   */\n      swap6\n      swap5\n      pop\n      pop\n      pop\n      pop\n      pop\n      jump\t// out\n        /* \"#utility.yul\":11651:11831   */\n    tag_131:\n        /* \"#utility.yul\":11699:11776   */\n      0x4e487b7100000000000000000000000000000000000000000000000000000000\n        /* \"#utility.yul\":11696:11697   */\n      0x00\n        /* \"#utility.yul\":11689:11777   */\n      mstore\n        /* \"#utility.yul\":11796:11800   */\n      0x22\n        /* \"#utility.yul\":11793:11794   */\n      0x04\n        /* \"#utility.yul\":11786:11801   */\n      mstore\n        /* \"#utility.yul\":11820:11824   */\n      0x24\n        /* \"#utility.yul\":11817:11818   */\n      0x00\n        /* \"#utility.yul\":11810:11825   */\n      revert\n        /* \"#utility.yul\":11837:12157   */\n    tag_41:\n        /* \"#utility.yul\":11881:11887   */\n      0x00\n        /* \"#utility.yul\":11918:11919   */\n      0x02\n        /* \"#utility.yul\":11912:11916   */\n      dup3\n        /* \"#utility.yul\":11908:11920   */\n      div\n        /* \"#utility.yul\":11898:11920   */\n      swap1\n      pop\n        /* \"#utility.yul\":11965:11966   */\n      0x01\n        /* \"#utility.yul\":11959:11963   */\n      dup3\n        /* \"#utility.yul\":11955:11967   */\n      and\n        /* \"#utility.yul\":11986:12004   */\n      dup1\n        /* \"#utility.yul\":11976:12057   */\n      tag_263\n      jumpi\n        /* \"#utility.yul\":12042:12046   */\n      0x7f\n        /* \"#utility.yul\":12034:12040   */\n      dup3\n        /* \"#utility.yul\":12030:12047   */\n      and\n        /* \"#utility.yul\":12020:12047   */\n      swap2\n      pop\n        /* \"#utility.yul\":11976:12057   */\n    tag_263:\n        /* \"#utility.yul\":12104:12106   */\n      0x20\n        /* \"#utility.yul\":12096:12102   */\n      dup3\n        /* \"#utility.yul\":12093:12107   */\n      lt\n        /* \"#utility.yul\":12073:12091   */\n      dup2\n        /* \"#utility.yul\":12070:12108   */\n      sub\n        /* \"#utility.yul\":12067:12151   */\n      tag_264\n      jumpi\n        /* \"#utility.yul\":12123:12141   */\n      tag_265\n      tag_131\n      jump\t// in\n    tag_265:\n        /* \"#utility.yul\":12067:12151   */\n    tag_264:\n        /* \"#utility.yul\":11888:12157   */\n      pop\n        /* \"#utility.yul\":11837:12157   */\n      swap2\n      swap1\n      pop\n      jump\t// out\n        /* \"#utility.yul\":12163:12343   */\n    tag_53:\n        /* \"#utility.yul\":12211:12288   */\n      0x4e487b7100000000000000000000000000000000000000000000000000000000\n        /* \"#utility.yul\":12208:12209   */\n      0x00\n        /* \"#utility.yul\":12201:12289   */\n      mstore\n        /* \"#utility.yul\":12308:12312   */\n      0x32\n        /* \"#utility.yul\":12305:12306   */\n      0x04\n        /* \"#utility.yul\":12298:12313   */\n      mstore\n        /* \"#utility.yul\":12332:12336   */\n      0x24\n        /* \"#utility.yul\":12329:12330   */\n      0x00\n        /* \"#utility.yul\":12322:12337   */\n      revert\n        /* \"#utility.yul\":12349:12490   */\n    tag_132:\n        /* \"#utility.yul\":12398:12402   */\n      0x00\n        /* \"#utility.yul\":12421:12424   */\n      dup2\n        /* \"#utility.yul\":12413:12424   */\n      swap1\n      pop\n        /* \"#utility.yul\":12444:12447   */\n      dup2\n        /* \"#utility.yul\":12441:12442   */\n      0x00\n        /* \"#utility.yul\":12434:12448   */\n      mstore\n        /* \"#utility.yul\":12478:12482   */\n      0x20\n        /* \"#utility.yul\":12475:12476   */\n      0x00\n        /* \"#utility.yul\":12465:12483   */\n      keccak256\n        /* \"#utility.yul\":12457:12483   */\n      swap1\n      pop\n        /* \"#utility.yul\":12349:12490   */\n      swap2\n      swap1\n      pop\n      jump\t// out\n        /* \"#utility.yul\":12496:12589   */\n    tag_133:\n        /* \"#utility.yul\":12533:12539   */\n      0x00\n        /* \"#utility.yul\":12580:12582   */\n      0x20\n        /* \"#utility.yul\":12575:12577   */\n      0x1f\n        /* \"#utility.yul\":12568:12573   */\n      dup4\n        /* \"#utility.yul\":12564:12578   */\n      add\n        /* \"#utility.yul\":12560:12583   */\n      div\n        /* \"#utility.yul\":12550:12583   */\n      swap1\n      pop\n        /* \"#utility.yul\":12496:12589   */\n      swap2\n      swap1\n      pop\n      jump\t// out\n        /* \"#utility.yul\":12595:12702   */\n    tag_134:\n        /* \"#utility.yul\":12639:12647   */\n      0x00\n        /* \"#utility.yul\":12689:12694   */\n      dup3\n        /* \"#utility.yul\":12683:12687   */\n      dup3\n        /* \"#utility.yul\":12679:12695   */\n      shl\n        /* \"#utility.yul\":12658:12695   */\n      swap1\n      pop\n        /* \"#utility.yul\":12595:12702   */\n      swap3\n      swap2\n      pop\n      pop\n      jump\t// out\n        /* \"#utility.yul\":12708:13101   */\n    tag_135:\n        /* \"#utility.yul\":12777:12783   */\n      0x00\n        /* \"#utility.yul\":12827:12828   */\n      0x08\n        /* \"#utility.yul\":12815:12825   */\n      dup4\n        /* \"#utility.yul\":12811:12829   */\n      mul\n        /* \"#utility.yul\":12850:12947   */\n      tag_271\n        /* \"#utility.yul\":12880:12946   */\n      0xffffffffffffffffffffffffffffffffffffffffffffffffffffffffffffffff\n        /* \"#utility.yul\":12869:12878   */\n      dup3\n        /* \"#utility.yul\":12850:12947   */\n      tag_134\n      jump\t// in\n    tag_271:\n        /* \"#utility.yul\":12968:13007   */\n      tag_272\n        /* \"#utility.yul\":12998:13006   */\n      dup7\n        /* \"#utility.yul\":12987:12996   */\n      dup4\n        /* \"#utility.yul\":12968:13007   */\n      tag_134\n      jump\t// in\n    tag_272:\n        /* \"#utility.yul\":12956:13007   */\n      swap6\n      pop\n        /* \"#utility.yul\":13040:13044   */\n      dup1\n        /* \"#utility.yul\":13036:13045   */\n      not\n        /* \"#utility.yul\":13029:13034   */\n      dup5\n        /* \"#utility.yul\":13025:13046   */\n      and\n        /* \"#utility.yul\":13016:13046   */\n      swap4\n      pop\n        /* \"#utility.yul\":13089:13093   */\n      dup1\n        /* \"#utility.yul\":13079:13087   */\n      dup7\n        /* \"#utility.yul\":13075:13094   */\n      and\n        /* \"#utility.yul\":13068:13073   */\n      dup5\n        /* \"#utility.yul\":13065:13095   */\n      or\n        /* \"#utility.yul\":13055:13095   */\n      swap3\n      pop\n        /* \"#utility.yul\":12784:13101   */\n      pop\n      pop\n        /* \"#utility.yul\":12708:13101   */\n      swap4\n      swap3\n      pop\n      pop\n      pop\n      jump\t// out\n        /* \"#utility.yul\":13107:13167   */\n    tag_136:\n        /* \"#utility.yul\":13135:13138   */\n      0x00\n        /* \"#utility.yul\":13156:13161   */\n      dup2\n        /* \"#utility.yul\":13149:13161   */\n      swap1\n      pop\n        /* \"#utility.yul\":13107:13167   */\n      swap2\n      swap1\n      pop\n      jump\t// out\n        /* \"#utility.yul\":13173:13315   */\n    tag_137:\n        /* \"#utility.yul\":13223:13232   */\n      0x00\n        /* \"#utility.yul\":13256:13309   */\n      tag_275\n        /* \"#utility.yul\":13274:13308   */\n      tag_276\n        /* \"#utility.yul\":13283:13307   */\n      tag_277\n        /* \"#utility.yul\":13301:13306   */\n      dup5\n        /* \"#utility.yul\":13283:13307   */\n      tag_108\n      jump\t// in\n    tag_277:\n        /* \"#utility.yul\":13274:13308   */\n      tag_136\n      jump\t// in\n    tag_276:\n        /* \"#utility.yul\":13256:13309   */\n      tag_108\n      jump\t// in\n    tag_275:\n        /* \"#utility.yul\":13243:13309   */\n      swap1\n      pop\n        /* \"#utility.yul\":13173:13315   */\n      swap2\n      swap1\n      pop\n      jump\t// out\n        /* \"#utility.yul\":13321:13396   */\n    tag_138:\n        /* \"#utility.yul\":13364:13367   */\n      0x00\n        /* \"#utility.yul\":13385:13390   */\n      dup2\n        /* \"#utility.yul\":13378:13390   */\n      swap1\n      pop\n        /* \"#utility.yul\":13321:13396   */\n      swap2\n      swap1\n      pop\n      jump\t// out\n        /* \"#utility.yul\":13402:13671   */\n    tag_139:\n        /* \"#utility.yul\":13512:13551   */\n      tag_280\n        /* \"#utility.yul\":13543:13550   */\n      dup4\n        /* \"#utility.yul\":13512:13551   */\n      tag_137\n      jump\t// in\n    tag_280:\n        /* \"#utility.yul\":13573:13664   */\n      tag_281\n        /* \"#utility.yul\":13622:13663   */\n      tag_282\n        /* \"#utility.yul\":13646:13662   */\n      dup3\n        /* \"#utility.yul\":13622:13663   */\n      tag_138\n      jump\t// in\n    tag_282:\n        /* \"#utility.yul\":13614:13620   */\n      dup5\n        /* \"#utility.yul\":13607:13611   */\n      dup5\n        /* \"#utility.yul\":13601:13612   */\n      sload\n        /* \"#utility.yul\":13573:13664   */\n      tag_135\n      jump\t// in\n    tag_281:\n        /* \"#utility.yul\":13567:13571   */\n      dup3\n        /* \"#utility.yul\":13560:13665   */\n      sstore\n        /* \"#utility.yul\":13478:13671   */\n      pop\n        /* \"#utility.yul\":13402:13671   */\n      pop\n      pop\n      pop\n      jump\t// out\n        /* \"#utility.yul\":13677:13750   */\n    tag_140:\n        /* \"#utility.yul\":13722:13725   */\n      0x00\n        /* \"#utility.yul\":13677:13750   */\n      swap1\n      jump\t// out\n        /* \"#utility.yul\":13756:13945   */\n    tag_141:\n        /* \"#utility.yul\":13833:13865   */\n      tag_285\n      tag_140\n      jump\t// in\n    tag_285:\n        /* \"#utility.yul\":13874:13939   */\n      tag_286\n        /* \"#utility.yul\":13932:13938   */\n      dup2\n        /* \"#utility.yul\":13924:13930   */\n      dup5\n        /* \"#utility.yul\":13918:13922   */\n      dup5\n        /* \"#utility.yul\":13874:13939   */\n      tag_139\n      jump\t// in\n    tag_286:\n        /* \"#utility.yul\":13809:13945   */\n      pop\n        /* \"#utility.yul\":13756:13945   */\n      pop\n      pop\n      jump\t// out\n        /* \"#utility.yul\":13951:14137   */\n    tag_142:\n        /* \"#utility.yul\":14011:14131   */\n    tag_288:\n        /* \"#utility.yul\":14028:14031   */\n      dup2\n        /* \"#utility.yul\":14021:14026   */\n      dup2\n        /* \"#utility.yul\":14018:14032   */\n      lt\n        /* \"#utility.yul\":14011:14131   */\n      iszero\n      tag_290\n      jumpi\n        /* \"#utility.yul\":14082:14121   */\n      tag_291\n        /* \"#utility.yul\":14119:14120   */\n      0x00\n        /* \"#utility.yul\":14112:14117   */\n      dup3\n        /* \"#utility.yul\":14082:14121   */\n      tag_141\n      jump\t// in\n    tag_291:\n        /* \"#utility.yul\":14055:14056   */\n      0x01\n        /* \"#utility.yul\":14048:14053   */\n      dup2\n        /* \"#utility.yul\":14044:14057   */\n      add\n        /* \"#utility.yul\":14035:14057   */\n      swap1\n      pop\n        /* \"#utility.yul\":14011:14131   */\n      jump(tag_288)\n    tag_290:\n        /* \"#utility.yul\":13951:14137   */\n      pop\n      pop\n      jump\t// out\n        /* \"#utility.yul\":14143:14686   */\n    tag_143:\n        /* \"#utility.yul\":14244:14246   */\n      0x1f\n        /* \"#utility.yul\":14239:14242   */\n      dup3\n        /* \"#utility.yul\":14236:14247   */\n      gt\n        /* \"#utility.yul\":14233:14679   */\n      iszero\n      tag_293\n      jumpi\n        /* \"#utility.yul\":14278:14316   */\n      tag_294\n        /* \"#utility.yul\":14310:14315   */\n      dup2\n        /* \"#utility.yul\":14278:14316   */\n      tag_132\n      jump\t// in\n    tag_294:\n        /* \"#utility.yul\":14362:14391   */\n      tag_295\n        /* \"#utility.yul\":14380:14390   */\n      dup5\n        /* \"#utility.yul\":14362:14391   */\n      tag_133\n      jump\t// in\n    tag_295:\n        /* \"#utility.yul\":14352:14360   */\n      dup2\n        /* \"#utility.yul\":14348:14392   */\n      add\n        /* \"#utility.yul\":14545:14547   */\n      0x20\n        /* \"#utility.yul\":14533:14543   */\n      dup6\n        /* \"#utility.yul\":14530:14548   */\n      lt\n        /* \"#utility.yul\":14527:14576   */\n      iszero\n      tag_296\n      jumpi\n        /* \"#utility.yul\":14566:14574   */\n      dup2\n        /* \"#utility.yul\":14551:14574   */\n      swap1\n      pop\n        /* \"#utility.yul\":14527:14576   */\n    tag_296:\n        /* \"#utility.yul\":14589:14669   */\n      tag_297\n        /* \"#utility.yul\":14645:14667   */\n      tag_298\n        /* \"#utility.yul\":14663:14666   */\n      dup6\n        /* \"#utility.yul\":14645:14667   */\n      tag_133\n      jump\t// in\n    tag_298:\n        /* \"#utility.yul\":14635:14643   */\n      dup4\n        /* \"#utility.yul\":14631:14668   */\n      add\n        /* \"#utility.yul\":14618:14629   */\n      dup3\n        /* \"#utility.yul\":14589:14669   */\n      tag_142\n      jump\t// in\n    tag_297:\n        /* \"#utility.yul\":14248:14679   */\n      pop\n      pop\n        /* \"#utility.yul\":14233:14679   */\n    tag_293:\n        /* \"#utility.yul\":14143:14686   */\n      pop\n      pop\n      pop\n      jump\t// out\n        /* \"#utility.yul\":14692:14809   */\n    tag_144:\n        /* \"#utility.yul\":14746:14754   */\n      0x00\n        /* \"#utility.yul\":14796:14801   */\n      dup3\n        /* \"#utility.yul\":14790:14794   */\n      dup3\n        /* \"#utility.yul\":14786:14802   */\n      shr\n        /* \"#utility.yul\":14765:14802   */\n      swap1\n      pop\n        /* \"#utility.yul\":14692:14809   */\n      swap3\n      swap2\n      pop\n      pop\n      jump\t// out\n        /* \"#utility.yul\":14815:14984   */\n    tag_145:\n        /* \"#utility.yul\":14859:14865   */\n      0x00\n        /* \"#utility.yul\":14892:14943   */\n      tag_301\n        /* \"#utility.yul\":14940:14941   */\n      0x00\n        /* \"#utility.yul\":14936:14942   */\n      not\n        /* \"#utility.yul\":14928:14933   */\n      dup5\n        /* \"#utility.yul\":14925:14926   */\n      0x08\n        /* \"#utility.yul\":14921:14934   */\n      mul\n        /* \"#utility.yul\":14892:14943   */\n      tag_144\n      jump\t// in\n    tag_301:\n        /* \"#utility.yul\":14888:14944   */\n      not\n        /* \"#utility.yul\":14973:14977   */\n      dup1\n        /* \"#utility.yul\":14967:14971   */\n      dup4\n        /* \"#utility.yul\":14963:14978   */\n      and\n        /* \"#utility.yul\":14953:14978   */\n      swap2\n      pop\n        /* \"#utility.yul\":14866:14984   */\n      pop\n        /* \"#utility.yul\":14815:14984   */\n      swap3\n      swap2\n      pop\n      pop\n      jump\t// out\n        /* \"#utility.yul\":14989:15284   */\n    tag_146:\n        /* \"#utility.yul\":15065:15069   */\n      0x00\n        /* \"#utility.yul\":15211:15240   */\n      tag_303\n        /* \"#utility.yul\":15236:15239   */\n      dup4\n        /* \"#utility.yul\":15230:15234   */\n      dup4\n        /* \"#utility.yul\":15211:15240   */\n      tag_145\n      jump\t// in\n    tag_303:\n        /* \"#utility.yul\":15203:15240   */\n      swap2\n      pop\n        /* \"#utility.yul\":15273:15276   */\n      dup3\n        /* \"#utility.yul\":15270:15271   */\n      0x02\n        /* \"#utility.yul\":15266:15277   */\n      mul\n        /* \"#utility.yul\":15260:15264   */\n      dup3\n        /* \"#utility.yul\":15257:15278   */\n      or\n        /* \"#utility.yul\":15249:15278   */\n      swap1\n      pop\n        /* \"#utility.yul\":14989:15284   */\n      swap3\n      swap2\n      pop\n      pop\n      jump\t// out\n        /* \"#utility.yul\":15289:16684   */\n    tag_56:\n        /* \"#utility.yul\":15406:15443   */\n      tag_305\n        /* \"#utility.yul\":15439:15442   */\n      dup3\n        /* \"#utility.yul\":15406:15443   */\n      tag_100\n      jump\t// in\n    tag_305:\n        /* \"#utility.yul\":15508:15526   */\n      0xffffffffffffffff\n        /* \"#utility.yul\":15500:15506   */\n      dup2\n        /* \"#utility.yul\":15497:15527   */\n      gt\n        /* \"#utility.yul\":15494:15550   */\n      iszero\n      tag_306\n      jumpi\n        /* \"#utility.yul\":15530:15548   */\n      tag_307\n      tag_32\n      jump\t// in\n    tag_307:\n        /* \"#utility.yul\":15494:15550   */\n    tag_306:\n        /* \"#utility.yul\":15574:15612   */\n      tag_308\n        /* \"#utility.yul\":15606:15610   */\n      dup3\n        /* \"#utility.yul\":15600:15611   */\n      sload\n        /* \"#utility.yul\":15574:15612   */\n      tag_41\n      jump\t// in\n    tag_308:\n        /* \"#utility.yul\":15659:15726   */\n      tag_309\n        /* \"#utility.yul\":15719:15725   */\n      dup3\n        /* \"#utility.yul\":15711:15717   */\n      dup3\n        /* \"#utility.yul\":15705:15709   */\n      dup6\n        /* \"#utility.yul\":15659:15726   */\n      tag_143\n      jump\t// in\n    tag_309:\n        /* \"#utility.yul\":15753:15754   */\n      0x00\n        /* \"#utility.yul\":15777:15781   */\n      0x20\n        /* \"#utility.yul\":15764:15781   */\n      swap1\n      pop\n        /* \"#utility.yul\":15809:15811   */\n      0x1f\n        /* \"#utility.yul\":15801:15807   */\n      dup4\n        /* \"#utility.yul\":15798:15812   */\n      gt\n        /* \"#utility.yul\":15826:15827   */\n      0x01\n        /* \"#utility.yul\":15821:16439   */\n      dup2\n      eq\n      tag_311\n      jumpi\n        /* \"#utility.yul\":16483:16484   */\n      0x00\n        /* \"#utility.yul\":16500:16506   */\n      dup5\n        /* \"#utility.yul\":16497:16574   */\n      iszero\n      tag_312\n      jumpi\n        /* \"#utility.yul\":16549:16558   */\n      dup3\n        /* \"#utility.yul\":16544:16547   */\n      dup8\n        /* \"#utility.yul\":16540:16559   */\n      add\n        /* \"#utility.yul\":16534:16560   */\n      mload\n        /* \"#utility.yul\":16525:16560   */\n      swap1\n      pop\n        /* \"#utility.yul\":16497:16574   */\n    tag_312:\n        /* \"#utility.yul\":16600:16667   */\n      tag_313\n        /* \"#utility.yul\":16660:16666   */\n      dup6\n        /* \"#utility.yul\":16653:16658   */\n      dup3\n        /* \"#utility.yul\":16600:16667   */\n      tag_146\n      jump\t// in\n    tag_313:\n        /* \"#utility.yul\":16594:16598   */\n      dup7\n        /* \"#utility.yul\":16587:16668   */\n      sstore\n        /* \"#utility.yul\":16456:16678   */\n      pop\n        /* \"#utility.yul\":15791:16678   */\n      jump(tag_310)\n        /* \"#utility.yul\":15821:16439   */\n    tag_311:\n        /* \"#utility.yul\":15873:15877   */\n      0x1f\n        /* \"#utility.yul\":15869:15878   */\n      not\n        /* \"#utility.yul\":15861:15867   */\n      dup5\n        /* \"#utility.yul\":15857:15879   */\n      and\n        /* \"#utility.yul\":15907:15944   */\n      tag_314\n        /* \"#utility.yul\":15939:15943   */\n      dup7\n        /* \"#utility.yul\":15907:15944   */\n      tag_132\n      jump\t// in\n    tag_314:\n        /* \"#utility.yul\":15966:15967   */\n      0x00\n        /* \"#utility.yul\":15980:16188   */\n    tag_315:\n        /* \"#utility.yul\":15994:16001   */\n      dup3\n        /* \"#utility.yul\":15991:15992   */\n      dup2\n        /* \"#utility.yul\":15988:16002   */\n      lt\n        /* \"#utility.yul\":15980:16188   */\n      iszero\n      tag_317\n      jumpi\n        /* \"#utility.yul\":16073:16082   */\n      dup5\n        /* \"#utility.yul\":16068:16071   */\n      dup10\n        /* \"#utility.yul\":16064:16083   */\n      add\n        /* \"#utility.yul\":16058:16084   */\n      mload\n        /* \"#utility.yul\":16050:16056   */\n      dup3\n        /* \"#utility.yul\":16043:16085   */\n      sstore\n        /* \"#utility.yul\":16124:16125   */\n      0x01\n        /* \"#utility.yul\":16116:16122   */\n      dup3\n        /* \"#utility.yul\":16112:16126   */\n      add\n        /* \"#utility.yul\":16102:16126   */\n      swap2\n      pop\n        /* \"#utility.yul\":16171:16173   */\n      0x20\n        /* \"#utility.yul\":16160:16169   */\n      dup6\n        /* \"#utility.yul\":16156:16174   */\n      add\n        /* \"#utility.yul\":16143:16174   */\n      swap5\n      pop\n        /* \"#utility.yul\":16017:16021   */\n      0x20\n        /* \"#utility.yul\":16014:16015   */\n      dup2\n        /* \"#utility.yul\":16010:16022   */\n      add\n        /* \"#utility.yul\":16005:16022   */\n      swap1\n      pop\n        /* \"#utility.yul\":15980:16188   */\n      jump(tag_315)\n    tag_317:\n        /* \"#utility.yul\":16216:16222   */\n      dup7\n        /* \"#utility.yul\":16207:16214   */\n      dup4\n        /* \"#utility.yul\":16204:16223   */\n      lt\n        /* \"#utility.yul\":16201:16380   */\n      iszero\n      tag_318\n      jumpi\n        /* \"#utility.yul\":16274:16283   */\n      dup5\n        /* \"#utility.yul\":16269:16272   */\n      dup10\n        /* \"#utility.yul\":16265:16284   */\n      add\n        /* \"#utility.yul\":16259:16285   */\n      mload\n        /* \"#utility.yul\":16317:16365   */\n      tag_319\n        /* \"#utility.yul\":16359:16363   */\n      0x1f\n        /* \"#utility.yul\":16351:16357   */\n      dup10\n        /* \"#utility.yul\":16347:16364   */\n      and\n        /* \"#utility.yul\":16336:16345   */\n      dup3\n        /* \"#utility.yul\":16317:16365   */\n      tag_145\n      jump\t// in\n    tag_319:\n        /* \"#utility.yul\":16309:16315   */\n      dup4\n        /* \"#utility.yul\":16302:16366   */\n      sstore\n        /* \"#utility.yul\":16224:16380   */\n      pop\n        /* \"#utility.yul\":16201:16380   */\n    tag_318:\n        /* \"#utility.yul\":16426:16427   */\n      0x01\n        /* \"#utility.yul\":16422:16423   */\n      0x02\n        /* \"#utility.yul\":16414:16420   */\n      dup9\n        /* \"#utility.yul\":16410:16424   */\n      mul\n        /* \"#utility.yul\":16406:16428   */\n      add\n        /* \"#utility.yul\":16400:16404   */\n      dup9\n        /* \"#utility.yul\":16393:16429   */\n      sstore\n        /* \"#utility.yul\":15828:16439   */\n      pop\n      pop\n      pop\n        /* \"#utility.yul\":15791:16678   */\n    tag_310:\n      pop\n        /* \"#utility.yul\":15381:16684   */\n      pop\n      pop\n      pop\n        /* \"#utility.yul\":15289:16684   */\n      pop\n      pop\n      jump\t// out\n        /* \"#utility.yul\":16690:16870   */\n    tag_147:\n        /* \"#utility.yul\":16738:16815   */\n      0x4e487b7100000000000000000000000000000000000000000000000000000000\n        /* \"#utility.yul\":16735:16736   */\n      0x00\n        /* \"#utility.yul\":16728:16816   */\n      mstore\n        /* \"#utility.yul\":16835:16839   */\n      0x11\n        /* \"#utility.yul\":16832:16833   */\n      0x04\n        /* \"#utility.yul\":16825:16840   */\n      mstore\n        /* \"#utility.yul\":16859:16863   */\n      0x24\n        /* \"#utility.yul\":16856:16857   */\n      0x00\n        /* \"#utility.yul\":16849:16864   */\n      revert\n        /* \"#utility.yul\":16876:17109   */\n    tag_59:\n        /* \"#utility.yul\":16915:16918   */\n      0x00\n        /* \"#utility.yul\":16938:16962   */\n      tag_322\n        /* \"#utility.yul\":16956:16961   */\n      dup3\n        /* \"#utility.yul\":16938:16962   */\n      tag_108\n      jump\t// in\n    tag_322:\n        /* \"#utility.yul\":16929:16962   */\n      swap2\n      pop\n        /* \"#utility.yul\":16984:17050   */\n      0xffffffffffffffffffffffffffffffffffffffffffffffffffffffffffffffff\n        /* \"#utility.yul\":16977:16982   */\n      dup3\n        /* \"#utility.yul\":16974:17051   */\n      sub\n        /* \"#utility.yul\":16971:17074   */\n      tag_323\n      jumpi\n        /* \"#utility.yul\":17054:17072   */\n      tag_324\n      tag_147\n      jump\t// in\n    tag_324:\n        /* \"#utility.yul\":16971:17074   */\n    tag_323:\n        /* \"#utility.yul\":17101:17102   */\n      0x01\n        /* \"#utility.yul\":17094:17099   */\n      dup3\n        /* \"#utility.yul\":17090:17103   */\n      add\n        /* \"#utility.yul\":17083:17103   */\n      swap1\n      pop\n        /* \"#utility.yul\":16876:17109   */\n      swap2\n      swap1\n      pop\n      jump\t// out\n        /* \"#utility.yul\":17115:17309   */\n    tag_61:\n        /* \"#utility.yul\":17155:17159   */\n      0x00\n        /* \"#utility.yul\":17175:17195   */\n      tag_326\n        /* \"#utility.yul\":17193:17194   */\n      dup3\n        /* \"#utility.yul\":17175:17195   */\n      tag_108\n      jump\t// in\n    tag_326:\n        /* \"#utility.yul\":17170:17195   */\n      swap2\n      pop\n        /* \"#utility.yul\":17209:17229   */\n      tag_327\n        /* \"#utility.yul\":17227:17228   */\n      dup4\n        /* \"#utility.yul\":17209:17229   */\n      tag_108\n      jump\t// in\n    tag_327:\n        /* \"#utility.yul\":17204:17229   */\n      swap3\n      pop\n        /* \"#utility.yul\":17253:17254   */\n      dup3\n        /* \"#utility.yul\":17250:17251   */\n      dup3\n        /* \"#utility.yul\":17246:17255   */\n      sub\n        /* \"#utility.yul\":17238:17255   */\n      swap1\n      pop\n        /* \"#utility.yul\":17277:17278   */\n      dup2\n        /* \"#utility.yul\":17271:17275   */\n      dup2\n        /* \"#utility.yul\":17268:17279   */\n      gt\n        /* \"#utility.yul\":17265:17302   */\n      iszero\n      tag_328\n      jumpi\n        /* \"#utility.yul\":17282:17300   */\n      tag_329\n      tag_147\n      jump\t// in\n    tag_329:\n        /* \"#utility.yul\":17265:17302   */\n    tag_328:\n        /* \"#utility.yul\":17115:17309   */\n      swap3\n      swap2\n      pop\n      pop\n      jump\t// out\n        /* \"#utility.yul\":17315:17829   */\n    tag_63:\n        /* \"#utility.yul\":17476:17480   */\n      0x00\n        /* \"#utility.yul\":17514:17516   */\n      0x40\n        /* \"#utility.yul\":17503:17512   */\n      dup3\n        /* \"#utility.yul\":17499:17517   */\n      add\n        /* \"#utility.yul\":17491:17517   */\n      swap1\n      pop\n        /* \"#utility.yul\":17563:17572   */\n      dup2\n        /* \"#utility.yul\":17557:17561   */\n      dup2\n        /* \"#utility.yul\":17553:17573   */\n      sub\n        /* \"#utility.yul\":17549:17550   */\n      0x00\n        /* \"#utility.yul\":17538:17547   */\n      dup4\n        /* \"#utility.yul\":17534:17551   */\n      add\n        /* \"#utility.yul\":17527:17574   */\n      mstore\n        /* \"#utility.yul\":17591:17669   */\n      tag_331\n        /* \"#utility.yul\":17664:17668   */\n      dup2\n        /* \"#utility.yul\":17655:17661   */\n      dup6\n        /* \"#utility.yul\":17591:17669   */\n      tag_128\n      jump\t// in\n    tag_331:\n        /* \"#utility.yul\":17583:17669   */\n      swap1\n      pop\n        /* \"#utility.yul\":17716:17725   */\n      dup2\n        /* \"#utility.yul\":17710:17714   */\n      dup2\n        /* \"#utility.yul\":17706:17726   */\n      sub\n        /* \"#utility.yul\":17701:17703   */\n      0x20\n        /* \"#utility.yul\":17690:17699   */\n      dup4\n        /* \"#utility.yul\":17686:17704   */\n      add\n        /* \"#utility.yul\":17679:17727   */\n      mstore\n        /* \"#utility.yul\":17744:17822   */\n      tag_332\n        /* \"#utility.yul\":17817:17821   */\n      dup2\n        /* \"#utility.yul\":17808:17814   */\n      dup5\n        /* \"#utility.yul\":17744:17822   */\n      tag_128\n      jump\t// in\n    tag_332:\n        /* \"#utility.yul\":17736:17822   */\n      swap1\n      pop\n        /* \"#utility.yul\":17315:17829   */\n      swap4\n      swap3\n      pop\n      pop\n      pop\n      jump\t// out\n        /* \"#utility.yul\":17835:18006   */\n    tag_148:\n        /* \"#utility.yul\":17975:17998   */\n      0x48657272616d69656e7461206e6f206578697374650000000000000000000000\n        /* \"#utility.yul\":17971:17972   */\n      0x00\n        /* \"#utility.yul\":17963:17969   */\n      dup3\n        /* \"#utility.yul\":17959:17973   */\n      add\n        /* \"#utility.yul\":17952:17999   */\n      mstore\n        /* \"#utility.yul\":17835:18006   */\n      pop\n      jump\t// out\n        /* \"#utility.yul\":18012:18378   */\n    tag_149:\n        /* \"#utility.yul\":18154:18157   */\n      0x00\n        /* \"#utility.yul\":18175:18242   */\n      tag_335\n        /* \"#utility.yul\":18239:18241   */\n      0x15\n        /* \"#utility.yul\":18234:18237   */\n      dup4\n        /* \"#utility.yul\":18175:18242   */\n      tag_127\n      jump\t// in\n    tag_335:\n        /* \"#utility.yul\":18168:18242   */\n      swap2\n      pop\n        /* \"#utility.yul\":18251:18344   */\n      tag_336\n        /* \"#utility.yul\":18340:18343   */\n      dup3\n        /* \"#utility.yul\":18251:18344   */\n      tag_148\n      jump\t// in\n    tag_336:\n        /* \"#utility.yul\":18369:18371   */\n      0x20\n        /* \"#utility.yul\":18364:18367   */\n      dup3\n        /* \"#utility.yul\":18360:18372   */\n      add\n        /* \"#utility.yul\":18353:18372   */\n      swap1\n      pop\n        /* \"#utility.yul\":18012:18378   */\n      swap2\n      swap1\n      pop\n      jump\t// out\n        /* \"#utility.yul\":18384:18803   */\n    tag_67:\n        /* \"#utility.yul\":18550:18554   */\n      0x00\n        /* \"#utility.yul\":18588:18590   */\n      0x20\n        /* \"#utility.yul\":18577:18586   */\n      dup3\n        /* \"#utility.yul\":18573:18591   */\n      add\n        /* \"#utility.yul\":18565:18591   */\n      swap1\n      pop\n        /* \"#utility.yul\":18637:18646   */\n      dup2\n        /* \"#utility.yul\":18631:18635   */\n      dup2\n        /* \"#utility.yul\":18627:18647   */\n      sub\n        /* \"#utility.yul\":18623:18624   */\n      0x00\n        /* \"#utility.yul\":18612:18621   */\n      dup4\n        /* \"#utility.yul\":18608:18625   */\n      add\n        /* \"#utility.yul\":18601:18648   */\n      mstore\n        /* \"#utility.yul\":18665:18796   */\n      tag_338\n        /* \"#utility.yul\":18791:18795   */\n      dup2\n        /* \"#utility.yul\":18665:18796   */\n      tag_149\n      jump\t// in\n    tag_338:\n        /* \"#utility.yul\":18657:18796   */\n      swap1\n      pop\n        /* \"#utility.yul\":18384:18803   */\n      swap2\n      swap1\n      pop\n      jump\t// out\n\n    auxdata: 0xa264697066735822122054b77b83f6ba09ffc1d0dabda976f818dd0d20958adbcd365b4b095e6d22616964736f6c63430008190033\n}\n",
				"bytecode": {
					"linkReferences": {},
					"object": "60806040525f6001553480156012575f80fd5b506111ed806100205f395ff3fe608060405234801561000f575f80fd5b5060043610610055575f3560e01c80637cc5e41c1461005957806394cec54b146100775780639ef0724414610093578063d62ac10c146100af578063e2921ea5146100cb575b5f80fd5b6100616100fe565b60405161006e9190610a16565b60405180910390f35b610091600480360381019061008c9190610b73565b610331565b005b6100ad60048036038101906100a89190610c13565b61045e565b005b6100c960048036038101906100c49190610c3e565b61052f565b005b6100e560048036038101906100e09190610c13565b6105e9565b6040516100f59493929190610d2c565b60405180910390f35b60605f60015467ffffffffffffffff81111561011d5761011c610a4f565b5b60405190808252806020026020018201604052801561015657816020015b610143610799565b81526020019060019003908161013b5790505b5090505f5b600154811015610329575f808281526020019081526020015f206040518060800160405290815f8201805461018f90610daa565b80601f01602080910402602001604051908101604052809291908181526020018280546101bb90610daa565b80156102065780601f106101dd57610100808354040283529160200191610206565b820191905f5260205f20905b8154815290600101906020018083116101e957829003601f168201915b5050505050815260200160018201805461021f90610daa565b80601f016020809104026020016040519081016040528092919081815260200182805461024b90610daa565b80156102965780601f1061026d57610100808354040283529160200191610296565b820191905f5260205f20905b81548152906001019060200180831161027957829003601f168201915b50505050508152602001600282015f9054906101000a900473ffffffffffffffffffffffffffffffffffffffff1673ffffffffffffffffffffffffffffffffffffffff1673ffffffffffffffffffffffffffffffffffffffff16815260200160038201548152505082828151811061031157610310610dda565b5b6020026020010181905250808060010191505061015b565b508091505090565b5f60405180608001604052808481526020018381526020013373ffffffffffffffffffffffffffffffffffffffff168152602001428152509050805f8060015481526020019081526020015f205f820151815f0190816103919190610fa4565b5060208201518160010190816103a79190610fa4565b506040820151816002015f6101000a81548173ffffffffffffffffffffffffffffffffffffffff021916908373ffffffffffffffffffffffffffffffffffffffff1602179055506060820151816003015590505060015f81548092919061040d906110a0565b91905055506001805461042091906110e7565b7f2e80a924c7797346825e24b6d35c6bfb3b329db31cbcc1a2cc087e79932f1f07848460405161045192919061111a565b60405180910390a2505050565b60015481106104a2576040517f08c379a000000000000000000000000000000000000000000000000000000000815260040161049990611199565b60405180910390fd5b5f808281526020019081526020015f205f8082015f6104c191906107d5565b600182015f6104d091906107d5565b600282015f6101000a81549073ffffffffffffffffffffffffffffffffffffffff0219169055600382015f90555050807f6b8b19fc5f5218056f214a8ec905eee5cd61f29b46231c273340050d340ed59960405160405180910390a250565b6001548310610573576040517f08c379a000000000000000000000000000000000000000000000000000000000815260040161056a90611199565b60405180910390fd5b5f805f8581526020019081526020015f20905082815f0190816105969190610fa4565b50818160010190816105a89190610fa4565b50837fbca83537e657e46f599579d0330396d6ff30198890806da12350a50bfd08cfb084846040516105db92919061111a565b60405180910390a250505050565b6060805f806001548510610632576040517f08c379a000000000000000000000000000000000000000000000000000000000815260040161062990611199565b60405180910390fd5b5f805f8781526020019081526020015f209050805f0181600101826002015f9054906101000a900473ffffffffffffffffffffffffffffffffffffffff16836003015483805461068190610daa565b80601f01602080910402602001604051908101604052809291908181526020018280546106ad90610daa565b80156106f85780601f106106cf576101008083540402835291602001916106f8565b820191905f5260205f20905b8154815290600101906020018083116106db57829003601f168201915b5050505050935082805461070b90610daa565b80601f016020809104026020016040519081016040528092919081815260200182805461073790610daa565b80156107825780601f1061075957610100808354040283529160200191610782565b820191905f5260205f20905b81548152906001019060200180831161076557829003601f168201915b505050505092509450945094509450509193509193565b604051806080016040528060608152602001606081526020015f73ffffffffffffffffffffffffffffffffffffffff1681526020015f81525090565b5080546107e190610daa565b5f825580601f106107f2575061080f565b601f0160209004905f5260205f209081019061080e9190610812565b5b50565b5b80821115610829575f815f905550600101610813565b5090565b5f81519050919050565b5f82825260208201905092915050565b5f819050602082019050919050565b5f81519050919050565b5f82825260208201905092915050565b8281835e5f83830152505050565b5f601f19601f8301169050919050565b5f61089882610856565b6108a28185610860565b93506108b2818560208601610870565b6108bb8161087e565b840191505092915050565b5f73ffffffffffffffffffffffffffffffffffffffff82169050919050565b5f6108ef826108c6565b9050919050565b6108ff816108e5565b82525050565b5f819050919050565b61091781610905565b82525050565b5f608083015f8301518482035f860152610937828261088e565b91505060208301518482036020860152610951828261088e565b915050604083015161096660408601826108f6565b506060830151610979606086018261090e565b508091505092915050565b5f61098f838361091d565b905092915050565b5f602082019050919050565b5f6109ad8261082d565b6109b78185610837565b9350836020820285016109c985610847565b805f5b85811015610a0457848403895281516109e58582610984565b94506109f083610997565b925060208a019950506001810190506109cc565b50829750879550505050505092915050565b5f6020820190508181035f830152610a2e81846109a3565b905092915050565b5f604051905090565b5f80fd5b5f80fd5b5f80fd5b5f80fd5b7f4e487b71000000000000000000000000000000000000000000000000000000005f52604160045260245ffd5b610a858261087e565b810181811067ffffffffffffffff82111715610aa457610aa3610a4f565b5b80604052505050565b5f610ab6610a36565b9050610ac28282610a7c565b919050565b5f67ffffffffffffffff821115610ae157610ae0610a4f565b5b610aea8261087e565b9050602081019050919050565b828183375f83830152505050565b5f610b17610b1284610ac7565b610aad565b905082815260208101848484011115610b3357610b32610a4b565b5b610b3e848285610af7565b509392505050565b5f82601f830112610b5a57610b59610a47565b5b8135610b6a848260208601610b05565b91505092915050565b5f8060408385031215610b8957610b88610a3f565b5b5f83013567ffffffffffffffff811115610ba657610ba5610a43565b5b610bb285828601610b46565b925050602083013567ffffffffffffffff811115610bd357610bd2610a43565b5b610bdf85828601610b46565b9150509250929050565b610bf281610905565b8114610bfc575f80fd5b50565b5f81359050610c0d81610be9565b92915050565b5f60208284031215610c2857610c27610a3f565b5b5f610c3584828501610bff565b91505092915050565b5f805f60608486031215610c5557610c54610a3f565b5b5f610c6286828701610bff565b935050602084013567ffffffffffffffff811115610c8357610c82610a43565b5b610c8f86828701610b46565b925050604084013567ffffffffffffffff811115610cb057610caf610a43565b5b610cbc86828701610b46565b9150509250925092565b5f82825260208201905092915050565b5f610ce082610856565b610cea8185610cc6565b9350610cfa818560208601610870565b610d038161087e565b840191505092915050565b610d17816108e5565b82525050565b610d2681610905565b82525050565b5f6080820190508181035f830152610d448187610cd6565b90508181036020830152610d588186610cd6565b9050610d676040830185610d0e565b610d746060830184610d1d565b95945050505050565b7f4e487b71000000000000000000000000000000000000000000000000000000005f52602260045260245ffd5b5f6002820490506001821680610dc157607f821691505b602082108103610dd457610dd3610d7d565b5b50919050565b7f4e487b71000000000000000000000000000000000000000000000000000000005f52603260045260245ffd5b5f819050815f5260205f209050919050565b5f6020601f8301049050919050565b5f82821b905092915050565b5f60088302610e637fffffffffffffffffffffffffffffffffffffffffffffffffffffffffffffffff82610e28565b610e6d8683610e28565b95508019841693508086168417925050509392505050565b5f819050919050565b5f610ea8610ea3610e9e84610905565b610e85565b610905565b9050919050565b5f819050919050565b610ec183610e8e565b610ed5610ecd82610eaf565b848454610e34565b825550505050565b5f90565b610ee9610edd565b610ef4818484610eb8565b505050565b5b81811015610f1757610f0c5f82610ee1565b600181019050610efa565b5050565b601f821115610f5c57610f2d81610e07565b610f3684610e19565b81016020851015610f45578190505b610f59610f5185610e19565b830182610ef9565b50505b505050565b5f82821c905092915050565b5f610f7c5f1984600802610f61565b1980831691505092915050565b5f610f948383610f6d565b9150826002028217905092915050565b610fad82610856565b67ffffffffffffffff811115610fc657610fc5610a4f565b5b610fd08254610daa565b610fdb828285610f1b565b5f60209050601f83116001811461100c575f8415610ffa578287015190505b6110048582610f89565b86555061106b565b601f19841661101a86610e07565b5f5b828110156110415784890151825560018201915060208501945060208101905061101c565b8683101561105e578489015161105a601f891682610f6d565b8355505b6001600288020188555050505b505050505050565b7f4e487b71000000000000000000000000000000000000000000000000000000005f52601160045260245ffd5b5f6110aa82610905565b91507fffffffffffffffffffffffffffffffffffffffffffffffffffffffffffffffff82036110dc576110db611073565b5b600182019050919050565b5f6110f182610905565b91506110fc83610905565b925082820390508181111561111457611113611073565b5b92915050565b5f6040820190508181035f8301526111328185610cd6565b905081810360208301526111468184610cd6565b90509392505050565b7f48657272616d69656e7461206e6f2065786973746500000000000000000000005f82015250565b5f611183601583610cc6565b915061118e8261114f565b602082019050919050565b5f6020820190508181035f8301526111b081611177565b905091905056fea264697066735822122054b77b83f6ba09ffc1d0dabda976f818dd0d20958adbcd365b4b095e6d22616964736f6c63430008190033",
					"opcodes": "PUSH1 0x80 PUSH1 0x40 MSTORE PUSH0 PUSH1 0x1 SSTORE CALLVALUE DUP1 ISZERO PUSH1 0x12 JUMPI PUSH0 DUP1 REVERT JUMPDEST POP PUSH2 0x11ED DUP1 PUSH2 0x20 PUSH0 CODECOPY PUSH0 RETURN INVALID PUSH1 0x80 PUSH1 0x40 MSTORE CALLVALUE DUP1 ISZERO PUSH2 0xF JUMPI PUSH0 DUP1 REVERT JUMPDEST POP PUSH1 0x4 CALLDATASIZE LT PUSH2 0x55 JUMPI PUSH0 CALLDATALOAD PUSH1 0xE0 SHR DUP1 PUSH4 0x7CC5E41C EQ PUSH2 0x59 JUMPI DUP1 PUSH4 0x94CEC54B EQ PUSH2 0x77 JUMPI DUP1 PUSH4 0x9EF07244 EQ PUSH2 0x93 JUMPI DUP1 PUSH4 0xD62AC10C EQ PUSH2 0xAF JUMPI DUP1 PUSH4 0xE2921EA5 EQ PUSH2 0xCB JUMPI JUMPDEST PUSH0 DUP1 REVERT JUMPDEST PUSH2 0x61 PUSH2 0xFE JUMP JUMPDEST PUSH1 0x40 MLOAD PUSH2 0x6E SWAP2 SWAP1 PUSH2 0xA16 JUMP JUMPDEST PUSH1 0x40 MLOAD DUP1 SWAP2 SUB SWAP1 RETURN JUMPDEST PUSH2 0x91 PUSH1 0x4 DUP1 CALLDATASIZE SUB DUP2 ADD SWAP1 PUSH2 0x8C SWAP2 SWAP1 PUSH2 0xB73 JUMP JUMPDEST PUSH2 0x331 JUMP JUMPDEST STOP JUMPDEST PUSH2 0xAD PUSH1 0x4 DUP1 CALLDATASIZE SUB DUP2 ADD SWAP1 PUSH2 0xA8 SWAP2 SWAP1 PUSH2 0xC13 JUMP JUMPDEST PUSH2 0x45E JUMP JUMPDEST STOP JUMPDEST PUSH2 0xC9 PUSH1 0x4 DUP1 CALLDATASIZE SUB DUP2 ADD SWAP1 PUSH2 0xC4 SWAP2 SWAP1 PUSH2 0xC3E JUMP JUMPDEST PUSH2 0x52F JUMP JUMPDEST STOP JUMPDEST PUSH2 0xE5 PUSH1 0x4 DUP1 CALLDATASIZE SUB DUP2 ADD SWAP1 PUSH2 0xE0 SWAP2 SWAP1 PUSH2 0xC13 JUMP JUMPDEST PUSH2 0x5E9 JUMP JUMPDEST PUSH1 0x40 MLOAD PUSH2 0xF5 SWAP5 SWAP4 SWAP3 SWAP2 SWAP1 PUSH2 0xD2C JUMP JUMPDEST PUSH1 0x40 MLOAD DUP1 SWAP2 SUB SWAP1 RETURN JUMPDEST PUSH1 0x60 PUSH0 PUSH1 0x1 SLOAD PUSH8 0xFFFFFFFFFFFFFFFF DUP2 GT ISZERO PUSH2 0x11D JUMPI PUSH2 0x11C PUSH2 0xA4F JUMP JUMPDEST JUMPDEST PUSH1 0x40 MLOAD SWAP1 DUP1 DUP3 MSTORE DUP1 PUSH1 0x20 MUL PUSH1 0x20 ADD DUP3 ADD PUSH1 0x40 MSTORE DUP1 ISZERO PUSH2 0x156 JUMPI DUP2 PUSH1 0x20 ADD JUMPDEST PUSH2 0x143 PUSH2 0x799 JUMP JUMPDEST DUP2 MSTORE PUSH1 0x20 ADD SWAP1 PUSH1 0x1 SWAP1 SUB SWAP1 DUP2 PUSH2 0x13B JUMPI SWAP1 POP JUMPDEST POP SWAP1 POP PUSH0 JUMPDEST PUSH1 0x1 SLOAD DUP2 LT ISZERO PUSH2 0x329 JUMPI PUSH0 DUP1 DUP3 DUP2 MSTORE PUSH1 0x20 ADD SWAP1 DUP2 MSTORE PUSH1 0x20 ADD PUSH0 KECCAK256 PUSH1 0x40 MLOAD DUP1 PUSH1 0x80 ADD PUSH1 0x40 MSTORE SWAP1 DUP2 PUSH0 DUP3 ADD DUP1 SLOAD PUSH2 0x18F SWAP1 PUSH2 0xDAA JUMP JUMPDEST DUP1 PUSH1 0x1F ADD PUSH1 0x20 DUP1 SWAP2 DIV MUL PUSH1 0x20 ADD PUSH1 0x40 MLOAD SWAP1 DUP2 ADD PUSH1 0x40 MSTORE DUP1 SWAP3 SWAP2 SWAP1 DUP2 DUP2 MSTORE PUSH1 0x20 ADD DUP3 DUP1 SLOAD PUSH2 0x1BB SWAP1 PUSH2 0xDAA JUMP JUMPDEST DUP1 ISZERO PUSH2 0x206 JUMPI DUP1 PUSH1 0x1F LT PUSH2 0x1DD JUMPI PUSH2 0x100 DUP1 DUP4 SLOAD DIV MUL DUP4 MSTORE SWAP2 PUSH1 0x20 ADD SWAP2 PUSH2 0x206 JUMP JUMPDEST DUP3 ADD SWAP2 SWAP1 PUSH0 MSTORE PUSH1 0x20 PUSH0 KECCAK256 SWAP1 JUMPDEST DUP2 SLOAD DUP2 MSTORE SWAP1 PUSH1 0x1 ADD SWAP1 PUSH1 0x20 ADD DUP1 DUP4 GT PUSH2 0x1E9 JUMPI DUP3 SWAP1 SUB PUSH1 0x1F AND DUP3 ADD SWAP2 JUMPDEST POP POP POP POP POP DUP2 MSTORE PUSH1 0x20 ADD PUSH1 0x1 DUP3 ADD DUP1 SLOAD PUSH2 0x21F SWAP1 PUSH2 0xDAA JUMP JUMPDEST DUP1 PUSH1 0x1F ADD PUSH1 0x20 DUP1 SWAP2 DIV MUL PUSH1 0x20 ADD PUSH1 0x40 MLOAD SWAP1 DUP2 ADD PUSH1 0x40 MSTORE DUP1 SWAP3 SWAP2 SWAP1 DUP2 DUP2 MSTORE PUSH1 0x20 ADD DUP3 DUP1 SLOAD PUSH2 0x24B SWAP1 PUSH2 0xDAA JUMP JUMPDEST DUP1 ISZERO PUSH2 0x296 JUMPI DUP1 PUSH1 0x1F LT PUSH2 0x26D JUMPI PUSH2 0x100 DUP1 DUP4 SLOAD DIV MUL DUP4 MSTORE SWAP2 PUSH1 0x20 ADD SWAP2 PUSH2 0x296 JUMP JUMPDEST DUP3 ADD SWAP2 SWAP1 PUSH0 MSTORE PUSH1 0x20 PUSH0 KECCAK256 SWAP1 JUMPDEST DUP2 SLOAD DUP2 MSTORE SWAP1 PUSH1 0x1 ADD SWAP1 PUSH1 0x20 ADD DUP1 DUP4 GT PUSH2 0x279 JUMPI DUP3 SWAP1 SUB PUSH1 0x1F AND DUP3 ADD SWAP2 JUMPDEST POP POP POP POP POP DUP2 MSTORE PUSH1 0x20 ADD PUSH1 0x2 DUP3 ADD PUSH0 SWAP1 SLOAD SWAP1 PUSH2 0x100 EXP SWAP1 DIV PUSH20 0xFFFFFFFFFFFFFFFFFFFFFFFFFFFFFFFFFFFFFFFF AND PUSH20 0xFFFFFFFFFFFFFFFFFFFFFFFFFFFFFFFFFFFFFFFF AND PUSH20 0xFFFFFFFFFFFFFFFFFFFFFFFFFFFFFFFFFFFFFFFF AND DUP2 MSTORE PUSH1 0x20 ADD PUSH1 0x3 DUP3 ADD SLOAD DUP2 MSTORE POP POP DUP3 DUP3 DUP2 MLOAD DUP2 LT PUSH2 0x311 JUMPI PUSH2 0x310 PUSH2 0xDDA JUMP JUMPDEST JUMPDEST PUSH1 0x20 MUL PUSH1 0x20 ADD ADD DUP2 SWAP1 MSTORE POP DUP1 DUP1 PUSH1 0x1 ADD SWAP2 POP POP PUSH2 0x15B JUMP JUMPDEST POP DUP1 SWAP2 POP POP SWAP1 JUMP JUMPDEST PUSH0 PUSH1 0x40 MLOAD DUP1 PUSH1 0x80 ADD PUSH1 0x40 MSTORE DUP1 DUP5 DUP2 MSTORE PUSH1 0x20 ADD DUP4 DUP2 MSTORE PUSH1 0x20 ADD CALLER PUSH20 0xFFFFFFFFFFFFFFFFFFFFFFFFFFFFFFFFFFFFFFFF AND DUP2 MSTORE PUSH1 0x20 ADD TIMESTAMP DUP2 MSTORE POP SWAP1 POP DUP1 PUSH0 DUP1 PUSH1 0x1 SLOAD DUP2 MSTORE PUSH1 0x20 ADD SWAP1 DUP2 MSTORE PUSH1 0x20 ADD PUSH0 KECCAK256 PUSH0 DUP3 ADD MLOAD DUP2 PUSH0 ADD SWAP1 DUP2 PUSH2 0x391 SWAP2 SWAP1 PUSH2 0xFA4 JUMP JUMPDEST POP PUSH1 0x20 DUP3 ADD MLOAD DUP2 PUSH1 0x1 ADD SWAP1 DUP2 PUSH2 0x3A7 SWAP2 SWAP1 PUSH2 0xFA4 JUMP JUMPDEST POP PUSH1 0x40 DUP3 ADD MLOAD DUP2 PUSH1 0x2 ADD PUSH0 PUSH2 0x100 EXP DUP2 SLOAD DUP2 PUSH20 0xFFFFFFFFFFFFFFFFFFFFFFFFFFFFFFFFFFFFFFFF MUL NOT AND SWAP1 DUP4 PUSH20 0xFFFFFFFFFFFFFFFFFFFFFFFFFFFFFFFFFFFFFFFF AND MUL OR SWAP1 SSTORE POP PUSH1 0x60 DUP3 ADD MLOAD DUP2 PUSH1 0x3 ADD SSTORE SWAP1 POP POP PUSH1 0x1 PUSH0 DUP2 SLOAD DUP1 SWAP3 SWAP2 SWAP1 PUSH2 0x40D SWAP1 PUSH2 0x10A0 JUMP JUMPDEST SWAP2 SWAP1 POP SSTORE POP PUSH1 0x1 DUP1 SLOAD PUSH2 0x420 SWAP2 SWAP1 PUSH2 0x10E7 JUMP JUMPDEST PUSH32 0x2E80A924C7797346825E24B6D35C6BFB3B329DB31CBCC1A2CC087E79932F1F07 DUP5 DUP5 PUSH1 0x40 MLOAD PUSH2 0x451 SWAP3 SWAP2 SWAP1 PUSH2 0x111A JUMP JUMPDEST PUSH1 0x40 MLOAD DUP1 SWAP2 SUB SWAP1 LOG2 POP POP POP JUMP JUMPDEST PUSH1 0x1 SLOAD DUP2 LT PUSH2 0x4A2 JUMPI PUSH1 0x40 MLOAD PUSH32 0x8C379A000000000000000000000000000000000000000000000000000000000 DUP2 MSTORE PUSH1 0x4 ADD PUSH2 0x499 SWAP1 PUSH2 0x1199 JUMP JUMPDEST PUSH1 0x40 MLOAD DUP1 SWAP2 SUB SWAP1 REVERT JUMPDEST PUSH0 DUP1 DUP3 DUP2 MSTORE PUSH1 0x20 ADD SWAP1 DUP2 MSTORE PUSH1 0x20 ADD PUSH0 KECCAK256 PUSH0 DUP1 DUP3 ADD PUSH0 PUSH2 0x4C1 SWAP2 SWAP1 PUSH2 0x7D5 JUMP JUMPDEST PUSH1 0x1 DUP3 ADD PUSH0 PUSH2 0x4D0 SWAP2 SWAP1 PUSH2 0x7D5 JUMP JUMPDEST PUSH1 0x2 DUP3 ADD PUSH0 PUSH2 0x100 EXP DUP2 SLOAD SWAP1 PUSH20 0xFFFFFFFFFFFFFFFFFFFFFFFFFFFFFFFFFFFFFFFF MUL NOT AND SWAP1 SSTORE PUSH1 0x3 DUP3 ADD PUSH0 SWAP1 SSTORE POP POP DUP1 PUSH32 0x6B8B19FC5F5218056F214A8EC905EEE5CD61F29B46231C273340050D340ED599 PUSH1 0x40 MLOAD PUSH1 0x40 MLOAD DUP1 SWAP2 SUB SWAP1 LOG2 POP JUMP JUMPDEST PUSH1 0x1 SLOAD DUP4 LT PUSH2 0x573 JUMPI PUSH1 0x40 MLOAD PUSH32 0x8C379A000000000000000000000000000000000000000000000000000000000 DUP2 MSTORE PUSH1 0x4 ADD PUSH2 0x56A SWAP1 PUSH2 0x1199 JUMP JUMPDEST PUSH1 0x40 MLOAD DUP1 SWAP2 SUB SWAP1 REVERT JUMPDEST PUSH0 DUP1 PUSH0 DUP6 DUP2 MSTORE PUSH1 0x20 ADD SWAP1 DUP2 MSTORE PUSH1 0x20 ADD PUSH0 KECCAK256 SWAP1 POP DUP3 DUP2 PUSH0 ADD SWAP1 DUP2 PUSH2 0x596 SWAP2 SWAP1 PUSH2 0xFA4 JUMP JUMPDEST POP DUP2 DUP2 PUSH1 0x1 ADD SWAP1 DUP2 PUSH2 0x5A8 SWAP2 SWAP1 PUSH2 0xFA4 JUMP JUMPDEST POP DUP4 PUSH32 0xBCA83537E657E46F599579D0330396D6FF30198890806DA12350A50BFD08CFB0 DUP5 DUP5 PUSH1 0x40 MLOAD PUSH2 0x5DB SWAP3 SWAP2 SWAP1 PUSH2 0x111A JUMP JUMPDEST PUSH1 0x40 MLOAD DUP1 SWAP2 SUB SWAP1 LOG2 POP POP POP POP JUMP JUMPDEST PUSH1 0x60 DUP1 PUSH0 DUP1 PUSH1 0x1 SLOAD DUP6 LT PUSH2 0x632 JUMPI PUSH1 0x40 MLOAD PUSH32 0x8C379A000000000000000000000000000000000000000000000000000000000 DUP2 MSTORE PUSH1 0x4 ADD PUSH2 0x629 SWAP1 PUSH2 0x1199 JUMP JUMPDEST PUSH1 0x40 MLOAD DUP1 SWAP2 SUB SWAP1 REVERT JUMPDEST PUSH0 DUP1 PUSH0 DUP8 DUP2 MSTORE PUSH1 0x20 ADD SWAP1 DUP2 MSTORE PUSH1 0x20 ADD PUSH0 KECCAK256 SWAP1 POP DUP1 PUSH0 ADD DUP2 PUSH1 0x1 ADD DUP3 PUSH1 0x2 ADD PUSH0 SWAP1 SLOAD SWAP1 PUSH2 0x100 EXP SWAP1 DIV PUSH20 0xFFFFFFFFFFFFFFFFFFFFFFFFFFFFFFFFFFFFFFFF AND DUP4 PUSH1 0x3 ADD SLOAD DUP4 DUP1 SLOAD PUSH2 0x681 SWAP1 PUSH2 0xDAA JUMP JUMPDEST DUP1 PUSH1 0x1F ADD PUSH1 0x20 DUP1 SWAP2 DIV MUL PUSH1 0x20 ADD PUSH1 0x40 MLOAD SWAP1 DUP2 ADD PUSH1 0x40 MSTORE DUP1 SWAP3 SWAP2 SWAP1 DUP2 DUP2 MSTORE PUSH1 0x20 ADD DUP3 DUP1 SLOAD PUSH2 0x6AD SWAP1 PUSH2 0xDAA JUMP JUMPDEST DUP1 ISZERO PUSH2 0x6F8 JUMPI DUP1 PUSH1 0x1F LT PUSH2 0x6CF JUMPI PUSH2 0x100 DUP1 DUP4 SLOAD DIV MUL DUP4 MSTORE SWAP2 PUSH1 0x20 ADD SWAP2 PUSH2 0x6F8 JUMP JUMPDEST DUP3 ADD SWAP2 SWAP1 PUSH0 MSTORE PUSH1 0x20 PUSH0 KECCAK256 SWAP1 JUMPDEST DUP2 SLOAD DUP2 MSTORE SWAP1 PUSH1 0x1 ADD SWAP1 PUSH1 0x20 ADD DUP1 DUP4 GT PUSH2 0x6DB JUMPI DUP3 SWAP1 SUB PUSH1 0x1F AND DUP3 ADD SWAP2 JUMPDEST POP POP POP POP POP SWAP4 POP DUP3 DUP1 SLOAD PUSH2 0x70B SWAP1 PUSH2 0xDAA JUMP JUMPDEST DUP1 PUSH1 0x1F ADD PUSH1 0x20 DUP1 SWAP2 DIV MUL PUSH1 0x20 ADD PUSH1 0x40 MLOAD SWAP1 DUP2 ADD PUSH1 0x40 MSTORE DUP1 SWAP3 SWAP2 SWAP1 DUP2 DUP2 MSTORE PUSH1 0x20 ADD DUP3 DUP1 SLOAD PUSH2 0x737 SWAP1 PUSH2 0xDAA JUMP JUMPDEST DUP1 ISZERO PUSH2 0x782 JUMPI DUP1 PUSH1 0x1F LT PUSH2 0x759 JUMPI PUSH2 0x100 DUP1 DUP4 SLOAD DIV MUL DUP4 MSTORE SWAP2 PUSH1 0x20 ADD SWAP2 PUSH2 0x782 JUMP JUMPDEST DUP3 ADD SWAP2 SWAP1 PUSH0 MSTORE PUSH1 0x20 PUSH0 KECCAK256 SWAP1 JUMPDEST DUP2 SLOAD DUP2 MSTORE SWAP1 PUSH1 0x1 ADD SWAP1 PUSH1 0x20 ADD DUP1 DUP4 GT PUSH2 0x765 JUMPI DUP3 SWAP1 SUB PUSH1 0x1F AND DUP3 ADD SWAP2 JUMPDEST POP POP POP POP POP SWAP3 POP SWAP5 POP SWAP5 POP SWAP5 POP SWAP5 POP POP SWAP2 SWAP4 POP SWAP2 SWAP4 JUMP JUMPDEST PUSH1 0x40 MLOAD DUP1 PUSH1 0x80 ADD PUSH1 0x40 MSTORE DUP1 PUSH1 0x60 DUP2 MSTORE PUSH1 0x20 ADD PUSH1 0x60 DUP2 MSTORE PUSH1 0x20 ADD PUSH0 PUSH20 0xFFFFFFFFFFFFFFFFFFFFFFFFFFFFFFFFFFFFFFFF AND DUP2 MSTORE PUSH1 0x20 ADD PUSH0 DUP2 MSTORE POP SWAP1 JUMP JUMPDEST POP DUP1 SLOAD PUSH2 0x7E1 SWAP1 PUSH2 0xDAA JUMP JUMPDEST PUSH0 DUP3 SSTORE DUP1 PUSH1 0x1F LT PUSH2 0x7F2 JUMPI POP PUSH2 0x80F JUMP JUMPDEST PUSH1 0x1F ADD PUSH1 0x20 SWAP1 DIV SWAP1 PUSH0 MSTORE PUSH1 0x20 PUSH0 KECCAK256 SWAP1 DUP2 ADD SWAP1 PUSH2 0x80E SWAP2 SWAP1 PUSH2 0x812 JUMP JUMPDEST JUMPDEST POP JUMP JUMPDEST JUMPDEST DUP1 DUP3 GT ISZERO PUSH2 0x829 JUMPI PUSH0 DUP2 PUSH0 SWAP1 SSTORE POP PUSH1 0x1 ADD PUSH2 0x813 JUMP JUMPDEST POP SWAP1 JUMP JUMPDEST PUSH0 DUP2 MLOAD SWAP1 POP SWAP2 SWAP1 POP JUMP JUMPDEST PUSH0 DUP3 DUP3 MSTORE PUSH1 0x20 DUP3 ADD SWAP1 POP SWAP3 SWAP2 POP POP JUMP JUMPDEST PUSH0 DUP2 SWAP1 POP PUSH1 0x20 DUP3 ADD SWAP1 POP SWAP2 SWAP1 POP JUMP JUMPDEST PUSH0 DUP2 MLOAD SWAP1 POP SWAP2 SWAP1 POP JUMP JUMPDEST PUSH0 DUP3 DUP3 MSTORE PUSH1 0x20 DUP3 ADD SWAP1 POP SWAP3 SWAP2 POP POP JUMP JUMPDEST DUP3 DUP2 DUP4 MCOPY PUSH0 DUP4 DUP4 ADD MSTORE POP POP POP JUMP JUMPDEST PUSH0 PUSH1 0x1F NOT PUSH1 0x1F DUP4 ADD AND SWAP1 POP SWAP2 SWAP1 POP JUMP JUMPDEST PUSH0 PUSH2 0x898 DUP3 PUSH2 0x856 JUMP JUMPDEST PUSH2 0x8A2 DUP2 DUP6 PUSH2 0x860 JUMP JUMPDEST SWAP4 POP PUSH2 0x8B2 DUP2 DUP6 PUSH1 0x20 DUP7 ADD PUSH2 0x870 JUMP JUMPDEST PUSH2 0x8BB DUP2 PUSH2 0x87E JUMP JUMPDEST DUP5 ADD SWAP2 POP POP SWAP3 SWAP2 POP POP JUMP JUMPDEST PUSH0 PUSH20 0xFFFFFFFFFFFFFFFFFFFFFFFFFFFFFFFFFFFFFFFF DUP3 AND SWAP1 POP SWAP2 SWAP1 POP JUMP JUMPDEST PUSH0 PUSH2 0x8EF DUP3 PUSH2 0x8C6 JUMP JUMPDEST SWAP1 POP SWAP2 SWAP1 POP JUMP JUMPDEST PUSH2 0x8FF DUP2 PUSH2 0x8E5 JUMP JUMPDEST DUP3 MSTORE POP POP JUMP JUMPDEST PUSH0 DUP2 SWAP1 POP SWAP2 SWAP1 POP JUMP JUMPDEST PUSH2 0x917 DUP2 PUSH2 0x905 JUMP JUMPDEST DUP3 MSTORE POP POP JUMP JUMPDEST PUSH0 PUSH1 0x80 DUP4 ADD PUSH0 DUP4 ADD MLOAD DUP5 DUP3 SUB PUSH0 DUP7 ADD MSTORE PUSH2 0x937 DUP3 DUP3 PUSH2 0x88E JUMP JUMPDEST SWAP2 POP POP PUSH1 0x20 DUP4 ADD MLOAD DUP5 DUP3 SUB PUSH1 0x20 DUP7 ADD MSTORE PUSH2 0x951 DUP3 DUP3 PUSH2 0x88E JUMP JUMPDEST SWAP2 POP POP PUSH1 0x40 DUP4 ADD MLOAD PUSH2 0x966 PUSH1 0x40 DUP7 ADD DUP3 PUSH2 0x8F6 JUMP JUMPDEST POP PUSH1 0x60 DUP4 ADD MLOAD PUSH2 0x979 PUSH1 0x60 DUP7 ADD DUP3 PUSH2 0x90E JUMP JUMPDEST POP DUP1 SWAP2 POP POP SWAP3 SWAP2 POP POP JUMP JUMPDEST PUSH0 PUSH2 0x98F DUP4 DUP4 PUSH2 0x91D JUMP JUMPDEST SWAP1 POP SWAP3 SWAP2 POP POP JUMP JUMPDEST PUSH0 PUSH1 0x20 DUP3 ADD SWAP1 POP SWAP2 SWAP1 POP JUMP JUMPDEST PUSH0 PUSH2 0x9AD DUP3 PUSH2 0x82D JUMP JUMPDEST PUSH2 0x9B7 DUP2 DUP6 PUSH2 0x837 JUMP JUMPDEST SWAP4 POP DUP4 PUSH1 0x20 DUP3 MUL DUP6 ADD PUSH2 0x9C9 DUP6 PUSH2 0x847 JUMP JUMPDEST DUP1 PUSH0 JUMPDEST DUP6 DUP2 LT ISZERO PUSH2 0xA04 JUMPI DUP5 DUP5 SUB DUP10 MSTORE DUP2 MLOAD PUSH2 0x9E5 DUP6 DUP3 PUSH2 0x984 JUMP JUMPDEST SWAP5 POP PUSH2 0x9F0 DUP4 PUSH2 0x997 JUMP JUMPDEST SWAP3 POP PUSH1 0x20 DUP11 ADD SWAP10 POP POP PUSH1 0x1 DUP2 ADD SWAP1 POP PUSH2 0x9CC JUMP JUMPDEST POP DUP3 SWAP8 POP DUP8 SWAP6 POP POP POP POP POP POP SWAP3 SWAP2 POP POP JUMP JUMPDEST PUSH0 PUSH1 0x20 DUP3 ADD SWAP1 POP DUP2 DUP2 SUB PUSH0 DUP4 ADD MSTORE PUSH2 0xA2E DUP2 DUP5 PUSH2 0x9A3 JUMP JUMPDEST SWAP1 POP SWAP3 SWAP2 POP POP JUMP JUMPDEST PUSH0 PUSH1 0x40 MLOAD SWAP1 POP SWAP1 JUMP JUMPDEST PUSH0 DUP1 REVERT JUMPDEST PUSH0 DUP1 REVERT JUMPDEST PUSH0 DUP1 REVERT JUMPDEST PUSH0 DUP1 REVERT JUMPDEST PUSH32 0x4E487B7100000000000000000000000000000000000000000000000000000000 PUSH0 MSTORE PUSH1 0x41 PUSH1 0x4 MSTORE PUSH1 0x24 PUSH0 REVERT JUMPDEST PUSH2 0xA85 DUP3 PUSH2 0x87E JUMP JUMPDEST DUP2 ADD DUP2 DUP2 LT PUSH8 0xFFFFFFFFFFFFFFFF DUP3 GT OR ISZERO PUSH2 0xAA4 JUMPI PUSH2 0xAA3 PUSH2 0xA4F JUMP JUMPDEST JUMPDEST DUP1 PUSH1 0x40 MSTORE POP POP POP JUMP JUMPDEST PUSH0 PUSH2 0xAB6 PUSH2 0xA36 JUMP JUMPDEST SWAP1 POP PUSH2 0xAC2 DUP3 DUP3 PUSH2 0xA7C JUMP JUMPDEST SWAP2 SWAP1 POP JUMP JUMPDEST PUSH0 PUSH8 0xFFFFFFFFFFFFFFFF DUP3 GT ISZERO PUSH2 0xAE1 JUMPI PUSH2 0xAE0 PUSH2 0xA4F JUMP JUMPDEST JUMPDEST PUSH2 0xAEA DUP3 PUSH2 0x87E JUMP JUMPDEST SWAP1 POP PUSH1 0x20 DUP2 ADD SWAP1 POP SWAP2 SWAP1 POP JUMP JUMPDEST DUP3 DUP2 DUP4 CALLDATACOPY PUSH0 DUP4 DUP4 ADD MSTORE POP POP POP JUMP JUMPDEST PUSH0 PUSH2 0xB17 PUSH2 0xB12 DUP5 PUSH2 0xAC7 JUMP JUMPDEST PUSH2 0xAAD JUMP JUMPDEST SWAP1 POP DUP3 DUP2 MSTORE PUSH1 0x20 DUP2 ADD DUP5 DUP5 DUP5 ADD GT ISZERO PUSH2 0xB33 JUMPI PUSH2 0xB32 PUSH2 0xA4B JUMP JUMPDEST JUMPDEST PUSH2 0xB3E DUP5 DUP3 DUP6 PUSH2 0xAF7 JUMP JUMPDEST POP SWAP4 SWAP3 POP POP POP JUMP JUMPDEST PUSH0 DUP3 PUSH1 0x1F DUP4 ADD SLT PUSH2 0xB5A JUMPI PUSH2 0xB59 PUSH2 0xA47 JUMP JUMPDEST JUMPDEST DUP2 CALLDATALOAD PUSH2 0xB6A DUP5 DUP3 PUSH1 0x20 DUP7 ADD PUSH2 0xB05 JUMP JUMPDEST SWAP2 POP POP SWAP3 SWAP2 POP POP JUMP JUMPDEST PUSH0 DUP1 PUSH1 0x40 DUP4 DUP6 SUB SLT ISZERO PUSH2 0xB89 JUMPI PUSH2 0xB88 PUSH2 0xA3F JUMP JUMPDEST JUMPDEST PUSH0 DUP4 ADD CALLDATALOAD PUSH8 0xFFFFFFFFFFFFFFFF DUP2 GT ISZERO PUSH2 0xBA6 JUMPI PUSH2 0xBA5 PUSH2 0xA43 JUMP JUMPDEST JUMPDEST PUSH2 0xBB2 DUP6 DUP3 DUP7 ADD PUSH2 0xB46 JUMP JUMPDEST SWAP3 POP POP PUSH1 0x20 DUP4 ADD CALLDATALOAD PUSH8 0xFFFFFFFFFFFFFFFF DUP2 GT ISZERO PUSH2 0xBD3 JUMPI PUSH2 0xBD2 PUSH2 0xA43 JUMP JUMPDEST JUMPDEST PUSH2 0xBDF DUP6 DUP3 DUP7 ADD PUSH2 0xB46 JUMP JUMPDEST SWAP2 POP POP SWAP3 POP SWAP3 SWAP1 POP JUMP JUMPDEST PUSH2 0xBF2 DUP2 PUSH2 0x905 JUMP JUMPDEST DUP2 EQ PUSH2 0xBFC JUMPI PUSH0 DUP1 REVERT JUMPDEST POP JUMP JUMPDEST PUSH0 DUP2 CALLDATALOAD SWAP1 POP PUSH2 0xC0D DUP2 PUSH2 0xBE9 JUMP JUMPDEST SWAP3 SWAP2 POP POP JUMP JUMPDEST PUSH0 PUSH1 0x20 DUP3 DUP5 SUB SLT ISZERO PUSH2 0xC28 JUMPI PUSH2 0xC27 PUSH2 0xA3F JUMP JUMPDEST JUMPDEST PUSH0 PUSH2 0xC35 DUP5 DUP3 DUP6 ADD PUSH2 0xBFF JUMP JUMPDEST SWAP2 POP POP SWAP3 SWAP2 POP POP JUMP JUMPDEST PUSH0 DUP1 PUSH0 PUSH1 0x60 DUP5 DUP7 SUB SLT ISZERO PUSH2 0xC55 JUMPI PUSH2 0xC54 PUSH2 0xA3F JUMP JUMPDEST JUMPDEST PUSH0 PUSH2 0xC62 DUP7 DUP3 DUP8 ADD PUSH2 0xBFF JUMP JUMPDEST SWAP4 POP POP PUSH1 0x20 DUP5 ADD CALLDATALOAD PUSH8 0xFFFFFFFFFFFFFFFF DUP2 GT ISZERO PUSH2 0xC83 JUMPI PUSH2 0xC82 PUSH2 0xA43 JUMP JUMPDEST JUMPDEST PUSH2 0xC8F DUP7 DUP3 DUP8 ADD PUSH2 0xB46 JUMP JUMPDEST SWAP3 POP POP PUSH1 0x40 DUP5 ADD CALLDATALOAD PUSH8 0xFFFFFFFFFFFFFFFF DUP2 GT ISZERO PUSH2 0xCB0 JUMPI PUSH2 0xCAF PUSH2 0xA43 JUMP JUMPDEST JUMPDEST PUSH2 0xCBC DUP7 DUP3 DUP8 ADD PUSH2 0xB46 JUMP JUMPDEST SWAP2 POP POP SWAP3 POP SWAP3 POP SWAP3 JUMP JUMPDEST PUSH0 DUP3 DUP3 MSTORE PUSH1 0x20 DUP3 ADD SWAP1 POP SWAP3 SWAP2 POP POP JUMP JUMPDEST PUSH0 PUSH2 0xCE0 DUP3 PUSH2 0x856 JUMP JUMPDEST PUSH2 0xCEA DUP2 DUP6 PUSH2 0xCC6 JUMP JUMPDEST SWAP4 POP PUSH2 0xCFA DUP2 DUP6 PUSH1 0x20 DUP7 ADD PUSH2 0x870 JUMP JUMPDEST PUSH2 0xD03 DUP2 PUSH2 0x87E JUMP JUMPDEST DUP5 ADD SWAP2 POP POP SWAP3 SWAP2 POP POP JUMP JUMPDEST PUSH2 0xD17 DUP2 PUSH2 0x8E5 JUMP JUMPDEST DUP3 MSTORE POP POP JUMP JUMPDEST PUSH2 0xD26 DUP2 PUSH2 0x905 JUMP JUMPDEST DUP3 MSTORE POP POP JUMP JUMPDEST PUSH0 PUSH1 0x80 DUP3 ADD SWAP1 POP DUP2 DUP2 SUB PUSH0 DUP4 ADD MSTORE PUSH2 0xD44 DUP2 DUP8 PUSH2 0xCD6 JUMP JUMPDEST SWAP1 POP DUP2 DUP2 SUB PUSH1 0x20 DUP4 ADD MSTORE PUSH2 0xD58 DUP2 DUP7 PUSH2 0xCD6 JUMP JUMPDEST SWAP1 POP PUSH2 0xD67 PUSH1 0x40 DUP4 ADD DUP6 PUSH2 0xD0E JUMP JUMPDEST PUSH2 0xD74 PUSH1 0x60 DUP4 ADD DUP5 PUSH2 0xD1D JUMP JUMPDEST SWAP6 SWAP5 POP POP POP POP POP JUMP JUMPDEST PUSH32 0x4E487B7100000000000000000000000000000000000000000000000000000000 PUSH0 MSTORE PUSH1 0x22 PUSH1 0x4 MSTORE PUSH1 0x24 PUSH0 REVERT JUMPDEST PUSH0 PUSH1 0x2 DUP3 DIV SWAP1 POP PUSH1 0x1 DUP3 AND DUP1 PUSH2 0xDC1 JUMPI PUSH1 0x7F DUP3 AND SWAP2 POP JUMPDEST PUSH1 0x20 DUP3 LT DUP2 SUB PUSH2 0xDD4 JUMPI PUSH2 0xDD3 PUSH2 0xD7D JUMP JUMPDEST JUMPDEST POP SWAP2 SWAP1 POP JUMP JUMPDEST PUSH32 0x4E487B7100000000000000000000000000000000000000000000000000000000 PUSH0 MSTORE PUSH1 0x32 PUSH1 0x4 MSTORE PUSH1 0x24 PUSH0 REVERT JUMPDEST PUSH0 DUP2 SWAP1 POP DUP2 PUSH0 MSTORE PUSH1 0x20 PUSH0 KECCAK256 SWAP1 POP SWAP2 SWAP1 POP JUMP JUMPDEST PUSH0 PUSH1 0x20 PUSH1 0x1F DUP4 ADD DIV SWAP1 POP SWAP2 SWAP1 POP JUMP JUMPDEST PUSH0 DUP3 DUP3 SHL SWAP1 POP SWAP3 SWAP2 POP POP JUMP JUMPDEST PUSH0 PUSH1 0x8 DUP4 MUL PUSH2 0xE63 PUSH32 0xFFFFFFFFFFFFFFFFFFFFFFFFFFFFFFFFFFFFFFFFFFFFFFFFFFFFFFFFFFFFFFFF DUP3 PUSH2 0xE28 JUMP JUMPDEST PUSH2 0xE6D DUP7 DUP4 PUSH2 0xE28 JUMP JUMPDEST SWAP6 POP DUP1 NOT DUP5 AND SWAP4 POP DUP1 DUP7 AND DUP5 OR SWAP3 POP POP POP SWAP4 SWAP3 POP POP POP JUMP JUMPDEST PUSH0 DUP2 SWAP1 POP SWAP2 SWAP1 POP JUMP JUMPDEST PUSH0 PUSH2 0xEA8 PUSH2 0xEA3 PUSH2 0xE9E DUP5 PUSH2 0x905 JUMP JUMPDEST PUSH2 0xE85 JUMP JUMPDEST PUSH2 0x905 JUMP JUMPDEST SWAP1 POP SWAP2 SWAP1 POP JUMP JUMPDEST PUSH0 DUP2 SWAP1 POP SWAP2 SWAP1 POP JUMP JUMPDEST PUSH2 0xEC1 DUP4 PUSH2 0xE8E JUMP JUMPDEST PUSH2 0xED5 PUSH2 0xECD DUP3 PUSH2 0xEAF JUMP JUMPDEST DUP5 DUP5 SLOAD PUSH2 0xE34 JUMP JUMPDEST DUP3 SSTORE POP POP POP POP JUMP JUMPDEST PUSH0 SWAP1 JUMP JUMPDEST PUSH2 0xEE9 PUSH2 0xEDD JUMP JUMPDEST PUSH2 0xEF4 DUP2 DUP5 DUP5 PUSH2 0xEB8 JUMP JUMPDEST POP POP POP JUMP JUMPDEST JUMPDEST DUP2 DUP2 LT ISZERO PUSH2 0xF17 JUMPI PUSH2 0xF0C PUSH0 DUP3 PUSH2 0xEE1 JUMP JUMPDEST PUSH1 0x1 DUP2 ADD SWAP1 POP PUSH2 0xEFA JUMP JUMPDEST POP POP JUMP JUMPDEST PUSH1 0x1F DUP3 GT ISZERO PUSH2 0xF5C JUMPI PUSH2 0xF2D DUP2 PUSH2 0xE07 JUMP JUMPDEST PUSH2 0xF36 DUP5 PUSH2 0xE19 JUMP JUMPDEST DUP2 ADD PUSH1 0x20 DUP6 LT ISZERO PUSH2 0xF45 JUMPI DUP2 SWAP1 POP JUMPDEST PUSH2 0xF59 PUSH2 0xF51 DUP6 PUSH2 0xE19 JUMP JUMPDEST DUP4 ADD DUP3 PUSH2 0xEF9 JUMP JUMPDEST POP POP JUMPDEST POP POP POP JUMP JUMPDEST PUSH0 DUP3 DUP3 SHR SWAP1 POP SWAP3 SWAP2 POP POP JUMP JUMPDEST PUSH0 PUSH2 0xF7C PUSH0 NOT DUP5 PUSH1 0x8 MUL PUSH2 0xF61 JUMP JUMPDEST NOT DUP1 DUP4 AND SWAP2 POP POP SWAP3 SWAP2 POP POP JUMP JUMPDEST PUSH0 PUSH2 0xF94 DUP4 DUP4 PUSH2 0xF6D JUMP JUMPDEST SWAP2 POP DUP3 PUSH1 0x2 MUL DUP3 OR SWAP1 POP SWAP3 SWAP2 POP POP JUMP JUMPDEST PUSH2 0xFAD DUP3 PUSH2 0x856 JUMP JUMPDEST PUSH8 0xFFFFFFFFFFFFFFFF DUP2 GT ISZERO PUSH2 0xFC6 JUMPI PUSH2 0xFC5 PUSH2 0xA4F JUMP JUMPDEST JUMPDEST PUSH2 0xFD0 DUP3 SLOAD PUSH2 0xDAA JUMP JUMPDEST PUSH2 0xFDB DUP3 DUP3 DUP6 PUSH2 0xF1B JUMP JUMPDEST PUSH0 PUSH1 0x20 SWAP1 POP PUSH1 0x1F DUP4 GT PUSH1 0x1 DUP2 EQ PUSH2 0x100C JUMPI PUSH0 DUP5 ISZERO PUSH2 0xFFA JUMPI DUP3 DUP8 ADD MLOAD SWAP1 POP JUMPDEST PUSH2 0x1004 DUP6 DUP3 PUSH2 0xF89 JUMP JUMPDEST DUP7 SSTORE POP PUSH2 0x106B JUMP JUMPDEST PUSH1 0x1F NOT DUP5 AND PUSH2 0x101A DUP7 PUSH2 0xE07 JUMP JUMPDEST PUSH0 JUMPDEST DUP3 DUP2 LT ISZERO PUSH2 0x1041 JUMPI DUP5 DUP10 ADD MLOAD DUP3 SSTORE PUSH1 0x1 DUP3 ADD SWAP2 POP PUSH1 0x20 DUP6 ADD SWAP5 POP PUSH1 0x20 DUP2 ADD SWAP1 POP PUSH2 0x101C JUMP JUMPDEST DUP7 DUP4 LT ISZERO PUSH2 0x105E JUMPI DUP5 DUP10 ADD MLOAD PUSH2 0x105A PUSH1 0x1F DUP10 AND DUP3 PUSH2 0xF6D JUMP JUMPDEST DUP4 SSTORE POP JUMPDEST PUSH1 0x1 PUSH1 0x2 DUP9 MUL ADD DUP9 SSTORE POP POP POP JUMPDEST POP POP POP POP POP POP JUMP JUMPDEST PUSH32 0x4E487B7100000000000000000000000000000000000000000000000000000000 PUSH0 MSTORE PUSH1 0x11 PUSH1 0x4 MSTORE PUSH1 0x24 PUSH0 REVERT JUMPDEST PUSH0 PUSH2 0x10AA DUP3 PUSH2 0x905 JUMP JUMPDEST SWAP2 POP PUSH32 0xFFFFFFFFFFFFFFFFFFFFFFFFFFFFFFFFFFFFFFFFFFFFFFFFFFFFFFFFFFFFFFFF DUP3 SUB PUSH2 0x10DC JUMPI PUSH2 0x10DB PUSH2 0x1073 JUMP JUMPDEST JUMPDEST PUSH1 0x1 DUP3 ADD SWAP1 POP SWAP2 SWAP1 POP JUMP JUMPDEST PUSH0 PUSH2 0x10F1 DUP3 PUSH2 0x905 JUMP JUMPDEST SWAP2 POP PUSH2 0x10FC DUP4 PUSH2 0x905 JUMP JUMPDEST SWAP3 POP DUP3 DUP3 SUB SWAP1 POP DUP2 DUP2 GT ISZERO PUSH2 0x1114 JUMPI PUSH2 0x1113 PUSH2 0x1073 JUMP JUMPDEST JUMPDEST SWAP3 SWAP2 POP POP JUMP JUMPDEST PUSH0 PUSH1 0x40 DUP3 ADD SWAP1 POP DUP2 DUP2 SUB PUSH0 DUP4 ADD MSTORE PUSH2 0x1132 DUP2 DUP6 PUSH2 0xCD6 JUMP JUMPDEST SWAP1 POP DUP2 DUP2 SUB PUSH1 0x20 DUP4 ADD MSTORE PUSH2 0x1146 DUP2 DUP5 PUSH2 0xCD6 JUMP JUMPDEST SWAP1 POP SWAP4 SWAP3 POP POP POP JUMP JUMPDEST PUSH32 0x48657272616D69656E7461206E6F206578697374650000000000000000000000 PUSH0 DUP3 ADD MSTORE POP JUMP JUMPDEST PUSH0 PUSH2 0x1183 PUSH1 0x15 DUP4 PUSH2 0xCC6 JUMP JUMPDEST SWAP2 POP PUSH2 0x118E DUP3 PUSH2 0x114F JUMP JUMPDEST PUSH1 0x20 DUP3 ADD SWAP1 POP SWAP2 SWAP1 POP JUMP JUMPDEST PUSH0 PUSH1 0x20 DUP3 ADD SWAP1 POP DUP2 DUP2 SUB PUSH0 DUP4 ADD MSTORE PUSH2 0x11B0 DUP2 PUSH2 0x1177 JUMP JUMPDEST SWAP1 POP SWAP2 SWAP1 POP JUMP INVALID LOG2 PUSH5 0x6970667358 0x22 SLT KECCAK256 SLOAD 0xB7 PUSH28 0x83F6BA09FFC1D0DABDA976F818DD0D20958ADBCD365B4B095E6D2261 PUSH10 0x64736F6C634300081900 CALLER "
				},
				"gasEstimates": {
					"creation": {
						"codeDepositCost": "917800",
						"executionCost": "5958",
						"totalCost": "923758"
					},
					"external": {
						"actualizarHerramienta(uint256,string,string)": "infinite",
						"agregarHerramienta(string,string)": "infinite",
						"eliminarHerramienta(uint256)": "infinite",
						"obtenerHerramienta(uint256)": "infinite",
						"obtenerTodasHerramientas()": "infinite"
					}
				},
				"methodIdentifiers": {
					"actualizarHerramienta(uint256,string,string)": "d62ac10c",
					"agregarHerramienta(string,string)": "94cec54b",
					"eliminarHerramienta(uint256)": "9ef07244",
					"obtenerHerramienta(uint256)": "e2921ea5",
					"obtenerTodasHerramientas()": "7cc5e41c"
				}
			},
			"storageLayout": {
				"storage": [
					{
						"astId": 9,
						"contract": "contracts/contratos/Herramientas.sol:Herramientas",
						"label": "herramientas",
						"offset": 0,
						"slot": "0",
						"type": "t_mapping(t_uint256,t_struct(Herramienta)225_storage)"
					},
					{
						"astId": 12,
						"contract": "contracts/contratos/Herramientas.sol:Herramientas",
						"label": "totalHerramientas",
						"offset": 0,
						"slot": "1",
						"type": "t_uint256"
					}
				],
				"types": {
					"t_address": {
						"encoding": "inplace",
						"label": "address",
						"numberOfBytes": "20"
					},
					"t_mapping(t_uint256,t_struct(Herramienta)225_storage)": {
						"encoding": "mapping",
						"key": "t_uint256",
						"label": "mapping(uint256 => struct IHerramientas.Herramienta)",
						"numberOfBytes": "32",
						"value": "t_struct(Herramienta)225_storage"
					},
					"t_string_storage": {
						"encoding": "bytes",
						"label": "string",
						"numberOfBytes": "32"
					},
					"t_struct(Herramienta)225_storage": {
						"encoding": "inplace",
						"label": "struct IHerramientas.Herramienta",
						"members": [
							{
								"astId": 218,
								"contract": "contracts/contratos/Herramientas.sol:Herramientas",
								"label": "nombre",
								"offset": 0,
								"slot": "0",
								"type": "t_string_storage"
							},
							{
								"astId": 220,
								"contract": "contracts/contratos/Herramientas.sol:Herramientas",
								"label": "descripcion",
								"offset": 0,
								"slot": "1",
								"type": "t_string_storage"
							},
							{
								"astId": 222,
								"contract": "contracts/contratos/Herramientas.sol:Herramientas",
								"label": "reportadoPor",
								"offset": 0,
								"slot": "2",
								"type": "t_address"
							},
							{
								"astId": 224,
								"contract": "contracts/contratos/Herramientas.sol:Herramientas",
								"label": "fechaReporte",
								"offset": 0,
								"slot": "3",
								"type": "t_uint256"
							}
						],
						"numberOfBytes": "128"
					},
					"t_uint256": {
						"encoding": "inplace",
						"label": "uint256",
						"numberOfBytes": "32"
					}
				}
			},
			"userdoc": {
				"kind": "user",
				"methods": {},
				"version": 1
			}
		}
	}
}