{
	"contracts/contratos/TTP.sol": {
		"TTP": {
			"abi": [
				{
					"anonymous": false,
					"inputs": [
						{
							"indexed": true,
							"internalType": "uint256",
							"name": "id",
							"type": "uint256"
						},
						{
							"indexed": false,
							"internalType": "string",
							"name": "descripcion",
							"type": "string"
						},
						{
							"indexed": false,
							"internalType": "string",
							"name": "categoria",
							"type": "string"
						}
					],
					"name": "TTPAdded",
					"type": "event"
				},
				{
					"anonymous": false,
					"inputs": [
						{
							"indexed": true,
							"internalType": "uint256",
							"name": "id",
							"type": "uint256"
						}
					],
					"name": "TTPDeleted",
					"type": "event"
				},
				{
					"anonymous": false,
					"inputs": [
						{
							"indexed": true,
							"internalType": "uint256",
							"name": "id",
							"type": "uint256"
						},
						{
							"indexed": false,
							"internalType": "string",
							"name": "descripcion",
							"type": "string"
						},
						{
							"indexed": false,
							"internalType": "string",
							"name": "categoria",
							"type": "string"
						}
					],
					"name": "TTPUpdated",
					"type": "event"
				},
				{
					"inputs": [
						{
							"internalType": "uint256",
							"name": "id",
							"type": "uint256"
						},
						{
							"internalType": "string",
							"name": "descripcion",
							"type": "string"
						},
						{
							"internalType": "string",
							"name": "categoria",
							"type": "string"
						}
					],
					"name": "actualizarTTP",
					"outputs": [],
					"stateMutability": "nonpayable",
					"type": "function"
				},
				{
					"inputs": [
						{
							"internalType": "string",
							"name": "descripcion",
							"type": "string"
						},
						{
							"internalType": "string",
							"name": "categoria",
							"type": "string"
						}
					],
					"name": "agregarTTP",
					"outputs": [],
					"stateMutability": "nonpayable",
					"type": "function"
				},
				{
					"inputs": [
						{
							"internalType": "uint256",
							"name": "id",
							"type": "uint256"
						}
					],
					"name": "eliminarTTP",
					"outputs": [],
					"stateMutability": "nonpayable",
					"type": "function"
				},
				{
					"inputs": [
						{
							"internalType": "uint256",
							"name": "id",
							"type": "uint256"
						}
					],
					"name": "obtenerTTP",
					"outputs": [
						{
							"internalType": "string",
							"name": "descripcion",
							"type": "string"
						},
						{
							"internalType": "string",
							"name": "categoria",
							"type": "string"
						},
						{
							"internalType": "address",
							"name": "reportadoPor",
							"type": "address"
						},
						{
							"internalType": "uint256",
							"name": "fechaReporte",
							"type": "uint256"
						}
					],
					"stateMutability": "view",
					"type": "function"
				},
				{
					"inputs": [],
					"name": "obtenerTodosTTPs",
					"outputs": [
						{
							"components": [
								{
									"internalType": "string",
									"name": "descripcion",
									"type": "string"
								},
								{
									"internalType": "string",
									"name": "categoria",
									"type": "string"
								},
								{
									"internalType": "address",
									"name": "reportadoPor",
									"type": "address"
								},
								{
									"internalType": "uint256",
									"name": "fechaReporte",
									"type": "uint256"
								}
							],
							"internalType": "struct ITTP.TTP[]",
							"name": "",
							"type": "tuple[]"
						}
					],
					"stateMutability": "view",
					"type": "function"
				}
			],
			"devdoc": {
				"kind": "dev",
				"methods": {},
				"version": 1
			},
			"evm": {
				"assembly": "    /* \"contracts/contratos/TTP.sol\":96:2076  contract TTP is ITTP {... */\n  mstore(0x40, 0x80)\n    /* \"contracts/contratos/TTP.sol\":195:196  0 */\n  0x00\n    /* \"contracts/contratos/TTP.sol\":167:196  uint256 private totalTTPs = 0 */\n  0x01\n  sstore\n    /* \"contracts/contratos/TTP.sol\":96:2076  contract TTP is ITTP {... */\n  callvalue\n  dup1\n  iszero\n  tag_1\n  jumpi\n  0x00\n  dup1\n  revert\ntag_1:\n  pop\n  dataSize(sub_0)\n  dup1\n  dataOffset(sub_0)\n  0x00\n  codecopy\n  0x00\n  return\nstop\n\nsub_0: assembly {\n        /* \"contracts/contratos/TTP.sol\":96:2076  contract TTP is ITTP {... */\n      mstore(0x40, 0x80)\n      callvalue\n      dup1\n      iszero\n      tag_1\n      jumpi\n      0x00\n      dup1\n      revert\n    tag_1:\n      pop\n      jumpi(tag_2, lt(calldatasize, 0x04))\n      shr(0xe0, calldataload(0x00))\n      dup1\n      0x32aa3641\n      eq\n      tag_3\n      jumpi\n      dup1\n      0x525ef0ea\n      eq\n      tag_4\n      jumpi\n      dup1\n      0x9374a506\n      eq\n      tag_5\n      jumpi\n      dup1\n      0xc0f4140d\n      eq\n      tag_6\n      jumpi\n      dup1\n      0xe440d081\n      eq\n      tag_7\n      jumpi\n    tag_2:\n      0x00\n      dup1\n      revert\n        /* \"contracts/contratos/TTP.sol\":1450:1781  function obtenerTTP(uint256 id) public view returns (string memory descripcion, string memory categoria, address reportadoPor, uint256 fechaReporte) {... */\n    tag_3:\n      tag_8\n      0x04\n      dup1\n      calldatasize\n      sub\n      dup2\n      add\n      swap1\n      tag_9\n      swap2\n      swap1\n      tag_10\n      jump\t// in\n    tag_9:\n      tag_11\n      jump\t// in\n    tag_8:\n      mload(0x40)\n      tag_12\n      swap5\n      swap4\n      swap3\n      swap2\n      swap1\n      tag_13\n      jump\t// in\n    tag_12:\n      mload(0x40)\n      dup1\n      swap2\n      sub\n      swap1\n      return\n        /* \"contracts/contratos/TTP.sol\":1252:1407  function eliminarTTP(uint256 id) public {... */\n    tag_4:\n      tag_14\n      0x04\n      dup1\n      calldatasize\n      sub\n      dup2\n      add\n      swap1\n      tag_15\n      swap2\n      swap1\n      tag_10\n      jump\t// in\n    tag_15:\n      tag_16\n      jump\t// in\n    tag_14:\n      stop\n        /* \"contracts/contratos/TTP.sol\":900:1220  function actualizarTTP(uint256 id, string memory descripcion, string memory categoria) public {... */\n    tag_5:\n      tag_17\n      0x04\n      dup1\n      calldatasize\n      sub\n      dup2\n      add\n      swap1\n      tag_18\n      swap2\n      swap1\n      tag_19\n      jump\t// in\n    tag_18:\n      tag_20\n      jump\t// in\n    tag_17:\n      stop\n        /* \"contracts/contratos/TTP.sol\":439:856  function agregarTTP(string memory descripcion, string memory categoria) public {... */\n    tag_6:\n      tag_21\n      0x04\n      dup1\n      calldatasize\n      sub\n      dup2\n      add\n      swap1\n      tag_22\n      swap2\n      swap1\n      tag_23\n      jump\t// in\n    tag_22:\n      tag_24\n      jump\t// in\n    tag_21:\n      stop\n        /* \"contracts/contratos/TTP.sol\":1832:2073  function obtenerTodosTTPs() public view returns (TTP[] memory) {... */\n    tag_7:\n      tag_25\n      tag_26\n      jump\t// in\n    tag_25:\n      mload(0x40)\n      tag_27\n      swap2\n      swap1\n      tag_28\n      jump\t// in\n    tag_27:\n      mload(0x40)\n      dup1\n      swap2\n      sub\n      swap1\n      return\n        /* \"contracts/contratos/TTP.sol\":1450:1781  function obtenerTTP(uint256 id) public view returns (string memory descripcion, string memory categoria, address reportadoPor, uint256 fechaReporte) {... */\n    tag_11:\n        /* \"contracts/contratos/TTP.sol\":1503:1528  string memory descripcion */\n      0x60\n        /* \"contracts/contratos/TTP.sol\":1530:1553  string memory categoria */\n      dup1\n        /* \"contracts/contratos/TTP.sol\":1555:1575  address reportadoPor */\n      0x00\n        /* \"contracts/contratos/TTP.sol\":1577:1597  uint256 fechaReporte */\n      dup1\n        /* \"contracts/contratos/TTP.sol\":1623:1632  totalTTPs */\n      sload(0x01)\n        /* \"contracts/contratos/TTP.sol\":1618:1620  id */\n      dup6\n        /* \"contracts/contratos/TTP.sol\":1618:1632  id < totalTTPs */\n      lt\n        /* \"contracts/contratos/TTP.sol\":1610:1650  require(id < totalTTPs, \"TTP no existe\") */\n      tag_30\n      jumpi\n      mload(0x40)\n      0x08c379a000000000000000000000000000000000000000000000000000000000\n      dup2\n      mstore\n      0x04\n      add\n      tag_31\n      swap1\n      tag_32\n      jump\t// in\n    tag_31:\n      mload(0x40)\n      dup1\n      swap2\n      sub\n      swap1\n      revert\n    tag_30:\n        /* \"contracts/contratos/TTP.sol\":1661:1676  TTP storage ttp */\n      0x00\n        /* \"contracts/contratos/TTP.sol\":1679:1683  ttps */\n      dup1\n        /* \"contracts/contratos/TTP.sol\":1679:1687  ttps[id] */\n      0x00\n        /* \"contracts/contratos/TTP.sol\":1684:1686  id */\n      dup8\n        /* \"contracts/contratos/TTP.sol\":1679:1687  ttps[id] */\n      dup2\n      mstore\n      0x20\n      add\n      swap1\n      dup2\n      mstore\n      0x20\n      add\n      0x00\n      keccak256\n        /* \"contracts/contratos/TTP.sol\":1661:1687  TTP storage ttp = ttps[id] */\n      swap1\n      pop\n        /* \"contracts/contratos/TTP.sol\":1706:1709  ttp */\n      dup1\n        /* \"contracts/contratos/TTP.sol\":1706:1721  ttp.descripcion */\n      0x00\n      add\n        /* \"contracts/contratos/TTP.sol\":1723:1726  ttp */\n      dup2\n        /* \"contracts/contratos/TTP.sol\":1723:1736  ttp.categoria */\n      0x01\n      add\n        /* \"contracts/contratos/TTP.sol\":1738:1741  ttp */\n      dup3\n        /* \"contracts/contratos/TTP.sol\":1738:1754  ttp.reportadoPor */\n      0x02\n      add\n      0x00\n      swap1\n      sload\n      swap1\n      0x0100\n      exp\n      swap1\n      div\n      0xffffffffffffffffffffffffffffffffffffffff\n      and\n        /* \"contracts/contratos/TTP.sol\":1756:1759  ttp */\n      dup4\n        /* \"contracts/contratos/TTP.sol\":1756:1772  ttp.fechaReporte */\n      0x03\n      add\n      sload\n        /* \"contracts/contratos/TTP.sol\":1698:1773  return (ttp.descripcion, ttp.categoria, ttp.reportadoPor, ttp.fechaReporte) */\n      dup4\n      dup1\n      sload\n      tag_33\n      swap1\n      tag_34\n      jump\t// in\n    tag_33:\n      dup1\n      0x1f\n      add\n      0x20\n      dup1\n      swap2\n      div\n      mul\n      0x20\n      add\n      mload(0x40)\n      swap1\n      dup2\n      add\n      0x40\n      mstore\n      dup1\n      swap3\n      swap2\n      swap1\n      dup2\n      dup2\n      mstore\n      0x20\n      add\n      dup3\n      dup1\n      sload\n      tag_35\n      swap1\n      tag_34\n      jump\t// in\n    tag_35:\n      dup1\n      iszero\n      tag_36\n      jumpi\n      dup1\n      0x1f\n      lt\n      tag_37\n      jumpi\n      0x0100\n      dup1\n      dup4\n      sload\n      div\n      mul\n      dup4\n      mstore\n      swap2\n      0x20\n      add\n      swap2\n      jump(tag_36)\n    tag_37:\n      dup3\n      add\n      swap2\n      swap1\n      0x00\n      mstore\n      keccak256(0x00, 0x20)\n      swap1\n    tag_38:\n      dup2\n      sload\n      dup2\n      mstore\n      swap1\n      0x01\n      add\n      swap1\n      0x20\n      add\n      dup1\n      dup4\n      gt\n      tag_38\n      jumpi\n      dup3\n      swap1\n      sub\n      0x1f\n      and\n      dup3\n      add\n      swap2\n    tag_36:\n      pop\n      pop\n      pop\n      pop\n      pop\n      swap4\n      pop\n      dup3\n      dup1\n      sload\n      tag_39\n      swap1\n      tag_34\n      jump\t// in\n    tag_39:\n      dup1\n      0x1f\n      add\n      0x20\n      dup1\n      swap2\n      div\n      mul\n      0x20\n      add\n      mload(0x40)\n      swap1\n      dup2\n      add\n      0x40\n      mstore\n      dup1\n      swap3\n      swap2\n      swap1\n      dup2\n      dup2\n      mstore\n      0x20\n      add\n      dup3\n      dup1\n      sload\n      tag_40\n      swap1\n      tag_34\n      jump\t// in\n    tag_40:\n      dup1\n      iszero\n      tag_41\n      jumpi\n      dup1\n      0x1f\n      lt\n      tag_42\n      jumpi\n      0x0100\n      dup1\n      dup4\n      sload\n      div\n      mul\n      dup4\n      mstore\n      swap2\n      0x20\n      add\n      swap2\n      jump(tag_41)\n    tag_42:\n      dup3\n      add\n      swap2\n      swap1\n      0x00\n      mstore\n      keccak256(0x00, 0x20)\n      swap1\n    tag_43:\n      dup2\n      sload\n      dup2\n      mstore\n      swap1\n      0x01\n      add\n      swap1\n      0x20\n      add\n      dup1\n      dup4\n      gt\n      tag_43\n      jumpi\n      dup3\n      swap1\n      sub\n      0x1f\n      and\n      dup3\n      add\n      swap2\n    tag_41:\n      pop\n      pop\n      pop\n      pop\n      pop\n      swap3\n      pop\n      swap5\n      pop\n      swap5\n      pop\n      swap5\n      pop\n      swap5\n      pop\n      pop\n        /* \"contracts/contratos/TTP.sol\":1450:1781  function obtenerTTP(uint256 id) public view returns (string memory descripcion, string memory categoria, address reportadoPor, uint256 fechaReporte) {... */\n      swap2\n      swap4\n      pop\n      swap2\n      swap4\n      jump\t// out\n        /* \"contracts/contratos/TTP.sol\":1252:1407  function eliminarTTP(uint256 id) public {... */\n    tag_16:\n        /* \"contracts/contratos/TTP.sol\":1316:1325  totalTTPs */\n      sload(0x01)\n        /* \"contracts/contratos/TTP.sol\":1311:1313  id */\n      dup2\n        /* \"contracts/contratos/TTP.sol\":1311:1325  id < totalTTPs */\n      lt\n        /* \"contracts/contratos/TTP.sol\":1303:1343  require(id < totalTTPs, \"TTP no existe\") */\n      tag_45\n      jumpi\n      mload(0x40)\n      0x08c379a000000000000000000000000000000000000000000000000000000000\n      dup2\n      mstore\n      0x04\n      add\n      tag_46\n      swap1\n      tag_32\n      jump\t// in\n    tag_46:\n      mload(0x40)\n      dup1\n      swap2\n      sub\n      swap1\n      revert\n    tag_45:\n        /* \"contracts/contratos/TTP.sol\":1361:1365  ttps */\n      0x00\n        /* \"contracts/contratos/TTP.sol\":1361:1369  ttps[id] */\n      dup1\n        /* \"contracts/contratos/TTP.sol\":1366:1368  id */\n      dup3\n        /* \"contracts/contratos/TTP.sol\":1361:1369  ttps[id] */\n      dup2\n      mstore\n      0x20\n      add\n      swap1\n      dup2\n      mstore\n      0x20\n      add\n      0x00\n      keccak256\n      0x00\n        /* \"contracts/contratos/TTP.sol\":1354:1369  delete ttps[id] */\n      dup1\n      dup3\n      add\n      0x00\n      tag_47\n      swap2\n      swap1\n      tag_48\n      jump\t// in\n    tag_47:\n      0x01\n      dup3\n      add\n      0x00\n      tag_49\n      swap2\n      swap1\n      tag_48\n      jump\t// in\n    tag_49:\n      0x02\n      dup3\n      add\n      exp(0x0100, 0x00)\n      dup2\n      sload\n      swap1\n      0xffffffffffffffffffffffffffffffffffffffff\n      mul\n      not\n      and\n      swap1\n      sstore\n      0x03\n      dup3\n      add\n      0x00\n      swap1\n      sstore\n      pop\n      pop\n        /* \"contracts/contratos/TTP.sol\":1396:1398  id */\n      dup1\n        /* \"contracts/contratos/TTP.sol\":1385:1399  TTPDeleted(id) */\n      0x0317b51d219da391db8d82cbb7dc2485af083ad8711b6a35660350447f39ef53\n      mload(0x40)\n      mload(0x40)\n      dup1\n      swap2\n      sub\n      swap1\n      log2\n        /* \"contracts/contratos/TTP.sol\":1252:1407  function eliminarTTP(uint256 id) public {... */\n      pop\n      jump\t// out\n        /* \"contracts/contratos/TTP.sol\":900:1220  function actualizarTTP(uint256 id, string memory descripcion, string memory categoria) public {... */\n    tag_20:\n        /* \"contracts/contratos/TTP.sol\":1018:1027  totalTTPs */\n      sload(0x01)\n        /* \"contracts/contratos/TTP.sol\":1013:1015  id */\n      dup4\n        /* \"contracts/contratos/TTP.sol\":1013:1027  id < totalTTPs */\n      lt\n        /* \"contracts/contratos/TTP.sol\":1005:1045  require(id < totalTTPs, \"TTP no existe\") */\n      tag_51\n      jumpi\n      mload(0x40)\n      0x08c379a000000000000000000000000000000000000000000000000000000000\n      dup2\n      mstore\n      0x04\n      add\n      tag_52\n      swap1\n      tag_32\n      jump\t// in\n    tag_52:\n      mload(0x40)\n      dup1\n      swap2\n      sub\n      swap1\n      revert\n    tag_51:\n        /* \"contracts/contratos/TTP.sol\":1056:1071  TTP storage ttp */\n      0x00\n        /* \"contracts/contratos/TTP.sol\":1074:1078  ttps */\n      dup1\n        /* \"contracts/contratos/TTP.sol\":1074:1082  ttps[id] */\n      0x00\n        /* \"contracts/contratos/TTP.sol\":1079:1081  id */\n      dup6\n        /* \"contracts/contratos/TTP.sol\":1074:1082  ttps[id] */\n      dup2\n      mstore\n      0x20\n      add\n      swap1\n      dup2\n      mstore\n      0x20\n      add\n      0x00\n      keccak256\n        /* \"contracts/contratos/TTP.sol\":1056:1082  TTP storage ttp = ttps[id] */\n      swap1\n      pop\n        /* \"contracts/contratos/TTP.sol\":1111:1122  descripcion */\n      dup3\n        /* \"contracts/contratos/TTP.sol\":1093:1096  ttp */\n      dup2\n        /* \"contracts/contratos/TTP.sol\":1093:1108  ttp.descripcion */\n      0x00\n      add\n        /* \"contracts/contratos/TTP.sol\":1093:1122  ttp.descripcion = descripcion */\n      swap1\n      dup2\n      tag_53\n      swap2\n      swap1\n      tag_54\n      jump\t// in\n    tag_53:\n      pop\n        /* \"contracts/contratos/TTP.sol\":1149:1158  categoria */\n      dup2\n        /* \"contracts/contratos/TTP.sol\":1133:1136  ttp */\n      dup2\n        /* \"contracts/contratos/TTP.sol\":1133:1146  ttp.categoria */\n      0x01\n      add\n        /* \"contracts/contratos/TTP.sol\":1133:1158  ttp.categoria = categoria */\n      swap1\n      dup2\n      tag_55\n      swap2\n      swap1\n      tag_54\n      jump\t// in\n    tag_55:\n      pop\n        /* \"contracts/contratos/TTP.sol\":1185:1187  id */\n      dup4\n        /* \"contracts/contratos/TTP.sol\":1174:1212  TTPUpdated(id, descripcion, categoria) */\n      0xc2b696f58f58751b0a0d1263bf93c07d8d143ed860fa2ec123d15b9c4c08859a\n        /* \"contracts/contratos/TTP.sol\":1189:1200  descripcion */\n      dup5\n        /* \"contracts/contratos/TTP.sol\":1202:1211  categoria */\n      dup5\n        /* \"contracts/contratos/TTP.sol\":1174:1212  TTPUpdated(id, descripcion, categoria) */\n      mload(0x40)\n      tag_56\n      swap3\n      swap2\n      swap1\n      tag_57\n      jump\t// in\n    tag_56:\n      mload(0x40)\n      dup1\n      swap2\n      sub\n      swap1\n      log2\n        /* \"contracts/contratos/TTP.sol\":994:1220  {... */\n      pop\n        /* \"contracts/contratos/TTP.sol\":900:1220  function actualizarTTP(uint256 id, string memory descripcion, string memory categoria) public {... */\n      pop\n      pop\n      pop\n      jump\t// out\n        /* \"contracts/contratos/TTP.sol\":439:856  function agregarTTP(string memory descripcion, string memory categoria) public {... */\n    tag_24:\n        /* \"contracts/contratos/TTP.sol\":529:548  TTP memory nuevoTTP */\n      0x00\n        /* \"contracts/contratos/TTP.sol\":551:724  TTP({... */\n      mload(0x40)\n      dup1\n      0x80\n      add\n      0x40\n      mstore\n      dup1\n        /* \"contracts/contratos/TTP.sol\":583:594  descripcion */\n      dup5\n        /* \"contracts/contratos/TTP.sol\":551:724  TTP({... */\n      dup2\n      mstore\n      0x20\n      add\n        /* \"contracts/contratos/TTP.sol\":620:629  categoria */\n      dup4\n        /* \"contracts/contratos/TTP.sol\":551:724  TTP({... */\n      dup2\n      mstore\n      0x20\n      add\n        /* \"contracts/contratos/TTP.sol\":658:668  msg.sender */\n      caller\n        /* \"contracts/contratos/TTP.sol\":551:724  TTP({... */\n      0xffffffffffffffffffffffffffffffffffffffff\n      and\n      dup2\n      mstore\n      0x20\n      add\n        /* \"contracts/contratos/TTP.sol\":697:712  block.timestamp */\n      timestamp\n        /* \"contracts/contratos/TTP.sol\":551:724  TTP({... */\n      dup2\n      mstore\n      pop\n        /* \"contracts/contratos/TTP.sol\":529:724  TTP memory nuevoTTP = TTP({... */\n      swap1\n      pop\n        /* \"contracts/contratos/TTP.sol\":755:763  nuevoTTP */\n      dup1\n        /* \"contracts/contratos/TTP.sol\":737:741  ttps */\n      0x00\n        /* \"contracts/contratos/TTP.sol\":737:752  ttps[totalTTPs] */\n      dup1\n        /* \"contracts/contratos/TTP.sol\":742:751  totalTTPs */\n      sload(0x01)\n        /* \"contracts/contratos/TTP.sol\":737:752  ttps[totalTTPs] */\n      dup2\n      mstore\n      0x20\n      add\n      swap1\n      dup2\n      mstore\n      0x20\n      add\n      0x00\n      keccak256\n        /* \"contracts/contratos/TTP.sol\":737:763  ttps[totalTTPs] = nuevoTTP */\n      0x00\n      dup3\n      add\n      mload\n      dup2\n      0x00\n      add\n      swap1\n      dup2\n      tag_59\n      swap2\n      swap1\n      tag_54\n      jump\t// in\n    tag_59:\n      pop\n      0x20\n      dup3\n      add\n      mload\n      dup2\n      0x01\n      add\n      swap1\n      dup2\n      tag_60\n      swap2\n      swap1\n      tag_54\n      jump\t// in\n    tag_60:\n      pop\n      0x40\n      dup3\n      add\n      mload\n      dup2\n      0x02\n      add\n      exp(0x0100, 0x00)\n      dup2\n      sload\n      dup2\n      0xffffffffffffffffffffffffffffffffffffffff\n      mul\n      not\n      and\n      swap1\n      dup4\n      0xffffffffffffffffffffffffffffffffffffffff\n      and\n      mul\n      or\n      swap1\n      sstore\n      pop\n      0x60\n      dup3\n      add\n      mload\n      dup2\n      0x03\n      add\n      sstore\n      swap1\n      pop\n      pop\n        /* \"contracts/contratos/TTP.sol\":774:783  totalTTPs */\n      0x01\n      0x00\n        /* \"contracts/contratos/TTP.sol\":774:785  totalTTPs++ */\n      dup2\n      sload\n      dup1\n      swap3\n      swap2\n      swap1\n      tag_61\n      swap1\n      tag_62\n      jump\t// in\n    tag_61:\n      swap2\n      swap1\n      pop\n      sstore\n      pop\n        /* \"contracts/contratos/TTP.sol\":822:823  1 */\n      0x01\n        /* \"contracts/contratos/TTP.sol\":810:819  totalTTPs */\n      dup1\n      sload\n        /* \"contracts/contratos/TTP.sol\":810:823  totalTTPs - 1 */\n      tag_63\n      swap2\n      swap1\n      tag_64\n      jump\t// in\n    tag_63:\n        /* \"contracts/contratos/TTP.sol\":801:848  TTPAdded(totalTTPs - 1, descripcion, categoria) */\n      0x444d4c1383e7668a2a4dc9d50d9db9224b9a599d75740d79fc796c06c89fada1\n        /* \"contracts/contratos/TTP.sol\":825:836  descripcion */\n      dup5\n        /* \"contracts/contratos/TTP.sol\":838:847  categoria */\n      dup5\n        /* \"contracts/contratos/TTP.sol\":801:848  TTPAdded(totalTTPs - 1, descripcion, categoria) */\n      mload(0x40)\n      tag_65\n      swap3\n      swap2\n      swap1\n      tag_57\n      jump\t// in\n    tag_65:\n      mload(0x40)\n      dup1\n      swap2\n      sub\n      swap1\n      log2\n        /* \"contracts/contratos/TTP.sol\":518:856  {... */\n      pop\n        /* \"contracts/contratos/TTP.sol\":439:856  function agregarTTP(string memory descripcion, string memory categoria) public {... */\n      pop\n      pop\n      jump\t// out\n        /* \"contracts/contratos/TTP.sol\":1832:2073  function obtenerTodosTTPs() public view returns (TTP[] memory) {... */\n    tag_26:\n        /* \"contracts/contratos/TTP.sol\":1881:1893  TTP[] memory */\n      0x60\n        /* \"contracts/contratos/TTP.sol\":1906:1924  TTP[] memory todos */\n      0x00\n        /* \"contracts/contratos/TTP.sol\":1937:1946  totalTTPs */\n      sload(0x01)\n        /* \"contracts/contratos/TTP.sol\":1927:1947  new TTP[](totalTTPs) */\n      0xffffffffffffffff\n      dup2\n      gt\n      iszero\n      tag_67\n      jumpi\n      tag_68\n      tag_69\n      jump\t// in\n    tag_68:\n    tag_67:\n      mload(0x40)\n      swap1\n      dup1\n      dup3\n      mstore\n      dup1\n      0x20\n      mul\n      0x20\n      add\n      dup3\n      add\n      0x40\n      mstore\n      dup1\n      iszero\n      tag_70\n      jumpi\n      dup2\n      0x20\n      add\n    tag_71:\n      tag_72\n      tag_73\n      jump\t// in\n    tag_72:\n      dup2\n      mstore\n      0x20\n      add\n      swap1\n      0x01\n      swap1\n      sub\n      swap1\n      dup2\n      tag_71\n      jumpi\n      swap1\n      pop\n    tag_70:\n      pop\n        /* \"contracts/contratos/TTP.sol\":1906:1947  TTP[] memory todos = new TTP[](totalTTPs) */\n      swap1\n      pop\n        /* \"contracts/contratos/TTP.sol\":1963:1972  uint256 i */\n      0x00\n        /* \"contracts/contratos/TTP.sol\":1958:2043  for (uint256 i = 0; i < totalTTPs; i++) {... */\n    tag_74:\n        /* \"contracts/contratos/TTP.sol\":1982:1991  totalTTPs */\n      sload(0x01)\n        /* \"contracts/contratos/TTP.sol\":1978:1979  i */\n      dup2\n        /* \"contracts/contratos/TTP.sol\":1978:1991  i < totalTTPs */\n      lt\n        /* \"contracts/contratos/TTP.sol\":1958:2043  for (uint256 i = 0; i < totalTTPs; i++) {... */\n      iszero\n      tag_75\n      jumpi\n        /* \"contracts/contratos/TTP.sol\":2024:2028  ttps */\n      0x00\n        /* \"contracts/contratos/TTP.sol\":2024:2031  ttps[i] */\n      dup1\n        /* \"contracts/contratos/TTP.sol\":2029:2030  i */\n      dup3\n        /* \"contracts/contratos/TTP.sol\":2024:2031  ttps[i] */\n      dup2\n      mstore\n      0x20\n      add\n      swap1\n      dup2\n      mstore\n      0x20\n      add\n      0x00\n      keccak256\n        /* \"contracts/contratos/TTP.sol\":2013:2031  todos[i] = ttps[i] */\n      mload(0x40)\n      dup1\n      0x80\n      add\n      0x40\n      mstore\n      swap1\n      dup2\n      0x00\n      dup3\n      add\n      dup1\n      sload\n      tag_77\n      swap1\n      tag_34\n      jump\t// in\n    tag_77:\n      dup1\n      0x1f\n      add\n      0x20\n      dup1\n      swap2\n      div\n      mul\n      0x20\n      add\n      mload(0x40)\n      swap1\n      dup2\n      add\n      0x40\n      mstore\n      dup1\n      swap3\n      swap2\n      swap1\n      dup2\n      dup2\n      mstore\n      0x20\n      add\n      dup3\n      dup1\n      sload\n      tag_78\n      swap1\n      tag_34\n      jump\t// in\n    tag_78:\n      dup1\n      iszero\n      tag_79\n      jumpi\n      dup1\n      0x1f\n      lt\n      tag_80\n      jumpi\n      0x0100\n      dup1\n      dup4\n      sload\n      div\n      mul\n      dup4\n      mstore\n      swap2\n      0x20\n      add\n      swap2\n      jump(tag_79)\n    tag_80:\n      dup3\n      add\n      swap2\n      swap1\n      0x00\n      mstore\n      keccak256(0x00, 0x20)\n      swap1\n    tag_81:\n      dup2\n      sload\n      dup2\n      mstore\n      swap1\n      0x01\n      add\n      swap1\n      0x20\n      add\n      dup1\n      dup4\n      gt\n      tag_81\n      jumpi\n      dup3\n      swap1\n      sub\n      0x1f\n      and\n      dup3\n      add\n      swap2\n    tag_79:\n      pop\n      pop\n      pop\n      pop\n      pop\n      dup2\n      mstore\n      0x20\n      add\n      0x01\n      dup3\n      add\n      dup1\n      sload\n      tag_82\n      swap1\n      tag_34\n      jump\t// in\n    tag_82:\n      dup1\n      0x1f\n      add\n      0x20\n      dup1\n      swap2\n      div\n      mul\n      0x20\n      add\n      mload(0x40)\n      swap1\n      dup2\n      add\n      0x40\n      mstore\n      dup1\n      swap3\n      swap2\n      swap1\n      dup2\n      dup2\n      mstore\n      0x20\n      add\n      dup3\n      dup1\n      sload\n      tag_83\n      swap1\n      tag_34\n      jump\t// in\n    tag_83:\n      dup1\n      iszero\n      tag_84\n      jumpi\n      dup1\n      0x1f\n      lt\n      tag_85\n      jumpi\n      0x0100\n      dup1\n      dup4\n      sload\n      div\n      mul\n      dup4\n      mstore\n      swap2\n      0x20\n      add\n      swap2\n      jump(tag_84)\n    tag_85:\n      dup3\n      add\n      swap2\n      swap1\n      0x00\n      mstore\n      keccak256(0x00, 0x20)\n      swap1\n    tag_86:\n      dup2\n      sload\n      dup2\n      mstore\n      swap1\n      0x01\n      add\n      swap1\n      0x20\n      add\n      dup1\n      dup4\n      gt\n      tag_86\n      jumpi\n      dup3\n      swap1\n      sub\n      0x1f\n      and\n      dup3\n      add\n      swap2\n    tag_84:\n      pop\n      pop\n      pop\n      pop\n      pop\n      dup2\n      mstore\n      0x20\n      add\n      0x02\n      dup3\n      add\n      0x00\n      swap1\n      sload\n      swap1\n      0x0100\n      exp\n      swap1\n      div\n      0xffffffffffffffffffffffffffffffffffffffff\n      and\n      0xffffffffffffffffffffffffffffffffffffffff\n      and\n      0xffffffffffffffffffffffffffffffffffffffff\n      and\n      dup2\n      mstore\n      0x20\n      add\n      0x03\n      dup3\n      add\n      sload\n      dup2\n      mstore\n      pop\n      pop\n        /* \"contracts/contratos/TTP.sol\":2013:2018  todos */\n      dup3\n        /* \"contracts/contratos/TTP.sol\":2019:2020  i */\n      dup3\n        /* \"contracts/contratos/TTP.sol\":2013:2021  todos[i] */\n      dup2\n      mload\n      dup2\n      lt\n      tag_87\n      jumpi\n      tag_88\n      tag_89\n      jump\t// in\n    tag_88:\n    tag_87:\n      0x20\n      mul\n      0x20\n      add\n      add\n        /* \"contracts/contratos/TTP.sol\":2013:2031  todos[i] = ttps[i] */\n      dup2\n      swap1\n      mstore\n      pop\n        /* \"contracts/contratos/TTP.sol\":1993:1996  i++ */\n      dup1\n      dup1\n      0x01\n      add\n      swap2\n      pop\n      pop\n        /* \"contracts/contratos/TTP.sol\":1958:2043  for (uint256 i = 0; i < totalTTPs; i++) {... */\n      jump(tag_74)\n    tag_75:\n      pop\n        /* \"contracts/contratos/TTP.sol\":2060:2065  todos */\n      dup1\n        /* \"contracts/contratos/TTP.sol\":2053:2065  return todos */\n      swap2\n      pop\n      pop\n        /* \"contracts/contratos/TTP.sol\":1832:2073  function obtenerTodosTTPs() public view returns (TTP[] memory) {... */\n      swap1\n      jump\t// out\n    tag_48:\n      pop\n      dup1\n      sload\n      tag_90\n      swap1\n      tag_34\n      jump\t// in\n    tag_90:\n      0x00\n      dup3\n      sstore\n      dup1\n      0x1f\n      lt\n      tag_92\n      jumpi\n      pop\n      jump(tag_91)\n    tag_92:\n      0x1f\n      add\n      0x20\n      swap1\n      div\n      swap1\n      0x00\n      mstore\n      keccak256(0x00, 0x20)\n      swap1\n      dup2\n      add\n      swap1\n      tag_93\n      swap2\n      swap1\n      tag_94\n      jump\t// in\n    tag_93:\n    tag_91:\n      pop\n      jump\t// out\n    tag_73:\n      mload(0x40)\n      dup1\n      0x80\n      add\n      0x40\n      mstore\n      dup1\n      0x60\n      dup2\n      mstore\n      0x20\n      add\n      0x60\n      dup2\n      mstore\n      0x20\n      add\n      and(0xffffffffffffffffffffffffffffffffffffffff, 0x00)\n      dup2\n      mstore\n      0x20\n      add\n      0x00\n      dup2\n      mstore\n      pop\n      swap1\n      jump\t// out\n    tag_94:\n    tag_95:\n      dup1\n      dup3\n      gt\n      iszero\n      tag_96\n      jumpi\n      0x00\n      dup2\n      0x00\n      swap1\n      sstore\n      pop\n      0x01\n      add\n      jump(tag_95)\n    tag_96:\n      pop\n      swap1\n      jump\t// out\n        /* \"#utility.yul\":7:82   */\n    tag_97:\n        /* \"#utility.yul\":40:46   */\n      0x00\n        /* \"#utility.yul\":73:75   */\n      0x40\n        /* \"#utility.yul\":67:76   */\n      mload\n        /* \"#utility.yul\":57:76   */\n      swap1\n      pop\n        /* \"#utility.yul\":7:82   */\n      swap1\n      jump\t// out\n        /* \"#utility.yul\":88:205   */\n    tag_98:\n        /* \"#utility.yul\":197:198   */\n      0x00\n        /* \"#utility.yul\":194:195   */\n      dup1\n        /* \"#utility.yul\":187:199   */\n      revert\n        /* \"#utility.yul\":211:328   */\n    tag_99:\n        /* \"#utility.yul\":320:321   */\n      0x00\n        /* \"#utility.yul\":317:318   */\n      dup1\n        /* \"#utility.yul\":310:322   */\n      revert\n        /* \"#utility.yul\":334:411   */\n    tag_100:\n        /* \"#utility.yul\":371:378   */\n      0x00\n        /* \"#utility.yul\":400:405   */\n      dup2\n        /* \"#utility.yul\":389:405   */\n      swap1\n      pop\n        /* \"#utility.yul\":334:411   */\n      swap2\n      swap1\n      pop\n      jump\t// out\n        /* \"#utility.yul\":417:539   */\n    tag_101:\n        /* \"#utility.yul\":490:514   */\n      tag_156\n        /* \"#utility.yul\":508:513   */\n      dup2\n        /* \"#utility.yul\":490:514   */\n      tag_100\n      jump\t// in\n    tag_156:\n        /* \"#utility.yul\":483:488   */\n      dup2\n        /* \"#utility.yul\":480:515   */\n      eq\n        /* \"#utility.yul\":470:533   */\n      tag_157\n      jumpi\n        /* \"#utility.yul\":529:530   */\n      0x00\n        /* \"#utility.yul\":526:527   */\n      dup1\n        /* \"#utility.yul\":519:531   */\n      revert\n        /* \"#utility.yul\":470:533   */\n    tag_157:\n        /* \"#utility.yul\":417:539   */\n      pop\n      jump\t// out\n        /* \"#utility.yul\":545:684   */\n    tag_102:\n        /* \"#utility.yul\":591:596   */\n      0x00\n        /* \"#utility.yul\":629:635   */\n      dup2\n        /* \"#utility.yul\":616:636   */\n      calldataload\n        /* \"#utility.yul\":607:636   */\n      swap1\n      pop\n        /* \"#utility.yul\":645:678   */\n      tag_159\n        /* \"#utility.yul\":672:677   */\n      dup2\n        /* \"#utility.yul\":645:678   */\n      tag_101\n      jump\t// in\n    tag_159:\n        /* \"#utility.yul\":545:684   */\n      swap3\n      swap2\n      pop\n      pop\n      jump\t// out\n        /* \"#utility.yul\":690:1019   */\n    tag_10:\n        /* \"#utility.yul\":749:755   */\n      0x00\n        /* \"#utility.yul\":798:800   */\n      0x20\n        /* \"#utility.yul\":786:795   */\n      dup3\n        /* \"#utility.yul\":777:784   */\n      dup5\n        /* \"#utility.yul\":773:796   */\n      sub\n        /* \"#utility.yul\":769:801   */\n      slt\n        /* \"#utility.yul\":766:885   */\n      iszero\n      tag_161\n      jumpi\n        /* \"#utility.yul\":804:883   */\n      tag_162\n      tag_98\n      jump\t// in\n    tag_162:\n        /* \"#utility.yul\":766:885   */\n    tag_161:\n        /* \"#utility.yul\":924:925   */\n      0x00\n        /* \"#utility.yul\":949:1002   */\n      tag_163\n        /* \"#utility.yul\":994:1001   */\n      dup5\n        /* \"#utility.yul\":985:991   */\n      dup3\n        /* \"#utility.yul\":974:983   */\n      dup6\n        /* \"#utility.yul\":970:992   */\n      add\n        /* \"#utility.yul\":949:1002   */\n      tag_102\n      jump\t// in\n    tag_163:\n        /* \"#utility.yul\":939:1002   */\n      swap2\n      pop\n        /* \"#utility.yul\":895:1012   */\n      pop\n        /* \"#utility.yul\":690:1019   */\n      swap3\n      swap2\n      pop\n      pop\n      jump\t// out\n        /* \"#utility.yul\":1025:1124   */\n    tag_103:\n        /* \"#utility.yul\":1077:1083   */\n      0x00\n        /* \"#utility.yul\":1111:1116   */\n      dup2\n        /* \"#utility.yul\":1105:1117   */\n      mload\n        /* \"#utility.yul\":1095:1117   */\n      swap1\n      pop\n        /* \"#utility.yul\":1025:1124   */\n      swap2\n      swap1\n      pop\n      jump\t// out\n        /* \"#utility.yul\":1130:1299   */\n    tag_104:\n        /* \"#utility.yul\":1214:1225   */\n      0x00\n        /* \"#utility.yul\":1248:1254   */\n      dup3\n        /* \"#utility.yul\":1243:1246   */\n      dup3\n        /* \"#utility.yul\":1236:1255   */\n      mstore\n        /* \"#utility.yul\":1288:1292   */\n      0x20\n        /* \"#utility.yul\":1283:1286   */\n      dup3\n        /* \"#utility.yul\":1279:1293   */\n      add\n        /* \"#utility.yul\":1264:1293   */\n      swap1\n      pop\n        /* \"#utility.yul\":1130:1299   */\n      swap3\n      swap2\n      pop\n      pop\n      jump\t// out\n        /* \"#utility.yul\":1305:1444   */\n    tag_105:\n        /* \"#utility.yul\":1394:1400   */\n      dup3\n        /* \"#utility.yul\":1389:1392   */\n      dup2\n        /* \"#utility.yul\":1384:1387   */\n      dup4\n        /* \"#utility.yul\":1378:1401   */\n      mcopy\n        /* \"#utility.yul\":1435:1436   */\n      0x00\n        /* \"#utility.yul\":1426:1432   */\n      dup4\n        /* \"#utility.yul\":1421:1424   */\n      dup4\n        /* \"#utility.yul\":1417:1433   */\n      add\n        /* \"#utility.yul\":1410:1437   */\n      mstore\n        /* \"#utility.yul\":1305:1444   */\n      pop\n      pop\n      pop\n      jump\t// out\n        /* \"#utility.yul\":1450:1552   */\n    tag_106:\n        /* \"#utility.yul\":1491:1497   */\n      0x00\n        /* \"#utility.yul\":1542:1544   */\n      0x1f\n        /* \"#utility.yul\":1538:1545   */\n      not\n        /* \"#utility.yul\":1533:1535   */\n      0x1f\n        /* \"#utility.yul\":1526:1531   */\n      dup4\n        /* \"#utility.yul\":1522:1536   */\n      add\n        /* \"#utility.yul\":1518:1546   */\n      and\n        /* \"#utility.yul\":1508:1546   */\n      swap1\n      pop\n        /* \"#utility.yul\":1450:1552   */\n      swap2\n      swap1\n      pop\n      jump\t// out\n        /* \"#utility.yul\":1558:1935   */\n    tag_107:\n        /* \"#utility.yul\":1646:1649   */\n      0x00\n        /* \"#utility.yul\":1674:1713   */\n      tag_169\n        /* \"#utility.yul\":1707:1712   */\n      dup3\n        /* \"#utility.yul\":1674:1713   */\n      tag_103\n      jump\t// in\n    tag_169:\n        /* \"#utility.yul\":1729:1800   */\n      tag_170\n        /* \"#utility.yul\":1793:1799   */\n      dup2\n        /* \"#utility.yul\":1788:1791   */\n      dup6\n        /* \"#utility.yul\":1729:1800   */\n      tag_104\n      jump\t// in\n    tag_170:\n        /* \"#utility.yul\":1722:1800   */\n      swap4\n      pop\n        /* \"#utility.yul\":1809:1874   */\n      tag_171\n        /* \"#utility.yul\":1867:1873   */\n      dup2\n        /* \"#utility.yul\":1862:1865   */\n      dup6\n        /* \"#utility.yul\":1855:1859   */\n      0x20\n        /* \"#utility.yul\":1848:1853   */\n      dup7\n        /* \"#utility.yul\":1844:1860   */\n      add\n        /* \"#utility.yul\":1809:1874   */\n      tag_105\n      jump\t// in\n    tag_171:\n        /* \"#utility.yul\":1899:1928   */\n      tag_172\n        /* \"#utility.yul\":1921:1927   */\n      dup2\n        /* \"#utility.yul\":1899:1928   */\n      tag_106\n      jump\t// in\n    tag_172:\n        /* \"#utility.yul\":1894:1897   */\n      dup5\n        /* \"#utility.yul\":1890:1929   */\n      add\n        /* \"#utility.yul\":1883:1929   */\n      swap2\n      pop\n        /* \"#utility.yul\":1650:1935   */\n      pop\n        /* \"#utility.yul\":1558:1935   */\n      swap3\n      swap2\n      pop\n      pop\n      jump\t// out\n        /* \"#utility.yul\":1941:2067   */\n    tag_108:\n        /* \"#utility.yul\":1978:1985   */\n      0x00\n        /* \"#utility.yul\":2018:2060   */\n      0xffffffffffffffffffffffffffffffffffffffff\n        /* \"#utility.yul\":2011:2016   */\n      dup3\n        /* \"#utility.yul\":2007:2061   */\n      and\n        /* \"#utility.yul\":1996:2061   */\n      swap1\n      pop\n        /* \"#utility.yul\":1941:2067   */\n      swap2\n      swap1\n      pop\n      jump\t// out\n        /* \"#utility.yul\":2073:2169   */\n    tag_109:\n        /* \"#utility.yul\":2110:2117   */\n      0x00\n        /* \"#utility.yul\":2139:2163   */\n      tag_175\n        /* \"#utility.yul\":2157:2162   */\n      dup3\n        /* \"#utility.yul\":2139:2163   */\n      tag_108\n      jump\t// in\n    tag_175:\n        /* \"#utility.yul\":2128:2163   */\n      swap1\n      pop\n        /* \"#utility.yul\":2073:2169   */\n      swap2\n      swap1\n      pop\n      jump\t// out\n        /* \"#utility.yul\":2175:2293   */\n    tag_110:\n        /* \"#utility.yul\":2262:2286   */\n      tag_177\n        /* \"#utility.yul\":2280:2285   */\n      dup2\n        /* \"#utility.yul\":2262:2286   */\n      tag_109\n      jump\t// in\n    tag_177:\n        /* \"#utility.yul\":2257:2260   */\n      dup3\n        /* \"#utility.yul\":2250:2287   */\n      mstore\n        /* \"#utility.yul\":2175:2293   */\n      pop\n      pop\n      jump\t// out\n        /* \"#utility.yul\":2299:2417   */\n    tag_111:\n        /* \"#utility.yul\":2386:2410   */\n      tag_179\n        /* \"#utility.yul\":2404:2409   */\n      dup2\n        /* \"#utility.yul\":2386:2410   */\n      tag_100\n      jump\t// in\n    tag_179:\n        /* \"#utility.yul\":2381:2384   */\n      dup3\n        /* \"#utility.yul\":2374:2411   */\n      mstore\n        /* \"#utility.yul\":2299:2417   */\n      pop\n      pop\n      jump\t// out\n        /* \"#utility.yul\":2423:3158   */\n    tag_13:\n        /* \"#utility.yul\":2640:2644   */\n      0x00\n        /* \"#utility.yul\":2678:2681   */\n      0x80\n        /* \"#utility.yul\":2667:2676   */\n      dup3\n        /* \"#utility.yul\":2663:2682   */\n      add\n        /* \"#utility.yul\":2655:2682   */\n      swap1\n      pop\n        /* \"#utility.yul\":2728:2737   */\n      dup2\n        /* \"#utility.yul\":2722:2726   */\n      dup2\n        /* \"#utility.yul\":2718:2738   */\n      sub\n        /* \"#utility.yul\":2714:2715   */\n      0x00\n        /* \"#utility.yul\":2703:2712   */\n      dup4\n        /* \"#utility.yul\":2699:2716   */\n      add\n        /* \"#utility.yul\":2692:2739   */\n      mstore\n        /* \"#utility.yul\":2756:2834   */\n      tag_181\n        /* \"#utility.yul\":2829:2833   */\n      dup2\n        /* \"#utility.yul\":2820:2826   */\n      dup8\n        /* \"#utility.yul\":2756:2834   */\n      tag_107\n      jump\t// in\n    tag_181:\n        /* \"#utility.yul\":2748:2834   */\n      swap1\n      pop\n        /* \"#utility.yul\":2881:2890   */\n      dup2\n        /* \"#utility.yul\":2875:2879   */\n      dup2\n        /* \"#utility.yul\":2871:2891   */\n      sub\n        /* \"#utility.yul\":2866:2868   */\n      0x20\n        /* \"#utility.yul\":2855:2864   */\n      dup4\n        /* \"#utility.yul\":2851:2869   */\n      add\n        /* \"#utility.yul\":2844:2892   */\n      mstore\n        /* \"#utility.yul\":2909:2987   */\n      tag_182\n        /* \"#utility.yul\":2982:2986   */\n      dup2\n        /* \"#utility.yul\":2973:2979   */\n      dup7\n        /* \"#utility.yul\":2909:2987   */\n      tag_107\n      jump\t// in\n    tag_182:\n        /* \"#utility.yul\":2901:2987   */\n      swap1\n      pop\n        /* \"#utility.yul\":2997:3069   */\n      tag_183\n        /* \"#utility.yul\":3065:3067   */\n      0x40\n        /* \"#utility.yul\":3054:3063   */\n      dup4\n        /* \"#utility.yul\":3050:3068   */\n      add\n        /* \"#utility.yul\":3041:3047   */\n      dup6\n        /* \"#utility.yul\":2997:3069   */\n      tag_110\n      jump\t// in\n    tag_183:\n        /* \"#utility.yul\":3079:3151   */\n      tag_184\n        /* \"#utility.yul\":3147:3149   */\n      0x60\n        /* \"#utility.yul\":3136:3145   */\n      dup4\n        /* \"#utility.yul\":3132:3150   */\n      add\n        /* \"#utility.yul\":3123:3129   */\n      dup5\n        /* \"#utility.yul\":3079:3151   */\n      tag_111\n      jump\t// in\n    tag_184:\n        /* \"#utility.yul\":2423:3158   */\n      swap6\n      swap5\n      pop\n      pop\n      pop\n      pop\n      pop\n      jump\t// out\n        /* \"#utility.yul\":3164:3281   */\n    tag_112:\n        /* \"#utility.yul\":3273:3274   */\n      0x00\n        /* \"#utility.yul\":3270:3271   */\n      dup1\n        /* \"#utility.yul\":3263:3275   */\n      revert\n        /* \"#utility.yul\":3287:3404   */\n    tag_113:\n        /* \"#utility.yul\":3396:3397   */\n      0x00\n        /* \"#utility.yul\":3393:3394   */\n      dup1\n        /* \"#utility.yul\":3386:3398   */\n      revert\n        /* \"#utility.yul\":3410:3590   */\n    tag_69:\n        /* \"#utility.yul\":3458:3535   */\n      0x4e487b7100000000000000000000000000000000000000000000000000000000\n        /* \"#utility.yul\":3455:3456   */\n      0x00\n        /* \"#utility.yul\":3448:3536   */\n      mstore\n        /* \"#utility.yul\":3555:3559   */\n      0x41\n        /* \"#utility.yul\":3552:3553   */\n      0x04\n        /* \"#utility.yul\":3545:3560   */\n      mstore\n        /* \"#utility.yul\":3579:3583   */\n      0x24\n        /* \"#utility.yul\":3576:3577   */\n      0x00\n        /* \"#utility.yul\":3569:3584   */\n      revert\n        /* \"#utility.yul\":3596:3877   */\n    tag_114:\n        /* \"#utility.yul\":3679:3706   */\n      tag_189\n        /* \"#utility.yul\":3701:3705   */\n      dup3\n        /* \"#utility.yul\":3679:3706   */\n      tag_106\n      jump\t// in\n    tag_189:\n        /* \"#utility.yul\":3671:3677   */\n      dup2\n        /* \"#utility.yul\":3667:3707   */\n      add\n        /* \"#utility.yul\":3809:3815   */\n      dup2\n        /* \"#utility.yul\":3797:3807   */\n      dup2\n        /* \"#utility.yul\":3794:3816   */\n      lt\n        /* \"#utility.yul\":3773:3791   */\n      0xffffffffffffffff\n        /* \"#utility.yul\":3761:3771   */\n      dup3\n        /* \"#utility.yul\":3758:3792   */\n      gt\n        /* \"#utility.yul\":3755:3817   */\n      or\n        /* \"#utility.yul\":3752:3840   */\n      iszero\n      tag_190\n      jumpi\n        /* \"#utility.yul\":3820:3838   */\n      tag_191\n      tag_69\n      jump\t// in\n    tag_191:\n        /* \"#utility.yul\":3752:3840   */\n    tag_190:\n        /* \"#utility.yul\":3860:3870   */\n      dup1\n        /* \"#utility.yul\":3856:3858   */\n      0x40\n        /* \"#utility.yul\":3849:3871   */\n      mstore\n        /* \"#utility.yul\":3639:3877   */\n      pop\n        /* \"#utility.yul\":3596:3877   */\n      pop\n      pop\n      jump\t// out\n        /* \"#utility.yul\":3883:4012   */\n    tag_115:\n        /* \"#utility.yul\":3917:3923   */\n      0x00\n        /* \"#utility.yul\":3944:3964   */\n      tag_193\n      tag_97\n      jump\t// in\n    tag_193:\n        /* \"#utility.yul\":3934:3964   */\n      swap1\n      pop\n        /* \"#utility.yul\":3973:4006   */\n      tag_194\n        /* \"#utility.yul\":4001:4005   */\n      dup3\n        /* \"#utility.yul\":3993:3999   */\n      dup3\n        /* \"#utility.yul\":3973:4006   */\n      tag_114\n      jump\t// in\n    tag_194:\n        /* \"#utility.yul\":3883:4012   */\n      swap2\n      swap1\n      pop\n      jump\t// out\n        /* \"#utility.yul\":4018:4326   */\n    tag_116:\n        /* \"#utility.yul\":4080:4084   */\n      0x00\n        /* \"#utility.yul\":4170:4188   */\n      0xffffffffffffffff\n        /* \"#utility.yul\":4162:4168   */\n      dup3\n        /* \"#utility.yul\":4159:4189   */\n      gt\n        /* \"#utility.yul\":4156:4212   */\n      iszero\n      tag_196\n      jumpi\n        /* \"#utility.yul\":4192:4210   */\n      tag_197\n      tag_69\n      jump\t// in\n    tag_197:\n        /* \"#utility.yul\":4156:4212   */\n    tag_196:\n        /* \"#utility.yul\":4230:4259   */\n      tag_198\n        /* \"#utility.yul\":4252:4258   */\n      dup3\n        /* \"#utility.yul\":4230:4259   */\n      tag_106\n      jump\t// in\n    tag_198:\n        /* \"#utility.yul\":4222:4259   */\n      swap1\n      pop\n        /* \"#utility.yul\":4314:4318   */\n      0x20\n        /* \"#utility.yul\":4308:4312   */\n      dup2\n        /* \"#utility.yul\":4304:4319   */\n      add\n        /* \"#utility.yul\":4296:4319   */\n      swap1\n      pop\n        /* \"#utility.yul\":4018:4326   */\n      swap2\n      swap1\n      pop\n      jump\t// out\n        /* \"#utility.yul\":4332:4480   */\n    tag_117:\n        /* \"#utility.yul\":4430:4436   */\n      dup3\n        /* \"#utility.yul\":4425:4428   */\n      dup2\n        /* \"#utility.yul\":4420:4423   */\n      dup4\n        /* \"#utility.yul\":4407:4437   */\n      calldatacopy\n        /* \"#utility.yul\":4471:4472   */\n      0x00\n        /* \"#utility.yul\":4462:4468   */\n      dup4\n        /* \"#utility.yul\":4457:4460   */\n      dup4\n        /* \"#utility.yul\":4453:4469   */\n      add\n        /* \"#utility.yul\":4446:4473   */\n      mstore\n        /* \"#utility.yul\":4332:4480   */\n      pop\n      pop\n      pop\n      jump\t// out\n        /* \"#utility.yul\":4486:4911   */\n    tag_118:\n        /* \"#utility.yul\":4564:4569   */\n      0x00\n        /* \"#utility.yul\":4589:4655   */\n      tag_201\n        /* \"#utility.yul\":4605:4654   */\n      tag_202\n        /* \"#utility.yul\":4647:4653   */\n      dup5\n        /* \"#utility.yul\":4605:4654   */\n      tag_116\n      jump\t// in\n    tag_202:\n        /* \"#utility.yul\":4589:4655   */\n      tag_115\n      jump\t// in\n    tag_201:\n        /* \"#utility.yul\":4580:4655   */\n      swap1\n      pop\n        /* \"#utility.yul\":4678:4684   */\n      dup3\n        /* \"#utility.yul\":4671:4676   */\n      dup2\n        /* \"#utility.yul\":4664:4685   */\n      mstore\n        /* \"#utility.yul\":4716:4720   */\n      0x20\n        /* \"#utility.yul\":4709:4714   */\n      dup2\n        /* \"#utility.yul\":4705:4721   */\n      add\n        /* \"#utility.yul\":4754:4757   */\n      dup5\n        /* \"#utility.yul\":4745:4751   */\n      dup5\n        /* \"#utility.yul\":4740:4743   */\n      dup5\n        /* \"#utility.yul\":4736:4752   */\n      add\n        /* \"#utility.yul\":4733:4758   */\n      gt\n        /* \"#utility.yul\":4730:4842   */\n      iszero\n      tag_203\n      jumpi\n        /* \"#utility.yul\":4761:4840   */\n      tag_204\n      tag_113\n      jump\t// in\n    tag_204:\n        /* \"#utility.yul\":4730:4842   */\n    tag_203:\n        /* \"#utility.yul\":4851:4905   */\n      tag_205\n        /* \"#utility.yul\":4898:4904   */\n      dup5\n        /* \"#utility.yul\":4893:4896   */\n      dup3\n        /* \"#utility.yul\":4888:4891   */\n      dup6\n        /* \"#utility.yul\":4851:4905   */\n      tag_117\n      jump\t// in\n    tag_205:\n        /* \"#utility.yul\":4570:4911   */\n      pop\n        /* \"#utility.yul\":4486:4911   */\n      swap4\n      swap3\n      pop\n      pop\n      pop\n      jump\t// out\n        /* \"#utility.yul\":4931:5271   */\n    tag_119:\n        /* \"#utility.yul\":4987:4992   */\n      0x00\n        /* \"#utility.yul\":5036:5039   */\n      dup3\n        /* \"#utility.yul\":5029:5033   */\n      0x1f\n        /* \"#utility.yul\":5021:5027   */\n      dup4\n        /* \"#utility.yul\":5017:5034   */\n      add\n        /* \"#utility.yul\":5013:5040   */\n      slt\n        /* \"#utility.yul\":5003:5125   */\n      tag_207\n      jumpi\n        /* \"#utility.yul\":5044:5123   */\n      tag_208\n      tag_112\n      jump\t// in\n    tag_208:\n        /* \"#utility.yul\":5003:5125   */\n    tag_207:\n        /* \"#utility.yul\":5161:5167   */\n      dup2\n        /* \"#utility.yul\":5148:5168   */\n      calldataload\n        /* \"#utility.yul\":5186:5265   */\n      tag_209\n        /* \"#utility.yul\":5261:5264   */\n      dup5\n        /* \"#utility.yul\":5253:5259   */\n      dup3\n        /* \"#utility.yul\":5246:5250   */\n      0x20\n        /* \"#utility.yul\":5238:5244   */\n      dup7\n        /* \"#utility.yul\":5234:5251   */\n      add\n        /* \"#utility.yul\":5186:5265   */\n      tag_118\n      jump\t// in\n    tag_209:\n        /* \"#utility.yul\":5177:5265   */\n      swap2\n      pop\n        /* \"#utility.yul\":4993:5271   */\n      pop\n        /* \"#utility.yul\":4931:5271   */\n      swap3\n      swap2\n      pop\n      pop\n      jump\t// out\n        /* \"#utility.yul\":5277:6256   */\n    tag_19:\n        /* \"#utility.yul\":5374:5380   */\n      0x00\n        /* \"#utility.yul\":5382:5388   */\n      dup1\n        /* \"#utility.yul\":5390:5396   */\n      0x00\n        /* \"#utility.yul\":5439:5441   */\n      0x60\n        /* \"#utility.yul\":5427:5436   */\n      dup5\n        /* \"#utility.yul\":5418:5425   */\n      dup7\n        /* \"#utility.yul\":5414:5437   */\n      sub\n        /* \"#utility.yul\":5410:5442   */\n      slt\n        /* \"#utility.yul\":5407:5526   */\n      iszero\n      tag_211\n      jumpi\n        /* \"#utility.yul\":5445:5524   */\n      tag_212\n      tag_98\n      jump\t// in\n    tag_212:\n        /* \"#utility.yul\":5407:5526   */\n    tag_211:\n        /* \"#utility.yul\":5565:5566   */\n      0x00\n        /* \"#utility.yul\":5590:5643   */\n      tag_213\n        /* \"#utility.yul\":5635:5642   */\n      dup7\n        /* \"#utility.yul\":5626:5632   */\n      dup3\n        /* \"#utility.yul\":5615:5624   */\n      dup8\n        /* \"#utility.yul\":5611:5633   */\n      add\n        /* \"#utility.yul\":5590:5643   */\n      tag_102\n      jump\t// in\n    tag_213:\n        /* \"#utility.yul\":5580:5643   */\n      swap4\n      pop\n        /* \"#utility.yul\":5536:5653   */\n      pop\n        /* \"#utility.yul\":5720:5722   */\n      0x20\n        /* \"#utility.yul\":5709:5718   */\n      dup5\n        /* \"#utility.yul\":5705:5723   */\n      add\n        /* \"#utility.yul\":5692:5724   */\n      calldataload\n        /* \"#utility.yul\":5751:5769   */\n      0xffffffffffffffff\n        /* \"#utility.yul\":5743:5749   */\n      dup2\n        /* \"#utility.yul\":5740:5770   */\n      gt\n        /* \"#utility.yul\":5737:5854   */\n      iszero\n      tag_214\n      jumpi\n        /* \"#utility.yul\":5773:5852   */\n      tag_215\n      tag_99\n      jump\t// in\n    tag_215:\n        /* \"#utility.yul\":5737:5854   */\n    tag_214:\n        /* \"#utility.yul\":5878:5941   */\n      tag_216\n        /* \"#utility.yul\":5933:5940   */\n      dup7\n        /* \"#utility.yul\":5924:5930   */\n      dup3\n        /* \"#utility.yul\":5913:5922   */\n      dup8\n        /* \"#utility.yul\":5909:5931   */\n      add\n        /* \"#utility.yul\":5878:5941   */\n      tag_119\n      jump\t// in\n    tag_216:\n        /* \"#utility.yul\":5868:5941   */\n      swap3\n      pop\n        /* \"#utility.yul\":5663:5951   */\n      pop\n        /* \"#utility.yul\":6018:6020   */\n      0x40\n        /* \"#utility.yul\":6007:6016   */\n      dup5\n        /* \"#utility.yul\":6003:6021   */\n      add\n        /* \"#utility.yul\":5990:6022   */\n      calldataload\n        /* \"#utility.yul\":6049:6067   */\n      0xffffffffffffffff\n        /* \"#utility.yul\":6041:6047   */\n      dup2\n        /* \"#utility.yul\":6038:6068   */\n      gt\n        /* \"#utility.yul\":6035:6152   */\n      iszero\n      tag_217\n      jumpi\n        /* \"#utility.yul\":6071:6150   */\n      tag_218\n      tag_99\n      jump\t// in\n    tag_218:\n        /* \"#utility.yul\":6035:6152   */\n    tag_217:\n        /* \"#utility.yul\":6176:6239   */\n      tag_219\n        /* \"#utility.yul\":6231:6238   */\n      dup7\n        /* \"#utility.yul\":6222:6228   */\n      dup3\n        /* \"#utility.yul\":6211:6220   */\n      dup8\n        /* \"#utility.yul\":6207:6229   */\n      add\n        /* \"#utility.yul\":6176:6239   */\n      tag_119\n      jump\t// in\n    tag_219:\n        /* \"#utility.yul\":6166:6239   */\n      swap2\n      pop\n        /* \"#utility.yul\":5961:6249   */\n      pop\n        /* \"#utility.yul\":5277:6256   */\n      swap3\n      pop\n      swap3\n      pop\n      swap3\n      jump\t// out\n        /* \"#utility.yul\":6262:7096   */\n    tag_23:\n        /* \"#utility.yul\":6350:6356   */\n      0x00\n        /* \"#utility.yul\":6358:6364   */\n      dup1\n        /* \"#utility.yul\":6407:6409   */\n      0x40\n        /* \"#utility.yul\":6395:6404   */\n      dup4\n        /* \"#utility.yul\":6386:6393   */\n      dup6\n        /* \"#utility.yul\":6382:6405   */\n      sub\n        /* \"#utility.yul\":6378:6410   */\n      slt\n        /* \"#utility.yul\":6375:6494   */\n      iszero\n      tag_221\n      jumpi\n        /* \"#utility.yul\":6413:6492   */\n      tag_222\n      tag_98\n      jump\t// in\n    tag_222:\n        /* \"#utility.yul\":6375:6494   */\n    tag_221:\n        /* \"#utility.yul\":6561:6562   */\n      0x00\n        /* \"#utility.yul\":6550:6559   */\n      dup4\n        /* \"#utility.yul\":6546:6563   */\n      add\n        /* \"#utility.yul\":6533:6564   */\n      calldataload\n        /* \"#utility.yul\":6591:6609   */\n      0xffffffffffffffff\n        /* \"#utility.yul\":6583:6589   */\n      dup2\n        /* \"#utility.yul\":6580:6610   */\n      gt\n        /* \"#utility.yul\":6577:6694   */\n      iszero\n      tag_223\n      jumpi\n        /* \"#utility.yul\":6613:6692   */\n      tag_224\n      tag_99\n      jump\t// in\n    tag_224:\n        /* \"#utility.yul\":6577:6694   */\n    tag_223:\n        /* \"#utility.yul\":6718:6781   */\n      tag_225\n        /* \"#utility.yul\":6773:6780   */\n      dup6\n        /* \"#utility.yul\":6764:6770   */\n      dup3\n        /* \"#utility.yul\":6753:6762   */\n      dup7\n        /* \"#utility.yul\":6749:6771   */\n      add\n        /* \"#utility.yul\":6718:6781   */\n      tag_119\n      jump\t// in\n    tag_225:\n        /* \"#utility.yul\":6708:6781   */\n      swap3\n      pop\n        /* \"#utility.yul\":6504:6791   */\n      pop\n        /* \"#utility.yul\":6858:6860   */\n      0x20\n        /* \"#utility.yul\":6847:6856   */\n      dup4\n        /* \"#utility.yul\":6843:6861   */\n      add\n        /* \"#utility.yul\":6830:6862   */\n      calldataload\n        /* \"#utility.yul\":6889:6907   */\n      0xffffffffffffffff\n        /* \"#utility.yul\":6881:6887   */\n      dup2\n        /* \"#utility.yul\":6878:6908   */\n      gt\n        /* \"#utility.yul\":6875:6992   */\n      iszero\n      tag_226\n      jumpi\n        /* \"#utility.yul\":6911:6990   */\n      tag_227\n      tag_99\n      jump\t// in\n    tag_227:\n        /* \"#utility.yul\":6875:6992   */\n    tag_226:\n        /* \"#utility.yul\":7016:7079   */\n      tag_228\n        /* \"#utility.yul\":7071:7078   */\n      dup6\n        /* \"#utility.yul\":7062:7068   */\n      dup3\n        /* \"#utility.yul\":7051:7060   */\n      dup7\n        /* \"#utility.yul\":7047:7069   */\n      add\n        /* \"#utility.yul\":7016:7079   */\n      tag_119\n      jump\t// in\n    tag_228:\n        /* \"#utility.yul\":7006:7079   */\n      swap2\n      pop\n        /* \"#utility.yul\":6801:7089   */\n      pop\n        /* \"#utility.yul\":6262:7096   */\n      swap3\n      pop\n      swap3\n      swap1\n      pop\n      jump\t// out\n        /* \"#utility.yul\":7102:7236   */\n    tag_120:\n        /* \"#utility.yul\":7189:7195   */\n      0x00\n        /* \"#utility.yul\":7223:7228   */\n      dup2\n        /* \"#utility.yul\":7217:7229   */\n      mload\n        /* \"#utility.yul\":7207:7229   */\n      swap1\n      pop\n        /* \"#utility.yul\":7102:7236   */\n      swap2\n      swap1\n      pop\n      jump\t// out\n        /* \"#utility.yul\":7242:7446   */\n    tag_121:\n        /* \"#utility.yul\":7361:7372   */\n      0x00\n        /* \"#utility.yul\":7395:7401   */\n      dup3\n        /* \"#utility.yul\":7390:7393   */\n      dup3\n        /* \"#utility.yul\":7383:7402   */\n      mstore\n        /* \"#utility.yul\":7435:7439   */\n      0x20\n        /* \"#utility.yul\":7430:7433   */\n      dup3\n        /* \"#utility.yul\":7426:7440   */\n      add\n        /* \"#utility.yul\":7411:7440   */\n      swap1\n      pop\n        /* \"#utility.yul\":7242:7446   */\n      swap3\n      swap2\n      pop\n      pop\n      jump\t// out\n        /* \"#utility.yul\":7452:7604   */\n    tag_122:\n        /* \"#utility.yul\":7539:7543   */\n      0x00\n        /* \"#utility.yul\":7562:7565   */\n      dup2\n        /* \"#utility.yul\":7554:7565   */\n      swap1\n      pop\n        /* \"#utility.yul\":7592:7596   */\n      0x20\n        /* \"#utility.yul\":7587:7590   */\n      dup3\n        /* \"#utility.yul\":7583:7597   */\n      add\n        /* \"#utility.yul\":7575:7597   */\n      swap1\n      pop\n        /* \"#utility.yul\":7452:7604   */\n      swap2\n      swap1\n      pop\n      jump\t// out\n        /* \"#utility.yul\":7610:7769   */\n    tag_123:\n        /* \"#utility.yul\":7684:7695   */\n      0x00\n        /* \"#utility.yul\":7718:7724   */\n      dup3\n        /* \"#utility.yul\":7713:7716   */\n      dup3\n        /* \"#utility.yul\":7706:7725   */\n      mstore\n        /* \"#utility.yul\":7758:7762   */\n      0x20\n        /* \"#utility.yul\":7753:7756   */\n      dup3\n        /* \"#utility.yul\":7749:7763   */\n      add\n        /* \"#utility.yul\":7734:7763   */\n      swap1\n      pop\n        /* \"#utility.yul\":7610:7769   */\n      swap3\n      swap2\n      pop\n      pop\n      jump\t// out\n        /* \"#utility.yul\":7775:8132   */\n    tag_124:\n        /* \"#utility.yul\":7853:7856   */\n      0x00\n        /* \"#utility.yul\":7881:7920   */\n      tag_234\n        /* \"#utility.yul\":7914:7919   */\n      dup3\n        /* \"#utility.yul\":7881:7920   */\n      tag_103\n      jump\t// in\n    tag_234:\n        /* \"#utility.yul\":7936:7997   */\n      tag_235\n        /* \"#utility.yul\":7990:7996   */\n      dup2\n        /* \"#utility.yul\":7985:7988   */\n      dup6\n        /* \"#utility.yul\":7936:7997   */\n      tag_123\n      jump\t// in\n    tag_235:\n        /* \"#utility.yul\":7929:7997   */\n      swap4\n      pop\n        /* \"#utility.yul\":8006:8071   */\n      tag_236\n        /* \"#utility.yul\":8064:8070   */\n      dup2\n        /* \"#utility.yul\":8059:8062   */\n      dup6\n        /* \"#utility.yul\":8052:8056   */\n      0x20\n        /* \"#utility.yul\":8045:8050   */\n      dup7\n        /* \"#utility.yul\":8041:8057   */\n      add\n        /* \"#utility.yul\":8006:8071   */\n      tag_105\n      jump\t// in\n    tag_236:\n        /* \"#utility.yul\":8096:8125   */\n      tag_237\n        /* \"#utility.yul\":8118:8124   */\n      dup2\n        /* \"#utility.yul\":8096:8125   */\n      tag_106\n      jump\t// in\n    tag_237:\n        /* \"#utility.yul\":8091:8094   */\n      dup5\n        /* \"#utility.yul\":8087:8126   */\n      add\n        /* \"#utility.yul\":8080:8126   */\n      swap2\n      pop\n        /* \"#utility.yul\":7857:8132   */\n      pop\n        /* \"#utility.yul\":7775:8132   */\n      swap3\n      swap2\n      pop\n      pop\n      jump\t// out\n        /* \"#utility.yul\":8138:8246   */\n    tag_125:\n        /* \"#utility.yul\":8215:8239   */\n      tag_239\n        /* \"#utility.yul\":8233:8238   */\n      dup2\n        /* \"#utility.yul\":8215:8239   */\n      tag_109\n      jump\t// in\n    tag_239:\n        /* \"#utility.yul\":8210:8213   */\n      dup3\n        /* \"#utility.yul\":8203:8240   */\n      mstore\n        /* \"#utility.yul\":8138:8246   */\n      pop\n      pop\n      jump\t// out\n        /* \"#utility.yul\":8252:8360   */\n    tag_126:\n        /* \"#utility.yul\":8329:8353   */\n      tag_241\n        /* \"#utility.yul\":8347:8352   */\n      dup2\n        /* \"#utility.yul\":8329:8353   */\n      tag_100\n      jump\t// in\n    tag_241:\n        /* \"#utility.yul\":8324:8327   */\n      dup3\n        /* \"#utility.yul\":8317:8354   */\n      mstore\n        /* \"#utility.yul\":8252:8360   */\n      pop\n      pop\n      jump\t// out\n        /* \"#utility.yul\":8408:9441   */\n    tag_127:\n        /* \"#utility.yul\":8507:8510   */\n      0x00\n        /* \"#utility.yul\":8543:8547   */\n      0x80\n        /* \"#utility.yul\":8538:8541   */\n      dup4\n        /* \"#utility.yul\":8534:8548   */\n      add\n        /* \"#utility.yul\":8637:8641   */\n      0x00\n        /* \"#utility.yul\":8630:8635   */\n      dup4\n        /* \"#utility.yul\":8626:8642   */\n      add\n        /* \"#utility.yul\":8620:8643   */\n      mload\n        /* \"#utility.yul\":8690:8693   */\n      dup5\n        /* \"#utility.yul\":8684:8688   */\n      dup3\n        /* \"#utility.yul\":8680:8694   */\n      sub\n        /* \"#utility.yul\":8673:8677   */\n      0x00\n        /* \"#utility.yul\":8668:8671   */\n      dup7\n        /* \"#utility.yul\":8664:8678   */\n      add\n        /* \"#utility.yul\":8657:8695   */\n      mstore\n        /* \"#utility.yul\":8716:8789   */\n      tag_243\n        /* \"#utility.yul\":8784:8788   */\n      dup3\n        /* \"#utility.yul\":8770:8782   */\n      dup3\n        /* \"#utility.yul\":8716:8789   */\n      tag_124\n      jump\t// in\n    tag_243:\n        /* \"#utility.yul\":8708:8789   */\n      swap2\n      pop\n        /* \"#utility.yul\":8558:8800   */\n      pop\n        /* \"#utility.yul\":8887:8891   */\n      0x20\n        /* \"#utility.yul\":8880:8885   */\n      dup4\n        /* \"#utility.yul\":8876:8892   */\n      add\n        /* \"#utility.yul\":8870:8893   */\n      mload\n        /* \"#utility.yul\":8940:8943   */\n      dup5\n        /* \"#utility.yul\":8934:8938   */\n      dup3\n        /* \"#utility.yul\":8930:8944   */\n      sub\n        /* \"#utility.yul\":8923:8927   */\n      0x20\n        /* \"#utility.yul\":8918:8921   */\n      dup7\n        /* \"#utility.yul\":8914:8928   */\n      add\n        /* \"#utility.yul\":8907:8945   */\n      mstore\n        /* \"#utility.yul\":8966:9039   */\n      tag_244\n        /* \"#utility.yul\":9034:9038   */\n      dup3\n        /* \"#utility.yul\":9020:9032   */\n      dup3\n        /* \"#utility.yul\":8966:9039   */\n      tag_124\n      jump\t// in\n    tag_244:\n        /* \"#utility.yul\":8958:9039   */\n      swap2\n      pop\n        /* \"#utility.yul\":8810:9050   */\n      pop\n        /* \"#utility.yul\":9140:9144   */\n      0x40\n        /* \"#utility.yul\":9133:9138   */\n      dup4\n        /* \"#utility.yul\":9129:9145   */\n      add\n        /* \"#utility.yul\":9123:9146   */\n      mload\n        /* \"#utility.yul\":9159:9222   */\n      tag_245\n        /* \"#utility.yul\":9216:9220   */\n      0x40\n        /* \"#utility.yul\":9211:9214   */\n      dup7\n        /* \"#utility.yul\":9207:9221   */\n      add\n        /* \"#utility.yul\":9193:9205   */\n      dup3\n        /* \"#utility.yul\":9159:9222   */\n      tag_125\n      jump\t// in\n    tag_245:\n        /* \"#utility.yul\":9060:9232   */\n      pop\n        /* \"#utility.yul\":9322:9326   */\n      0x60\n        /* \"#utility.yul\":9315:9320   */\n      dup4\n        /* \"#utility.yul\":9311:9327   */\n      add\n        /* \"#utility.yul\":9305:9328   */\n      mload\n        /* \"#utility.yul\":9341:9404   */\n      tag_246\n        /* \"#utility.yul\":9398:9402   */\n      0x60\n        /* \"#utility.yul\":9393:9396   */\n      dup7\n        /* \"#utility.yul\":9389:9403   */\n      add\n        /* \"#utility.yul\":9375:9387   */\n      dup3\n        /* \"#utility.yul\":9341:9404   */\n      tag_126\n      jump\t// in\n    tag_246:\n        /* \"#utility.yul\":9242:9414   */\n      pop\n        /* \"#utility.yul\":9431:9435   */\n      dup1\n        /* \"#utility.yul\":9424:9435   */\n      swap2\n      pop\n        /* \"#utility.yul\":8512:9441   */\n      pop\n        /* \"#utility.yul\":8408:9441   */\n      swap3\n      swap2\n      pop\n      pop\n      jump\t// out\n        /* \"#utility.yul\":9447:9683   */\n    tag_128:\n        /* \"#utility.yul\":9556:9566   */\n      0x00\n        /* \"#utility.yul\":9591:9677   */\n      tag_248\n        /* \"#utility.yul\":9673:9676   */\n      dup4\n        /* \"#utility.yul\":9665:9671   */\n      dup4\n        /* \"#utility.yul\":9591:9677   */\n      tag_127\n      jump\t// in\n    tag_248:\n        /* \"#utility.yul\":9577:9677   */\n      swap1\n      pop\n        /* \"#utility.yul\":9447:9683   */\n      swap3\n      swap2\n      pop\n      pop\n      jump\t// out\n        /* \"#utility.yul\":9689:9822   */\n    tag_129:\n        /* \"#utility.yul\":9779:9783   */\n      0x00\n        /* \"#utility.yul\":9811:9815   */\n      0x20\n        /* \"#utility.yul\":9806:9809   */\n      dup3\n        /* \"#utility.yul\":9802:9816   */\n      add\n        /* \"#utility.yul\":9794:9816   */\n      swap1\n      pop\n        /* \"#utility.yul\":9689:9822   */\n      swap2\n      swap1\n      pop\n      jump\t// out\n        /* \"#utility.yul\":9874:10945   */\n    tag_130:\n        /* \"#utility.yul\":10033:10036   */\n      0x00\n        /* \"#utility.yul\":10062:10136   */\n      tag_251\n        /* \"#utility.yul\":10130:10135   */\n      dup3\n        /* \"#utility.yul\":10062:10136   */\n      tag_120\n      jump\t// in\n    tag_251:\n        /* \"#utility.yul\":10152:10258   */\n      tag_252\n        /* \"#utility.yul\":10251:10257   */\n      dup2\n        /* \"#utility.yul\":10246:10249   */\n      dup6\n        /* \"#utility.yul\":10152:10258   */\n      tag_121\n      jump\t// in\n    tag_252:\n        /* \"#utility.yul\":10145:10258   */\n      swap4\n      pop\n        /* \"#utility.yul\":10284:10287   */\n      dup4\n        /* \"#utility.yul\":10329:10333   */\n      0x20\n        /* \"#utility.yul\":10321:10327   */\n      dup3\n        /* \"#utility.yul\":10317:10334   */\n      mul\n        /* \"#utility.yul\":10312:10315   */\n      dup6\n        /* \"#utility.yul\":10308:10335   */\n      add\n        /* \"#utility.yul\":10359:10435   */\n      tag_253\n        /* \"#utility.yul\":10429:10434   */\n      dup6\n        /* \"#utility.yul\":10359:10435   */\n      tag_122\n      jump\t// in\n    tag_253:\n        /* \"#utility.yul\":10458:10465   */\n      dup1\n        /* \"#utility.yul\":10489:10490   */\n      0x00\n        /* \"#utility.yul\":10474:10900   */\n    tag_254:\n        /* \"#utility.yul\":10499:10505   */\n      dup6\n        /* \"#utility.yul\":10496:10497   */\n      dup2\n        /* \"#utility.yul\":10493:10506   */\n      lt\n        /* \"#utility.yul\":10474:10900   */\n      iszero\n      tag_256\n      jumpi\n        /* \"#utility.yul\":10570:10579   */\n      dup5\n        /* \"#utility.yul\":10564:10568   */\n      dup5\n        /* \"#utility.yul\":10560:10580   */\n      sub\n        /* \"#utility.yul\":10555:10558   */\n      dup10\n        /* \"#utility.yul\":10548:10581   */\n      mstore\n        /* \"#utility.yul\":10621:10627   */\n      dup2\n        /* \"#utility.yul\":10615:10628   */\n      mload\n        /* \"#utility.yul\":10649:10753   */\n      tag_257\n        /* \"#utility.yul\":10748:10752   */\n      dup6\n        /* \"#utility.yul\":10733:10746   */\n      dup3\n        /* \"#utility.yul\":10649:10753   */\n      tag_128\n      jump\t// in\n    tag_257:\n        /* \"#utility.yul\":10641:10753   */\n      swap5\n      pop\n        /* \"#utility.yul\":10776:10856   */\n      tag_258\n        /* \"#utility.yul\":10849:10855   */\n      dup4\n        /* \"#utility.yul\":10776:10856   */\n      tag_129\n      jump\t// in\n    tag_258:\n        /* \"#utility.yul\":10766:10856   */\n      swap3\n      pop\n        /* \"#utility.yul\":10885:10889   */\n      0x20\n        /* \"#utility.yul\":10880:10883   */\n      dup11\n        /* \"#utility.yul\":10876:10890   */\n      add\n        /* \"#utility.yul\":10869:10890   */\n      swap10\n      pop\n        /* \"#utility.yul\":10534:10900   */\n      pop\n        /* \"#utility.yul\":10521:10522   */\n      0x01\n        /* \"#utility.yul\":10518:10519   */\n      dup2\n        /* \"#utility.yul\":10514:10523   */\n      add\n        /* \"#utility.yul\":10509:10523   */\n      swap1\n      pop\n        /* \"#utility.yul\":10474:10900   */\n      jump(tag_254)\n    tag_256:\n        /* \"#utility.yul\":10478:10492   */\n      pop\n        /* \"#utility.yul\":10916:10920   */\n      dup3\n        /* \"#utility.yul\":10909:10920   */\n      swap8\n      pop\n        /* \"#utility.yul\":10936:10939   */\n      dup8\n        /* \"#utility.yul\":10929:10939   */\n      swap6\n      pop\n        /* \"#utility.yul\":10038:10945   */\n      pop\n      pop\n      pop\n      pop\n      pop\n        /* \"#utility.yul\":9874:10945   */\n      swap3\n      swap2\n      pop\n      pop\n      jump\t// out\n        /* \"#utility.yul\":10951:11404   */\n    tag_28:\n        /* \"#utility.yul\":11134:11138   */\n      0x00\n        /* \"#utility.yul\":11172:11174   */\n      0x20\n        /* \"#utility.yul\":11161:11170   */\n      dup3\n        /* \"#utility.yul\":11157:11175   */\n      add\n        /* \"#utility.yul\":11149:11175   */\n      swap1\n      pop\n        /* \"#utility.yul\":11221:11230   */\n      dup2\n        /* \"#utility.yul\":11215:11219   */\n      dup2\n        /* \"#utility.yul\":11211:11231   */\n      sub\n        /* \"#utility.yul\":11207:11208   */\n      0x00\n        /* \"#utility.yul\":11196:11205   */\n      dup4\n        /* \"#utility.yul\":11192:11209   */\n      add\n        /* \"#utility.yul\":11185:11232   */\n      mstore\n        /* \"#utility.yul\":11249:11397   */\n      tag_260\n        /* \"#utility.yul\":11392:11396   */\n      dup2\n        /* \"#utility.yul\":11383:11389   */\n      dup5\n        /* \"#utility.yul\":11249:11397   */\n      tag_130\n      jump\t// in\n    tag_260:\n        /* \"#utility.yul\":11241:11397   */\n      swap1\n      pop\n        /* \"#utility.yul\":10951:11404   */\n      swap3\n      swap2\n      pop\n      pop\n      jump\t// out\n        /* \"#utility.yul\":11410:11573   */\n    tag_131:\n        /* \"#utility.yul\":11550:11565   */\n      0x545450206e6f2065786973746500000000000000000000000000000000000000\n        /* \"#utility.yul\":11546:11547   */\n      0x00\n        /* \"#utility.yul\":11538:11544   */\n      dup3\n        /* \"#utility.yul\":11534:11548   */\n      add\n        /* \"#utility.yul\":11527:11566   */\n      mstore\n        /* \"#utility.yul\":11410:11573   */\n      pop\n      jump\t// out\n        /* \"#utility.yul\":11579:11945   */\n    tag_132:\n        /* \"#utility.yul\":11721:11724   */\n      0x00\n        /* \"#utility.yul\":11742:11809   */\n      tag_263\n        /* \"#utility.yul\":11806:11808   */\n      0x0d\n        /* \"#utility.yul\":11801:11804   */\n      dup4\n        /* \"#utility.yul\":11742:11809   */\n      tag_104\n      jump\t// in\n    tag_263:\n        /* \"#utility.yul\":11735:11809   */\n      swap2\n      pop\n        /* \"#utility.yul\":11818:11911   */\n      tag_264\n        /* \"#utility.yul\":11907:11910   */\n      dup3\n        /* \"#utility.yul\":11818:11911   */\n      tag_131\n      jump\t// in\n    tag_264:\n        /* \"#utility.yul\":11936:11938   */\n      0x20\n        /* \"#utility.yul\":11931:11934   */\n      dup3\n        /* \"#utility.yul\":11927:11939   */\n      add\n        /* \"#utility.yul\":11920:11939   */\n      swap1\n      pop\n        /* \"#utility.yul\":11579:11945   */\n      swap2\n      swap1\n      pop\n      jump\t// out\n        /* \"#utility.yul\":11951:12370   */\n    tag_32:\n        /* \"#utility.yul\":12117:12121   */\n      0x00\n        /* \"#utility.yul\":12155:12157   */\n      0x20\n        /* \"#utility.yul\":12144:12153   */\n      dup3\n        /* \"#utility.yul\":12140:12158   */\n      add\n        /* \"#utility.yul\":12132:12158   */\n      swap1\n      pop\n        /* \"#utility.yul\":12204:12213   */\n      dup2\n        /* \"#utility.yul\":12198:12202   */\n      dup2\n        /* \"#utility.yul\":12194:12214   */\n      sub\n        /* \"#utility.yul\":12190:12191   */\n      0x00\n        /* \"#utility.yul\":12179:12188   */\n      dup4\n        /* \"#utility.yul\":12175:12192   */\n      add\n        /* \"#utility.yul\":12168:12215   */\n      mstore\n        /* \"#utility.yul\":12232:12363   */\n      tag_266\n        /* \"#utility.yul\":12358:12362   */\n      dup2\n        /* \"#utility.yul\":12232:12363   */\n      tag_132\n      jump\t// in\n    tag_266:\n        /* \"#utility.yul\":12224:12363   */\n      swap1\n      pop\n        /* \"#utility.yul\":11951:12370   */\n      swap2\n      swap1\n      pop\n      jump\t// out\n        /* \"#utility.yul\":12376:12556   */\n    tag_133:\n        /* \"#utility.yul\":12424:12501   */\n      0x4e487b7100000000000000000000000000000000000000000000000000000000\n        /* \"#utility.yul\":12421:12422   */\n      0x00\n        /* \"#utility.yul\":12414:12502   */\n      mstore\n        /* \"#utility.yul\":12521:12525   */\n      0x22\n        /* \"#utility.yul\":12518:12519   */\n      0x04\n        /* \"#utility.yul\":12511:12526   */\n      mstore\n        /* \"#utility.yul\":12545:12549   */\n      0x24\n        /* \"#utility.yul\":12542:12543   */\n      0x00\n        /* \"#utility.yul\":12535:12550   */\n      revert\n        /* \"#utility.yul\":12562:12882   */\n    tag_34:\n        /* \"#utility.yul\":12606:12612   */\n      0x00\n        /* \"#utility.yul\":12643:12644   */\n      0x02\n        /* \"#utility.yul\":12637:12641   */\n      dup3\n        /* \"#utility.yul\":12633:12645   */\n      div\n        /* \"#utility.yul\":12623:12645   */\n      swap1\n      pop\n        /* \"#utility.yul\":12690:12691   */\n      0x01\n        /* \"#utility.yul\":12684:12688   */\n      dup3\n        /* \"#utility.yul\":12680:12692   */\n      and\n        /* \"#utility.yul\":12711:12729   */\n      dup1\n        /* \"#utility.yul\":12701:12782   */\n      tag_269\n      jumpi\n        /* \"#utility.yul\":12767:12771   */\n      0x7f\n        /* \"#utility.yul\":12759:12765   */\n      dup3\n        /* \"#utility.yul\":12755:12772   */\n      and\n        /* \"#utility.yul\":12745:12772   */\n      swap2\n      pop\n        /* \"#utility.yul\":12701:12782   */\n    tag_269:\n        /* \"#utility.yul\":12829:12831   */\n      0x20\n        /* \"#utility.yul\":12821:12827   */\n      dup3\n        /* \"#utility.yul\":12818:12832   */\n      lt\n        /* \"#utility.yul\":12798:12816   */\n      dup2\n        /* \"#utility.yul\":12795:12833   */\n      sub\n        /* \"#utility.yul\":12792:12876   */\n      tag_270\n      jumpi\n        /* \"#utility.yul\":12848:12866   */\n      tag_271\n      tag_133\n      jump\t// in\n    tag_271:\n        /* \"#utility.yul\":12792:12876   */\n    tag_270:\n        /* \"#utility.yul\":12613:12882   */\n      pop\n        /* \"#utility.yul\":12562:12882   */\n      swap2\n      swap1\n      pop\n      jump\t// out\n        /* \"#utility.yul\":12888:13029   */\n    tag_134:\n        /* \"#utility.yul\":12937:12941   */\n      0x00\n        /* \"#utility.yul\":12960:12963   */\n      dup2\n        /* \"#utility.yul\":12952:12963   */\n      swap1\n      pop\n        /* \"#utility.yul\":12983:12986   */\n      dup2\n        /* \"#utility.yul\":12980:12981   */\n      0x00\n        /* \"#utility.yul\":12973:12987   */\n      mstore\n        /* \"#utility.yul\":13017:13021   */\n      0x20\n        /* \"#utility.yul\":13014:13015   */\n      0x00\n        /* \"#utility.yul\":13004:13022   */\n      keccak256\n        /* \"#utility.yul\":12996:13022   */\n      swap1\n      pop\n        /* \"#utility.yul\":12888:13029   */\n      swap2\n      swap1\n      pop\n      jump\t// out\n        /* \"#utility.yul\":13035:13128   */\n    tag_135:\n        /* \"#utility.yul\":13072:13078   */\n      0x00\n        /* \"#utility.yul\":13119:13121   */\n      0x20\n        /* \"#utility.yul\":13114:13116   */\n      0x1f\n        /* \"#utility.yul\":13107:13112   */\n      dup4\n        /* \"#utility.yul\":13103:13117   */\n      add\n        /* \"#utility.yul\":13099:13122   */\n      div\n        /* \"#utility.yul\":13089:13122   */\n      swap1\n      pop\n        /* \"#utility.yul\":13035:13128   */\n      swap2\n      swap1\n      pop\n      jump\t// out\n        /* \"#utility.yul\":13134:13241   */\n    tag_136:\n        /* \"#utility.yul\":13178:13186   */\n      0x00\n        /* \"#utility.yul\":13228:13233   */\n      dup3\n        /* \"#utility.yul\":13222:13226   */\n      dup3\n        /* \"#utility.yul\":13218:13234   */\n      shl\n        /* \"#utility.yul\":13197:13234   */\n      swap1\n      pop\n        /* \"#utility.yul\":13134:13241   */\n      swap3\n      swap2\n      pop\n      pop\n      jump\t// out\n        /* \"#utility.yul\":13247:13640   */\n    tag_137:\n        /* \"#utility.yul\":13316:13322   */\n      0x00\n        /* \"#utility.yul\":13366:13367   */\n      0x08\n        /* \"#utility.yul\":13354:13364   */\n      dup4\n        /* \"#utility.yul\":13350:13368   */\n      mul\n        /* \"#utility.yul\":13389:13486   */\n      tag_276\n        /* \"#utility.yul\":13419:13485   */\n      0xffffffffffffffffffffffffffffffffffffffffffffffffffffffffffffffff\n        /* \"#utility.yul\":13408:13417   */\n      dup3\n        /* \"#utility.yul\":13389:13486   */\n      tag_136\n      jump\t// in\n    tag_276:\n        /* \"#utility.yul\":13507:13546   */\n      tag_277\n        /* \"#utility.yul\":13537:13545   */\n      dup7\n        /* \"#utility.yul\":13526:13535   */\n      dup4\n        /* \"#utility.yul\":13507:13546   */\n      tag_136\n      jump\t// in\n    tag_277:\n        /* \"#utility.yul\":13495:13546   */\n      swap6\n      pop\n        /* \"#utility.yul\":13579:13583   */\n      dup1\n        /* \"#utility.yul\":13575:13584   */\n      not\n        /* \"#utility.yul\":13568:13573   */\n      dup5\n        /* \"#utility.yul\":13564:13585   */\n      and\n        /* \"#utility.yul\":13555:13585   */\n      swap4\n      pop\n        /* \"#utility.yul\":13628:13632   */\n      dup1\n        /* \"#utility.yul\":13618:13626   */\n      dup7\n        /* \"#utility.yul\":13614:13633   */\n      and\n        /* \"#utility.yul\":13607:13612   */\n      dup5\n        /* \"#utility.yul\":13604:13634   */\n      or\n        /* \"#utility.yul\":13594:13634   */\n      swap3\n      pop\n        /* \"#utility.yul\":13323:13640   */\n      pop\n      pop\n        /* \"#utility.yul\":13247:13640   */\n      swap4\n      swap3\n      pop\n      pop\n      pop\n      jump\t// out\n        /* \"#utility.yul\":13646:13706   */\n    tag_138:\n        /* \"#utility.yul\":13674:13677   */\n      0x00\n        /* \"#utility.yul\":13695:13700   */\n      dup2\n        /* \"#utility.yul\":13688:13700   */\n      swap1\n      pop\n        /* \"#utility.yul\":13646:13706   */\n      swap2\n      swap1\n      pop\n      jump\t// out\n        /* \"#utility.yul\":13712:13854   */\n    tag_139:\n        /* \"#utility.yul\":13762:13771   */\n      0x00\n        /* \"#utility.yul\":13795:13848   */\n      tag_280\n        /* \"#utility.yul\":13813:13847   */\n      tag_281\n        /* \"#utility.yul\":13822:13846   */\n      tag_282\n        /* \"#utility.yul\":13840:13845   */\n      dup5\n        /* \"#utility.yul\":13822:13846   */\n      tag_100\n      jump\t// in\n    tag_282:\n        /* \"#utility.yul\":13813:13847   */\n      tag_138\n      jump\t// in\n    tag_281:\n        /* \"#utility.yul\":13795:13848   */\n      tag_100\n      jump\t// in\n    tag_280:\n        /* \"#utility.yul\":13782:13848   */\n      swap1\n      pop\n        /* \"#utility.yul\":13712:13854   */\n      swap2\n      swap1\n      pop\n      jump\t// out\n        /* \"#utility.yul\":13860:13935   */\n    tag_140:\n        /* \"#utility.yul\":13903:13906   */\n      0x00\n        /* \"#utility.yul\":13924:13929   */\n      dup2\n        /* \"#utility.yul\":13917:13929   */\n      swap1\n      pop\n        /* \"#utility.yul\":13860:13935   */\n      swap2\n      swap1\n      pop\n      jump\t// out\n        /* \"#utility.yul\":13941:14210   */\n    tag_141:\n        /* \"#utility.yul\":14051:14090   */\n      tag_285\n        /* \"#utility.yul\":14082:14089   */\n      dup4\n        /* \"#utility.yul\":14051:14090   */\n      tag_139\n      jump\t// in\n    tag_285:\n        /* \"#utility.yul\":14112:14203   */\n      tag_286\n        /* \"#utility.yul\":14161:14202   */\n      tag_287\n        /* \"#utility.yul\":14185:14201   */\n      dup3\n        /* \"#utility.yul\":14161:14202   */\n      tag_140\n      jump\t// in\n    tag_287:\n        /* \"#utility.yul\":14153:14159   */\n      dup5\n        /* \"#utility.yul\":14146:14150   */\n      dup5\n        /* \"#utility.yul\":14140:14151   */\n      sload\n        /* \"#utility.yul\":14112:14203   */\n      tag_137\n      jump\t// in\n    tag_286:\n        /* \"#utility.yul\":14106:14110   */\n      dup3\n        /* \"#utility.yul\":14099:14204   */\n      sstore\n        /* \"#utility.yul\":14017:14210   */\n      pop\n        /* \"#utility.yul\":13941:14210   */\n      pop\n      pop\n      pop\n      jump\t// out\n        /* \"#utility.yul\":14216:14289   */\n    tag_142:\n        /* \"#utility.yul\":14261:14264   */\n      0x00\n        /* \"#utility.yul\":14216:14289   */\n      swap1\n      jump\t// out\n        /* \"#utility.yul\":14295:14484   */\n    tag_143:\n        /* \"#utility.yul\":14372:14404   */\n      tag_290\n      tag_142\n      jump\t// in\n    tag_290:\n        /* \"#utility.yul\":14413:14478   */\n      tag_291\n        /* \"#utility.yul\":14471:14477   */\n      dup2\n        /* \"#utility.yul\":14463:14469   */\n      dup5\n        /* \"#utility.yul\":14457:14461   */\n      dup5\n        /* \"#utility.yul\":14413:14478   */\n      tag_141\n      jump\t// in\n    tag_291:\n        /* \"#utility.yul\":14348:14484   */\n      pop\n        /* \"#utility.yul\":14295:14484   */\n      pop\n      pop\n      jump\t// out\n        /* \"#utility.yul\":14490:14676   */\n    tag_144:\n        /* \"#utility.yul\":14550:14670   */\n    tag_293:\n        /* \"#utility.yul\":14567:14570   */\n      dup2\n        /* \"#utility.yul\":14560:14565   */\n      dup2\n        /* \"#utility.yul\":14557:14571   */\n      lt\n        /* \"#utility.yul\":14550:14670   */\n      iszero\n      tag_295\n      jumpi\n        /* \"#utility.yul\":14621:14660   */\n      tag_296\n        /* \"#utility.yul\":14658:14659   */\n      0x00\n        /* \"#utility.yul\":14651:14656   */\n      dup3\n        /* \"#utility.yul\":14621:14660   */\n      tag_143\n      jump\t// in\n    tag_296:\n        /* \"#utility.yul\":14594:14595   */\n      0x01\n        /* \"#utility.yul\":14587:14592   */\n      dup2\n        /* \"#utility.yul\":14583:14596   */\n      add\n        /* \"#utility.yul\":14574:14596   */\n      swap1\n      pop\n        /* \"#utility.yul\":14550:14670   */\n      jump(tag_293)\n    tag_295:\n        /* \"#utility.yul\":14490:14676   */\n      pop\n      pop\n      jump\t// out\n        /* \"#utility.yul\":14682:15225   */\n    tag_145:\n        /* \"#utility.yul\":14783:14785   */\n      0x1f\n        /* \"#utility.yul\":14778:14781   */\n      dup3\n        /* \"#utility.yul\":14775:14786   */\n      gt\n        /* \"#utility.yul\":14772:15218   */\n      iszero\n      tag_298\n      jumpi\n        /* \"#utility.yul\":14817:14855   */\n      tag_299\n        /* \"#utility.yul\":14849:14854   */\n      dup2\n        /* \"#utility.yul\":14817:14855   */\n      tag_134\n      jump\t// in\n    tag_299:\n        /* \"#utility.yul\":14901:14930   */\n      tag_300\n        /* \"#utility.yul\":14919:14929   */\n      dup5\n        /* \"#utility.yul\":14901:14930   */\n      tag_135\n      jump\t// in\n    tag_300:\n        /* \"#utility.yul\":14891:14899   */\n      dup2\n        /* \"#utility.yul\":14887:14931   */\n      add\n        /* \"#utility.yul\":15084:15086   */\n      0x20\n        /* \"#utility.yul\":15072:15082   */\n      dup6\n        /* \"#utility.yul\":15069:15087   */\n      lt\n        /* \"#utility.yul\":15066:15115   */\n      iszero\n      tag_301\n      jumpi\n        /* \"#utility.yul\":15105:15113   */\n      dup2\n        /* \"#utility.yul\":15090:15113   */\n      swap1\n      pop\n        /* \"#utility.yul\":15066:15115   */\n    tag_301:\n        /* \"#utility.yul\":15128:15208   */\n      tag_302\n        /* \"#utility.yul\":15184:15206   */\n      tag_303\n        /* \"#utility.yul\":15202:15205   */\n      dup6\n        /* \"#utility.yul\":15184:15206   */\n      tag_135\n      jump\t// in\n    tag_303:\n        /* \"#utility.yul\":15174:15182   */\n      dup4\n        /* \"#utility.yul\":15170:15207   */\n      add\n        /* \"#utility.yul\":15157:15168   */\n      dup3\n        /* \"#utility.yul\":15128:15208   */\n      tag_144\n      jump\t// in\n    tag_302:\n        /* \"#utility.yul\":14787:15218   */\n      pop\n      pop\n        /* \"#utility.yul\":14772:15218   */\n    tag_298:\n        /* \"#utility.yul\":14682:15225   */\n      pop\n      pop\n      pop\n      jump\t// out\n        /* \"#utility.yul\":15231:15348   */\n    tag_146:\n        /* \"#utility.yul\":15285:15293   */\n      0x00\n        /* \"#utility.yul\":15335:15340   */\n      dup3\n        /* \"#utility.yul\":15329:15333   */\n      dup3\n        /* \"#utility.yul\":15325:15341   */\n      shr\n        /* \"#utility.yul\":15304:15341   */\n      swap1\n      pop\n        /* \"#utility.yul\":15231:15348   */\n      swap3\n      swap2\n      pop\n      pop\n      jump\t// out\n        /* \"#utility.yul\":15354:15523   */\n    tag_147:\n        /* \"#utility.yul\":15398:15404   */\n      0x00\n        /* \"#utility.yul\":15431:15482   */\n      tag_306\n        /* \"#utility.yul\":15479:15480   */\n      0x00\n        /* \"#utility.yul\":15475:15481   */\n      not\n        /* \"#utility.yul\":15467:15472   */\n      dup5\n        /* \"#utility.yul\":15464:15465   */\n      0x08\n        /* \"#utility.yul\":15460:15473   */\n      mul\n        /* \"#utility.yul\":15431:15482   */\n      tag_146\n      jump\t// in\n    tag_306:\n        /* \"#utility.yul\":15427:15483   */\n      not\n        /* \"#utility.yul\":15512:15516   */\n      dup1\n        /* \"#utility.yul\":15506:15510   */\n      dup4\n        /* \"#utility.yul\":15502:15517   */\n      and\n        /* \"#utility.yul\":15492:15517   */\n      swap2\n      pop\n        /* \"#utility.yul\":15405:15523   */\n      pop\n        /* \"#utility.yul\":15354:15523   */\n      swap3\n      swap2\n      pop\n      pop\n      jump\t// out\n        /* \"#utility.yul\":15528:15823   */\n    tag_148:\n        /* \"#utility.yul\":15604:15608   */\n      0x00\n        /* \"#utility.yul\":15750:15779   */\n      tag_308\n        /* \"#utility.yul\":15775:15778   */\n      dup4\n        /* \"#utility.yul\":15769:15773   */\n      dup4\n        /* \"#utility.yul\":15750:15779   */\n      tag_147\n      jump\t// in\n    tag_308:\n        /* \"#utility.yul\":15742:15779   */\n      swap2\n      pop\n        /* \"#utility.yul\":15812:15815   */\n      dup3\n        /* \"#utility.yul\":15809:15810   */\n      0x02\n        /* \"#utility.yul\":15805:15816   */\n      mul\n        /* \"#utility.yul\":15799:15803   */\n      dup3\n        /* \"#utility.yul\":15796:15817   */\n      or\n        /* \"#utility.yul\":15788:15817   */\n      swap1\n      pop\n        /* \"#utility.yul\":15528:15823   */\n      swap3\n      swap2\n      pop\n      pop\n      jump\t// out\n        /* \"#utility.yul\":15828:17223   */\n    tag_54:\n        /* \"#utility.yul\":15945:15982   */\n      tag_310\n        /* \"#utility.yul\":15978:15981   */\n      dup3\n        /* \"#utility.yul\":15945:15982   */\n      tag_103\n      jump\t// in\n    tag_310:\n        /* \"#utility.yul\":16047:16065   */\n      0xffffffffffffffff\n        /* \"#utility.yul\":16039:16045   */\n      dup2\n        /* \"#utility.yul\":16036:16066   */\n      gt\n        /* \"#utility.yul\":16033:16089   */\n      iszero\n      tag_311\n      jumpi\n        /* \"#utility.yul\":16069:16087   */\n      tag_312\n      tag_69\n      jump\t// in\n    tag_312:\n        /* \"#utility.yul\":16033:16089   */\n    tag_311:\n        /* \"#utility.yul\":16113:16151   */\n      tag_313\n        /* \"#utility.yul\":16145:16149   */\n      dup3\n        /* \"#utility.yul\":16139:16150   */\n      sload\n        /* \"#utility.yul\":16113:16151   */\n      tag_34\n      jump\t// in\n    tag_313:\n        /* \"#utility.yul\":16198:16265   */\n      tag_314\n        /* \"#utility.yul\":16258:16264   */\n      dup3\n        /* \"#utility.yul\":16250:16256   */\n      dup3\n        /* \"#utility.yul\":16244:16248   */\n      dup6\n        /* \"#utility.yul\":16198:16265   */\n      tag_145\n      jump\t// in\n    tag_314:\n        /* \"#utility.yul\":16292:16293   */\n      0x00\n        /* \"#utility.yul\":16316:16320   */\n      0x20\n        /* \"#utility.yul\":16303:16320   */\n      swap1\n      pop\n        /* \"#utility.yul\":16348:16350   */\n      0x1f\n        /* \"#utility.yul\":16340:16346   */\n      dup4\n        /* \"#utility.yul\":16337:16351   */\n      gt\n        /* \"#utility.yul\":16365:16366   */\n      0x01\n        /* \"#utility.yul\":16360:16978   */\n      dup2\n      eq\n      tag_316\n      jumpi\n        /* \"#utility.yul\":17022:17023   */\n      0x00\n        /* \"#utility.yul\":17039:17045   */\n      dup5\n        /* \"#utility.yul\":17036:17113   */\n      iszero\n      tag_317\n      jumpi\n        /* \"#utility.yul\":17088:17097   */\n      dup3\n        /* \"#utility.yul\":17083:17086   */\n      dup8\n        /* \"#utility.yul\":17079:17098   */\n      add\n        /* \"#utility.yul\":17073:17099   */\n      mload\n        /* \"#utility.yul\":17064:17099   */\n      swap1\n      pop\n        /* \"#utility.yul\":17036:17113   */\n    tag_317:\n        /* \"#utility.yul\":17139:17206   */\n      tag_318\n        /* \"#utility.yul\":17199:17205   */\n      dup6\n        /* \"#utility.yul\":17192:17197   */\n      dup3\n        /* \"#utility.yul\":17139:17206   */\n      tag_148\n      jump\t// in\n    tag_318:\n        /* \"#utility.yul\":17133:17137   */\n      dup7\n        /* \"#utility.yul\":17126:17207   */\n      sstore\n        /* \"#utility.yul\":16995:17217   */\n      pop\n        /* \"#utility.yul\":16330:17217   */\n      jump(tag_315)\n        /* \"#utility.yul\":16360:16978   */\n    tag_316:\n        /* \"#utility.yul\":16412:16416   */\n      0x1f\n        /* \"#utility.yul\":16408:16417   */\n      not\n        /* \"#utility.yul\":16400:16406   */\n      dup5\n        /* \"#utility.yul\":16396:16418   */\n      and\n        /* \"#utility.yul\":16446:16483   */\n      tag_319\n        /* \"#utility.yul\":16478:16482   */\n      dup7\n        /* \"#utility.yul\":16446:16483   */\n      tag_134\n      jump\t// in\n    tag_319:\n        /* \"#utility.yul\":16505:16506   */\n      0x00\n        /* \"#utility.yul\":16519:16727   */\n    tag_320:\n        /* \"#utility.yul\":16533:16540   */\n      dup3\n        /* \"#utility.yul\":16530:16531   */\n      dup2\n        /* \"#utility.yul\":16527:16541   */\n      lt\n        /* \"#utility.yul\":16519:16727   */\n      iszero\n      tag_322\n      jumpi\n        /* \"#utility.yul\":16612:16621   */\n      dup5\n        /* \"#utility.yul\":16607:16610   */\n      dup10\n        /* \"#utility.yul\":16603:16622   */\n      add\n        /* \"#utility.yul\":16597:16623   */\n      mload\n        /* \"#utility.yul\":16589:16595   */\n      dup3\n        /* \"#utility.yul\":16582:16624   */\n      sstore\n        /* \"#utility.yul\":16663:16664   */\n      0x01\n        /* \"#utility.yul\":16655:16661   */\n      dup3\n        /* \"#utility.yul\":16651:16665   */\n      add\n        /* \"#utility.yul\":16641:16665   */\n      swap2\n      pop\n        /* \"#utility.yul\":16710:16712   */\n      0x20\n        /* \"#utility.yul\":16699:16708   */\n      dup6\n        /* \"#utility.yul\":16695:16713   */\n      add\n        /* \"#utility.yul\":16682:16713   */\n      swap5\n      pop\n        /* \"#utility.yul\":16556:16560   */\n      0x20\n        /* \"#utility.yul\":16553:16554   */\n      dup2\n        /* \"#utility.yul\":16549:16561   */\n      add\n        /* \"#utility.yul\":16544:16561   */\n      swap1\n      pop\n        /* \"#utility.yul\":16519:16727   */\n      jump(tag_320)\n    tag_322:\n        /* \"#utility.yul\":16755:16761   */\n      dup7\n        /* \"#utility.yul\":16746:16753   */\n      dup4\n        /* \"#utility.yul\":16743:16762   */\n      lt\n        /* \"#utility.yul\":16740:16919   */\n      iszero\n      tag_323\n      jumpi\n        /* \"#utility.yul\":16813:16822   */\n      dup5\n        /* \"#utility.yul\":16808:16811   */\n      dup10\n        /* \"#utility.yul\":16804:16823   */\n      add\n        /* \"#utility.yul\":16798:16824   */\n      mload\n        /* \"#utility.yul\":16856:16904   */\n      tag_324\n        /* \"#utility.yul\":16898:16902   */\n      0x1f\n        /* \"#utility.yul\":16890:16896   */\n      dup10\n        /* \"#utility.yul\":16886:16903   */\n      and\n        /* \"#utility.yul\":16875:16884   */\n      dup3\n        /* \"#utility.yul\":16856:16904   */\n      tag_147\n      jump\t// in\n    tag_324:\n        /* \"#utility.yul\":16848:16854   */\n      dup4\n        /* \"#utility.yul\":16841:16905   */\n      sstore\n        /* \"#utility.yul\":16763:16919   */\n      pop\n        /* \"#utility.yul\":16740:16919   */\n    tag_323:\n        /* \"#utility.yul\":16965:16966   */\n      0x01\n        /* \"#utility.yul\":16961:16962   */\n      0x02\n        /* \"#utility.yul\":16953:16959   */\n      dup9\n        /* \"#utility.yul\":16949:16963   */\n      mul\n        /* \"#utility.yul\":16945:16967   */\n      add\n        /* \"#utility.yul\":16939:16943   */\n      dup9\n        /* \"#utility.yul\":16932:16968   */\n      sstore\n        /* \"#utility.yul\":16367:16978   */\n      pop\n      pop\n      pop\n        /* \"#utility.yul\":16330:17217   */\n    tag_315:\n      pop\n        /* \"#utility.yul\":15920:17223   */\n      pop\n      pop\n      pop\n        /* \"#utility.yul\":15828:17223   */\n      pop\n      pop\n      jump\t// out\n        /* \"#utility.yul\":17229:17743   */\n    tag_57:\n        /* \"#utility.yul\":17390:17394   */\n      0x00\n        /* \"#utility.yul\":17428:17430   */\n      0x40\n        /* \"#utility.yul\":17417:17426   */\n      dup3\n        /* \"#utility.yul\":17413:17431   */\n      add\n        /* \"#utility.yul\":17405:17431   */\n      swap1\n      pop\n        /* \"#utility.yul\":17477:17486   */\n      dup2\n        /* \"#utility.yul\":17471:17475   */\n      dup2\n        /* \"#utility.yul\":17467:17487   */\n      sub\n        /* \"#utility.yul\":17463:17464   */\n      0x00\n        /* \"#utility.yul\":17452:17461   */\n      dup4\n        /* \"#utility.yul\":17448:17465   */\n      add\n        /* \"#utility.yul\":17441:17488   */\n      mstore\n        /* \"#utility.yul\":17505:17583   */\n      tag_326\n        /* \"#utility.yul\":17578:17582   */\n      dup2\n        /* \"#utility.yul\":17569:17575   */\n      dup6\n        /* \"#utility.yul\":17505:17583   */\n      tag_107\n      jump\t// in\n    tag_326:\n        /* \"#utility.yul\":17497:17583   */\n      swap1\n      pop\n        /* \"#utility.yul\":17630:17639   */\n      dup2\n        /* \"#utility.yul\":17624:17628   */\n      dup2\n        /* \"#utility.yul\":17620:17640   */\n      sub\n        /* \"#utility.yul\":17615:17617   */\n      0x20\n        /* \"#utility.yul\":17604:17613   */\n      dup4\n        /* \"#utility.yul\":17600:17618   */\n      add\n        /* \"#utility.yul\":17593:17641   */\n      mstore\n        /* \"#utility.yul\":17658:17736   */\n      tag_327\n        /* \"#utility.yul\":17731:17735   */\n      dup2\n        /* \"#utility.yul\":17722:17728   */\n      dup5\n        /* \"#utility.yul\":17658:17736   */\n      tag_107\n      jump\t// in\n    tag_327:\n        /* \"#utility.yul\":17650:17736   */\n      swap1\n      pop\n        /* \"#utility.yul\":17229:17743   */\n      swap4\n      swap3\n      pop\n      pop\n      pop\n      jump\t// out\n        /* \"#utility.yul\":17749:17929   */\n    tag_149:\n        /* \"#utility.yul\":17797:17874   */\n      0x4e487b7100000000000000000000000000000000000000000000000000000000\n        /* \"#utility.yul\":17794:17795   */\n      0x00\n        /* \"#utility.yul\":17787:17875   */\n      mstore\n        /* \"#utility.yul\":17894:17898   */\n      0x11\n        /* \"#utility.yul\":17891:17892   */\n      0x04\n        /* \"#utility.yul\":17884:17899   */\n      mstore\n        /* \"#utility.yul\":17918:17922   */\n      0x24\n        /* \"#utility.yul\":17915:17916   */\n      0x00\n        /* \"#utility.yul\":17908:17923   */\n      revert\n        /* \"#utility.yul\":17935:18168   */\n    tag_62:\n        /* \"#utility.yul\":17974:17977   */\n      0x00\n        /* \"#utility.yul\":17997:18021   */\n      tag_330\n        /* \"#utility.yul\":18015:18020   */\n      dup3\n        /* \"#utility.yul\":17997:18021   */\n      tag_100\n      jump\t// in\n    tag_330:\n        /* \"#utility.yul\":17988:18021   */\n      swap2\n      pop\n        /* \"#utility.yul\":18043:18109   */\n      0xffffffffffffffffffffffffffffffffffffffffffffffffffffffffffffffff\n        /* \"#utility.yul\":18036:18041   */\n      dup3\n        /* \"#utility.yul\":18033:18110   */\n      sub\n        /* \"#utility.yul\":18030:18133   */\n      tag_331\n      jumpi\n        /* \"#utility.yul\":18113:18131   */\n      tag_332\n      tag_149\n      jump\t// in\n    tag_332:\n        /* \"#utility.yul\":18030:18133   */\n    tag_331:\n        /* \"#utility.yul\":18160:18161   */\n      0x01\n        /* \"#utility.yul\":18153:18158   */\n      dup3\n        /* \"#utility.yul\":18149:18162   */\n      add\n        /* \"#utility.yul\":18142:18162   */\n      swap1\n      pop\n        /* \"#utility.yul\":17935:18168   */\n      swap2\n      swap1\n      pop\n      jump\t// out\n        /* \"#utility.yul\":18174:18368   */\n    tag_64:\n        /* \"#utility.yul\":18214:18218   */\n      0x00\n        /* \"#utility.yul\":18234:18254   */\n      tag_334\n        /* \"#utility.yul\":18252:18253   */\n      dup3\n        /* \"#utility.yul\":18234:18254   */\n      tag_100\n      jump\t// in\n    tag_334:\n        /* \"#utility.yul\":18229:18254   */\n      swap2\n      pop\n        /* \"#utility.yul\":18268:18288   */\n      tag_335\n        /* \"#utility.yul\":18286:18287   */\n      dup4\n        /* \"#utility.yul\":18268:18288   */\n      tag_100\n      jump\t// in\n    tag_335:\n        /* \"#utility.yul\":18263:18288   */\n      swap3\n      pop\n        /* \"#utility.yul\":18312:18313   */\n      dup3\n        /* \"#utility.yul\":18309:18310   */\n      dup3\n        /* \"#utility.yul\":18305:18314   */\n      sub\n        /* \"#utility.yul\":18297:18314   */\n      swap1\n      pop\n        /* \"#utility.yul\":18336:18337   */\n      dup2\n        /* \"#utility.yul\":18330:18334   */\n      dup2\n        /* \"#utility.yul\":18327:18338   */\n      gt\n        /* \"#utility.yul\":18324:18361   */\n      iszero\n      tag_336\n      jumpi\n        /* \"#utility.yul\":18341:18359   */\n      tag_337\n      tag_149\n      jump\t// in\n    tag_337:\n        /* \"#utility.yul\":18324:18361   */\n    tag_336:\n        /* \"#utility.yul\":18174:18368   */\n      swap3\n      swap2\n      pop\n      pop\n      jump\t// out\n        /* \"#utility.yul\":18374:18554   */\n    tag_89:\n        /* \"#utility.yul\":18422:18499   */\n      0x4e487b7100000000000000000000000000000000000000000000000000000000\n        /* \"#utility.yul\":18419:18420   */\n      0x00\n        /* \"#utility.yul\":18412:18500   */\n      mstore\n        /* \"#utility.yul\":18519:18523   */\n      0x32\n        /* \"#utility.yul\":18516:18517   */\n      0x04\n        /* \"#utility.yul\":18509:18524   */\n      mstore\n        /* \"#utility.yul\":18543:18547   */\n      0x24\n        /* \"#utility.yul\":18540:18541   */\n      0x00\n        /* \"#utility.yul\":18533:18548   */\n      revert\n\n    auxdata: 0xa2646970667358221220e8cfc0e35d4bf0739f0993fcf66bf50fad7a454307dd77e999b5d57c61c17d8864736f6c63430008190033\n}\n",
				"bytecode": {
					"linkReferences": {},
					"object": "60806040525f6001553480156012575f80fd5b506111ed806100205f395ff3fe608060405234801561000f575f80fd5b5060043610610055575f3560e01c806332aa364114610059578063525ef0ea1461008c5780639374a506146100a8578063c0f4140d146100c4578063e440d081146100e0575b5f80fd5b610073600480360381019061006e9190610871565b6100fe565b604051610083949392919061095a565b60405180910390f35b6100a660048036038101906100a19190610871565b6102ae565b005b6100c260048036038101906100bd9190610ad7565b61037f565b005b6100de60048036038101906100d99190610b5f565b610439565b005b6100e8610566565b6040516100f59190610d5d565b60405180910390f35b6060805f806001548510610147576040517f08c379a000000000000000000000000000000000000000000000000000000000815260040161013e90610dc7565b60405180910390fd5b5f805f8781526020019081526020015f209050805f0181600101826002015f9054906101000a900473ffffffffffffffffffffffffffffffffffffffff16836003015483805461019690610e12565b80601f01602080910402602001604051908101604052809291908181526020018280546101c290610e12565b801561020d5780601f106101e45761010080835404028352916020019161020d565b820191905f5260205f20905b8154815290600101906020018083116101f057829003601f168201915b5050505050935082805461022090610e12565b80601f016020809104026020016040519081016040528092919081815260200182805461024c90610e12565b80156102975780601f1061026e57610100808354040283529160200191610297565b820191905f5260205f20905b81548152906001019060200180831161027a57829003601f168201915b505050505092509450945094509450509193509193565b60015481106102f2576040517f08c379a00000000000000000000000000000000000000000000000000000000081526004016102e990610dc7565b60405180910390fd5b5f808281526020019081526020015f205f8082015f6103119190610799565b600182015f6103209190610799565b600282015f6101000a81549073ffffffffffffffffffffffffffffffffffffffff0219169055600382015f90555050807f0317b51d219da391db8d82cbb7dc2485af083ad8711b6a35660350447f39ef5360405160405180910390a250565b60015483106103c3576040517f08c379a00000000000000000000000000000000000000000000000000000000081526004016103ba90610dc7565b60405180910390fd5b5f805f8581526020019081526020015f20905082815f0190816103e69190610fdf565b50818160010190816103f89190610fdf565b50837fc2b696f58f58751b0a0d1263bf93c07d8d143ed860fa2ec123d15b9c4c08859a848460405161042b9291906110ae565b60405180910390a250505050565b5f60405180608001604052808481526020018381526020013373ffffffffffffffffffffffffffffffffffffffff168152602001428152509050805f8060015481526020019081526020015f205f820151815f0190816104999190610fdf565b5060208201518160010190816104af9190610fdf565b506040820151816002015f6101000a81548173ffffffffffffffffffffffffffffffffffffffff021916908373ffffffffffffffffffffffffffffffffffffffff1602179055506060820151816003015590505060015f81548092919061051590611110565b9190505550600180546105289190611157565b7f444d4c1383e7668a2a4dc9d50d9db9224b9a599d75740d79fc796c06c89fada184846040516105599291906110ae565b60405180910390a2505050565b60605f60015467ffffffffffffffff811115610585576105846109b3565b5b6040519080825280602002602001820160405280156105be57816020015b6105ab6107d6565b8152602001906001900390816105a35790505b5090505f5b600154811015610791575f808281526020019081526020015f206040518060800160405290815f820180546105f790610e12565b80601f016020809104026020016040519081016040528092919081815260200182805461062390610e12565b801561066e5780601f106106455761010080835404028352916020019161066e565b820191905f5260205f20905b81548152906001019060200180831161065157829003601f168201915b5050505050815260200160018201805461068790610e12565b80601f01602080910402602001604051908101604052809291908181526020018280546106b390610e12565b80156106fe5780601f106106d5576101008083540402835291602001916106fe565b820191905f5260205f20905b8154815290600101906020018083116106e157829003601f168201915b50505050508152602001600282015f9054906101000a900473ffffffffffffffffffffffffffffffffffffffff1673ffffffffffffffffffffffffffffffffffffffff1673ffffffffffffffffffffffffffffffffffffffff1681526020016003820154815250508282815181106107795761077861118a565b5b602002602001018190525080806001019150506105c3565b508091505090565b5080546107a590610e12565b5f825580601f106107b657506107d3565b601f0160209004905f5260205f20908101906107d29190610812565b5b50565b604051806080016040528060608152602001606081526020015f73ffffffffffffffffffffffffffffffffffffffff1681526020015f81525090565b5b80821115610829575f815f905550600101610813565b5090565b5f604051905090565b5f80fd5b5f80fd5b5f819050919050565b6108508161083e565b811461085a575f80fd5b50565b5f8135905061086b81610847565b92915050565b5f6020828403121561088657610885610836565b5b5f6108938482850161085d565b91505092915050565b5f81519050919050565b5f82825260208201905092915050565b8281835e5f83830152505050565b5f601f19601f8301169050919050565b5f6108de8261089c565b6108e881856108a6565b93506108f88185602086016108b6565b610901816108c4565b840191505092915050565b5f73ffffffffffffffffffffffffffffffffffffffff82169050919050565b5f6109358261090c565b9050919050565b6109458161092b565b82525050565b6109548161083e565b82525050565b5f6080820190508181035f83015261097281876108d4565b9050818103602083015261098681866108d4565b9050610995604083018561093c565b6109a2606083018461094b565b95945050505050565b5f80fd5b5f80fd5b7f4e487b71000000000000000000000000000000000000000000000000000000005f52604160045260245ffd5b6109e9826108c4565b810181811067ffffffffffffffff82111715610a0857610a076109b3565b5b80604052505050565b5f610a1a61082d565b9050610a2682826109e0565b919050565b5f67ffffffffffffffff821115610a4557610a446109b3565b5b610a4e826108c4565b9050602081019050919050565b828183375f83830152505050565b5f610a7b610a7684610a2b565b610a11565b905082815260208101848484011115610a9757610a966109af565b5b610aa2848285610a5b565b509392505050565b5f82601f830112610abe57610abd6109ab565b5b8135610ace848260208601610a69565b91505092915050565b5f805f60608486031215610aee57610aed610836565b5b5f610afb8682870161085d565b935050602084013567ffffffffffffffff811115610b1c57610b1b61083a565b5b610b2886828701610aaa565b925050604084013567ffffffffffffffff811115610b4957610b4861083a565b5b610b5586828701610aaa565b9150509250925092565b5f8060408385031215610b7557610b74610836565b5b5f83013567ffffffffffffffff811115610b9257610b9161083a565b5b610b9e85828601610aaa565b925050602083013567ffffffffffffffff811115610bbf57610bbe61083a565b5b610bcb85828601610aaa565b9150509250929050565b5f81519050919050565b5f82825260208201905092915050565b5f819050602082019050919050565b5f82825260208201905092915050565b5f610c188261089c565b610c228185610bfe565b9350610c328185602086016108b6565b610c3b816108c4565b840191505092915050565b610c4f8161092b565b82525050565b610c5e8161083e565b82525050565b5f608083015f8301518482035f860152610c7e8282610c0e565b91505060208301518482036020860152610c988282610c0e565b9150506040830151610cad6040860182610c46565b506060830151610cc06060860182610c55565b508091505092915050565b5f610cd68383610c64565b905092915050565b5f602082019050919050565b5f610cf482610bd5565b610cfe8185610bdf565b935083602082028501610d1085610bef565b805f5b85811015610d4b5784840389528151610d2c8582610ccb565b9450610d3783610cde565b925060208a01995050600181019050610d13565b50829750879550505050505092915050565b5f6020820190508181035f830152610d758184610cea565b905092915050565b7f545450206e6f20657869737465000000000000000000000000000000000000005f82015250565b5f610db1600d836108a6565b9150610dbc82610d7d565b602082019050919050565b5f6020820190508181035f830152610dde81610da5565b9050919050565b7f4e487b71000000000000000000000000000000000000000000000000000000005f52602260045260245ffd5b5f6002820490506001821680610e2957607f821691505b602082108103610e3c57610e3b610de5565b5b50919050565b5f819050815f5260205f209050919050565b5f6020601f8301049050919050565b5f82821b905092915050565b5f60088302610e9e7fffffffffffffffffffffffffffffffffffffffffffffffffffffffffffffffff82610e63565b610ea88683610e63565b95508019841693508086168417925050509392505050565b5f819050919050565b5f610ee3610ede610ed98461083e565b610ec0565b61083e565b9050919050565b5f819050919050565b610efc83610ec9565b610f10610f0882610eea565b848454610e6f565b825550505050565b5f90565b610f24610f18565b610f2f818484610ef3565b505050565b5b81811015610f5257610f475f82610f1c565b600181019050610f35565b5050565b601f821115610f9757610f6881610e42565b610f7184610e54565b81016020851015610f80578190505b610f94610f8c85610e54565b830182610f34565b50505b505050565b5f82821c905092915050565b5f610fb75f1984600802610f9c565b1980831691505092915050565b5f610fcf8383610fa8565b9150826002028217905092915050565b610fe88261089c565b67ffffffffffffffff811115611001576110006109b3565b5b61100b8254610e12565b611016828285610f56565b5f60209050601f831160018114611047575f8415611035578287015190505b61103f8582610fc4565b8655506110a6565b601f19841661105586610e42565b5f5b8281101561107c57848901518255600182019150602085019450602081019050611057565b868310156110995784890151611095601f891682610fa8565b8355505b6001600288020188555050505b505050505050565b5f6040820190508181035f8301526110c681856108d4565b905081810360208301526110da81846108d4565b90509392505050565b7f4e487b71000000000000000000000000000000000000000000000000000000005f52601160045260245ffd5b5f61111a8261083e565b91507fffffffffffffffffffffffffffffffffffffffffffffffffffffffffffffffff820361114c5761114b6110e3565b5b600182019050919050565b5f6111618261083e565b915061116c8361083e565b9250828203905081811115611184576111836110e3565b5b92915050565b7f4e487b71000000000000000000000000000000000000000000000000000000005f52603260045260245ffdfea2646970667358221220e8cfc0e35d4bf0739f0993fcf66bf50fad7a454307dd77e999b5d57c61c17d8864736f6c63430008190033",
					"opcodes": "PUSH1 0x80 PUSH1 0x40 MSTORE PUSH0 PUSH1 0x1 SSTORE CALLVALUE DUP1 ISZERO PUSH1 0x12 JUMPI PUSH0 DUP1 REVERT JUMPDEST POP PUSH2 0x11ED DUP1 PUSH2 0x20 PUSH0 CODECOPY PUSH0 RETURN INVALID PUSH1 0x80 PUSH1 0x40 MSTORE CALLVALUE DUP1 ISZERO PUSH2 0xF JUMPI PUSH0 DUP1 REVERT JUMPDEST POP PUSH1 0x4 CALLDATASIZE LT PUSH2 0x55 JUMPI PUSH0 CALLDATALOAD PUSH1 0xE0 SHR DUP1 PUSH4 0x32AA3641 EQ PUSH2 0x59 JUMPI DUP1 PUSH4 0x525EF0EA EQ PUSH2 0x8C JUMPI DUP1 PUSH4 0x9374A506 EQ PUSH2 0xA8 JUMPI DUP1 PUSH4 0xC0F4140D EQ PUSH2 0xC4 JUMPI DUP1 PUSH4 0xE440D081 EQ PUSH2 0xE0 JUMPI JUMPDEST PUSH0 DUP1 REVERT JUMPDEST PUSH2 0x73 PUSH1 0x4 DUP1 CALLDATASIZE SUB DUP2 ADD SWAP1 PUSH2 0x6E SWAP2 SWAP1 PUSH2 0x871 JUMP JUMPDEST PUSH2 0xFE JUMP JUMPDEST PUSH1 0x40 MLOAD PUSH2 0x83 SWAP5 SWAP4 SWAP3 SWAP2 SWAP1 PUSH2 0x95A JUMP JUMPDEST PUSH1 0x40 MLOAD DUP1 SWAP2 SUB SWAP1 RETURN JUMPDEST PUSH2 0xA6 PUSH1 0x4 DUP1 CALLDATASIZE SUB DUP2 ADD SWAP1 PUSH2 0xA1 SWAP2 SWAP1 PUSH2 0x871 JUMP JUMPDEST PUSH2 0x2AE JUMP JUMPDEST STOP JUMPDEST PUSH2 0xC2 PUSH1 0x4 DUP1 CALLDATASIZE SUB DUP2 ADD SWAP1 PUSH2 0xBD SWAP2 SWAP1 PUSH2 0xAD7 JUMP JUMPDEST PUSH2 0x37F JUMP JUMPDEST STOP JUMPDEST PUSH2 0xDE PUSH1 0x4 DUP1 CALLDATASIZE SUB DUP2 ADD SWAP1 PUSH2 0xD9 SWAP2 SWAP1 PUSH2 0xB5F JUMP JUMPDEST PUSH2 0x439 JUMP JUMPDEST STOP JUMPDEST PUSH2 0xE8 PUSH2 0x566 JUMP JUMPDEST PUSH1 0x40 MLOAD PUSH2 0xF5 SWAP2 SWAP1 PUSH2 0xD5D JUMP JUMPDEST PUSH1 0x40 MLOAD DUP1 SWAP2 SUB SWAP1 RETURN JUMPDEST PUSH1 0x60 DUP1 PUSH0 DUP1 PUSH1 0x1 SLOAD DUP6 LT PUSH2 0x147 JUMPI PUSH1 0x40 MLOAD PUSH32 0x8C379A000000000000000000000000000000000000000000000000000000000 DUP2 MSTORE PUSH1 0x4 ADD PUSH2 0x13E SWAP1 PUSH2 0xDC7 JUMP JUMPDEST PUSH1 0x40 MLOAD DUP1 SWAP2 SUB SWAP1 REVERT JUMPDEST PUSH0 DUP1 PUSH0 DUP8 DUP2 MSTORE PUSH1 0x20 ADD SWAP1 DUP2 MSTORE PUSH1 0x20 ADD PUSH0 KECCAK256 SWAP1 POP DUP1 PUSH0 ADD DUP2 PUSH1 0x1 ADD DUP3 PUSH1 0x2 ADD PUSH0 SWAP1 SLOAD SWAP1 PUSH2 0x100 EXP SWAP1 DIV PUSH20 0xFFFFFFFFFFFFFFFFFFFFFFFFFFFFFFFFFFFFFFFF AND DUP4 PUSH1 0x3 ADD SLOAD DUP4 DUP1 SLOAD PUSH2 0x196 SWAP1 PUSH2 0xE12 JUMP JUMPDEST DUP1 PUSH1 0x1F ADD PUSH1 0x20 DUP1 SWAP2 DIV MUL PUSH1 0x20 ADD PUSH1 0x40 MLOAD SWAP1 DUP2 ADD PUSH1 0x40 MSTORE DUP1 SWAP3 SWAP2 SWAP1 DUP2 DUP2 MSTORE PUSH1 0x20 ADD DUP3 DUP1 SLOAD PUSH2 0x1C2 SWAP1 PUSH2 0xE12 JUMP JUMPDEST DUP1 ISZERO PUSH2 0x20D JUMPI DUP1 PUSH1 0x1F LT PUSH2 0x1E4 JUMPI PUSH2 0x100 DUP1 DUP4 SLOAD DIV MUL DUP4 MSTORE SWAP2 PUSH1 0x20 ADD SWAP2 PUSH2 0x20D JUMP JUMPDEST DUP3 ADD SWAP2 SWAP1 PUSH0 MSTORE PUSH1 0x20 PUSH0 KECCAK256 SWAP1 JUMPDEST DUP2 SLOAD DUP2 MSTORE SWAP1 PUSH1 0x1 ADD SWAP1 PUSH1 0x20 ADD DUP1 DUP4 GT PUSH2 0x1F0 JUMPI DUP3 SWAP1 SUB PUSH1 0x1F AND DUP3 ADD SWAP2 JUMPDEST POP POP POP POP POP SWAP4 POP DUP3 DUP1 SLOAD PUSH2 0x220 SWAP1 PUSH2 0xE12 JUMP JUMPDEST DUP1 PUSH1 0x1F ADD PUSH1 0x20 DUP1 SWAP2 DIV MUL PUSH1 0x20 ADD PUSH1 0x40 MLOAD SWAP1 DUP2 ADD PUSH1 0x40 MSTORE DUP1 SWAP3 SWAP2 SWAP1 DUP2 DUP2 MSTORE PUSH1 0x20 ADD DUP3 DUP1 SLOAD PUSH2 0x24C SWAP1 PUSH2 0xE12 JUMP JUMPDEST DUP1 ISZERO PUSH2 0x297 JUMPI DUP1 PUSH1 0x1F LT PUSH2 0x26E JUMPI PUSH2 0x100 DUP1 DUP4 SLOAD DIV MUL DUP4 MSTORE SWAP2 PUSH1 0x20 ADD SWAP2 PUSH2 0x297 JUMP JUMPDEST DUP3 ADD SWAP2 SWAP1 PUSH0 MSTORE PUSH1 0x20 PUSH0 KECCAK256 SWAP1 JUMPDEST DUP2 SLOAD DUP2 MSTORE SWAP1 PUSH1 0x1 ADD SWAP1 PUSH1 0x20 ADD DUP1 DUP4 GT PUSH2 0x27A JUMPI DUP3 SWAP1 SUB PUSH1 0x1F AND DUP3 ADD SWAP2 JUMPDEST POP POP POP POP POP SWAP3 POP SWAP5 POP SWAP5 POP SWAP5 POP SWAP5 POP POP SWAP2 SWAP4 POP SWAP2 SWAP4 JUMP JUMPDEST PUSH1 0x1 SLOAD DUP2 LT PUSH2 0x2F2 JUMPI PUSH1 0x40 MLOAD PUSH32 0x8C379A000000000000000000000000000000000000000000000000000000000 DUP2 MSTORE PUSH1 0x4 ADD PUSH2 0x2E9 SWAP1 PUSH2 0xDC7 JUMP JUMPDEST PUSH1 0x40 MLOAD DUP1 SWAP2 SUB SWAP1 REVERT JUMPDEST PUSH0 DUP1 DUP3 DUP2 MSTORE PUSH1 0x20 ADD SWAP1 DUP2 MSTORE PUSH1 0x20 ADD PUSH0 KECCAK256 PUSH0 DUP1 DUP3 ADD PUSH0 PUSH2 0x311 SWAP2 SWAP1 PUSH2 0x799 JUMP JUMPDEST PUSH1 0x1 DUP3 ADD PUSH0 PUSH2 0x320 SWAP2 SWAP1 PUSH2 0x799 JUMP JUMPDEST PUSH1 0x2 DUP3 ADD PUSH0 PUSH2 0x100 EXP DUP2 SLOAD SWAP1 PUSH20 0xFFFFFFFFFFFFFFFFFFFFFFFFFFFFFFFFFFFFFFFF MUL NOT AND SWAP1 SSTORE PUSH1 0x3 DUP3 ADD PUSH0 SWAP1 SSTORE POP POP DUP1 PUSH32 0x317B51D219DA391DB8D82CBB7DC2485AF083AD8711B6A35660350447F39EF53 PUSH1 0x40 MLOAD PUSH1 0x40 MLOAD DUP1 SWAP2 SUB SWAP1 LOG2 POP JUMP JUMPDEST PUSH1 0x1 SLOAD DUP4 LT PUSH2 0x3C3 JUMPI PUSH1 0x40 MLOAD PUSH32 0x8C379A000000000000000000000000000000000000000000000000000000000 DUP2 MSTORE PUSH1 0x4 ADD PUSH2 0x3BA SWAP1 PUSH2 0xDC7 JUMP JUMPDEST PUSH1 0x40 MLOAD DUP1 SWAP2 SUB SWAP1 REVERT JUMPDEST PUSH0 DUP1 PUSH0 DUP6 DUP2 MSTORE PUSH1 0x20 ADD SWAP1 DUP2 MSTORE PUSH1 0x20 ADD PUSH0 KECCAK256 SWAP1 POP DUP3 DUP2 PUSH0 ADD SWAP1 DUP2 PUSH2 0x3E6 SWAP2 SWAP1 PUSH2 0xFDF JUMP JUMPDEST POP DUP2 DUP2 PUSH1 0x1 ADD SWAP1 DUP2 PUSH2 0x3F8 SWAP2 SWAP1 PUSH2 0xFDF JUMP JUMPDEST POP DUP4 PUSH32 0xC2B696F58F58751B0A0D1263BF93C07D8D143ED860FA2EC123D15B9C4C08859A DUP5 DUP5 PUSH1 0x40 MLOAD PUSH2 0x42B SWAP3 SWAP2 SWAP1 PUSH2 0x10AE JUMP JUMPDEST PUSH1 0x40 MLOAD DUP1 SWAP2 SUB SWAP1 LOG2 POP POP POP POP JUMP JUMPDEST PUSH0 PUSH1 0x40 MLOAD DUP1 PUSH1 0x80 ADD PUSH1 0x40 MSTORE DUP1 DUP5 DUP2 MSTORE PUSH1 0x20 ADD DUP4 DUP2 MSTORE PUSH1 0x20 ADD CALLER PUSH20 0xFFFFFFFFFFFFFFFFFFFFFFFFFFFFFFFFFFFFFFFF AND DUP2 MSTORE PUSH1 0x20 ADD TIMESTAMP DUP2 MSTORE POP SWAP1 POP DUP1 PUSH0 DUP1 PUSH1 0x1 SLOAD DUP2 MSTORE PUSH1 0x20 ADD SWAP1 DUP2 MSTORE PUSH1 0x20 ADD PUSH0 KECCAK256 PUSH0 DUP3 ADD MLOAD DUP2 PUSH0 ADD SWAP1 DUP2 PUSH2 0x499 SWAP2 SWAP1 PUSH2 0xFDF JUMP JUMPDEST POP PUSH1 0x20 DUP3 ADD MLOAD DUP2 PUSH1 0x1 ADD SWAP1 DUP2 PUSH2 0x4AF SWAP2 SWAP1 PUSH2 0xFDF JUMP JUMPDEST POP PUSH1 0x40 DUP3 ADD MLOAD DUP2 PUSH1 0x2 ADD PUSH0 PUSH2 0x100 EXP DUP2 SLOAD DUP2 PUSH20 0xFFFFFFFFFFFFFFFFFFFFFFFFFFFFFFFFFFFFFFFF MUL NOT AND SWAP1 DUP4 PUSH20 0xFFFFFFFFFFFFFFFFFFFFFFFFFFFFFFFFFFFFFFFF AND MUL OR SWAP1 SSTORE POP PUSH1 0x60 DUP3 ADD MLOAD DUP2 PUSH1 0x3 ADD SSTORE SWAP1 POP POP PUSH1 0x1 PUSH0 DUP2 SLOAD DUP1 SWAP3 SWAP2 SWAP1 PUSH2 0x515 SWAP1 PUSH2 0x1110 JUMP JUMPDEST SWAP2 SWAP1 POP SSTORE POP PUSH1 0x1 DUP1 SLOAD PUSH2 0x528 SWAP2 SWAP1 PUSH2 0x1157 JUMP JUMPDEST PUSH32 0x444D4C1383E7668A2A4DC9D50D9DB9224B9A599D75740D79FC796C06C89FADA1 DUP5 DUP5 PUSH1 0x40 MLOAD PUSH2 0x559 SWAP3 SWAP2 SWAP1 PUSH2 0x10AE JUMP JUMPDEST PUSH1 0x40 MLOAD DUP1 SWAP2 SUB SWAP1 LOG2 POP POP POP JUMP JUMPDEST PUSH1 0x60 PUSH0 PUSH1 0x1 SLOAD PUSH8 0xFFFFFFFFFFFFFFFF DUP2 GT ISZERO PUSH2 0x585 JUMPI PUSH2 0x584 PUSH2 0x9B3 JUMP JUMPDEST JUMPDEST PUSH1 0x40 MLOAD SWAP1 DUP1 DUP3 MSTORE DUP1 PUSH1 0x20 MUL PUSH1 0x20 ADD DUP3 ADD PUSH1 0x40 MSTORE DUP1 ISZERO PUSH2 0x5BE JUMPI DUP2 PUSH1 0x20 ADD JUMPDEST PUSH2 0x5AB PUSH2 0x7D6 JUMP JUMPDEST DUP2 MSTORE PUSH1 0x20 ADD SWAP1 PUSH1 0x1 SWAP1 SUB SWAP1 DUP2 PUSH2 0x5A3 JUMPI SWAP1 POP JUMPDEST POP SWAP1 POP PUSH0 JUMPDEST PUSH1 0x1 SLOAD DUP2 LT ISZERO PUSH2 0x791 JUMPI PUSH0 DUP1 DUP3 DUP2 MSTORE PUSH1 0x20 ADD SWAP1 DUP2 MSTORE PUSH1 0x20 ADD PUSH0 KECCAK256 PUSH1 0x40 MLOAD DUP1 PUSH1 0x80 ADD PUSH1 0x40 MSTORE SWAP1 DUP2 PUSH0 DUP3 ADD DUP1 SLOAD PUSH2 0x5F7 SWAP1 PUSH2 0xE12 JUMP JUMPDEST DUP1 PUSH1 0x1F ADD PUSH1 0x20 DUP1 SWAP2 DIV MUL PUSH1 0x20 ADD PUSH1 0x40 MLOAD SWAP1 DUP2 ADD PUSH1 0x40 MSTORE DUP1 SWAP3 SWAP2 SWAP1 DUP2 DUP2 MSTORE PUSH1 0x20 ADD DUP3 DUP1 SLOAD PUSH2 0x623 SWAP1 PUSH2 0xE12 JUMP JUMPDEST DUP1 ISZERO PUSH2 0x66E JUMPI DUP1 PUSH1 0x1F LT PUSH2 0x645 JUMPI PUSH2 0x100 DUP1 DUP4 SLOAD DIV MUL DUP4 MSTORE SWAP2 PUSH1 0x20 ADD SWAP2 PUSH2 0x66E JUMP JUMPDEST DUP3 ADD SWAP2 SWAP1 PUSH0 MSTORE PUSH1 0x20 PUSH0 KECCAK256 SWAP1 JUMPDEST DUP2 SLOAD DUP2 MSTORE SWAP1 PUSH1 0x1 ADD SWAP1 PUSH1 0x20 ADD DUP1 DUP4 GT PUSH2 0x651 JUMPI DUP3 SWAP1 SUB PUSH1 0x1F AND DUP3 ADD SWAP2 JUMPDEST POP POP POP POP POP DUP2 MSTORE PUSH1 0x20 ADD PUSH1 0x1 DUP3 ADD DUP1 SLOAD PUSH2 0x687 SWAP1 PUSH2 0xE12 JUMP JUMPDEST DUP1 PUSH1 0x1F ADD PUSH1 0x20 DUP1 SWAP2 DIV MUL PUSH1 0x20 ADD PUSH1 0x40 MLOAD SWAP1 DUP2 ADD PUSH1 0x40 MSTORE DUP1 SWAP3 SWAP2 SWAP1 DUP2 DUP2 MSTORE PUSH1 0x20 ADD DUP3 DUP1 SLOAD PUSH2 0x6B3 SWAP1 PUSH2 0xE12 JUMP JUMPDEST DUP1 ISZERO PUSH2 0x6FE JUMPI DUP1 PUSH1 0x1F LT PUSH2 0x6D5 JUMPI PUSH2 0x100 DUP1 DUP4 SLOAD DIV MUL DUP4 MSTORE SWAP2 PUSH1 0x20 ADD SWAP2 PUSH2 0x6FE JUMP JUMPDEST DUP3 ADD SWAP2 SWAP1 PUSH0 MSTORE PUSH1 0x20 PUSH0 KECCAK256 SWAP1 JUMPDEST DUP2 SLOAD DUP2 MSTORE SWAP1 PUSH1 0x1 ADD SWAP1 PUSH1 0x20 ADD DUP1 DUP4 GT PUSH2 0x6E1 JUMPI DUP3 SWAP1 SUB PUSH1 0x1F AND DUP3 ADD SWAP2 JUMPDEST POP POP POP POP POP DUP2 MSTORE PUSH1 0x20 ADD PUSH1 0x2 DUP3 ADD PUSH0 SWAP1 SLOAD SWAP1 PUSH2 0x100 EXP SWAP1 DIV PUSH20 0xFFFFFFFFFFFFFFFFFFFFFFFFFFFFFFFFFFFFFFFF AND PUSH20 0xFFFFFFFFFFFFFFFFFFFFFFFFFFFFFFFFFFFFFFFF AND PUSH20 0xFFFFFFFFFFFFFFFFFFFFFFFFFFFFFFFFFFFFFFFF AND DUP2 MSTORE PUSH1 0x20 ADD PUSH1 0x3 DUP3 ADD SLOAD DUP2 MSTORE POP POP DUP3 DUP3 DUP2 MLOAD DUP2 LT PUSH2 0x779 JUMPI PUSH2 0x778 PUSH2 0x118A JUMP JUMPDEST JUMPDEST PUSH1 0x20 MUL PUSH1 0x20 ADD ADD DUP2 SWAP1 MSTORE POP DUP1 DUP1 PUSH1 0x1 ADD SWAP2 POP POP PUSH2 0x5C3 JUMP JUMPDEST POP DUP1 SWAP2 POP POP SWAP1 JUMP JUMPDEST POP DUP1 SLOAD PUSH2 0x7A5 SWAP1 PUSH2 0xE12 JUMP JUMPDEST PUSH0 DUP3 SSTORE DUP1 PUSH1 0x1F LT PUSH2 0x7B6 JUMPI POP PUSH2 0x7D3 JUMP JUMPDEST PUSH1 0x1F ADD PUSH1 0x20 SWAP1 DIV SWAP1 PUSH0 MSTORE PUSH1 0x20 PUSH0 KECCAK256 SWAP1 DUP2 ADD SWAP1 PUSH2 0x7D2 SWAP2 SWAP1 PUSH2 0x812 JUMP JUMPDEST JUMPDEST POP JUMP JUMPDEST PUSH1 0x40 MLOAD DUP1 PUSH1 0x80 ADD PUSH1 0x40 MSTORE DUP1 PUSH1 0x60 DUP2 MSTORE PUSH1 0x20 ADD PUSH1 0x60 DUP2 MSTORE PUSH1 0x20 ADD PUSH0 PUSH20 0xFFFFFFFFFFFFFFFFFFFFFFFFFFFFFFFFFFFFFFFF AND DUP2 MSTORE PUSH1 0x20 ADD PUSH0 DUP2 MSTORE POP SWAP1 JUMP JUMPDEST JUMPDEST DUP1 DUP3 GT ISZERO PUSH2 0x829 JUMPI PUSH0 DUP2 PUSH0 SWAP1 SSTORE POP PUSH1 0x1 ADD PUSH2 0x813 JUMP JUMPDEST POP SWAP1 JUMP JUMPDEST PUSH0 PUSH1 0x40 MLOAD SWAP1 POP SWAP1 JUMP JUMPDEST PUSH0 DUP1 REVERT JUMPDEST PUSH0 DUP1 REVERT JUMPDEST PUSH0 DUP2 SWAP1 POP SWAP2 SWAP1 POP JUMP JUMPDEST PUSH2 0x850 DUP2 PUSH2 0x83E JUMP JUMPDEST DUP2 EQ PUSH2 0x85A JUMPI PUSH0 DUP1 REVERT JUMPDEST POP JUMP JUMPDEST PUSH0 DUP2 CALLDATALOAD SWAP1 POP PUSH2 0x86B DUP2 PUSH2 0x847 JUMP JUMPDEST SWAP3 SWAP2 POP POP JUMP JUMPDEST PUSH0 PUSH1 0x20 DUP3 DUP5 SUB SLT ISZERO PUSH2 0x886 JUMPI PUSH2 0x885 PUSH2 0x836 JUMP JUMPDEST JUMPDEST PUSH0 PUSH2 0x893 DUP5 DUP3 DUP6 ADD PUSH2 0x85D JUMP JUMPDEST SWAP2 POP POP SWAP3 SWAP2 POP POP JUMP JUMPDEST PUSH0 DUP2 MLOAD SWAP1 POP SWAP2 SWAP1 POP JUMP JUMPDEST PUSH0 DUP3 DUP3 MSTORE PUSH1 0x20 DUP3 ADD SWAP1 POP SWAP3 SWAP2 POP POP JUMP JUMPDEST DUP3 DUP2 DUP4 MCOPY PUSH0 DUP4 DUP4 ADD MSTORE POP POP POP JUMP JUMPDEST PUSH0 PUSH1 0x1F NOT PUSH1 0x1F DUP4 ADD AND SWAP1 POP SWAP2 SWAP1 POP JUMP JUMPDEST PUSH0 PUSH2 0x8DE DUP3 PUSH2 0x89C JUMP JUMPDEST PUSH2 0x8E8 DUP2 DUP6 PUSH2 0x8A6 JUMP JUMPDEST SWAP4 POP PUSH2 0x8F8 DUP2 DUP6 PUSH1 0x20 DUP7 ADD PUSH2 0x8B6 JUMP JUMPDEST PUSH2 0x901 DUP2 PUSH2 0x8C4 JUMP JUMPDEST DUP5 ADD SWAP2 POP POP SWAP3 SWAP2 POP POP JUMP JUMPDEST PUSH0 PUSH20 0xFFFFFFFFFFFFFFFFFFFFFFFFFFFFFFFFFFFFFFFF DUP3 AND SWAP1 POP SWAP2 SWAP1 POP JUMP JUMPDEST PUSH0 PUSH2 0x935 DUP3 PUSH2 0x90C JUMP JUMPDEST SWAP1 POP SWAP2 SWAP1 POP JUMP JUMPDEST PUSH2 0x945 DUP2 PUSH2 0x92B JUMP JUMPDEST DUP3 MSTORE POP POP JUMP JUMPDEST PUSH2 0x954 DUP2 PUSH2 0x83E JUMP JUMPDEST DUP3 MSTORE POP POP JUMP JUMPDEST PUSH0 PUSH1 0x80 DUP3 ADD SWAP1 POP DUP2 DUP2 SUB PUSH0 DUP4 ADD MSTORE PUSH2 0x972 DUP2 DUP8 PUSH2 0x8D4 JUMP JUMPDEST SWAP1 POP DUP2 DUP2 SUB PUSH1 0x20 DUP4 ADD MSTORE PUSH2 0x986 DUP2 DUP7 PUSH2 0x8D4 JUMP JUMPDEST SWAP1 POP PUSH2 0x995 PUSH1 0x40 DUP4 ADD DUP6 PUSH2 0x93C JUMP JUMPDEST PUSH2 0x9A2 PUSH1 0x60 DUP4 ADD DUP5 PUSH2 0x94B JUMP JUMPDEST SWAP6 SWAP5 POP POP POP POP POP JUMP JUMPDEST PUSH0 DUP1 REVERT JUMPDEST PUSH0 DUP1 REVERT JUMPDEST PUSH32 0x4E487B7100000000000000000000000000000000000000000000000000000000 PUSH0 MSTORE PUSH1 0x41 PUSH1 0x4 MSTORE PUSH1 0x24 PUSH0 REVERT JUMPDEST PUSH2 0x9E9 DUP3 PUSH2 0x8C4 JUMP JUMPDEST DUP2 ADD DUP2 DUP2 LT PUSH8 0xFFFFFFFFFFFFFFFF DUP3 GT OR ISZERO PUSH2 0xA08 JUMPI PUSH2 0xA07 PUSH2 0x9B3 JUMP JUMPDEST JUMPDEST DUP1 PUSH1 0x40 MSTORE POP POP POP JUMP JUMPDEST PUSH0 PUSH2 0xA1A PUSH2 0x82D JUMP JUMPDEST SWAP1 POP PUSH2 0xA26 DUP3 DUP3 PUSH2 0x9E0 JUMP JUMPDEST SWAP2 SWAP1 POP JUMP JUMPDEST PUSH0 PUSH8 0xFFFFFFFFFFFFFFFF DUP3 GT ISZERO PUSH2 0xA45 JUMPI PUSH2 0xA44 PUSH2 0x9B3 JUMP JUMPDEST JUMPDEST PUSH2 0xA4E DUP3 PUSH2 0x8C4 JUMP JUMPDEST SWAP1 POP PUSH1 0x20 DUP2 ADD SWAP1 POP SWAP2 SWAP1 POP JUMP JUMPDEST DUP3 DUP2 DUP4 CALLDATACOPY PUSH0 DUP4 DUP4 ADD MSTORE POP POP POP JUMP JUMPDEST PUSH0 PUSH2 0xA7B PUSH2 0xA76 DUP5 PUSH2 0xA2B JUMP JUMPDEST PUSH2 0xA11 JUMP JUMPDEST SWAP1 POP DUP3 DUP2 MSTORE PUSH1 0x20 DUP2 ADD DUP5 DUP5 DUP5 ADD GT ISZERO PUSH2 0xA97 JUMPI PUSH2 0xA96 PUSH2 0x9AF JUMP JUMPDEST JUMPDEST PUSH2 0xAA2 DUP5 DUP3 DUP6 PUSH2 0xA5B JUMP JUMPDEST POP SWAP4 SWAP3 POP POP POP JUMP JUMPDEST PUSH0 DUP3 PUSH1 0x1F DUP4 ADD SLT PUSH2 0xABE JUMPI PUSH2 0xABD PUSH2 0x9AB JUMP JUMPDEST JUMPDEST DUP2 CALLDATALOAD PUSH2 0xACE DUP5 DUP3 PUSH1 0x20 DUP7 ADD PUSH2 0xA69 JUMP JUMPDEST SWAP2 POP POP SWAP3 SWAP2 POP POP JUMP JUMPDEST PUSH0 DUP1 PUSH0 PUSH1 0x60 DUP5 DUP7 SUB SLT ISZERO PUSH2 0xAEE JUMPI PUSH2 0xAED PUSH2 0x836 JUMP JUMPDEST JUMPDEST PUSH0 PUSH2 0xAFB DUP7 DUP3 DUP8 ADD PUSH2 0x85D JUMP JUMPDEST SWAP4 POP POP PUSH1 0x20 DUP5 ADD CALLDATALOAD PUSH8 0xFFFFFFFFFFFFFFFF DUP2 GT ISZERO PUSH2 0xB1C JUMPI PUSH2 0xB1B PUSH2 0x83A JUMP JUMPDEST JUMPDEST PUSH2 0xB28 DUP7 DUP3 DUP8 ADD PUSH2 0xAAA JUMP JUMPDEST SWAP3 POP POP PUSH1 0x40 DUP5 ADD CALLDATALOAD PUSH8 0xFFFFFFFFFFFFFFFF DUP2 GT ISZERO PUSH2 0xB49 JUMPI PUSH2 0xB48 PUSH2 0x83A JUMP JUMPDEST JUMPDEST PUSH2 0xB55 DUP7 DUP3 DUP8 ADD PUSH2 0xAAA JUMP JUMPDEST SWAP2 POP POP SWAP3 POP SWAP3 POP SWAP3 JUMP JUMPDEST PUSH0 DUP1 PUSH1 0x40 DUP4 DUP6 SUB SLT ISZERO PUSH2 0xB75 JUMPI PUSH2 0xB74 PUSH2 0x836 JUMP JUMPDEST JUMPDEST PUSH0 DUP4 ADD CALLDATALOAD PUSH8 0xFFFFFFFFFFFFFFFF DUP2 GT ISZERO PUSH2 0xB92 JUMPI PUSH2 0xB91 PUSH2 0x83A JUMP JUMPDEST JUMPDEST PUSH2 0xB9E DUP6 DUP3 DUP7 ADD PUSH2 0xAAA JUMP JUMPDEST SWAP3 POP POP PUSH1 0x20 DUP4 ADD CALLDATALOAD PUSH8 0xFFFFFFFFFFFFFFFF DUP2 GT ISZERO PUSH2 0xBBF JUMPI PUSH2 0xBBE PUSH2 0x83A JUMP JUMPDEST JUMPDEST PUSH2 0xBCB DUP6 DUP3 DUP7 ADD PUSH2 0xAAA JUMP JUMPDEST SWAP2 POP POP SWAP3 POP SWAP3 SWAP1 POP JUMP JUMPDEST PUSH0 DUP2 MLOAD SWAP1 POP SWAP2 SWAP1 POP JUMP JUMPDEST PUSH0 DUP3 DUP3 MSTORE PUSH1 0x20 DUP3 ADD SWAP1 POP SWAP3 SWAP2 POP POP JUMP JUMPDEST PUSH0 DUP2 SWAP1 POP PUSH1 0x20 DUP3 ADD SWAP1 POP SWAP2 SWAP1 POP JUMP JUMPDEST PUSH0 DUP3 DUP3 MSTORE PUSH1 0x20 DUP3 ADD SWAP1 POP SWAP3 SWAP2 POP POP JUMP JUMPDEST PUSH0 PUSH2 0xC18 DUP3 PUSH2 0x89C JUMP JUMPDEST PUSH2 0xC22 DUP2 DUP6 PUSH2 0xBFE JUMP JUMPDEST SWAP4 POP PUSH2 0xC32 DUP2 DUP6 PUSH1 0x20 DUP7 ADD PUSH2 0x8B6 JUMP JUMPDEST PUSH2 0xC3B DUP2 PUSH2 0x8C4 JUMP JUMPDEST DUP5 ADD SWAP2 POP POP SWAP3 SWAP2 POP POP JUMP JUMPDEST PUSH2 0xC4F DUP2 PUSH2 0x92B JUMP JUMPDEST DUP3 MSTORE POP POP JUMP JUMPDEST PUSH2 0xC5E DUP2 PUSH2 0x83E JUMP JUMPDEST DUP3 MSTORE POP POP JUMP JUMPDEST PUSH0 PUSH1 0x80 DUP4 ADD PUSH0 DUP4 ADD MLOAD DUP5 DUP3 SUB PUSH0 DUP7 ADD MSTORE PUSH2 0xC7E DUP3 DUP3 PUSH2 0xC0E JUMP JUMPDEST SWAP2 POP POP PUSH1 0x20 DUP4 ADD MLOAD DUP5 DUP3 SUB PUSH1 0x20 DUP7 ADD MSTORE PUSH2 0xC98 DUP3 DUP3 PUSH2 0xC0E JUMP JUMPDEST SWAP2 POP POP PUSH1 0x40 DUP4 ADD MLOAD PUSH2 0xCAD PUSH1 0x40 DUP7 ADD DUP3 PUSH2 0xC46 JUMP JUMPDEST POP PUSH1 0x60 DUP4 ADD MLOAD PUSH2 0xCC0 PUSH1 0x60 DUP7 ADD DUP3 PUSH2 0xC55 JUMP JUMPDEST POP DUP1 SWAP2 POP POP SWAP3 SWAP2 POP POP JUMP JUMPDEST PUSH0 PUSH2 0xCD6 DUP4 DUP4 PUSH2 0xC64 JUMP JUMPDEST SWAP1 POP SWAP3 SWAP2 POP POP JUMP JUMPDEST PUSH0 PUSH1 0x20 DUP3 ADD SWAP1 POP SWAP2 SWAP1 POP JUMP JUMPDEST PUSH0 PUSH2 0xCF4 DUP3 PUSH2 0xBD5 JUMP JUMPDEST PUSH2 0xCFE DUP2 DUP6 PUSH2 0xBDF JUMP JUMPDEST SWAP4 POP DUP4 PUSH1 0x20 DUP3 MUL DUP6 ADD PUSH2 0xD10 DUP6 PUSH2 0xBEF JUMP JUMPDEST DUP1 PUSH0 JUMPDEST DUP6 DUP2 LT ISZERO PUSH2 0xD4B JUMPI DUP5 DUP5 SUB DUP10 MSTORE DUP2 MLOAD PUSH2 0xD2C DUP6 DUP3 PUSH2 0xCCB JUMP JUMPDEST SWAP5 POP PUSH2 0xD37 DUP4 PUSH2 0xCDE JUMP JUMPDEST SWAP3 POP PUSH1 0x20 DUP11 ADD SWAP10 POP POP PUSH1 0x1 DUP2 ADD SWAP1 POP PUSH2 0xD13 JUMP JUMPDEST POP DUP3 SWAP8 POP DUP8 SWAP6 POP POP POP POP POP POP SWAP3 SWAP2 POP POP JUMP JUMPDEST PUSH0 PUSH1 0x20 DUP3 ADD SWAP1 POP DUP2 DUP2 SUB PUSH0 DUP4 ADD MSTORE PUSH2 0xD75 DUP2 DUP5 PUSH2 0xCEA JUMP JUMPDEST SWAP1 POP SWAP3 SWAP2 POP POP JUMP JUMPDEST PUSH32 0x545450206E6F2065786973746500000000000000000000000000000000000000 PUSH0 DUP3 ADD MSTORE POP JUMP JUMPDEST PUSH0 PUSH2 0xDB1 PUSH1 0xD DUP4 PUSH2 0x8A6 JUMP JUMPDEST SWAP2 POP PUSH2 0xDBC DUP3 PUSH2 0xD7D JUMP JUMPDEST PUSH1 0x20 DUP3 ADD SWAP1 POP SWAP2 SWAP1 POP JUMP JUMPDEST PUSH0 PUSH1 0x20 DUP3 ADD SWAP1 POP DUP2 DUP2 SUB PUSH0 DUP4 ADD MSTORE PUSH2 0xDDE DUP2 PUSH2 0xDA5 JUMP JUMPDEST SWAP1 POP SWAP2 SWAP1 POP JUMP JUMPDEST PUSH32 0x4E487B7100000000000000000000000000000000000000000000000000000000 PUSH0 MSTORE PUSH1 0x22 PUSH1 0x4 MSTORE PUSH1 0x24 PUSH0 REVERT JUMPDEST PUSH0 PUSH1 0x2 DUP3 DIV SWAP1 POP PUSH1 0x1 DUP3 AND DUP1 PUSH2 0xE29 JUMPI PUSH1 0x7F DUP3 AND SWAP2 POP JUMPDEST PUSH1 0x20 DUP3 LT DUP2 SUB PUSH2 0xE3C JUMPI PUSH2 0xE3B PUSH2 0xDE5 JUMP JUMPDEST JUMPDEST POP SWAP2 SWAP1 POP JUMP JUMPDEST PUSH0 DUP2 SWAP1 POP DUP2 PUSH0 MSTORE PUSH1 0x20 PUSH0 KECCAK256 SWAP1 POP SWAP2 SWAP1 POP JUMP JUMPDEST PUSH0 PUSH1 0x20 PUSH1 0x1F DUP4 ADD DIV SWAP1 POP SWAP2 SWAP1 POP JUMP JUMPDEST PUSH0 DUP3 DUP3 SHL SWAP1 POP SWAP3 SWAP2 POP POP JUMP JUMPDEST PUSH0 PUSH1 0x8 DUP4 MUL PUSH2 0xE9E PUSH32 0xFFFFFFFFFFFFFFFFFFFFFFFFFFFFFFFFFFFFFFFFFFFFFFFFFFFFFFFFFFFFFFFF DUP3 PUSH2 0xE63 JUMP JUMPDEST PUSH2 0xEA8 DUP7 DUP4 PUSH2 0xE63 JUMP JUMPDEST SWAP6 POP DUP1 NOT DUP5 AND SWAP4 POP DUP1 DUP7 AND DUP5 OR SWAP3 POP POP POP SWAP4 SWAP3 POP POP POP JUMP JUMPDEST PUSH0 DUP2 SWAP1 POP SWAP2 SWAP1 POP JUMP JUMPDEST PUSH0 PUSH2 0xEE3 PUSH2 0xEDE PUSH2 0xED9 DUP5 PUSH2 0x83E JUMP JUMPDEST PUSH2 0xEC0 JUMP JUMPDEST PUSH2 0x83E JUMP JUMPDEST SWAP1 POP SWAP2 SWAP1 POP JUMP JUMPDEST PUSH0 DUP2 SWAP1 POP SWAP2 SWAP1 POP JUMP JUMPDEST PUSH2 0xEFC DUP4 PUSH2 0xEC9 JUMP JUMPDEST PUSH2 0xF10 PUSH2 0xF08 DUP3 PUSH2 0xEEA JUMP JUMPDEST DUP5 DUP5 SLOAD PUSH2 0xE6F JUMP JUMPDEST DUP3 SSTORE POP POP POP POP JUMP JUMPDEST PUSH0 SWAP1 JUMP JUMPDEST PUSH2 0xF24 PUSH2 0xF18 JUMP JUMPDEST PUSH2 0xF2F DUP2 DUP5 DUP5 PUSH2 0xEF3 JUMP JUMPDEST POP POP POP JUMP JUMPDEST JUMPDEST DUP2 DUP2 LT ISZERO PUSH2 0xF52 JUMPI PUSH2 0xF47 PUSH0 DUP3 PUSH2 0xF1C JUMP JUMPDEST PUSH1 0x1 DUP2 ADD SWAP1 POP PUSH2 0xF35 JUMP JUMPDEST POP POP JUMP JUMPDEST PUSH1 0x1F DUP3 GT ISZERO PUSH2 0xF97 JUMPI PUSH2 0xF68 DUP2 PUSH2 0xE42 JUMP JUMPDEST PUSH2 0xF71 DUP5 PUSH2 0xE54 JUMP JUMPDEST DUP2 ADD PUSH1 0x20 DUP6 LT ISZERO PUSH2 0xF80 JUMPI DUP2 SWAP1 POP JUMPDEST PUSH2 0xF94 PUSH2 0xF8C DUP6 PUSH2 0xE54 JUMP JUMPDEST DUP4 ADD DUP3 PUSH2 0xF34 JUMP JUMPDEST POP POP JUMPDEST POP POP POP JUMP JUMPDEST PUSH0 DUP3 DUP3 SHR SWAP1 POP SWAP3 SWAP2 POP POP JUMP JUMPDEST PUSH0 PUSH2 0xFB7 PUSH0 NOT DUP5 PUSH1 0x8 MUL PUSH2 0xF9C JUMP JUMPDEST NOT DUP1 DUP4 AND SWAP2 POP POP SWAP3 SWAP2 POP POP JUMP JUMPDEST PUSH0 PUSH2 0xFCF DUP4 DUP4 PUSH2 0xFA8 JUMP JUMPDEST SWAP2 POP DUP3 PUSH1 0x2 MUL DUP3 OR SWAP1 POP SWAP3 SWAP2 POP POP JUMP JUMPDEST PUSH2 0xFE8 DUP3 PUSH2 0x89C JUMP JUMPDEST PUSH8 0xFFFFFFFFFFFFFFFF DUP2 GT ISZERO PUSH2 0x1001 JUMPI PUSH2 0x1000 PUSH2 0x9B3 JUMP JUMPDEST JUMPDEST PUSH2 0x100B DUP3 SLOAD PUSH2 0xE12 JUMP JUMPDEST PUSH2 0x1016 DUP3 DUP3 DUP6 PUSH2 0xF56 JUMP JUMPDEST PUSH0 PUSH1 0x20 SWAP1 POP PUSH1 0x1F DUP4 GT PUSH1 0x1 DUP2 EQ PUSH2 0x1047 JUMPI PUSH0 DUP5 ISZERO PUSH2 0x1035 JUMPI DUP3 DUP8 ADD MLOAD SWAP1 POP JUMPDEST PUSH2 0x103F DUP6 DUP3 PUSH2 0xFC4 JUMP JUMPDEST DUP7 SSTORE POP PUSH2 0x10A6 JUMP JUMPDEST PUSH1 0x1F NOT DUP5 AND PUSH2 0x1055 DUP7 PUSH2 0xE42 JUMP JUMPDEST PUSH0 JUMPDEST DUP3 DUP2 LT ISZERO PUSH2 0x107C JUMPI DUP5 DUP10 ADD MLOAD DUP3 SSTORE PUSH1 0x1 DUP3 ADD SWAP2 POP PUSH1 0x20 DUP6 ADD SWAP5 POP PUSH1 0x20 DUP2 ADD SWAP1 POP PUSH2 0x1057 JUMP JUMPDEST DUP7 DUP4 LT ISZERO PUSH2 0x1099 JUMPI DUP5 DUP10 ADD MLOAD PUSH2 0x1095 PUSH1 0x1F DUP10 AND DUP3 PUSH2 0xFA8 JUMP JUMPDEST DUP4 SSTORE POP JUMPDEST PUSH1 0x1 PUSH1 0x2 DUP9 MUL ADD DUP9 SSTORE POP POP POP JUMPDEST POP POP POP POP POP POP JUMP JUMPDEST PUSH0 PUSH1 0x40 DUP3 ADD SWAP1 POP DUP2 DUP2 SUB PUSH0 DUP4 ADD MSTORE PUSH2 0x10C6 DUP2 DUP6 PUSH2 0x8D4 JUMP JUMPDEST SWAP1 POP DUP2 DUP2 SUB PUSH1 0x20 DUP4 ADD MSTORE PUSH2 0x10DA DUP2 DUP5 PUSH2 0x8D4 JUMP JUMPDEST SWAP1 POP SWAP4 SWAP3 POP POP POP JUMP JUMPDEST PUSH32 0x4E487B7100000000000000000000000000000000000000000000000000000000 PUSH0 MSTORE PUSH1 0x11 PUSH1 0x4 MSTORE PUSH1 0x24 PUSH0 REVERT JUMPDEST PUSH0 PUSH2 0x111A DUP3 PUSH2 0x83E JUMP JUMPDEST SWAP2 POP PUSH32 0xFFFFFFFFFFFFFFFFFFFFFFFFFFFFFFFFFFFFFFFFFFFFFFFFFFFFFFFFFFFFFFFF DUP3 SUB PUSH2 0x114C JUMPI PUSH2 0x114B PUSH2 0x10E3 JUMP JUMPDEST JUMPDEST PUSH1 0x1 DUP3 ADD SWAP1 POP SWAP2 SWAP1 POP JUMP JUMPDEST PUSH0 PUSH2 0x1161 DUP3 PUSH2 0x83E JUMP JUMPDEST SWAP2 POP PUSH2 0x116C DUP4 PUSH2 0x83E JUMP JUMPDEST SWAP3 POP DUP3 DUP3 SUB SWAP1 POP DUP2 DUP2 GT ISZERO PUSH2 0x1184 JUMPI PUSH2 0x1183 PUSH2 0x10E3 JUMP JUMPDEST JUMPDEST SWAP3 SWAP2 POP POP JUMP JUMPDEST PUSH32 0x4E487B7100000000000000000000000000000000000000000000000000000000 PUSH0 MSTORE PUSH1 0x32 PUSH1 0x4 MSTORE PUSH1 0x24 PUSH0 REVERT INVALID LOG2 PUSH5 0x6970667358 0x22 SLT KECCAK256 0xE8 0xCF 0xC0 0xE3 TSTORE 0x4B CREATE PUSH20 0x9F0993FCF66BF50FAD7A454307DD77E999B5D57C PUSH2 0xC17D DUP9 PUSH5 0x736F6C6343 STOP ADDMOD NOT STOP CALLER "
				},
				"gasEstimates": {
					"creation": {
						"codeDepositCost": "917800",
						"executionCost": "5958",
						"totalCost": "923758"
					},
					"external": {
						"actualizarTTP(uint256,string,string)": "infinite",
						"agregarTTP(string,string)": "infinite",
						"eliminarTTP(uint256)": "infinite",
						"obtenerTTP(uint256)": "infinite",
						"obtenerTodosTTPs()": "infinite"
					}
				},
				"methodIdentifiers": {
					"actualizarTTP(uint256,string,string)": "9374a506",
					"agregarTTP(string,string)": "c0f4140d",
					"eliminarTTP(uint256)": "525ef0ea",
					"obtenerTTP(uint256)": "32aa3641",
					"obtenerTodosTTPs()": "e440d081"
				}
			},
			"storageLayout": {
				"storage": [
					{
						"astId": 9,
						"contract": "contracts/contratos/TTP.sol:TTP",
						"label": "ttps",
						"offset": 0,
						"slot": "0",
						"type": "t_mapping(t_uint256,t_struct(TTP)225_storage)"
					},
					{
						"astId": 12,
						"contract": "contracts/contratos/TTP.sol:TTP",
						"label": "totalTTPs",
						"offset": 0,
						"slot": "1",
						"type": "t_uint256"
					}
				],
				"types": {
					"t_address": {
						"encoding": "inplace",
						"label": "address",
						"numberOfBytes": "20"
					},
					"t_mapping(t_uint256,t_struct(TTP)225_storage)": {
						"encoding": "mapping",
						"key": "t_uint256",
						"label": "mapping(uint256 => struct ITTP.TTP)",
						"numberOfBytes": "32",
						"value": "t_struct(TTP)225_storage"
					},
					"t_string_storage": {
						"encoding": "bytes",
						"label": "string",
						"numberOfBytes": "32"
					},
					"t_struct(TTP)225_storage": {
						"encoding": "inplace",
						"label": "struct ITTP.TTP",
						"members": [
							{
								"astId": 218,
								"contract": "contracts/contratos/TTP.sol:TTP",
								"label": "descripcion",
								"offset": 0,
								"slot": "0",
								"type": "t_string_storage"
							},
							{
								"astId": 220,
								"contract": "contracts/contratos/TTP.sol:TTP",
								"label": "categoria",
								"offset": 0,
								"slot": "1",
								"type": "t_string_storage"
							},
							{
								"astId": 222,
								"contract": "contracts/contratos/TTP.sol:TTP",
								"label": "reportadoPor",
								"offset": 0,
								"slot": "2",
								"type": "t_address"
							},
							{
								"astId": 224,
								"contract": "contracts/contratos/TTP.sol:TTP",
								"label": "fechaReporte",
								"offset": 0,
								"slot": "3",
								"type": "t_uint256"
							}
						],
						"numberOfBytes": "128"
					},
					"t_uint256": {
						"encoding": "inplace",
						"label": "uint256",
						"numberOfBytes": "32"
					}
				}
			},
			"userdoc": {
				"kind": "user",
				"methods": {},
				"version": 1
			}
		}
	}
}