{
	"contracts/IOCBase2.sol": {
		"ThreatIntelligence": {
			"abi": [
				{
					"inputs": [],
					"stateMutability": "nonpayable",
					"type": "constructor"
				},
				{
					"anonymous": false,
					"inputs": [
						{
							"indexed": true,
							"internalType": "uint256",
							"name": "id",
							"type": "uint256"
						},
						{
							"indexed": false,
							"internalType": "string",
							"name": "tipo",
							"type": "string"
						},
						{
							"indexed": false,
							"internalType": "string",
							"name": "valor",
							"type": "string"
						}
					],
					"name": "IOCAdded",
					"type": "event"
				},
				{
					"anonymous": false,
					"inputs": [
						{
							"indexed": true,
							"internalType": "uint256",
							"name": "id",
							"type": "uint256"
						}
					],
					"name": "IOCDeleted",
					"type": "event"
				},
				{
					"anonymous": false,
					"inputs": [
						{
							"indexed": true,
							"internalType": "uint256",
							"name": "id",
							"type": "uint256"
						},
						{
							"indexed": false,
							"internalType": "string",
							"name": "tipo",
							"type": "string"
						},
						{
							"indexed": false,
							"internalType": "string",
							"name": "valor",
							"type": "string"
						}
					],
					"name": "IOCUpdated",
					"type": "event"
				},
				{
					"inputs": [
						{
							"internalType": "uint256",
							"name": "_id",
							"type": "uint256"
						},
						{
							"internalType": "string",
							"name": "_tipo",
							"type": "string"
						},
						{
							"internalType": "string",
							"name": "_valor",
							"type": "string"
						}
					],
					"name": "actualizarIOC",
					"outputs": [],
					"stateMutability": "nonpayable",
					"type": "function"
				},
				{
					"inputs": [
						{
							"internalType": "string",
							"name": "_tipo",
							"type": "string"
						},
						{
							"internalType": "string",
							"name": "_valor",
							"type": "string"
						}
					],
					"name": "agregarIOC",
					"outputs": [],
					"stateMutability": "nonpayable",
					"type": "function"
				},
				{
					"inputs": [
						{
							"internalType": "string",
							"name": "_nuevoTipo",
							"type": "string"
						}
					],
					"name": "agregarTipoPermitido",
					"outputs": [],
					"stateMutability": "nonpayable",
					"type": "function"
				},
				{
					"inputs": [
						{
							"internalType": "uint256",
							"name": "_id",
							"type": "uint256"
						}
					],
					"name": "eliminarIOC",
					"outputs": [],
					"stateMutability": "nonpayable",
					"type": "function"
				},
				{
					"inputs": [
						{
							"internalType": "string",
							"name": "_valor",
							"type": "string"
						}
					],
					"name": "esIOCReportado",
					"outputs": [
						{
							"internalType": "bool",
							"name": "",
							"type": "bool"
						}
					],
					"stateMutability": "view",
					"type": "function"
				},
				{
					"inputs": [
						{
							"internalType": "uint256",
							"name": "_id",
							"type": "uint256"
						}
					],
					"name": "obtenerIOC",
					"outputs": [
						{
							"components": [
								{
									"internalType": "string",
									"name": "tipo",
									"type": "string"
								},
								{
									"internalType": "string",
									"name": "valor",
									"type": "string"
								},
								{
									"internalType": "address",
									"name": "reportadoPor",
									"type": "address"
								},
								{
									"internalType": "uint256",
									"name": "fechaReporte",
									"type": "uint256"
								}
							],
							"internalType": "struct ThreatIntelligence.IOC",
							"name": "",
							"type": "tuple"
						}
					],
					"stateMutability": "view",
					"type": "function"
				},
				{
					"inputs": [],
					"name": "obtenerTodosIOCs",
					"outputs": [
						{
							"components": [
								{
									"internalType": "string",
									"name": "tipo",
									"type": "string"
								},
								{
									"internalType": "string",
									"name": "valor",
									"type": "string"
								},
								{
									"internalType": "address",
									"name": "reportadoPor",
									"type": "address"
								},
								{
									"internalType": "uint256",
									"name": "fechaReporte",
									"type": "uint256"
								}
							],
							"internalType": "struct ThreatIntelligence.IOC[]",
							"name": "",
							"type": "tuple[]"
						}
					],
					"stateMutability": "view",
					"type": "function"
				}
			],
			"devdoc": {
				"kind": "dev",
				"methods": {},
				"version": 1
			},
			"evm": {
				"assembly": "    /* \"contracts/IOCBase2.sol\":60:6003  contract ThreatIntelligence {... */\n  mstore(0x40, 0x80)\n    /* \"contracts/IOCBase2.sol\":300:301  0 */\n  0x00\n    /* \"contracts/IOCBase2.sol\":272:301  uint256 private totalIOCs = 0 */\n  0x01\n  sstore\n    /* \"contracts/IOCBase2.sol\":396:675  constructor() {... */\n  callvalue\n  dup1\n  iszero\n  tag_1\n  jumpi\n  0x00\n  dup1\n  revert\ntag_1:\n  pop\n    /* \"contracts/IOCBase2.sol\":480:495  tiposPermitidos */\n  0x02\n    /* \"contracts/IOCBase2.sol\":480:506  tiposPermitidos.push(\"IP\") */\n  dup1\n  0x01\n  dup2\n  sload\n  add\n  dup1\n  dup3\n  sstore\n  dup1\n  swap2\n  pop\n  pop\n  0x01\n  swap1\n  sub\n  swap1\n  0x00\n  mstore\n  keccak256(0x00, 0x20)\n  add\n  0x00\n  mload(0x40)\n  dup1\n  0x40\n  add\n  0x40\n  mstore\n  dup1\n  0x02\n  dup2\n  mstore\n  0x20\n  add\n  0x4950000000000000000000000000000000000000000000000000000000000000\n  dup2\n  mstore\n  pop\n  swap1\n  swap2\n  swap1\n  swap2\n  pop\n  swap1\n  dup2\n  tag_5\n  swap2\n  swap1\n  tag_6\n  jump\t// in\ntag_5:\n  pop\n    /* \"contracts/IOCBase2.sol\":517:532  tiposPermitidos */\n  0x02\n    /* \"contracts/IOCBase2.sol\":517:544  tiposPermitidos.push(\"URL\") */\n  dup1\n  0x01\n  dup2\n  sload\n  add\n  dup1\n  dup3\n  sstore\n  dup1\n  swap2\n  pop\n  pop\n  0x01\n  swap1\n  sub\n  swap1\n  0x00\n  mstore\n  keccak256(0x00, 0x20)\n  add\n  0x00\n  mload(0x40)\n  dup1\n  0x40\n  add\n  0x40\n  mstore\n  dup1\n  0x03\n  dup2\n  mstore\n  0x20\n  add\n  0x55524c0000000000000000000000000000000000000000000000000000000000\n  dup2\n  mstore\n  pop\n  swap1\n  swap2\n  swap1\n  swap2\n  pop\n  swap1\n  dup2\n  tag_8\n  swap2\n  swap1\n  tag_6\n  jump\t// in\ntag_8:\n  pop\n    /* \"contracts/IOCBase2.sol\":555:570  tiposPermitidos */\n  0x02\n    /* \"contracts/IOCBase2.sol\":555:583  tiposPermitidos.push(\"Hash\") */\n  dup1\n  0x01\n  dup2\n  sload\n  add\n  dup1\n  dup3\n  sstore\n  dup1\n  swap2\n  pop\n  pop\n  0x01\n  swap1\n  sub\n  swap1\n  0x00\n  mstore\n  keccak256(0x00, 0x20)\n  add\n  0x00\n  mload(0x40)\n  dup1\n  0x40\n  add\n  0x40\n  mstore\n  dup1\n  0x04\n  dup2\n  mstore\n  0x20\n  add\n  0x4861736800000000000000000000000000000000000000000000000000000000\n  dup2\n  mstore\n  pop\n  swap1\n  swap2\n  swap1\n  swap2\n  pop\n  swap1\n  dup2\n  tag_10\n  swap2\n  swap1\n  tag_6\n  jump\t// in\ntag_10:\n  pop\n    /* \"contracts/IOCBase2.sol\":594:609  tiposPermitidos */\n  0x02\n    /* \"contracts/IOCBase2.sol\":594:623  tiposPermitidos.push(\"Email\") */\n  dup1\n  0x01\n  dup2\n  sload\n  add\n  dup1\n  dup3\n  sstore\n  dup1\n  swap2\n  pop\n  pop\n  0x01\n  swap1\n  sub\n  swap1\n  0x00\n  mstore\n  keccak256(0x00, 0x20)\n  add\n  0x00\n  mload(0x40)\n  dup1\n  0x40\n  add\n  0x40\n  mstore\n  dup1\n  0x05\n  dup2\n  mstore\n  0x20\n  add\n  0x456d61696c000000000000000000000000000000000000000000000000000000\n  dup2\n  mstore\n  pop\n  swap1\n  swap2\n  swap1\n  swap2\n  pop\n  swap1\n  dup2\n  tag_12\n  swap2\n  swap1\n  tag_6\n  jump\t// in\ntag_12:\n  pop\n    /* \"contracts/IOCBase2.sol\":60:6003  contract ThreatIntelligence {... */\n  jump(tag_13)\n    /* \"#utility.yul\":7:106   */\ntag_14:\n    /* \"#utility.yul\":59:65   */\n  0x00\n    /* \"#utility.yul\":93:98   */\n  dup2\n    /* \"#utility.yul\":87:99   */\n  mload\n    /* \"#utility.yul\":77:99   */\n  swap1\n  pop\n    /* \"#utility.yul\":7:106   */\n  swap2\n  swap1\n  pop\n  jump\t// out\n    /* \"#utility.yul\":112:292   */\ntag_15:\n    /* \"#utility.yul\":160:237   */\n  0x4e487b7100000000000000000000000000000000000000000000000000000000\n    /* \"#utility.yul\":157:158   */\n  0x00\n    /* \"#utility.yul\":150:238   */\n  mstore\n    /* \"#utility.yul\":257:261   */\n  0x41\n    /* \"#utility.yul\":254:255   */\n  0x04\n    /* \"#utility.yul\":247:262   */\n  mstore\n    /* \"#utility.yul\":281:285   */\n  0x24\n    /* \"#utility.yul\":278:279   */\n  0x00\n    /* \"#utility.yul\":271:286   */\n  revert\n    /* \"#utility.yul\":298:478   */\ntag_16:\n    /* \"#utility.yul\":346:423   */\n  0x4e487b7100000000000000000000000000000000000000000000000000000000\n    /* \"#utility.yul\":343:344   */\n  0x00\n    /* \"#utility.yul\":336:424   */\n  mstore\n    /* \"#utility.yul\":443:447   */\n  0x22\n    /* \"#utility.yul\":440:441   */\n  0x04\n    /* \"#utility.yul\":433:448   */\n  mstore\n    /* \"#utility.yul\":467:471   */\n  0x24\n    /* \"#utility.yul\":464:465   */\n  0x00\n    /* \"#utility.yul\":457:472   */\n  revert\n    /* \"#utility.yul\":484:804   */\ntag_17:\n    /* \"#utility.yul\":528:534   */\n  0x00\n    /* \"#utility.yul\":565:566   */\n  0x02\n    /* \"#utility.yul\":559:563   */\n  dup3\n    /* \"#utility.yul\":555:567   */\n  div\n    /* \"#utility.yul\":545:567   */\n  swap1\n  pop\n    /* \"#utility.yul\":612:613   */\n  0x01\n    /* \"#utility.yul\":606:610   */\n  dup3\n    /* \"#utility.yul\":602:614   */\n  and\n    /* \"#utility.yul\":633:651   */\n  dup1\n    /* \"#utility.yul\":623:704   */\n  tag_39\n  jumpi\n    /* \"#utility.yul\":689:693   */\n  0x7f\n    /* \"#utility.yul\":681:687   */\n  dup3\n    /* \"#utility.yul\":677:694   */\n  and\n    /* \"#utility.yul\":667:694   */\n  swap2\n  pop\n    /* \"#utility.yul\":623:704   */\ntag_39:\n    /* \"#utility.yul\":751:753   */\n  0x20\n    /* \"#utility.yul\":743:749   */\n  dup3\n    /* \"#utility.yul\":740:754   */\n  lt\n    /* \"#utility.yul\":720:738   */\n  dup2\n    /* \"#utility.yul\":717:755   */\n  sub\n    /* \"#utility.yul\":714:798   */\n  tag_40\n  jumpi\n    /* \"#utility.yul\":770:788   */\n  tag_41\n  tag_16\n  jump\t// in\ntag_41:\n    /* \"#utility.yul\":714:798   */\ntag_40:\n    /* \"#utility.yul\":535:804   */\n  pop\n    /* \"#utility.yul\":484:804   */\n  swap2\n  swap1\n  pop\n  jump\t// out\n    /* \"#utility.yul\":810:951   */\ntag_18:\n    /* \"#utility.yul\":859:863   */\n  0x00\n    /* \"#utility.yul\":882:885   */\n  dup2\n    /* \"#utility.yul\":874:885   */\n  swap1\n  pop\n    /* \"#utility.yul\":905:908   */\n  dup2\n    /* \"#utility.yul\":902:903   */\n  0x00\n    /* \"#utility.yul\":895:909   */\n  mstore\n    /* \"#utility.yul\":939:943   */\n  0x20\n    /* \"#utility.yul\":936:937   */\n  0x00\n    /* \"#utility.yul\":926:944   */\n  keccak256\n    /* \"#utility.yul\":918:944   */\n  swap1\n  pop\n    /* \"#utility.yul\":810:951   */\n  swap2\n  swap1\n  pop\n  jump\t// out\n    /* \"#utility.yul\":957:1050   */\ntag_19:\n    /* \"#utility.yul\":994:1000   */\n  0x00\n    /* \"#utility.yul\":1041:1043   */\n  0x20\n    /* \"#utility.yul\":1036:1038   */\n  0x1f\n    /* \"#utility.yul\":1029:1034   */\n  dup4\n    /* \"#utility.yul\":1025:1039   */\n  add\n    /* \"#utility.yul\":1021:1044   */\n  div\n    /* \"#utility.yul\":1011:1044   */\n  swap1\n  pop\n    /* \"#utility.yul\":957:1050   */\n  swap2\n  swap1\n  pop\n  jump\t// out\n    /* \"#utility.yul\":1056:1163   */\ntag_20:\n    /* \"#utility.yul\":1100:1108   */\n  0x00\n    /* \"#utility.yul\":1150:1155   */\n  dup3\n    /* \"#utility.yul\":1144:1148   */\n  dup3\n    /* \"#utility.yul\":1140:1156   */\n  shl\n    /* \"#utility.yul\":1119:1156   */\n  swap1\n  pop\n    /* \"#utility.yul\":1056:1163   */\n  swap3\n  swap2\n  pop\n  pop\n  jump\t// out\n    /* \"#utility.yul\":1169:1562   */\ntag_21:\n    /* \"#utility.yul\":1238:1244   */\n  0x00\n    /* \"#utility.yul\":1288:1289   */\n  0x08\n    /* \"#utility.yul\":1276:1286   */\n  dup4\n    /* \"#utility.yul\":1272:1290   */\n  mul\n    /* \"#utility.yul\":1311:1408   */\n  tag_46\n    /* \"#utility.yul\":1341:1407   */\n  0xffffffffffffffffffffffffffffffffffffffffffffffffffffffffffffffff\n    /* \"#utility.yul\":1330:1339   */\n  dup3\n    /* \"#utility.yul\":1311:1408   */\n  tag_20\n  jump\t// in\ntag_46:\n    /* \"#utility.yul\":1429:1468   */\n  tag_47\n    /* \"#utility.yul\":1459:1467   */\n  dup7\n    /* \"#utility.yul\":1448:1457   */\n  dup4\n    /* \"#utility.yul\":1429:1468   */\n  tag_20\n  jump\t// in\ntag_47:\n    /* \"#utility.yul\":1417:1468   */\n  swap6\n  pop\n    /* \"#utility.yul\":1501:1505   */\n  dup1\n    /* \"#utility.yul\":1497:1506   */\n  not\n    /* \"#utility.yul\":1490:1495   */\n  dup5\n    /* \"#utility.yul\":1486:1507   */\n  and\n    /* \"#utility.yul\":1477:1507   */\n  swap4\n  pop\n    /* \"#utility.yul\":1550:1554   */\n  dup1\n    /* \"#utility.yul\":1540:1548   */\n  dup7\n    /* \"#utility.yul\":1536:1555   */\n  and\n    /* \"#utility.yul\":1529:1534   */\n  dup5\n    /* \"#utility.yul\":1526:1556   */\n  or\n    /* \"#utility.yul\":1516:1556   */\n  swap3\n  pop\n    /* \"#utility.yul\":1245:1562   */\n  pop\n  pop\n    /* \"#utility.yul\":1169:1562   */\n  swap4\n  swap3\n  pop\n  pop\n  pop\n  jump\t// out\n    /* \"#utility.yul\":1568:1645   */\ntag_22:\n    /* \"#utility.yul\":1605:1612   */\n  0x00\n    /* \"#utility.yul\":1634:1639   */\n  dup2\n    /* \"#utility.yul\":1623:1639   */\n  swap1\n  pop\n    /* \"#utility.yul\":1568:1645   */\n  swap2\n  swap1\n  pop\n  jump\t// out\n    /* \"#utility.yul\":1651:1711   */\ntag_23:\n    /* \"#utility.yul\":1679:1682   */\n  0x00\n    /* \"#utility.yul\":1700:1705   */\n  dup2\n    /* \"#utility.yul\":1693:1705   */\n  swap1\n  pop\n    /* \"#utility.yul\":1651:1711   */\n  swap2\n  swap1\n  pop\n  jump\t// out\n    /* \"#utility.yul\":1717:1859   */\ntag_24:\n    /* \"#utility.yul\":1767:1776   */\n  0x00\n    /* \"#utility.yul\":1800:1853   */\n  tag_51\n    /* \"#utility.yul\":1818:1852   */\n  tag_52\n    /* \"#utility.yul\":1827:1851   */\n  tag_53\n    /* \"#utility.yul\":1845:1850   */\n  dup5\n    /* \"#utility.yul\":1827:1851   */\n  tag_22\n  jump\t// in\ntag_53:\n    /* \"#utility.yul\":1818:1852   */\n  tag_23\n  jump\t// in\ntag_52:\n    /* \"#utility.yul\":1800:1853   */\n  tag_22\n  jump\t// in\ntag_51:\n    /* \"#utility.yul\":1787:1853   */\n  swap1\n  pop\n    /* \"#utility.yul\":1717:1859   */\n  swap2\n  swap1\n  pop\n  jump\t// out\n    /* \"#utility.yul\":1865:1940   */\ntag_25:\n    /* \"#utility.yul\":1908:1911   */\n  0x00\n    /* \"#utility.yul\":1929:1934   */\n  dup2\n    /* \"#utility.yul\":1922:1934   */\n  swap1\n  pop\n    /* \"#utility.yul\":1865:1940   */\n  swap2\n  swap1\n  pop\n  jump\t// out\n    /* \"#utility.yul\":1946:2215   */\ntag_26:\n    /* \"#utility.yul\":2056:2095   */\n  tag_56\n    /* \"#utility.yul\":2087:2094   */\n  dup4\n    /* \"#utility.yul\":2056:2095   */\n  tag_24\n  jump\t// in\ntag_56:\n    /* \"#utility.yul\":2117:2208   */\n  tag_57\n    /* \"#utility.yul\":2166:2207   */\n  tag_58\n    /* \"#utility.yul\":2190:2206   */\n  dup3\n    /* \"#utility.yul\":2166:2207   */\n  tag_25\n  jump\t// in\ntag_58:\n    /* \"#utility.yul\":2158:2164   */\n  dup5\n    /* \"#utility.yul\":2151:2155   */\n  dup5\n    /* \"#utility.yul\":2145:2156   */\n  sload\n    /* \"#utility.yul\":2117:2208   */\n  tag_21\n  jump\t// in\ntag_57:\n    /* \"#utility.yul\":2111:2115   */\n  dup3\n    /* \"#utility.yul\":2104:2209   */\n  sstore\n    /* \"#utility.yul\":2022:2215   */\n  pop\n    /* \"#utility.yul\":1946:2215   */\n  pop\n  pop\n  pop\n  jump\t// out\n    /* \"#utility.yul\":2221:2294   */\ntag_27:\n    /* \"#utility.yul\":2266:2269   */\n  0x00\n    /* \"#utility.yul\":2221:2294   */\n  swap1\n  jump\t// out\n    /* \"#utility.yul\":2300:2489   */\ntag_28:\n    /* \"#utility.yul\":2377:2409   */\n  tag_61\n  tag_27\n  jump\t// in\ntag_61:\n    /* \"#utility.yul\":2418:2483   */\n  tag_62\n    /* \"#utility.yul\":2476:2482   */\n  dup2\n    /* \"#utility.yul\":2468:2474   */\n  dup5\n    /* \"#utility.yul\":2462:2466   */\n  dup5\n    /* \"#utility.yul\":2418:2483   */\n  tag_26\n  jump\t// in\ntag_62:\n    /* \"#utility.yul\":2353:2489   */\n  pop\n    /* \"#utility.yul\":2300:2489   */\n  pop\n  pop\n  jump\t// out\n    /* \"#utility.yul\":2495:2681   */\ntag_29:\n    /* \"#utility.yul\":2555:2675   */\ntag_64:\n    /* \"#utility.yul\":2572:2575   */\n  dup2\n    /* \"#utility.yul\":2565:2570   */\n  dup2\n    /* \"#utility.yul\":2562:2576   */\n  lt\n    /* \"#utility.yul\":2555:2675   */\n  iszero\n  tag_66\n  jumpi\n    /* \"#utility.yul\":2626:2665   */\n  tag_67\n    /* \"#utility.yul\":2663:2664   */\n  0x00\n    /* \"#utility.yul\":2656:2661   */\n  dup3\n    /* \"#utility.yul\":2626:2665   */\n  tag_28\n  jump\t// in\ntag_67:\n    /* \"#utility.yul\":2599:2600   */\n  0x01\n    /* \"#utility.yul\":2592:2597   */\n  dup2\n    /* \"#utility.yul\":2588:2601   */\n  add\n    /* \"#utility.yul\":2579:2601   */\n  swap1\n  pop\n    /* \"#utility.yul\":2555:2675   */\n  jump(tag_64)\ntag_66:\n    /* \"#utility.yul\":2495:2681   */\n  pop\n  pop\n  jump\t// out\n    /* \"#utility.yul\":2687:3230   */\ntag_30:\n    /* \"#utility.yul\":2788:2790   */\n  0x1f\n    /* \"#utility.yul\":2783:2786   */\n  dup3\n    /* \"#utility.yul\":2780:2791   */\n  gt\n    /* \"#utility.yul\":2777:3223   */\n  iszero\n  tag_69\n  jumpi\n    /* \"#utility.yul\":2822:2860   */\n  tag_70\n    /* \"#utility.yul\":2854:2859   */\n  dup2\n    /* \"#utility.yul\":2822:2860   */\n  tag_18\n  jump\t// in\ntag_70:\n    /* \"#utility.yul\":2906:2935   */\n  tag_71\n    /* \"#utility.yul\":2924:2934   */\n  dup5\n    /* \"#utility.yul\":2906:2935   */\n  tag_19\n  jump\t// in\ntag_71:\n    /* \"#utility.yul\":2896:2904   */\n  dup2\n    /* \"#utility.yul\":2892:2936   */\n  add\n    /* \"#utility.yul\":3089:3091   */\n  0x20\n    /* \"#utility.yul\":3077:3087   */\n  dup6\n    /* \"#utility.yul\":3074:3092   */\n  lt\n    /* \"#utility.yul\":3071:3120   */\n  iszero\n  tag_72\n  jumpi\n    /* \"#utility.yul\":3110:3118   */\n  dup2\n    /* \"#utility.yul\":3095:3118   */\n  swap1\n  pop\n    /* \"#utility.yul\":3071:3120   */\ntag_72:\n    /* \"#utility.yul\":3133:3213   */\n  tag_73\n    /* \"#utility.yul\":3189:3211   */\n  tag_74\n    /* \"#utility.yul\":3207:3210   */\n  dup6\n    /* \"#utility.yul\":3189:3211   */\n  tag_19\n  jump\t// in\ntag_74:\n    /* \"#utility.yul\":3179:3187   */\n  dup4\n    /* \"#utility.yul\":3175:3212   */\n  add\n    /* \"#utility.yul\":3162:3173   */\n  dup3\n    /* \"#utility.yul\":3133:3213   */\n  tag_29\n  jump\t// in\ntag_73:\n    /* \"#utility.yul\":2792:3223   */\n  pop\n  pop\n    /* \"#utility.yul\":2777:3223   */\ntag_69:\n    /* \"#utility.yul\":2687:3230   */\n  pop\n  pop\n  pop\n  jump\t// out\n    /* \"#utility.yul\":3236:3353   */\ntag_31:\n    /* \"#utility.yul\":3290:3298   */\n  0x00\n    /* \"#utility.yul\":3340:3345   */\n  dup3\n    /* \"#utility.yul\":3334:3338   */\n  dup3\n    /* \"#utility.yul\":3330:3346   */\n  shr\n    /* \"#utility.yul\":3309:3346   */\n  swap1\n  pop\n    /* \"#utility.yul\":3236:3353   */\n  swap3\n  swap2\n  pop\n  pop\n  jump\t// out\n    /* \"#utility.yul\":3359:3528   */\ntag_32:\n    /* \"#utility.yul\":3403:3409   */\n  0x00\n    /* \"#utility.yul\":3436:3487   */\n  tag_77\n    /* \"#utility.yul\":3484:3485   */\n  0x00\n    /* \"#utility.yul\":3480:3486   */\n  not\n    /* \"#utility.yul\":3472:3477   */\n  dup5\n    /* \"#utility.yul\":3469:3470   */\n  0x08\n    /* \"#utility.yul\":3465:3478   */\n  mul\n    /* \"#utility.yul\":3436:3487   */\n  tag_31\n  jump\t// in\ntag_77:\n    /* \"#utility.yul\":3432:3488   */\n  not\n    /* \"#utility.yul\":3517:3521   */\n  dup1\n    /* \"#utility.yul\":3511:3515   */\n  dup4\n    /* \"#utility.yul\":3507:3522   */\n  and\n    /* \"#utility.yul\":3497:3522   */\n  swap2\n  pop\n    /* \"#utility.yul\":3410:3528   */\n  pop\n    /* \"#utility.yul\":3359:3528   */\n  swap3\n  swap2\n  pop\n  pop\n  jump\t// out\n    /* \"#utility.yul\":3533:3828   */\ntag_33:\n    /* \"#utility.yul\":3609:3613   */\n  0x00\n    /* \"#utility.yul\":3755:3784   */\n  tag_79\n    /* \"#utility.yul\":3780:3783   */\n  dup4\n    /* \"#utility.yul\":3774:3778   */\n  dup4\n    /* \"#utility.yul\":3755:3784   */\n  tag_32\n  jump\t// in\ntag_79:\n    /* \"#utility.yul\":3747:3784   */\n  swap2\n  pop\n    /* \"#utility.yul\":3817:3820   */\n  dup3\n    /* \"#utility.yul\":3814:3815   */\n  0x02\n    /* \"#utility.yul\":3810:3821   */\n  mul\n    /* \"#utility.yul\":3804:3808   */\n  dup3\n    /* \"#utility.yul\":3801:3822   */\n  or\n    /* \"#utility.yul\":3793:3822   */\n  swap1\n  pop\n    /* \"#utility.yul\":3533:3828   */\n  swap3\n  swap2\n  pop\n  pop\n  jump\t// out\n    /* \"#utility.yul\":3833:5228   */\ntag_6:\n    /* \"#utility.yul\":3950:3987   */\n  tag_81\n    /* \"#utility.yul\":3983:3986   */\n  dup3\n    /* \"#utility.yul\":3950:3987   */\n  tag_14\n  jump\t// in\ntag_81:\n    /* \"#utility.yul\":4052:4070   */\n  0xffffffffffffffff\n    /* \"#utility.yul\":4044:4050   */\n  dup2\n    /* \"#utility.yul\":4041:4071   */\n  gt\n    /* \"#utility.yul\":4038:4094   */\n  iszero\n  tag_82\n  jumpi\n    /* \"#utility.yul\":4074:4092   */\n  tag_83\n  tag_15\n  jump\t// in\ntag_83:\n    /* \"#utility.yul\":4038:4094   */\ntag_82:\n    /* \"#utility.yul\":4118:4156   */\n  tag_84\n    /* \"#utility.yul\":4150:4154   */\n  dup3\n    /* \"#utility.yul\":4144:4155   */\n  sload\n    /* \"#utility.yul\":4118:4156   */\n  tag_17\n  jump\t// in\ntag_84:\n    /* \"#utility.yul\":4203:4270   */\n  tag_85\n    /* \"#utility.yul\":4263:4269   */\n  dup3\n    /* \"#utility.yul\":4255:4261   */\n  dup3\n    /* \"#utility.yul\":4249:4253   */\n  dup6\n    /* \"#utility.yul\":4203:4270   */\n  tag_30\n  jump\t// in\ntag_85:\n    /* \"#utility.yul\":4297:4298   */\n  0x00\n    /* \"#utility.yul\":4321:4325   */\n  0x20\n    /* \"#utility.yul\":4308:4325   */\n  swap1\n  pop\n    /* \"#utility.yul\":4353:4355   */\n  0x1f\n    /* \"#utility.yul\":4345:4351   */\n  dup4\n    /* \"#utility.yul\":4342:4356   */\n  gt\n    /* \"#utility.yul\":4370:4371   */\n  0x01\n    /* \"#utility.yul\":4365:4983   */\n  dup2\n  eq\n  tag_87\n  jumpi\n    /* \"#utility.yul\":5027:5028   */\n  0x00\n    /* \"#utility.yul\":5044:5050   */\n  dup5\n    /* \"#utility.yul\":5041:5118   */\n  iszero\n  tag_88\n  jumpi\n    /* \"#utility.yul\":5093:5102   */\n  dup3\n    /* \"#utility.yul\":5088:5091   */\n  dup8\n    /* \"#utility.yul\":5084:5103   */\n  add\n    /* \"#utility.yul\":5078:5104   */\n  mload\n    /* \"#utility.yul\":5069:5104   */\n  swap1\n  pop\n    /* \"#utility.yul\":5041:5118   */\ntag_88:\n    /* \"#utility.yul\":5144:5211   */\n  tag_89\n    /* \"#utility.yul\":5204:5210   */\n  dup6\n    /* \"#utility.yul\":5197:5202   */\n  dup3\n    /* \"#utility.yul\":5144:5211   */\n  tag_33\n  jump\t// in\ntag_89:\n    /* \"#utility.yul\":5138:5142   */\n  dup7\n    /* \"#utility.yul\":5131:5212   */\n  sstore\n    /* \"#utility.yul\":5000:5222   */\n  pop\n    /* \"#utility.yul\":4335:5222   */\n  jump(tag_86)\n    /* \"#utility.yul\":4365:4983   */\ntag_87:\n    /* \"#utility.yul\":4417:4421   */\n  0x1f\n    /* \"#utility.yul\":4413:4422   */\n  not\n    /* \"#utility.yul\":4405:4411   */\n  dup5\n    /* \"#utility.yul\":4401:4423   */\n  and\n    /* \"#utility.yul\":4451:4488   */\n  tag_90\n    /* \"#utility.yul\":4483:4487   */\n  dup7\n    /* \"#utility.yul\":4451:4488   */\n  tag_18\n  jump\t// in\ntag_90:\n    /* \"#utility.yul\":4510:4511   */\n  0x00\n    /* \"#utility.yul\":4524:4732   */\ntag_91:\n    /* \"#utility.yul\":4538:4545   */\n  dup3\n    /* \"#utility.yul\":4535:4536   */\n  dup2\n    /* \"#utility.yul\":4532:4546   */\n  lt\n    /* \"#utility.yul\":4524:4732   */\n  iszero\n  tag_93\n  jumpi\n    /* \"#utility.yul\":4617:4626   */\n  dup5\n    /* \"#utility.yul\":4612:4615   */\n  dup10\n    /* \"#utility.yul\":4608:4627   */\n  add\n    /* \"#utility.yul\":4602:4628   */\n  mload\n    /* \"#utility.yul\":4594:4600   */\n  dup3\n    /* \"#utility.yul\":4587:4629   */\n  sstore\n    /* \"#utility.yul\":4668:4669   */\n  0x01\n    /* \"#utility.yul\":4660:4666   */\n  dup3\n    /* \"#utility.yul\":4656:4670   */\n  add\n    /* \"#utility.yul\":4646:4670   */\n  swap2\n  pop\n    /* \"#utility.yul\":4715:4717   */\n  0x20\n    /* \"#utility.yul\":4704:4713   */\n  dup6\n    /* \"#utility.yul\":4700:4718   */\n  add\n    /* \"#utility.yul\":4687:4718   */\n  swap5\n  pop\n    /* \"#utility.yul\":4561:4565   */\n  0x20\n    /* \"#utility.yul\":4558:4559   */\n  dup2\n    /* \"#utility.yul\":4554:4566   */\n  add\n    /* \"#utility.yul\":4549:4566   */\n  swap1\n  pop\n    /* \"#utility.yul\":4524:4732   */\n  jump(tag_91)\ntag_93:\n    /* \"#utility.yul\":4760:4766   */\n  dup7\n    /* \"#utility.yul\":4751:4758   */\n  dup4\n    /* \"#utility.yul\":4748:4767   */\n  lt\n    /* \"#utility.yul\":4745:4924   */\n  iszero\n  tag_94\n  jumpi\n    /* \"#utility.yul\":4818:4827   */\n  dup5\n    /* \"#utility.yul\":4813:4816   */\n  dup10\n    /* \"#utility.yul\":4809:4828   */\n  add\n    /* \"#utility.yul\":4803:4829   */\n  mload\n    /* \"#utility.yul\":4861:4909   */\n  tag_95\n    /* \"#utility.yul\":4903:4907   */\n  0x1f\n    /* \"#utility.yul\":4895:4901   */\n  dup10\n    /* \"#utility.yul\":4891:4908   */\n  and\n    /* \"#utility.yul\":4880:4889   */\n  dup3\n    /* \"#utility.yul\":4861:4909   */\n  tag_32\n  jump\t// in\ntag_95:\n    /* \"#utility.yul\":4853:4859   */\n  dup4\n    /* \"#utility.yul\":4846:4910   */\n  sstore\n    /* \"#utility.yul\":4768:4924   */\n  pop\n    /* \"#utility.yul\":4745:4924   */\ntag_94:\n    /* \"#utility.yul\":4970:4971   */\n  0x01\n    /* \"#utility.yul\":4966:4967   */\n  0x02\n    /* \"#utility.yul\":4958:4964   */\n  dup9\n    /* \"#utility.yul\":4954:4968   */\n  mul\n    /* \"#utility.yul\":4950:4972   */\n  add\n    /* \"#utility.yul\":4944:4948   */\n  dup9\n    /* \"#utility.yul\":4937:4973   */\n  sstore\n    /* \"#utility.yul\":4372:4983   */\n  pop\n  pop\n  pop\n    /* \"#utility.yul\":4335:5222   */\ntag_86:\n  pop\n    /* \"#utility.yul\":3925:5228   */\n  pop\n  pop\n  pop\n    /* \"#utility.yul\":3833:5228   */\n  pop\n  pop\n  jump\t// out\n    /* \"contracts/IOCBase2.sol\":60:6003  contract ThreatIntelligence {... */\ntag_13:\n  dataSize(sub_0)\n  dup1\n  dataOffset(sub_0)\n  0x00\n  codecopy\n  0x00\n  return\nstop\n\nsub_0: assembly {\n        /* \"contracts/IOCBase2.sol\":60:6003  contract ThreatIntelligence {... */\n      mstore(0x40, 0x80)\n      callvalue\n      dup1\n      iszero\n      tag_1\n      jumpi\n      0x00\n      dup1\n      revert\n    tag_1:\n      pop\n      jumpi(tag_2, lt(calldatasize, 0x04))\n      shr(0xe0, calldataload(0x00))\n      dup1\n      0x9290aaa2\n      gt\n      tag_10\n      jumpi\n      dup1\n      0x9290aaa2\n      eq\n      tag_6\n      jumpi\n      dup1\n      0xccd666d2\n      eq\n      tag_7\n      jumpi\n      dup1\n      0xe8e46333\n      eq\n      tag_8\n      jumpi\n      dup1\n      0xf6b7af94\n      eq\n      tag_9\n      jumpi\n      jump(tag_2)\n    tag_10:\n      dup1\n      0x390b6116\n      eq\n      tag_3\n      jumpi\n      dup1\n      0x55f40ba9\n      eq\n      tag_4\n      jumpi\n      dup1\n      0x6143a4ec\n      eq\n      tag_5\n      jumpi\n    tag_2:\n      0x00\n      dup1\n      revert\n        /* \"contracts/IOCBase2.sol\":5095:5248  function obtenerIOC(uint256 _id) public view returns (IOC memory) {... */\n    tag_3:\n      tag_11\n      0x04\n      dup1\n      calldatasize\n      sub\n      dup2\n      add\n      swap1\n      tag_12\n      swap2\n      swap1\n      tag_13\n      jump\t// in\n    tag_12:\n      tag_14\n      jump\t// in\n    tag_11:\n      mload(0x40)\n      tag_15\n      swap2\n      swap1\n      tag_16\n      jump\t// in\n    tag_15:\n      mload(0x40)\n      dup1\n      swap2\n      sub\n      swap1\n      return\n        /* \"contracts/IOCBase2.sol\":5256:5605  function obtenerTodosIOCs() public view returns (IOC[] memory) {... */\n    tag_4:\n      tag_17\n      tag_18\n      jump\t// in\n    tag_17:\n      mload(0x40)\n      tag_19\n      swap2\n      swap1\n      tag_20\n      jump\t// in\n    tag_19:\n      mload(0x40)\n      dup1\n      swap2\n      sub\n      swap1\n      return\n        /* \"contracts/IOCBase2.sol\":683:866  function agregarTipoPermitido(string memory _nuevoTipo) public {... */\n    tag_5:\n      tag_21\n      0x04\n      dup1\n      calldatasize\n      sub\n      dup2\n      add\n      swap1\n      tag_22\n      swap2\n      swap1\n      tag_23\n      jump\t// in\n    tag_22:\n      tag_24\n      jump\t// in\n    tag_21:\n      stop\n        /* \"contracts/IOCBase2.sol\":3790:4324  function agregarIOC(string memory _tipo, string memory _valor) public {... */\n    tag_6:\n      tag_25\n      0x04\n      dup1\n      calldatasize\n      sub\n      dup2\n      add\n      swap1\n      tag_26\n      swap2\n      swap1\n      tag_27\n      jump\t// in\n    tag_26:\n      tag_28\n      jump\t// in\n    tag_25:\n      stop\n        /* \"contracts/IOCBase2.sol\":4895:5054  function eliminarIOC(uint256 _id) public {... */\n    tag_7:\n      tag_29\n      0x04\n      dup1\n      calldatasize\n      sub\n      dup2\n      add\n      swap1\n      tag_30\n      swap2\n      swap1\n      tag_13\n      jump\t// in\n    tag_30:\n      tag_31\n      jump\t// in\n    tag_29:\n      stop\n        /* \"contracts/IOCBase2.sol\":5687:6000  function esIOCReportado(string memory _valor) public view returns (bool) {... */\n    tag_8:\n      tag_32\n      0x04\n      dup1\n      calldatasize\n      sub\n      dup2\n      add\n      swap1\n      tag_33\n      swap2\n      swap1\n      tag_23\n      jump\t// in\n    tag_33:\n      tag_34\n      jump\t// in\n    tag_32:\n      mload(0x40)\n      tag_35\n      swap2\n      swap1\n      tag_36\n      jump\t// in\n    tag_35:\n      mload(0x40)\n      dup1\n      swap2\n      sub\n      swap1\n      return\n        /* \"contracts/IOCBase2.sol\":4368:4863  function actualizarIOC(uint256 _id, string memory _tipo, string memory _valor) public {... */\n    tag_9:\n      tag_37\n      0x04\n      dup1\n      calldatasize\n      sub\n      dup2\n      add\n      swap1\n      tag_38\n      swap2\n      swap1\n      tag_39\n      jump\t// in\n    tag_38:\n      tag_40\n      jump\t// in\n    tag_37:\n      stop\n        /* \"contracts/IOCBase2.sol\":5095:5248  function obtenerIOC(uint256 _id) public view returns (IOC memory) {... */\n    tag_14:\n        /* \"contracts/IOCBase2.sol\":5149:5159  IOC memory */\n      tag_41\n      tag_42\n      jump\t// in\n    tag_41:\n        /* \"contracts/IOCBase2.sol\":5186:5195  totalIOCs */\n      sload(0x01)\n        /* \"contracts/IOCBase2.sol\":5180:5183  _id */\n      dup3\n        /* \"contracts/IOCBase2.sol\":5180:5195  _id < totalIOCs */\n      lt\n        /* \"contracts/IOCBase2.sol\":5172:5213  require(_id < totalIOCs, \"IOC no existe\") */\n      tag_44\n      jumpi\n      mload(0x40)\n      0x08c379a000000000000000000000000000000000000000000000000000000000\n      dup2\n      mstore\n      0x04\n      add\n      tag_45\n      swap1\n      tag_46\n      jump\t// in\n    tag_45:\n      mload(0x40)\n      dup1\n      swap2\n      sub\n      swap1\n      revert\n    tag_44:\n        /* \"contracts/IOCBase2.sol\":5231:5235  iocs */\n      0x00\n        /* \"contracts/IOCBase2.sol\":5231:5240  iocs[_id] */\n      dup1\n        /* \"contracts/IOCBase2.sol\":5236:5239  _id */\n      dup4\n        /* \"contracts/IOCBase2.sol\":5231:5240  iocs[_id] */\n      dup2\n      mstore\n      0x20\n      add\n      swap1\n      dup2\n      mstore\n      0x20\n      add\n      0x00\n      keccak256\n        /* \"contracts/IOCBase2.sol\":5224:5240  return iocs[_id] */\n      mload(0x40)\n      dup1\n      0x80\n      add\n      0x40\n      mstore\n      swap1\n      dup2\n      0x00\n      dup3\n      add\n      dup1\n      sload\n      tag_47\n      swap1\n      tag_48\n      jump\t// in\n    tag_47:\n      dup1\n      0x1f\n      add\n      0x20\n      dup1\n      swap2\n      div\n      mul\n      0x20\n      add\n      mload(0x40)\n      swap1\n      dup2\n      add\n      0x40\n      mstore\n      dup1\n      swap3\n      swap2\n      swap1\n      dup2\n      dup2\n      mstore\n      0x20\n      add\n      dup3\n      dup1\n      sload\n      tag_49\n      swap1\n      tag_48\n      jump\t// in\n    tag_49:\n      dup1\n      iszero\n      tag_50\n      jumpi\n      dup1\n      0x1f\n      lt\n      tag_51\n      jumpi\n      0x0100\n      dup1\n      dup4\n      sload\n      div\n      mul\n      dup4\n      mstore\n      swap2\n      0x20\n      add\n      swap2\n      jump(tag_50)\n    tag_51:\n      dup3\n      add\n      swap2\n      swap1\n      0x00\n      mstore\n      keccak256(0x00, 0x20)\n      swap1\n    tag_52:\n      dup2\n      sload\n      dup2\n      mstore\n      swap1\n      0x01\n      add\n      swap1\n      0x20\n      add\n      dup1\n      dup4\n      gt\n      tag_52\n      jumpi\n      dup3\n      swap1\n      sub\n      0x1f\n      and\n      dup3\n      add\n      swap2\n    tag_50:\n      pop\n      pop\n      pop\n      pop\n      pop\n      dup2\n      mstore\n      0x20\n      add\n      0x01\n      dup3\n      add\n      dup1\n      sload\n      tag_53\n      swap1\n      tag_48\n      jump\t// in\n    tag_53:\n      dup1\n      0x1f\n      add\n      0x20\n      dup1\n      swap2\n      div\n      mul\n      0x20\n      add\n      mload(0x40)\n      swap1\n      dup2\n      add\n      0x40\n      mstore\n      dup1\n      swap3\n      swap2\n      swap1\n      dup2\n      dup2\n      mstore\n      0x20\n      add\n      dup3\n      dup1\n      sload\n      tag_54\n      swap1\n      tag_48\n      jump\t// in\n    tag_54:\n      dup1\n      iszero\n      tag_55\n      jumpi\n      dup1\n      0x1f\n      lt\n      tag_56\n      jumpi\n      0x0100\n      dup1\n      dup4\n      sload\n      div\n      mul\n      dup4\n      mstore\n      swap2\n      0x20\n      add\n      swap2\n      jump(tag_55)\n    tag_56:\n      dup3\n      add\n      swap2\n      swap1\n      0x00\n      mstore\n      keccak256(0x00, 0x20)\n      swap1\n    tag_57:\n      dup2\n      sload\n      dup2\n      mstore\n      swap1\n      0x01\n      add\n      swap1\n      0x20\n      add\n      dup1\n      dup4\n      gt\n      tag_57\n      jumpi\n      dup3\n      swap1\n      sub\n      0x1f\n      and\n      dup3\n      add\n      swap2\n    tag_55:\n      pop\n      pop\n      pop\n      pop\n      pop\n      dup2\n      mstore\n      0x20\n      add\n      0x02\n      dup3\n      add\n      0x00\n      swap1\n      sload\n      swap1\n      0x0100\n      exp\n      swap1\n      div\n      0xffffffffffffffffffffffffffffffffffffffff\n      and\n      0xffffffffffffffffffffffffffffffffffffffff\n      and\n      0xffffffffffffffffffffffffffffffffffffffff\n      and\n      dup2\n      mstore\n      0x20\n      add\n      0x03\n      dup3\n      add\n      sload\n      dup2\n      mstore\n      pop\n      pop\n      swap1\n      pop\n        /* \"contracts/IOCBase2.sol\":5095:5248  function obtenerIOC(uint256 _id) public view returns (IOC memory) {... */\n      swap2\n      swap1\n      pop\n      jump\t// out\n        /* \"contracts/IOCBase2.sol\":5256:5605  function obtenerTodosIOCs() public view returns (IOC[] memory) {... */\n    tag_18:\n        /* \"contracts/IOCBase2.sol\":5305:5317  IOC[] memory */\n      0x60\n        /* \"contracts/IOCBase2.sol\":5326:5344  IOC[] memory todos */\n      0x00\n        /* \"contracts/IOCBase2.sol\":5357:5366  totalIOCs */\n      sload(0x01)\n        /* \"contracts/IOCBase2.sol\":5347:5367  new IOC[](totalIOCs) */\n      0xffffffffffffffff\n      dup2\n      gt\n      iszero\n      tag_59\n      jumpi\n      tag_60\n      tag_61\n      jump\t// in\n    tag_60:\n    tag_59:\n      mload(0x40)\n      swap1\n      dup1\n      dup3\n      mstore\n      dup1\n      0x20\n      mul\n      0x20\n      add\n      dup3\n      add\n      0x40\n      mstore\n      dup1\n      iszero\n      tag_62\n      jumpi\n      dup2\n      0x20\n      add\n    tag_63:\n      tag_64\n      tag_42\n      jump\t// in\n    tag_64:\n      dup2\n      mstore\n      0x20\n      add\n      swap1\n      0x01\n      swap1\n      sub\n      swap1\n      dup2\n      tag_63\n      jumpi\n      swap1\n      pop\n    tag_62:\n      pop\n        /* \"contracts/IOCBase2.sol\":5326:5367  IOC[] memory todos = new IOC[](totalIOCs) */\n      swap1\n      pop\n        /* \"contracts/IOCBase2.sol\":5379:5388  uint256 i */\n      0x00\n        /* \"contracts/IOCBase2.sol\":5374:5575  for (uint256 i = 0; i < totalIOCs; i++) {... */\n    tag_65:\n        /* \"contracts/IOCBase2.sol\":5398:5407  totalIOCs */\n      sload(0x01)\n        /* \"contracts/IOCBase2.sol\":5394:5395  i */\n      dup2\n        /* \"contracts/IOCBase2.sol\":5394:5407  i < totalIOCs */\n      lt\n        /* \"contracts/IOCBase2.sol\":5374:5575  for (uint256 i = 0; i < totalIOCs; i++) {... */\n      iszero\n      tag_66\n      jumpi\n        /* \"contracts/IOCBase2.sol\":5425:5440  IOC storage ioc */\n      0x00\n        /* \"contracts/IOCBase2.sol\":5443:5447  iocs */\n      dup1\n        /* \"contracts/IOCBase2.sol\":5443:5450  iocs[i] */\n      0x00\n        /* \"contracts/IOCBase2.sol\":5448:5449  i */\n      dup4\n        /* \"contracts/IOCBase2.sol\":5443:5450  iocs[i] */\n      dup2\n      mstore\n      0x20\n      add\n      swap1\n      dup2\n      mstore\n      0x20\n      add\n      0x00\n      keccak256\n        /* \"contracts/IOCBase2.sol\":5425:5450  IOC storage ioc = iocs[i] */\n      swap1\n      pop\n        /* \"contracts/IOCBase2.sol\":5493:5494  0 */\n      0x00\n        /* \"contracts/IOCBase2.sol\":5465:5495  ioc.reportadoPor != address(0) */\n      0xffffffffffffffffffffffffffffffffffffffff\n      and\n        /* \"contracts/IOCBase2.sol\":5465:5468  ioc */\n      dup2\n        /* \"contracts/IOCBase2.sol\":5465:5481  ioc.reportadoPor */\n      0x02\n      add\n      0x00\n      swap1\n      sload\n      swap1\n      0x0100\n      exp\n      swap1\n      div\n      0xffffffffffffffffffffffffffffffffffffffff\n      and\n        /* \"contracts/IOCBase2.sol\":5465:5495  ioc.reportadoPor != address(0) */\n      0xffffffffffffffffffffffffffffffffffffffff\n      and\n      eq\n        /* \"contracts/IOCBase2.sol\":5461:5568  if (ioc.reportadoPor != address(0)) { // Verificar si el IOC existe... */\n      tag_68\n      jumpi\n        /* \"contracts/IOCBase2.sol\":5553:5556  ioc */\n      dup1\n        /* \"contracts/IOCBase2.sol\":5542:5556  todos[i] = ioc */\n      mload(0x40)\n      dup1\n      0x80\n      add\n      0x40\n      mstore\n      swap1\n      dup2\n      0x00\n      dup3\n      add\n      dup1\n      sload\n      tag_69\n      swap1\n      tag_48\n      jump\t// in\n    tag_69:\n      dup1\n      0x1f\n      add\n      0x20\n      dup1\n      swap2\n      div\n      mul\n      0x20\n      add\n      mload(0x40)\n      swap1\n      dup2\n      add\n      0x40\n      mstore\n      dup1\n      swap3\n      swap2\n      swap1\n      dup2\n      dup2\n      mstore\n      0x20\n      add\n      dup3\n      dup1\n      sload\n      tag_70\n      swap1\n      tag_48\n      jump\t// in\n    tag_70:\n      dup1\n      iszero\n      tag_71\n      jumpi\n      dup1\n      0x1f\n      lt\n      tag_72\n      jumpi\n      0x0100\n      dup1\n      dup4\n      sload\n      div\n      mul\n      dup4\n      mstore\n      swap2\n      0x20\n      add\n      swap2\n      jump(tag_71)\n    tag_72:\n      dup3\n      add\n      swap2\n      swap1\n      0x00\n      mstore\n      keccak256(0x00, 0x20)\n      swap1\n    tag_73:\n      dup2\n      sload\n      dup2\n      mstore\n      swap1\n      0x01\n      add\n      swap1\n      0x20\n      add\n      dup1\n      dup4\n      gt\n      tag_73\n      jumpi\n      dup3\n      swap1\n      sub\n      0x1f\n      and\n      dup3\n      add\n      swap2\n    tag_71:\n      pop\n      pop\n      pop\n      pop\n      pop\n      dup2\n      mstore\n      0x20\n      add\n      0x01\n      dup3\n      add\n      dup1\n      sload\n      tag_74\n      swap1\n      tag_48\n      jump\t// in\n    tag_74:\n      dup1\n      0x1f\n      add\n      0x20\n      dup1\n      swap2\n      div\n      mul\n      0x20\n      add\n      mload(0x40)\n      swap1\n      dup2\n      add\n      0x40\n      mstore\n      dup1\n      swap3\n      swap2\n      swap1\n      dup2\n      dup2\n      mstore\n      0x20\n      add\n      dup3\n      dup1\n      sload\n      tag_75\n      swap1\n      tag_48\n      jump\t// in\n    tag_75:\n      dup1\n      iszero\n      tag_76\n      jumpi\n      dup1\n      0x1f\n      lt\n      tag_77\n      jumpi\n      0x0100\n      dup1\n      dup4\n      sload\n      div\n      mul\n      dup4\n      mstore\n      swap2\n      0x20\n      add\n      swap2\n      jump(tag_76)\n    tag_77:\n      dup3\n      add\n      swap2\n      swap1\n      0x00\n      mstore\n      keccak256(0x00, 0x20)\n      swap1\n    tag_78:\n      dup2\n      sload\n      dup2\n      mstore\n      swap1\n      0x01\n      add\n      swap1\n      0x20\n      add\n      dup1\n      dup4\n      gt\n      tag_78\n      jumpi\n      dup3\n      swap1\n      sub\n      0x1f\n      and\n      dup3\n      add\n      swap2\n    tag_76:\n      pop\n      pop\n      pop\n      pop\n      pop\n      dup2\n      mstore\n      0x20\n      add\n      0x02\n      dup3\n      add\n      0x00\n      swap1\n      sload\n      swap1\n      0x0100\n      exp\n      swap1\n      div\n      0xffffffffffffffffffffffffffffffffffffffff\n      and\n      0xffffffffffffffffffffffffffffffffffffffff\n      and\n      0xffffffffffffffffffffffffffffffffffffffff\n      and\n      dup2\n      mstore\n      0x20\n      add\n      0x03\n      dup3\n      add\n      sload\n      dup2\n      mstore\n      pop\n      pop\n        /* \"contracts/IOCBase2.sol\":5542:5547  todos */\n      dup4\n        /* \"contracts/IOCBase2.sol\":5548:5549  i */\n      dup4\n        /* \"contracts/IOCBase2.sol\":5542:5550  todos[i] */\n      dup2\n      mload\n      dup2\n      lt\n      tag_79\n      jumpi\n      tag_80\n      tag_81\n      jump\t// in\n    tag_80:\n    tag_79:\n      0x20\n      mul\n      0x20\n      add\n      add\n        /* \"contracts/IOCBase2.sol\":5542:5556  todos[i] = ioc */\n      dup2\n      swap1\n      mstore\n      pop\n        /* \"contracts/IOCBase2.sol\":5461:5568  if (ioc.reportadoPor != address(0)) { // Verificar si el IOC existe... */\n    tag_68:\n        /* \"contracts/IOCBase2.sol\":5414:5575  {... */\n      pop\n        /* \"contracts/IOCBase2.sol\":5409:5412  i++ */\n      dup1\n      dup1\n      0x01\n      add\n      swap2\n      pop\n      pop\n        /* \"contracts/IOCBase2.sol\":5374:5575  for (uint256 i = 0; i < totalIOCs; i++) {... */\n      jump(tag_65)\n    tag_66:\n      pop\n        /* \"contracts/IOCBase2.sol\":5592:5597  todos */\n      dup1\n        /* \"contracts/IOCBase2.sol\":5585:5597  return todos */\n      swap2\n      pop\n      pop\n        /* \"contracts/IOCBase2.sol\":5256:5605  function obtenerTodosIOCs() public view returns (IOC[] memory) {... */\n      swap1\n      jump\t// out\n        /* \"contracts/IOCBase2.sol\":683:866  function agregarTipoPermitido(string memory _nuevoTipo) public {... */\n    tag_24:\n        /* \"contracts/IOCBase2.sol\":826:841  tiposPermitidos */\n      0x02\n        /* \"contracts/IOCBase2.sol\":847:857  _nuevoTipo */\n      dup2\n        /* \"contracts/IOCBase2.sol\":826:858  tiposPermitidos.push(_nuevoTipo) */\n      swap1\n      dup1\n      0x01\n      dup2\n      sload\n      add\n      dup1\n      dup3\n      sstore\n      dup1\n      swap2\n      pop\n      pop\n      0x01\n      swap1\n      sub\n      swap1\n      0x00\n      mstore\n      keccak256(0x00, 0x20)\n      add\n      0x00\n      swap1\n      swap2\n      swap1\n      swap2\n      swap1\n      swap2\n      pop\n      swap1\n      dup2\n      tag_84\n      swap2\n      swap1\n      tag_85\n      jump\t// in\n    tag_84:\n      pop\n        /* \"contracts/IOCBase2.sol\":683:866  function agregarTipoPermitido(string memory _nuevoTipo) public {... */\n      pop\n      jump\t// out\n        /* \"contracts/IOCBase2.sol\":3790:4324  function agregarIOC(string memory _tipo, string memory _valor) public {... */\n    tag_28:\n        /* \"contracts/IOCBase2.sol\":3879:3901  esTipoPermitido(_tipo) */\n      tag_87\n        /* \"contracts/IOCBase2.sol\":3895:3900  _tipo */\n      dup3\n        /* \"contracts/IOCBase2.sol\":3879:3894  esTipoPermitido */\n      tag_88\n        /* \"contracts/IOCBase2.sol\":3879:3901  esTipoPermitido(_tipo) */\n      jump\t// in\n    tag_87:\n        /* \"contracts/IOCBase2.sol\":3871:3930  require(esTipoPermitido(_tipo), \"Tipo de IOC no permitido\") */\n      tag_89\n      jumpi\n      mload(0x40)\n      0x08c379a000000000000000000000000000000000000000000000000000000000\n      dup2\n      mstore\n      0x04\n      add\n      tag_90\n      swap1\n      tag_91\n      jump\t// in\n    tag_90:\n      mload(0x40)\n      dup1\n      swap2\n      sub\n      swap1\n      revert\n    tag_89:\n        /* \"contracts/IOCBase2.sol\":3949:3978  validarFormato(_tipo, _valor) */\n      tag_92\n        /* \"contracts/IOCBase2.sol\":3964:3969  _tipo */\n      dup3\n        /* \"contracts/IOCBase2.sol\":3971:3977  _valor */\n      dup3\n        /* \"contracts/IOCBase2.sol\":3949:3963  validarFormato */\n      tag_93\n        /* \"contracts/IOCBase2.sol\":3949:3978  validarFormato(_tipo, _valor) */\n      jump\t// in\n    tag_92:\n        /* \"contracts/IOCBase2.sol\":3941:4006  require(validarFormato(_tipo, _valor), \"Formato de IOC invalido\") */\n      tag_94\n      jumpi\n      mload(0x40)\n      0x08c379a000000000000000000000000000000000000000000000000000000000\n      dup2\n      mstore\n      0x04\n      add\n      tag_95\n      swap1\n      tag_96\n      jump\t// in\n    tag_95:\n      mload(0x40)\n      dup1\n      swap2\n      sub\n      swap1\n      revert\n    tag_94:\n        /* \"contracts/IOCBase2.sol\":4026:4048  esIOCReportado(_valor) */\n      tag_97\n        /* \"contracts/IOCBase2.sol\":4041:4047  _valor */\n      dup2\n        /* \"contracts/IOCBase2.sol\":4026:4040  esIOCReportado */\n      tag_34\n        /* \"contracts/IOCBase2.sol\":4026:4048  esIOCReportado(_valor) */\n      jump\t// in\n    tag_97:\n        /* \"contracts/IOCBase2.sol\":4025:4048  !esIOCReportado(_valor) */\n      iszero\n        /* \"contracts/IOCBase2.sol\":4017:4069  require(!esIOCReportado(_valor), \"IOC ya reportado\") */\n      tag_98\n      jumpi\n      mload(0x40)\n      0x08c379a000000000000000000000000000000000000000000000000000000000\n      dup2\n      mstore\n      0x04\n      add\n      tag_99\n      swap1\n      tag_100\n      jump\t// in\n    tag_99:\n      mload(0x40)\n      dup1\n      swap2\n      sub\n      swap1\n      revert\n    tag_98:\n        /* \"contracts/IOCBase2.sol\":4080:4099  IOC memory nuevoIOC */\n      0x00\n        /* \"contracts/IOCBase2.sol\":4102:4255  IOC({... */\n      mload(0x40)\n      dup1\n      0x80\n      add\n      0x40\n      mstore\n      dup1\n        /* \"contracts/IOCBase2.sol\":4127:4132  _tipo */\n      dup5\n        /* \"contracts/IOCBase2.sol\":4102:4255  IOC({... */\n      dup2\n      mstore\n      0x20\n      add\n        /* \"contracts/IOCBase2.sol\":4154:4160  _valor */\n      dup4\n        /* \"contracts/IOCBase2.sol\":4102:4255  IOC({... */\n      dup2\n      mstore\n      0x20\n      add\n        /* \"contracts/IOCBase2.sol\":4189:4199  msg.sender */\n      caller\n        /* \"contracts/IOCBase2.sol\":4102:4255  IOC({... */\n      0xffffffffffffffffffffffffffffffffffffffff\n      and\n      dup2\n      mstore\n      0x20\n      add\n        /* \"contracts/IOCBase2.sol\":4228:4243  block.timestamp */\n      timestamp\n        /* \"contracts/IOCBase2.sol\":4102:4255  IOC({... */\n      dup2\n      mstore\n      pop\n        /* \"contracts/IOCBase2.sol\":4080:4255  IOC memory nuevoIOC = IOC({... */\n      swap1\n      pop\n        /* \"contracts/IOCBase2.sol\":4286:4294  nuevoIOC */\n      dup1\n        /* \"contracts/IOCBase2.sol\":4268:4272  iocs */\n      0x00\n        /* \"contracts/IOCBase2.sol\":4268:4283  iocs[totalIOCs] */\n      dup1\n        /* \"contracts/IOCBase2.sol\":4273:4282  totalIOCs */\n      sload(0x01)\n        /* \"contracts/IOCBase2.sol\":4268:4283  iocs[totalIOCs] */\n      dup2\n      mstore\n      0x20\n      add\n      swap1\n      dup2\n      mstore\n      0x20\n      add\n      0x00\n      keccak256\n        /* \"contracts/IOCBase2.sol\":4268:4294  iocs[totalIOCs] = nuevoIOC */\n      0x00\n      dup3\n      add\n      mload\n      dup2\n      0x00\n      add\n      swap1\n      dup2\n      tag_101\n      swap2\n      swap1\n      tag_85\n      jump\t// in\n    tag_101:\n      pop\n      0x20\n      dup3\n      add\n      mload\n      dup2\n      0x01\n      add\n      swap1\n      dup2\n      tag_102\n      swap2\n      swap1\n      tag_85\n      jump\t// in\n    tag_102:\n      pop\n      0x40\n      dup3\n      add\n      mload\n      dup2\n      0x02\n      add\n      exp(0x0100, 0x00)\n      dup2\n      sload\n      dup2\n      0xffffffffffffffffffffffffffffffffffffffff\n      mul\n      not\n      and\n      swap1\n      dup4\n      0xffffffffffffffffffffffffffffffffffffffff\n      and\n      mul\n      or\n      swap1\n      sstore\n      pop\n      0x60\n      dup3\n      add\n      mload\n      dup2\n      0x03\n      add\n      sstore\n      swap1\n      pop\n      pop\n        /* \"contracts/IOCBase2.sol\":4305:4314  totalIOCs */\n      0x01\n      0x00\n        /* \"contracts/IOCBase2.sol\":4305:4316  totalIOCs++ */\n      dup2\n      sload\n      dup1\n      swap3\n      swap2\n      swap1\n      tag_103\n      swap1\n      tag_104\n      jump\t// in\n    tag_103:\n      swap2\n      swap1\n      pop\n      sstore\n      pop\n        /* \"contracts/IOCBase2.sol\":3860:4324  {... */\n      pop\n        /* \"contracts/IOCBase2.sol\":3790:4324  function agregarIOC(string memory _tipo, string memory _valor) public {... */\n      pop\n      pop\n      jump\t// out\n        /* \"contracts/IOCBase2.sol\":4895:5054  function eliminarIOC(uint256 _id) public {... */\n    tag_31:\n        /* \"contracts/IOCBase2.sol\":4961:4970  totalIOCs */\n      sload(0x01)\n        /* \"contracts/IOCBase2.sol\":4955:4958  _id */\n      dup2\n        /* \"contracts/IOCBase2.sol\":4955:4970  _id < totalIOCs */\n      lt\n        /* \"contracts/IOCBase2.sol\":4947:4988  require(_id < totalIOCs, \"IOC no existe\") */\n      tag_106\n      jumpi\n      mload(0x40)\n      0x08c379a000000000000000000000000000000000000000000000000000000000\n      dup2\n      mstore\n      0x04\n      add\n      tag_107\n      swap1\n      tag_46\n      jump\t// in\n    tag_107:\n      mload(0x40)\n      dup1\n      swap2\n      sub\n      swap1\n      revert\n    tag_106:\n        /* \"contracts/IOCBase2.sol\":5006:5010  iocs */\n      0x00\n        /* \"contracts/IOCBase2.sol\":5006:5015  iocs[_id] */\n      dup1\n        /* \"contracts/IOCBase2.sol\":5011:5014  _id */\n      dup3\n        /* \"contracts/IOCBase2.sol\":5006:5015  iocs[_id] */\n      dup2\n      mstore\n      0x20\n      add\n      swap1\n      dup2\n      mstore\n      0x20\n      add\n      0x00\n      keccak256\n      0x00\n        /* \"contracts/IOCBase2.sol\":4999:5015  delete iocs[_id] */\n      dup1\n      dup3\n      add\n      0x00\n      tag_108\n      swap2\n      swap1\n      tag_109\n      jump\t// in\n    tag_108:\n      0x01\n      dup3\n      add\n      0x00\n      tag_110\n      swap2\n      swap1\n      tag_109\n      jump\t// in\n    tag_110:\n      0x02\n      dup3\n      add\n      exp(0x0100, 0x00)\n      dup2\n      sload\n      swap1\n      0xffffffffffffffffffffffffffffffffffffffff\n      mul\n      not\n      and\n      swap1\n      sstore\n      0x03\n      dup3\n      add\n      0x00\n      swap1\n      sstore\n      pop\n      pop\n        /* \"contracts/IOCBase2.sol\":5042:5045  _id */\n      dup1\n        /* \"contracts/IOCBase2.sol\":5031:5046  IOCDeleted(_id) */\n      0xece49e958a603088b69df25dbed8fa3def065badcd84c0fd126f55d875b3e204\n      mload(0x40)\n      mload(0x40)\n      dup1\n      swap2\n      sub\n      swap1\n      log2\n        /* \"contracts/IOCBase2.sol\":4895:5054  function eliminarIOC(uint256 _id) public {... */\n      pop\n      jump\t// out\n        /* \"contracts/IOCBase2.sol\":5687:6000  function esIOCReportado(string memory _valor) public view returns (bool) {... */\n    tag_34:\n        /* \"contracts/IOCBase2.sol\":5754:5758  bool */\n      0x00\n        /* \"contracts/IOCBase2.sol\":5776:5785  uint256 i */\n      dup1\n        /* \"contracts/IOCBase2.sol\":5788:5789  0 */\n      0x00\n        /* \"contracts/IOCBase2.sol\":5776:5789  uint256 i = 0 */\n      swap1\n      pop\n        /* \"contracts/IOCBase2.sol\":5771:5970  for (uint256 i = 0; i < totalIOCs; i++) {... */\n    tag_112:\n        /* \"contracts/IOCBase2.sol\":5795:5804  totalIOCs */\n      sload(0x01)\n        /* \"contracts/IOCBase2.sol\":5791:5792  i */\n      dup2\n        /* \"contracts/IOCBase2.sol\":5791:5804  i < totalIOCs */\n      lt\n        /* \"contracts/IOCBase2.sol\":5771:5970  for (uint256 i = 0; i < totalIOCs; i++) {... */\n      iszero\n      tag_113\n      jumpi\n        /* \"contracts/IOCBase2.sol\":5903:5909  _valor */\n      dup3\n        /* \"contracts/IOCBase2.sol\":5886:5910  abi.encodePacked(_valor) */\n      add(0x20, mload(0x40))\n      tag_115\n      swap2\n      swap1\n      tag_116\n      jump\t// in\n    tag_115:\n      mload(0x40)\n      0x20\n      dup2\n      dup4\n      sub\n      sub\n      dup2\n      mstore\n      swap1\n      0x40\n      mstore\n        /* \"contracts/IOCBase2.sol\":5876:5911  keccak256(abi.encodePacked(_valor)) */\n      dup1\n      mload\n      swap1\n      0x20\n      add\n      keccak256\n        /* \"contracts/IOCBase2.sol\":5857:5861  iocs */\n      0x00\n        /* \"contracts/IOCBase2.sol\":5857:5864  iocs[i] */\n      dup1\n        /* \"contracts/IOCBase2.sol\":5862:5863  i */\n      dup4\n        /* \"contracts/IOCBase2.sol\":5857:5864  iocs[i] */\n      dup2\n      mstore\n      0x20\n      add\n      swap1\n      dup2\n      mstore\n      0x20\n      add\n      0x00\n      keccak256\n        /* \"contracts/IOCBase2.sol\":5857:5870  iocs[i].valor */\n      0x01\n      add\n        /* \"contracts/IOCBase2.sol\":5840:5871  abi.encodePacked(iocs[i].valor) */\n      add(0x20, mload(0x40))\n      tag_117\n      swap2\n      swap1\n      tag_118\n      jump\t// in\n    tag_117:\n      mload(0x40)\n      0x20\n      dup2\n      dup4\n      sub\n      sub\n      dup2\n      mstore\n      swap1\n      0x40\n      mstore\n        /* \"contracts/IOCBase2.sol\":5830:5872  keccak256(abi.encodePacked(iocs[i].valor)) */\n      dup1\n      mload\n      swap1\n      0x20\n      add\n      keccak256\n        /* \"contracts/IOCBase2.sol\":5830:5911  keccak256(abi.encodePacked(iocs[i].valor)) == keccak256(abi.encodePacked(_valor)) */\n      sub\n        /* \"contracts/IOCBase2.sol\":5826:5959  if (keccak256(abi.encodePacked(iocs[i].valor)) == keccak256(abi.encodePacked(_valor))) {... */\n      tag_119\n      jumpi\n        /* \"contracts/IOCBase2.sol\":5939:5943  true */\n      0x01\n        /* \"contracts/IOCBase2.sol\":5932:5943  return true */\n      swap2\n      pop\n      pop\n      jump(tag_111)\n        /* \"contracts/IOCBase2.sol\":5826:5959  if (keccak256(abi.encodePacked(iocs[i].valor)) == keccak256(abi.encodePacked(_valor))) {... */\n    tag_119:\n        /* \"contracts/IOCBase2.sol\":5806:5809  i++ */\n      dup1\n      dup1\n      0x01\n      add\n      swap2\n      pop\n      pop\n        /* \"contracts/IOCBase2.sol\":5771:5970  for (uint256 i = 0; i < totalIOCs; i++) {... */\n      jump(tag_112)\n    tag_113:\n      pop\n        /* \"contracts/IOCBase2.sol\":5987:5992  false */\n      0x00\n        /* \"contracts/IOCBase2.sol\":5980:5992  return false */\n      swap1\n      pop\n        /* \"contracts/IOCBase2.sol\":5687:6000  function esIOCReportado(string memory _valor) public view returns (bool) {... */\n    tag_111:\n      swap2\n      swap1\n      pop\n      jump\t// out\n        /* \"contracts/IOCBase2.sol\":4368:4863  function actualizarIOC(uint256 _id, string memory _tipo, string memory _valor) public {... */\n    tag_40:\n        /* \"contracts/IOCBase2.sol\":4479:4488  totalIOCs */\n      sload(0x01)\n        /* \"contracts/IOCBase2.sol\":4473:4476  _id */\n      dup4\n        /* \"contracts/IOCBase2.sol\":4473:4488  _id < totalIOCs */\n      lt\n        /* \"contracts/IOCBase2.sol\":4465:4506  require(_id < totalIOCs, \"IOC no existe\") */\n      tag_121\n      jumpi\n      mload(0x40)\n      0x08c379a000000000000000000000000000000000000000000000000000000000\n      dup2\n      mstore\n      0x04\n      add\n      tag_122\n      swap1\n      tag_46\n      jump\t// in\n    tag_122:\n      mload(0x40)\n      dup1\n      swap2\n      sub\n      swap1\n      revert\n    tag_121:\n        /* \"contracts/IOCBase2.sol\":4525:4547  esTipoPermitido(_tipo) */\n      tag_123\n        /* \"contracts/IOCBase2.sol\":4541:4546  _tipo */\n      dup3\n        /* \"contracts/IOCBase2.sol\":4525:4540  esTipoPermitido */\n      tag_88\n        /* \"contracts/IOCBase2.sol\":4525:4547  esTipoPermitido(_tipo) */\n      jump\t// in\n    tag_123:\n        /* \"contracts/IOCBase2.sol\":4517:4576  require(esTipoPermitido(_tipo), \"Tipo de IOC no permitido\") */\n      tag_124\n      jumpi\n      mload(0x40)\n      0x08c379a000000000000000000000000000000000000000000000000000000000\n      dup2\n      mstore\n      0x04\n      add\n      tag_125\n      swap1\n      tag_91\n      jump\t// in\n    tag_125:\n      mload(0x40)\n      dup1\n      swap2\n      sub\n      swap1\n      revert\n    tag_124:\n        /* \"contracts/IOCBase2.sol\":4595:4624  validarFormato(_tipo, _valor) */\n      tag_126\n        /* \"contracts/IOCBase2.sol\":4610:4615  _tipo */\n      dup3\n        /* \"contracts/IOCBase2.sol\":4617:4623  _valor */\n      dup3\n        /* \"contracts/IOCBase2.sol\":4595:4609  validarFormato */\n      tag_93\n        /* \"contracts/IOCBase2.sol\":4595:4624  validarFormato(_tipo, _valor) */\n      jump\t// in\n    tag_126:\n        /* \"contracts/IOCBase2.sol\":4587:4652  require(validarFormato(_tipo, _valor), \"Formato de IOC invalido\") */\n      tag_127\n      jumpi\n      mload(0x40)\n      0x08c379a000000000000000000000000000000000000000000000000000000000\n      dup2\n      mstore\n      0x04\n      add\n      tag_128\n      swap1\n      tag_96\n      jump\t// in\n    tag_128:\n      mload(0x40)\n      dup1\n      swap2\n      sub\n      swap1\n      revert\n    tag_127:\n        /* \"contracts/IOCBase2.sol\":4672:4694  esIOCReportado(_valor) */\n      tag_129\n        /* \"contracts/IOCBase2.sol\":4687:4693  _valor */\n      dup2\n        /* \"contracts/IOCBase2.sol\":4672:4686  esIOCReportado */\n      tag_34\n        /* \"contracts/IOCBase2.sol\":4672:4694  esIOCReportado(_valor) */\n      jump\t// in\n    tag_129:\n        /* \"contracts/IOCBase2.sol\":4671:4694  !esIOCReportado(_valor) */\n      iszero\n        /* \"contracts/IOCBase2.sol\":4663:4715  require(!esIOCReportado(_valor), \"IOC ya reportado\") */\n      tag_130\n      jumpi\n      mload(0x40)\n      0x08c379a000000000000000000000000000000000000000000000000000000000\n      dup2\n      mstore\n      0x04\n      add\n      tag_131\n      swap1\n      tag_100\n      jump\t// in\n    tag_131:\n      mload(0x40)\n      dup1\n      swap2\n      sub\n      swap1\n      revert\n    tag_130:\n        /* \"contracts/IOCBase2.sol\":4726:4741  IOC storage ioc */\n      0x00\n        /* \"contracts/IOCBase2.sol\":4744:4748  iocs */\n      dup1\n        /* \"contracts/IOCBase2.sol\":4744:4753  iocs[_id] */\n      0x00\n        /* \"contracts/IOCBase2.sol\":4749:4752  _id */\n      dup6\n        /* \"contracts/IOCBase2.sol\":4744:4753  iocs[_id] */\n      dup2\n      mstore\n      0x20\n      add\n      swap1\n      dup2\n      mstore\n      0x20\n      add\n      0x00\n      keccak256\n        /* \"contracts/IOCBase2.sol\":4726:4753  IOC storage ioc = iocs[_id] */\n      swap1\n      pop\n        /* \"contracts/IOCBase2.sol\":4775:4780  _tipo */\n      dup3\n        /* \"contracts/IOCBase2.sol\":4764:4767  ioc */\n      dup2\n        /* \"contracts/IOCBase2.sol\":4764:4772  ioc.tipo */\n      0x00\n      add\n        /* \"contracts/IOCBase2.sol\":4764:4780  ioc.tipo = _tipo */\n      swap1\n      dup2\n      tag_132\n      swap2\n      swap1\n      tag_85\n      jump\t// in\n    tag_132:\n      pop\n        /* \"contracts/IOCBase2.sol\":4803:4809  _valor */\n      dup2\n        /* \"contracts/IOCBase2.sol\":4791:4794  ioc */\n      dup2\n        /* \"contracts/IOCBase2.sol\":4791:4800  ioc.valor */\n      0x01\n      add\n        /* \"contracts/IOCBase2.sol\":4791:4809  ioc.valor = _valor */\n      swap1\n      dup2\n      tag_133\n      swap2\n      swap1\n      tag_85\n      jump\t// in\n    tag_133:\n      pop\n        /* \"contracts/IOCBase2.sol\":4836:4839  _id */\n      dup4\n        /* \"contracts/IOCBase2.sol\":4825:4855  IOCUpdated(_id, _tipo, _valor) */\n      0x9893f2f232e4ab0d3d56384866504b1d510affb204a862b80a809cdeb61079db\n        /* \"contracts/IOCBase2.sol\":4841:4846  _tipo */\n      dup5\n        /* \"contracts/IOCBase2.sol\":4848:4854  _valor */\n      dup5\n        /* \"contracts/IOCBase2.sol\":4825:4855  IOCUpdated(_id, _tipo, _valor) */\n      mload(0x40)\n      tag_134\n      swap3\n      swap2\n      swap1\n      tag_135\n      jump\t// in\n    tag_134:\n      mload(0x40)\n      dup1\n      swap2\n      sub\n      swap1\n      log2\n        /* \"contracts/IOCBase2.sol\":4454:4863  {... */\n      pop\n        /* \"contracts/IOCBase2.sol\":4368:4863  function actualizarIOC(uint256 _id, string memory _tipo, string memory _valor) public {... */\n      pop\n      pop\n      pop\n      jump\t// out\n        /* \"contracts/IOCBase2.sol\":874:1202  function esTipoPermitido(string memory _tipo) private view returns (bool) {... */\n    tag_88:\n        /* \"contracts/IOCBase2.sol\":942:946  bool */\n      0x00\n        /* \"contracts/IOCBase2.sol\":964:970  uint i */\n      dup1\n        /* \"contracts/IOCBase2.sol\":973:974  0 */\n      0x00\n        /* \"contracts/IOCBase2.sol\":964:974  uint i = 0 */\n      swap1\n      pop\n        /* \"contracts/IOCBase2.sol\":959:1172  for (uint i = 0; i < tiposPermitidos.length; i++) {... */\n    tag_137:\n        /* \"contracts/IOCBase2.sol\":980:995  tiposPermitidos */\n      0x02\n        /* \"contracts/IOCBase2.sol\":980:1002  tiposPermitidos.length */\n      dup1\n      sload\n      swap1\n      pop\n        /* \"contracts/IOCBase2.sol\":976:977  i */\n      dup2\n        /* \"contracts/IOCBase2.sol\":976:1002  i < tiposPermitidos.length */\n      lt\n        /* \"contracts/IOCBase2.sol\":959:1172  for (uint i = 0; i < tiposPermitidos.length; i++) {... */\n      iszero\n      tag_138\n      jumpi\n        /* \"contracts/IOCBase2.sol\":1093:1108  tiposPermitidos */\n      0x02\n        /* \"contracts/IOCBase2.sol\":1109:1110  i */\n      dup2\n        /* \"contracts/IOCBase2.sol\":1093:1111  tiposPermitidos[i] */\n      dup2\n      sload\n      dup2\n      lt\n      tag_140\n      jumpi\n      tag_141\n      tag_81\n      jump\t// in\n    tag_141:\n    tag_140:\n      swap1\n      0x00\n      mstore\n      keccak256(0x00, 0x20)\n      add\n        /* \"contracts/IOCBase2.sol\":1076:1112  abi.encodePacked(tiposPermitidos[i]) */\n      add(0x20, mload(0x40))\n      tag_143\n      swap2\n      swap1\n      tag_118\n      jump\t// in\n    tag_143:\n      mload(0x40)\n      0x20\n      dup2\n      dup4\n      sub\n      sub\n      dup2\n      mstore\n      swap1\n      0x40\n      mstore\n        /* \"contracts/IOCBase2.sol\":1066:1113  keccak256(abi.encodePacked(tiposPermitidos[i])) */\n      dup1\n      mload\n      swap1\n      0x20\n      add\n      keccak256\n        /* \"contracts/IOCBase2.sol\":1055:1060  _tipo */\n      dup4\n        /* \"contracts/IOCBase2.sol\":1038:1061  abi.encodePacked(_tipo) */\n      add(0x20, mload(0x40))\n      tag_144\n      swap2\n      swap1\n      tag_116\n      jump\t// in\n    tag_144:\n      mload(0x40)\n      0x20\n      dup2\n      dup4\n      sub\n      sub\n      dup2\n      mstore\n      swap1\n      0x40\n      mstore\n        /* \"contracts/IOCBase2.sol\":1028:1062  keccak256(abi.encodePacked(_tipo)) */\n      dup1\n      mload\n      swap1\n      0x20\n      add\n      keccak256\n        /* \"contracts/IOCBase2.sol\":1028:1113  keccak256(abi.encodePacked(_tipo)) == keccak256(abi.encodePacked(tiposPermitidos[i])) */\n      sub\n        /* \"contracts/IOCBase2.sol\":1024:1161  if (keccak256(abi.encodePacked(_tipo)) == keccak256(abi.encodePacked(tiposPermitidos[i]))) {... */\n      tag_145\n      jumpi\n        /* \"contracts/IOCBase2.sol\":1141:1145  true */\n      0x01\n        /* \"contracts/IOCBase2.sol\":1134:1145  return true */\n      swap2\n      pop\n      pop\n      jump(tag_136)\n        /* \"contracts/IOCBase2.sol\":1024:1161  if (keccak256(abi.encodePacked(_tipo)) == keccak256(abi.encodePacked(tiposPermitidos[i]))) {... */\n    tag_145:\n        /* \"contracts/IOCBase2.sol\":1004:1007  i++ */\n      dup1\n      dup1\n      0x01\n      add\n      swap2\n      pop\n      pop\n        /* \"contracts/IOCBase2.sol\":959:1172  for (uint i = 0; i < tiposPermitidos.length; i++) {... */\n      jump(tag_137)\n    tag_138:\n      pop\n        /* \"contracts/IOCBase2.sol\":1189:1194  false */\n      0x00\n        /* \"contracts/IOCBase2.sol\":1182:1194  return false */\n      swap1\n      pop\n        /* \"contracts/IOCBase2.sol\":874:1202  function esTipoPermitido(string memory _tipo) private view returns (bool) {... */\n    tag_136:\n      swap2\n      swap1\n      pop\n      jump\t// out\n        /* \"contracts/IOCBase2.sol\":1210:2386  function validarFormato(string memory _tipo, string memory _valor) private pure returns (bool) {... */\n    tag_93:\n        /* \"contracts/IOCBase2.sol\":1299:1303  bool */\n      0x00\n        /* \"contracts/IOCBase2.sol\":1316:1334  bytes memory valor */\n      dup1\n        /* \"contracts/IOCBase2.sol\":1343:1349  _valor */\n      dup3\n        /* \"contracts/IOCBase2.sol\":1316:1350  bytes memory valor = bytes(_valor) */\n      swap1\n      pop\n        /* \"contracts/IOCBase2.sol\":1415:1437  abi.encodePacked(\"IP\") */\n      add(0x20, mload(0x40))\n      tag_147\n      swap1\n      tag_148\n      jump\t// in\n    tag_147:\n      mload(0x40)\n      0x20\n      dup2\n      dup4\n      sub\n      sub\n      dup2\n      mstore\n      swap1\n      0x40\n      mstore\n        /* \"contracts/IOCBase2.sol\":1405:1438  keccak256(abi.encodePacked(\"IP\")) */\n      dup1\n      mload\n      swap1\n      0x20\n      add\n      keccak256\n        /* \"contracts/IOCBase2.sol\":1394:1399  _tipo */\n      dup5\n        /* \"contracts/IOCBase2.sol\":1377:1400  abi.encodePacked(_tipo) */\n      add(0x20, mload(0x40))\n      tag_149\n      swap2\n      swap1\n      tag_116\n      jump\t// in\n    tag_149:\n      mload(0x40)\n      0x20\n      dup2\n      dup4\n      sub\n      sub\n      dup2\n      mstore\n      swap1\n      0x40\n      mstore\n        /* \"contracts/IOCBase2.sol\":1367:1401  keccak256(abi.encodePacked(_tipo)) */\n      dup1\n      mload\n      swap1\n      0x20\n      add\n      keccak256\n        /* \"contracts/IOCBase2.sol\":1367:1438  keccak256(abi.encodePacked(_tipo)) == keccak256(abi.encodePacked(\"IP\")) */\n      sub\n        /* \"contracts/IOCBase2.sol\":1363:2354  if (keccak256(abi.encodePacked(_tipo)) == keccak256(abi.encodePacked(\"IP\"))) {... */\n      tag_150\n      jumpi\n        /* \"contracts/IOCBase2.sol\":1593:1594  3 */\n      0x03\n        /* \"contracts/IOCBase2.sol\":1561:1589  contarCaracteres(valor, '.') */\n      tag_151\n        /* \"contracts/IOCBase2.sol\":1578:1583  valor */\n      dup3\n        /* \"contracts/IOCBase2.sol\":1561:1589  contarCaracteres(valor, '.') */\n      0x2e00000000000000000000000000000000000000000000000000000000000000\n        /* \"contracts/IOCBase2.sol\":1561:1577  contarCaracteres */\n      tag_152\n        /* \"contracts/IOCBase2.sol\":1561:1589  contarCaracteres(valor, '.') */\n      jump\t// in\n    tag_151:\n        /* \"contracts/IOCBase2.sol\":1561:1594  contarCaracteres(valor, '.') == 3 */\n      eq\n        /* \"contracts/IOCBase2.sol\":1554:1594  return contarCaracteres(valor, '.') == 3 */\n      swap2\n      pop\n      pop\n      jump(tag_146)\n        /* \"contracts/IOCBase2.sol\":1363:2354  if (keccak256(abi.encodePacked(_tipo)) == keccak256(abi.encodePacked(\"IP\"))) {... */\n    tag_150:\n        /* \"contracts/IOCBase2.sol\":1664:1687  abi.encodePacked(\"URL\") */\n      add(0x20, mload(0x40))\n      tag_154\n      swap1\n      tag_155\n      jump\t// in\n    tag_154:\n      mload(0x40)\n      0x20\n      dup2\n      dup4\n      sub\n      sub\n      dup2\n      mstore\n      swap1\n      0x40\n      mstore\n        /* \"contracts/IOCBase2.sol\":1654:1688  keccak256(abi.encodePacked(\"URL\")) */\n      dup1\n      mload\n      swap1\n      0x20\n      add\n      keccak256\n        /* \"contracts/IOCBase2.sol\":1643:1648  _tipo */\n      dup5\n        /* \"contracts/IOCBase2.sol\":1626:1649  abi.encodePacked(_tipo) */\n      add(0x20, mload(0x40))\n      tag_156\n      swap2\n      swap1\n      tag_116\n      jump\t// in\n    tag_156:\n      mload(0x40)\n      0x20\n      dup2\n      dup4\n      sub\n      sub\n      dup2\n      mstore\n      swap1\n      0x40\n      mstore\n        /* \"contracts/IOCBase2.sol\":1616:1650  keccak256(abi.encodePacked(_tipo)) */\n      dup1\n      mload\n      swap1\n      0x20\n      add\n      keccak256\n        /* \"contracts/IOCBase2.sol\":1616:1688  keccak256(abi.encodePacked(_tipo)) == keccak256(abi.encodePacked(\"URL\")) */\n      sub\n        /* \"contracts/IOCBase2.sol\":1612:2354  if (keccak256(abi.encodePacked(_tipo)) == keccak256(abi.encodePacked(\"URL\"))) {... */\n      tag_157\n      jumpi\n        /* \"contracts/IOCBase2.sol\":1805:1841  contieneSubcadena(_valor, \"http://\") */\n      tag_158\n        /* \"contracts/IOCBase2.sol\":1823:1829  _valor */\n      dup4\n        /* \"contracts/IOCBase2.sol\":1805:1841  contieneSubcadena(_valor, \"http://\") */\n      mload(0x40)\n      dup1\n      0x40\n      add\n      0x40\n      mstore\n      dup1\n      0x07\n      dup2\n      mstore\n      0x20\n      add\n      0x687474703a2f2f00000000000000000000000000000000000000000000000000\n      dup2\n      mstore\n      pop\n        /* \"contracts/IOCBase2.sol\":1805:1822  contieneSubcadena */\n      tag_159\n        /* \"contracts/IOCBase2.sol\":1805:1841  contieneSubcadena(_valor, \"http://\") */\n      jump\t// in\n    tag_158:\n        /* \"contracts/IOCBase2.sol\":1805:1882  contieneSubcadena(_valor, \"http://\") || contieneSubcadena(_valor, \"https://\") */\n      dup1\n      tag_160\n      jumpi\n      pop\n        /* \"contracts/IOCBase2.sol\":1845:1882  contieneSubcadena(_valor, \"https://\") */\n      tag_161\n        /* \"contracts/IOCBase2.sol\":1863:1869  _valor */\n      dup4\n        /* \"contracts/IOCBase2.sol\":1845:1882  contieneSubcadena(_valor, \"https://\") */\n      mload(0x40)\n      dup1\n      0x40\n      add\n      0x40\n      mstore\n      dup1\n      0x08\n      dup2\n      mstore\n      0x20\n      add\n      0x68747470733a2f2f000000000000000000000000000000000000000000000000\n      dup2\n      mstore\n      pop\n        /* \"contracts/IOCBase2.sol\":1845:1862  contieneSubcadena */\n      tag_159\n        /* \"contracts/IOCBase2.sol\":1845:1882  contieneSubcadena(_valor, \"https://\") */\n      jump\t// in\n    tag_161:\n        /* \"contracts/IOCBase2.sol\":1805:1882  contieneSubcadena(_valor, \"http://\") || contieneSubcadena(_valor, \"https://\") */\n    tag_160:\n        /* \"contracts/IOCBase2.sol\":1798:1882  return contieneSubcadena(_valor, \"http://\") || contieneSubcadena(_valor, \"https://\") */\n      swap2\n      pop\n      pop\n      jump(tag_146)\n        /* \"contracts/IOCBase2.sol\":1612:2354  if (keccak256(abi.encodePacked(_tipo)) == keccak256(abi.encodePacked(\"URL\"))) {... */\n    tag_157:\n        /* \"contracts/IOCBase2.sol\":1952:1976  abi.encodePacked(\"Hash\") */\n      add(0x20, mload(0x40))\n      tag_163\n      swap1\n      tag_164\n      jump\t// in\n    tag_163:\n      mload(0x40)\n      0x20\n      dup2\n      dup4\n      sub\n      sub\n      dup2\n      mstore\n      swap1\n      0x40\n      mstore\n        /* \"contracts/IOCBase2.sol\":1942:1977  keccak256(abi.encodePacked(\"Hash\")) */\n      dup1\n      mload\n      swap1\n      0x20\n      add\n      keccak256\n        /* \"contracts/IOCBase2.sol\":1931:1936  _tipo */\n      dup5\n        /* \"contracts/IOCBase2.sol\":1914:1937  abi.encodePacked(_tipo) */\n      add(0x20, mload(0x40))\n      tag_165\n      swap2\n      swap1\n      tag_116\n      jump\t// in\n    tag_165:\n      mload(0x40)\n      0x20\n      dup2\n      dup4\n      sub\n      sub\n      dup2\n      mstore\n      swap1\n      0x40\n      mstore\n        /* \"contracts/IOCBase2.sol\":1904:1938  keccak256(abi.encodePacked(_tipo)) */\n      dup1\n      mload\n      swap1\n      0x20\n      add\n      keccak256\n        /* \"contracts/IOCBase2.sol\":1904:1977  keccak256(abi.encodePacked(_tipo)) == keccak256(abi.encodePacked(\"Hash\")) */\n      sub\n        /* \"contracts/IOCBase2.sol\":1900:2354  if (keccak256(abi.encodePacked(_tipo)) == keccak256(abi.encodePacked(\"Hash\"))) {... */\n      tag_166\n      jumpi\n        /* \"contracts/IOCBase2.sol\":2111:2113  64 */\n      0x40\n        /* \"contracts/IOCBase2.sol\":2095:2100  valor */\n      dup2\n        /* \"contracts/IOCBase2.sol\":2095:2107  valor.length */\n      mload\n        /* \"contracts/IOCBase2.sol\":2095:2113  valor.length == 64 */\n      eq\n        /* \"contracts/IOCBase2.sol\":2088:2113  return valor.length == 64 */\n      swap2\n      pop\n      pop\n      jump(tag_146)\n        /* \"contracts/IOCBase2.sol\":1900:2354  if (keccak256(abi.encodePacked(_tipo)) == keccak256(abi.encodePacked(\"Hash\"))) {... */\n    tag_166:\n        /* \"contracts/IOCBase2.sol\":2183:2208  abi.encodePacked(\"Email\") */\n      add(0x20, mload(0x40))\n      tag_168\n      swap1\n      tag_169\n      jump\t// in\n    tag_168:\n      mload(0x40)\n      0x20\n      dup2\n      dup4\n      sub\n      sub\n      dup2\n      mstore\n      swap1\n      0x40\n      mstore\n        /* \"contracts/IOCBase2.sol\":2173:2209  keccak256(abi.encodePacked(\"Email\")) */\n      dup1\n      mload\n      swap1\n      0x20\n      add\n      keccak256\n        /* \"contracts/IOCBase2.sol\":2162:2167  _tipo */\n      dup5\n        /* \"contracts/IOCBase2.sol\":2145:2168  abi.encodePacked(_tipo) */\n      add(0x20, mload(0x40))\n      tag_170\n      swap2\n      swap1\n      tag_116\n      jump\t// in\n    tag_170:\n      mload(0x40)\n      0x20\n      dup2\n      dup4\n      sub\n      sub\n      dup2\n      mstore\n      swap1\n      0x40\n      mstore\n        /* \"contracts/IOCBase2.sol\":2135:2169  keccak256(abi.encodePacked(_tipo)) */\n      dup1\n      mload\n      swap1\n      0x20\n      add\n      keccak256\n        /* \"contracts/IOCBase2.sol\":2135:2209  keccak256(abi.encodePacked(_tipo)) == keccak256(abi.encodePacked(\"Email\")) */\n      sub\n        /* \"contracts/IOCBase2.sol\":2131:2354  if (keccak256(abi.encodePacked(_tipo)) == keccak256(abi.encodePacked(\"Email\"))) {... */\n      tag_171\n      jumpi\n        /* \"contracts/IOCBase2.sol\":2341:2342  1 */\n      0x01\n        /* \"contracts/IOCBase2.sol\":2309:2337  contarCaracteres(valor, '@') */\n      tag_172\n        /* \"contracts/IOCBase2.sol\":2326:2331  valor */\n      dup3\n        /* \"contracts/IOCBase2.sol\":2309:2337  contarCaracteres(valor, '@') */\n      0x4000000000000000000000000000000000000000000000000000000000000000\n        /* \"contracts/IOCBase2.sol\":2309:2325  contarCaracteres */\n      tag_152\n        /* \"contracts/IOCBase2.sol\":2309:2337  contarCaracteres(valor, '@') */\n      jump\t// in\n    tag_172:\n        /* \"contracts/IOCBase2.sol\":2309:2342  contarCaracteres(valor, '@') == 1 */\n      eq\n        /* \"contracts/IOCBase2.sol\":2302:2342  return contarCaracteres(valor, '@') == 1 */\n      swap2\n      pop\n      pop\n      jump(tag_146)\n        /* \"contracts/IOCBase2.sol\":2131:2354  if (keccak256(abi.encodePacked(_tipo)) == keccak256(abi.encodePacked(\"Email\"))) {... */\n    tag_171:\n        /* \"contracts/IOCBase2.sol\":2373:2378  false */\n      0x00\n        /* \"contracts/IOCBase2.sol\":2366:2378  return false */\n      swap2\n      pop\n      pop\n        /* \"contracts/IOCBase2.sol\":1210:2386  function validarFormato(string memory _tipo, string memory _valor) private pure returns (bool) {... */\n    tag_146:\n      swap3\n      swap2\n      pop\n      pop\n      jump\t// out\n        /* \"contracts/IOCBase2.sol\":2394:2706  function contarCaracteres(bytes memory fuente, bytes1 caracter) private pure returns (uint256) {... */\n    tag_152:\n        /* \"contracts/IOCBase2.sol\":2480:2487  uint256 */\n      0x00\n        /* \"contracts/IOCBase2.sol\":2500:2516  uint256 contador */\n      dup1\n        /* \"contracts/IOCBase2.sol\":2519:2520  0 */\n      0x00\n        /* \"contracts/IOCBase2.sol\":2500:2520  uint256 contador = 0 */\n      swap1\n      pop\n        /* \"contracts/IOCBase2.sol\":2536:2545  uint256 i */\n      0x00\n        /* \"contracts/IOCBase2.sol\":2531:2673  for (uint256 i = 0; i < fuente.length; i++) {... */\n    tag_174:\n        /* \"contracts/IOCBase2.sol\":2555:2561  fuente */\n      dup5\n        /* \"contracts/IOCBase2.sol\":2555:2568  fuente.length */\n      mload\n        /* \"contracts/IOCBase2.sol\":2551:2552  i */\n      dup2\n        /* \"contracts/IOCBase2.sol\":2551:2568  i < fuente.length */\n      lt\n        /* \"contracts/IOCBase2.sol\":2531:2673  for (uint256 i = 0; i < fuente.length; i++) {... */\n      iszero\n      tag_175\n      jumpi\n        /* \"contracts/IOCBase2.sol\":2607:2615  caracter */\n      dup4\n        /* \"contracts/IOCBase2.sol\":2594:2615  fuente[i] == caracter */\n      not(0xffffffffffffffffffffffffffffffffffffffffffffffffffffffffffffff)\n      and\n        /* \"contracts/IOCBase2.sol\":2594:2600  fuente */\n      dup6\n        /* \"contracts/IOCBase2.sol\":2601:2602  i */\n      dup3\n        /* \"contracts/IOCBase2.sol\":2594:2603  fuente[i] */\n      dup2\n      mload\n      dup2\n      lt\n      tag_177\n      jumpi\n      tag_178\n      tag_81\n      jump\t// in\n    tag_178:\n    tag_177:\n      0x20\n      add\n      add\n      mload\n      0xf8\n      shr\n      0xf8\n      shl\n        /* \"contracts/IOCBase2.sol\":2594:2615  fuente[i] == caracter */\n      not(0xffffffffffffffffffffffffffffffffffffffffffffffffffffffffffffff)\n      and\n      sub\n        /* \"contracts/IOCBase2.sol\":2590:2662  if (fuente[i] == caracter) {... */\n      tag_179\n      jumpi\n        /* \"contracts/IOCBase2.sol\":2636:2646  contador++ */\n      dup2\n      dup1\n      tag_180\n      swap1\n      tag_104\n      jump\t// in\n    tag_180:\n      swap3\n      pop\n      pop\n        /* \"contracts/IOCBase2.sol\":2590:2662  if (fuente[i] == caracter) {... */\n    tag_179:\n        /* \"contracts/IOCBase2.sol\":2570:2573  i++ */\n      dup1\n      dup1\n      0x01\n      add\n      swap2\n      pop\n      pop\n        /* \"contracts/IOCBase2.sol\":2531:2673  for (uint256 i = 0; i < fuente.length; i++) {... */\n      jump(tag_174)\n    tag_175:\n      pop\n        /* \"contracts/IOCBase2.sol\":2690:2698  contador */\n      dup1\n        /* \"contracts/IOCBase2.sol\":2683:2698  return contador */\n      swap2\n      pop\n      pop\n        /* \"contracts/IOCBase2.sol\":2394:2706  function contarCaracteres(bytes memory fuente, bytes1 caracter) private pure returns (uint256) {... */\n      swap3\n      swap2\n      pop\n      pop\n      jump\t// out\n        /* \"contracts/IOCBase2.sol\":2714:3528  function contieneSubcadena(string memory cadena, string memory subcadena) private pure returns (bool) {... */\n    tag_159:\n        /* \"contracts/IOCBase2.sol\":2810:2814  bool */\n      0x00\n        /* \"contracts/IOCBase2.sol\":2827:2851  bytes memory cadenaBytes */\n      dup1\n        /* \"contracts/IOCBase2.sol\":2860:2866  cadena */\n      dup4\n        /* \"contracts/IOCBase2.sol\":2827:2867  bytes memory cadenaBytes = bytes(cadena) */\n      swap1\n      pop\n        /* \"contracts/IOCBase2.sol\":2878:2905  bytes memory subcadenaBytes */\n      0x00\n        /* \"contracts/IOCBase2.sol\":2914:2923  subcadena */\n      dup4\n        /* \"contracts/IOCBase2.sol\":2878:2924  bytes memory subcadenaBytes = bytes(subcadena) */\n      swap1\n      pop\n        /* \"contracts/IOCBase2.sol\":2962:2976  subcadenaBytes */\n      dup1\n        /* \"contracts/IOCBase2.sol\":2962:2983  subcadenaBytes.length */\n      mload\n        /* \"contracts/IOCBase2.sol\":2941:2952  cadenaBytes */\n      dup3\n        /* \"contracts/IOCBase2.sol\":2941:2959  cadenaBytes.length */\n      mload\n        /* \"contracts/IOCBase2.sol\":2941:2983  cadenaBytes.length < subcadenaBytes.length */\n      lt\n        /* \"contracts/IOCBase2.sol\":2937:3024  if (cadenaBytes.length < subcadenaBytes.length) {... */\n      iszero\n      tag_182\n      jumpi\n        /* \"contracts/IOCBase2.sol\":3007:3012  false */\n      0x00\n        /* \"contracts/IOCBase2.sol\":3000:3012  return false */\n      swap3\n      pop\n      pop\n      pop\n      jump(tag_181)\n        /* \"contracts/IOCBase2.sol\":2937:3024  if (cadenaBytes.length < subcadenaBytes.length) {... */\n    tag_182:\n        /* \"contracts/IOCBase2.sol\":3041:3050  uint256 i */\n      0x00\n        /* \"contracts/IOCBase2.sol\":3036:3496  for (uint256 i = 0; i <= cadenaBytes.length - subcadenaBytes.length; i++) {... */\n    tag_183:\n        /* \"contracts/IOCBase2.sol\":3082:3096  subcadenaBytes */\n      dup2\n        /* \"contracts/IOCBase2.sol\":3082:3103  subcadenaBytes.length */\n      mload\n        /* \"contracts/IOCBase2.sol\":3061:3072  cadenaBytes */\n      dup4\n        /* \"contracts/IOCBase2.sol\":3061:3079  cadenaBytes.length */\n      mload\n        /* \"contracts/IOCBase2.sol\":3061:3103  cadenaBytes.length - subcadenaBytes.length */\n      tag_186\n      swap2\n      swap1\n      tag_187\n      jump\t// in\n    tag_186:\n        /* \"contracts/IOCBase2.sol\":3056:3057  i */\n      dup2\n        /* \"contracts/IOCBase2.sol\":3056:3103  i <= cadenaBytes.length - subcadenaBytes.length */\n      gt\n        /* \"contracts/IOCBase2.sol\":3036:3496  for (uint256 i = 0; i <= cadenaBytes.length - subcadenaBytes.length; i++) {... */\n      tag_184\n      jumpi\n        /* \"contracts/IOCBase2.sol\":3125:3149  bool subcadenaEncontrada */\n      0x00\n        /* \"contracts/IOCBase2.sol\":3152:3156  true */\n      0x01\n        /* \"contracts/IOCBase2.sol\":3125:3156  bool subcadenaEncontrada = true */\n      swap1\n      pop\n        /* \"contracts/IOCBase2.sol\":3176:3185  uint256 j */\n      0x00\n        /* \"contracts/IOCBase2.sol\":3171:3400  for (uint256 j = 0; j < subcadenaBytes.length; j++) {... */\n    tag_188:\n        /* \"contracts/IOCBase2.sol\":3195:3209  subcadenaBytes */\n      dup4\n        /* \"contracts/IOCBase2.sol\":3195:3216  subcadenaBytes.length */\n      mload\n        /* \"contracts/IOCBase2.sol\":3191:3192  j */\n      dup2\n        /* \"contracts/IOCBase2.sol\":3191:3216  j < subcadenaBytes.length */\n      lt\n        /* \"contracts/IOCBase2.sol\":3171:3400  for (uint256 j = 0; j < subcadenaBytes.length; j++) {... */\n      iszero\n      tag_189\n      jumpi\n        /* \"contracts/IOCBase2.sol\":3268:3282  subcadenaBytes */\n      dup4\n        /* \"contracts/IOCBase2.sol\":3283:3284  j */\n      dup2\n        /* \"contracts/IOCBase2.sol\":3268:3285  subcadenaBytes[j] */\n      dup2\n      mload\n      dup2\n      lt\n      tag_191\n      jumpi\n      tag_192\n      tag_81\n      jump\t// in\n    tag_192:\n    tag_191:\n      0x20\n      add\n      add\n      mload\n      0xf8\n      shr\n      0xf8\n      shl\n        /* \"contracts/IOCBase2.sol\":3246:3285  cadenaBytes[i + j] != subcadenaBytes[j] */\n      not(0xffffffffffffffffffffffffffffffffffffffffffffffffffffffffffffff)\n      and\n        /* \"contracts/IOCBase2.sol\":3246:3257  cadenaBytes */\n      dup6\n        /* \"contracts/IOCBase2.sol\":3262:3263  j */\n      dup3\n        /* \"contracts/IOCBase2.sol\":3258:3259  i */\n      dup6\n        /* \"contracts/IOCBase2.sol\":3258:3263  i + j */\n      tag_193\n      swap2\n      swap1\n      tag_194\n      jump\t// in\n    tag_193:\n        /* \"contracts/IOCBase2.sol\":3246:3264  cadenaBytes[i + j] */\n      dup2\n      mload\n      dup2\n      lt\n      tag_195\n      jumpi\n      tag_196\n      tag_81\n      jump\t// in\n    tag_196:\n    tag_195:\n      0x20\n      add\n      add\n      mload\n      0xf8\n      shr\n      0xf8\n      shl\n        /* \"contracts/IOCBase2.sol\":3246:3285  cadenaBytes[i + j] != subcadenaBytes[j] */\n      not(0xffffffffffffffffffffffffffffffffffffffffffffffffffffffffffffff)\n      and\n      eq\n        /* \"contracts/IOCBase2.sol\":3242:3385  if (cadenaBytes[i + j] != subcadenaBytes[j]) {... */\n      tag_197\n      jumpi\n        /* \"contracts/IOCBase2.sol\":3332:3337  false */\n      0x00\n        /* \"contracts/IOCBase2.sol\":3310:3337  subcadenaEncontrada = false */\n      swap2\n      pop\n        /* \"contracts/IOCBase2.sol\":3360:3365  break */\n      jump(tag_189)\n        /* \"contracts/IOCBase2.sol\":3242:3385  if (cadenaBytes[i + j] != subcadenaBytes[j]) {... */\n    tag_197:\n        /* \"contracts/IOCBase2.sol\":3218:3221  j++ */\n      dup1\n      dup1\n      0x01\n      add\n      swap2\n      pop\n      pop\n        /* \"contracts/IOCBase2.sol\":3171:3400  for (uint256 j = 0; j < subcadenaBytes.length; j++) {... */\n      jump(tag_188)\n    tag_189:\n      pop\n        /* \"contracts/IOCBase2.sol\":3418:3437  subcadenaEncontrada */\n      dup1\n        /* \"contracts/IOCBase2.sol\":3414:3485  if (subcadenaEncontrada) {... */\n      iszero\n      tag_198\n      jumpi\n        /* \"contracts/IOCBase2.sol\":3465:3469  true */\n      0x01\n        /* \"contracts/IOCBase2.sol\":3458:3469  return true */\n      swap5\n      pop\n      pop\n      pop\n      pop\n      pop\n      jump(tag_181)\n        /* \"contracts/IOCBase2.sol\":3414:3485  if (subcadenaEncontrada) {... */\n    tag_198:\n        /* \"contracts/IOCBase2.sol\":3110:3496  {... */\n      pop\n        /* \"contracts/IOCBase2.sol\":3105:3108  i++ */\n      dup1\n      dup1\n      tag_199\n      swap1\n      tag_104\n      jump\t// in\n    tag_199:\n      swap2\n      pop\n      pop\n        /* \"contracts/IOCBase2.sol\":3036:3496  for (uint256 i = 0; i <= cadenaBytes.length - subcadenaBytes.length; i++) {... */\n      jump(tag_183)\n    tag_184:\n      pop\n        /* \"contracts/IOCBase2.sol\":3515:3520  false */\n      0x00\n        /* \"contracts/IOCBase2.sol\":3508:3520  return false */\n      swap3\n      pop\n      pop\n      pop\n        /* \"contracts/IOCBase2.sol\":2714:3528  function contieneSubcadena(string memory cadena, string memory subcadena) private pure returns (bool) {... */\n    tag_181:\n      swap3\n      swap2\n      pop\n      pop\n      jump\t// out\n    tag_42:\n      mload(0x40)\n      dup1\n      0x80\n      add\n      0x40\n      mstore\n      dup1\n      0x60\n      dup2\n      mstore\n      0x20\n      add\n      0x60\n      dup2\n      mstore\n      0x20\n      add\n      and(0xffffffffffffffffffffffffffffffffffffffff, 0x00)\n      dup2\n      mstore\n      0x20\n      add\n      0x00\n      dup2\n      mstore\n      pop\n      swap1\n      jump\t// out\n    tag_109:\n      pop\n      dup1\n      sload\n      tag_200\n      swap1\n      tag_48\n      jump\t// in\n    tag_200:\n      0x00\n      dup3\n      sstore\n      dup1\n      0x1f\n      lt\n      tag_202\n      jumpi\n      pop\n      jump(tag_201)\n    tag_202:\n      0x1f\n      add\n      0x20\n      swap1\n      div\n      swap1\n      0x00\n      mstore\n      keccak256(0x00, 0x20)\n      swap1\n      dup2\n      add\n      swap1\n      tag_203\n      swap2\n      swap1\n      tag_204\n      jump\t// in\n    tag_203:\n    tag_201:\n      pop\n      jump\t// out\n    tag_204:\n    tag_205:\n      dup1\n      dup3\n      gt\n      iszero\n      tag_206\n      jumpi\n      0x00\n      dup2\n      0x00\n      swap1\n      sstore\n      pop\n      0x01\n      add\n      jump(tag_205)\n    tag_206:\n      pop\n      swap1\n      jump\t// out\n        /* \"#utility.yul\":7:82   */\n    tag_207:\n        /* \"#utility.yul\":40:46   */\n      0x00\n        /* \"#utility.yul\":73:75   */\n      0x40\n        /* \"#utility.yul\":67:76   */\n      mload\n        /* \"#utility.yul\":57:76   */\n      swap1\n      pop\n        /* \"#utility.yul\":7:82   */\n      swap1\n      jump\t// out\n        /* \"#utility.yul\":88:205   */\n    tag_208:\n        /* \"#utility.yul\":197:198   */\n      0x00\n        /* \"#utility.yul\":194:195   */\n      dup1\n        /* \"#utility.yul\":187:199   */\n      revert\n        /* \"#utility.yul\":211:328   */\n    tag_209:\n        /* \"#utility.yul\":320:321   */\n      0x00\n        /* \"#utility.yul\":317:318   */\n      dup1\n        /* \"#utility.yul\":310:322   */\n      revert\n        /* \"#utility.yul\":334:411   */\n    tag_210:\n        /* \"#utility.yul\":371:378   */\n      0x00\n        /* \"#utility.yul\":400:405   */\n      dup2\n        /* \"#utility.yul\":389:405   */\n      swap1\n      pop\n        /* \"#utility.yul\":334:411   */\n      swap2\n      swap1\n      pop\n      jump\t// out\n        /* \"#utility.yul\":417:539   */\n    tag_211:\n        /* \"#utility.yul\":490:514   */\n      tag_284\n        /* \"#utility.yul\":508:513   */\n      dup2\n        /* \"#utility.yul\":490:514   */\n      tag_210\n      jump\t// in\n    tag_284:\n        /* \"#utility.yul\":483:488   */\n      dup2\n        /* \"#utility.yul\":480:515   */\n      eq\n        /* \"#utility.yul\":470:533   */\n      tag_285\n      jumpi\n        /* \"#utility.yul\":529:530   */\n      0x00\n        /* \"#utility.yul\":526:527   */\n      dup1\n        /* \"#utility.yul\":519:531   */\n      revert\n        /* \"#utility.yul\":470:533   */\n    tag_285:\n        /* \"#utility.yul\":417:539   */\n      pop\n      jump\t// out\n        /* \"#utility.yul\":545:684   */\n    tag_212:\n        /* \"#utility.yul\":591:596   */\n      0x00\n        /* \"#utility.yul\":629:635   */\n      dup2\n        /* \"#utility.yul\":616:636   */\n      calldataload\n        /* \"#utility.yul\":607:636   */\n      swap1\n      pop\n        /* \"#utility.yul\":645:678   */\n      tag_287\n        /* \"#utility.yul\":672:677   */\n      dup2\n        /* \"#utility.yul\":645:678   */\n      tag_211\n      jump\t// in\n    tag_287:\n        /* \"#utility.yul\":545:684   */\n      swap3\n      swap2\n      pop\n      pop\n      jump\t// out\n        /* \"#utility.yul\":690:1019   */\n    tag_13:\n        /* \"#utility.yul\":749:755   */\n      0x00\n        /* \"#utility.yul\":798:800   */\n      0x20\n        /* \"#utility.yul\":786:795   */\n      dup3\n        /* \"#utility.yul\":777:784   */\n      dup5\n        /* \"#utility.yul\":773:796   */\n      sub\n        /* \"#utility.yul\":769:801   */\n      slt\n        /* \"#utility.yul\":766:885   */\n      iszero\n      tag_289\n      jumpi\n        /* \"#utility.yul\":804:883   */\n      tag_290\n      tag_208\n      jump\t// in\n    tag_290:\n        /* \"#utility.yul\":766:885   */\n    tag_289:\n        /* \"#utility.yul\":924:925   */\n      0x00\n        /* \"#utility.yul\":949:1002   */\n      tag_291\n        /* \"#utility.yul\":994:1001   */\n      dup5\n        /* \"#utility.yul\":985:991   */\n      dup3\n        /* \"#utility.yul\":974:983   */\n      dup6\n        /* \"#utility.yul\":970:992   */\n      add\n        /* \"#utility.yul\":949:1002   */\n      tag_212\n      jump\t// in\n    tag_291:\n        /* \"#utility.yul\":939:1002   */\n      swap2\n      pop\n        /* \"#utility.yul\":895:1012   */\n      pop\n        /* \"#utility.yul\":690:1019   */\n      swap3\n      swap2\n      pop\n      pop\n      jump\t// out\n        /* \"#utility.yul\":1025:1124   */\n    tag_213:\n        /* \"#utility.yul\":1077:1083   */\n      0x00\n        /* \"#utility.yul\":1111:1116   */\n      dup2\n        /* \"#utility.yul\":1105:1117   */\n      mload\n        /* \"#utility.yul\":1095:1117   */\n      swap1\n      pop\n        /* \"#utility.yul\":1025:1124   */\n      swap2\n      swap1\n      pop\n      jump\t// out\n        /* \"#utility.yul\":1130:1289   */\n    tag_214:\n        /* \"#utility.yul\":1204:1215   */\n      0x00\n        /* \"#utility.yul\":1238:1244   */\n      dup3\n        /* \"#utility.yul\":1233:1236   */\n      dup3\n        /* \"#utility.yul\":1226:1245   */\n      mstore\n        /* \"#utility.yul\":1278:1282   */\n      0x20\n        /* \"#utility.yul\":1273:1276   */\n      dup3\n        /* \"#utility.yul\":1269:1283   */\n      add\n        /* \"#utility.yul\":1254:1283   */\n      swap1\n      pop\n        /* \"#utility.yul\":1130:1289   */\n      swap3\n      swap2\n      pop\n      pop\n      jump\t// out\n        /* \"#utility.yul\":1295:1434   */\n    tag_215:\n        /* \"#utility.yul\":1384:1390   */\n      dup3\n        /* \"#utility.yul\":1379:1382   */\n      dup2\n        /* \"#utility.yul\":1374:1377   */\n      dup4\n        /* \"#utility.yul\":1368:1391   */\n      mcopy\n        /* \"#utility.yul\":1425:1426   */\n      0x00\n        /* \"#utility.yul\":1416:1422   */\n      dup4\n        /* \"#utility.yul\":1411:1414   */\n      dup4\n        /* \"#utility.yul\":1407:1423   */\n      add\n        /* \"#utility.yul\":1400:1427   */\n      mstore\n        /* \"#utility.yul\":1295:1434   */\n      pop\n      pop\n      pop\n      jump\t// out\n        /* \"#utility.yul\":1440:1542   */\n    tag_216:\n        /* \"#utility.yul\":1481:1487   */\n      0x00\n        /* \"#utility.yul\":1532:1534   */\n      0x1f\n        /* \"#utility.yul\":1528:1535   */\n      not\n        /* \"#utility.yul\":1523:1525   */\n      0x1f\n        /* \"#utility.yul\":1516:1521   */\n      dup4\n        /* \"#utility.yul\":1512:1526   */\n      add\n        /* \"#utility.yul\":1508:1536   */\n      and\n        /* \"#utility.yul\":1498:1536   */\n      swap1\n      pop\n        /* \"#utility.yul\":1440:1542   */\n      swap2\n      swap1\n      pop\n      jump\t// out\n        /* \"#utility.yul\":1548:1905   */\n    tag_217:\n        /* \"#utility.yul\":1626:1629   */\n      0x00\n        /* \"#utility.yul\":1654:1693   */\n      tag_297\n        /* \"#utility.yul\":1687:1692   */\n      dup3\n        /* \"#utility.yul\":1654:1693   */\n      tag_213\n      jump\t// in\n    tag_297:\n        /* \"#utility.yul\":1709:1770   */\n      tag_298\n        /* \"#utility.yul\":1763:1769   */\n      dup2\n        /* \"#utility.yul\":1758:1761   */\n      dup6\n        /* \"#utility.yul\":1709:1770   */\n      tag_214\n      jump\t// in\n    tag_298:\n        /* \"#utility.yul\":1702:1770   */\n      swap4\n      pop\n        /* \"#utility.yul\":1779:1844   */\n      tag_299\n        /* \"#utility.yul\":1837:1843   */\n      dup2\n        /* \"#utility.yul\":1832:1835   */\n      dup6\n        /* \"#utility.yul\":1825:1829   */\n      0x20\n        /* \"#utility.yul\":1818:1823   */\n      dup7\n        /* \"#utility.yul\":1814:1830   */\n      add\n        /* \"#utility.yul\":1779:1844   */\n      tag_215\n      jump\t// in\n    tag_299:\n        /* \"#utility.yul\":1869:1898   */\n      tag_300\n        /* \"#utility.yul\":1891:1897   */\n      dup2\n        /* \"#utility.yul\":1869:1898   */\n      tag_216\n      jump\t// in\n    tag_300:\n        /* \"#utility.yul\":1864:1867   */\n      dup5\n        /* \"#utility.yul\":1860:1899   */\n      add\n        /* \"#utility.yul\":1853:1899   */\n      swap2\n      pop\n        /* \"#utility.yul\":1630:1905   */\n      pop\n        /* \"#utility.yul\":1548:1905   */\n      swap3\n      swap2\n      pop\n      pop\n      jump\t// out\n        /* \"#utility.yul\":1911:2037   */\n    tag_218:\n        /* \"#utility.yul\":1948:1955   */\n      0x00\n        /* \"#utility.yul\":1988:2030   */\n      0xffffffffffffffffffffffffffffffffffffffff\n        /* \"#utility.yul\":1981:1986   */\n      dup3\n        /* \"#utility.yul\":1977:2031   */\n      and\n        /* \"#utility.yul\":1966:2031   */\n      swap1\n      pop\n        /* \"#utility.yul\":1911:2037   */\n      swap2\n      swap1\n      pop\n      jump\t// out\n        /* \"#utility.yul\":2043:2139   */\n    tag_219:\n        /* \"#utility.yul\":2080:2087   */\n      0x00\n        /* \"#utility.yul\":2109:2133   */\n      tag_303\n        /* \"#utility.yul\":2127:2132   */\n      dup3\n        /* \"#utility.yul\":2109:2133   */\n      tag_218\n      jump\t// in\n    tag_303:\n        /* \"#utility.yul\":2098:2133   */\n      swap1\n      pop\n        /* \"#utility.yul\":2043:2139   */\n      swap2\n      swap1\n      pop\n      jump\t// out\n        /* \"#utility.yul\":2145:2253   */\n    tag_220:\n        /* \"#utility.yul\":2222:2246   */\n      tag_305\n        /* \"#utility.yul\":2240:2245   */\n      dup2\n        /* \"#utility.yul\":2222:2246   */\n      tag_219\n      jump\t// in\n    tag_305:\n        /* \"#utility.yul\":2217:2220   */\n      dup3\n        /* \"#utility.yul\":2210:2247   */\n      mstore\n        /* \"#utility.yul\":2145:2253   */\n      pop\n      pop\n      jump\t// out\n        /* \"#utility.yul\":2259:2367   */\n    tag_221:\n        /* \"#utility.yul\":2336:2360   */\n      tag_307\n        /* \"#utility.yul\":2354:2359   */\n      dup2\n        /* \"#utility.yul\":2336:2360   */\n      tag_210\n      jump\t// in\n    tag_307:\n        /* \"#utility.yul\":2331:2334   */\n      dup3\n        /* \"#utility.yul\":2324:2361   */\n      mstore\n        /* \"#utility.yul\":2259:2367   */\n      pop\n      pop\n      jump\t// out\n        /* \"#utility.yul\":2443:3473   */\n    tag_222:\n        /* \"#utility.yul\":2550:2553   */\n      0x00\n        /* \"#utility.yul\":2586:2590   */\n      0x80\n        /* \"#utility.yul\":2581:2584   */\n      dup4\n        /* \"#utility.yul\":2577:2591   */\n      add\n        /* \"#utility.yul\":2673:2677   */\n      0x00\n        /* \"#utility.yul\":2666:2671   */\n      dup4\n        /* \"#utility.yul\":2662:2678   */\n      add\n        /* \"#utility.yul\":2656:2679   */\n      mload\n        /* \"#utility.yul\":2726:2729   */\n      dup5\n        /* \"#utility.yul\":2720:2724   */\n      dup3\n        /* \"#utility.yul\":2716:2730   */\n      sub\n        /* \"#utility.yul\":2709:2713   */\n      0x00\n        /* \"#utility.yul\":2704:2707   */\n      dup7\n        /* \"#utility.yul\":2700:2714   */\n      add\n        /* \"#utility.yul\":2693:2731   */\n      mstore\n        /* \"#utility.yul\":2752:2825   */\n      tag_309\n        /* \"#utility.yul\":2820:2824   */\n      dup3\n        /* \"#utility.yul\":2806:2818   */\n      dup3\n        /* \"#utility.yul\":2752:2825   */\n      tag_217\n      jump\t// in\n    tag_309:\n        /* \"#utility.yul\":2744:2825   */\n      swap2\n      pop\n        /* \"#utility.yul\":2601:2836   */\n      pop\n        /* \"#utility.yul\":2919:2923   */\n      0x20\n        /* \"#utility.yul\":2912:2917   */\n      dup4\n        /* \"#utility.yul\":2908:2924   */\n      add\n        /* \"#utility.yul\":2902:2925   */\n      mload\n        /* \"#utility.yul\":2972:2975   */\n      dup5\n        /* \"#utility.yul\":2966:2970   */\n      dup3\n        /* \"#utility.yul\":2962:2976   */\n      sub\n        /* \"#utility.yul\":2955:2959   */\n      0x20\n        /* \"#utility.yul\":2950:2953   */\n      dup7\n        /* \"#utility.yul\":2946:2960   */\n      add\n        /* \"#utility.yul\":2939:2977   */\n      mstore\n        /* \"#utility.yul\":2998:3071   */\n      tag_310\n        /* \"#utility.yul\":3066:3070   */\n      dup3\n        /* \"#utility.yul\":3052:3064   */\n      dup3\n        /* \"#utility.yul\":2998:3071   */\n      tag_217\n      jump\t// in\n    tag_310:\n        /* \"#utility.yul\":2990:3071   */\n      swap2\n      pop\n        /* \"#utility.yul\":2846:3082   */\n      pop\n        /* \"#utility.yul\":3172:3176   */\n      0x40\n        /* \"#utility.yul\":3165:3170   */\n      dup4\n        /* \"#utility.yul\":3161:3177   */\n      add\n        /* \"#utility.yul\":3155:3178   */\n      mload\n        /* \"#utility.yul\":3191:3254   */\n      tag_311\n        /* \"#utility.yul\":3248:3252   */\n      0x40\n        /* \"#utility.yul\":3243:3246   */\n      dup7\n        /* \"#utility.yul\":3239:3253   */\n      add\n        /* \"#utility.yul\":3225:3237   */\n      dup3\n        /* \"#utility.yul\":3191:3254   */\n      tag_220\n      jump\t// in\n    tag_311:\n        /* \"#utility.yul\":3092:3264   */\n      pop\n        /* \"#utility.yul\":3354:3358   */\n      0x60\n        /* \"#utility.yul\":3347:3352   */\n      dup4\n        /* \"#utility.yul\":3343:3359   */\n      add\n        /* \"#utility.yul\":3337:3360   */\n      mload\n        /* \"#utility.yul\":3373:3436   */\n      tag_312\n        /* \"#utility.yul\":3430:3434   */\n      0x60\n        /* \"#utility.yul\":3425:3428   */\n      dup7\n        /* \"#utility.yul\":3421:3435   */\n      add\n        /* \"#utility.yul\":3407:3419   */\n      dup3\n        /* \"#utility.yul\":3373:3436   */\n      tag_221\n      jump\t// in\n    tag_312:\n        /* \"#utility.yul\":3274:3446   */\n      pop\n        /* \"#utility.yul\":3463:3467   */\n      dup1\n        /* \"#utility.yul\":3456:3467   */\n      swap2\n      pop\n        /* \"#utility.yul\":2555:3473   */\n      pop\n        /* \"#utility.yul\":2443:3473   */\n      swap3\n      swap2\n      pop\n      pop\n      jump\t// out\n        /* \"#utility.yul\":3479:3828   */\n    tag_16:\n        /* \"#utility.yul\":3610:3614   */\n      0x00\n        /* \"#utility.yul\":3648:3650   */\n      0x20\n        /* \"#utility.yul\":3637:3646   */\n      dup3\n        /* \"#utility.yul\":3633:3651   */\n      add\n        /* \"#utility.yul\":3625:3651   */\n      swap1\n      pop\n        /* \"#utility.yul\":3697:3706   */\n      dup2\n        /* \"#utility.yul\":3691:3695   */\n      dup2\n        /* \"#utility.yul\":3687:3707   */\n      sub\n        /* \"#utility.yul\":3683:3684   */\n      0x00\n        /* \"#utility.yul\":3672:3681   */\n      dup4\n        /* \"#utility.yul\":3668:3685   */\n      add\n        /* \"#utility.yul\":3661:3708   */\n      mstore\n        /* \"#utility.yul\":3725:3821   */\n      tag_314\n        /* \"#utility.yul\":3816:3820   */\n      dup2\n        /* \"#utility.yul\":3807:3813   */\n      dup5\n        /* \"#utility.yul\":3725:3821   */\n      tag_222\n      jump\t// in\n    tag_314:\n        /* \"#utility.yul\":3717:3821   */\n      swap1\n      pop\n        /* \"#utility.yul\":3479:3828   */\n      swap3\n      swap2\n      pop\n      pop\n      jump\t// out\n        /* \"#utility.yul\":3834:3967   */\n    tag_223:\n        /* \"#utility.yul\":3920:3926   */\n      0x00\n        /* \"#utility.yul\":3954:3959   */\n      dup2\n        /* \"#utility.yul\":3948:3960   */\n      mload\n        /* \"#utility.yul\":3938:3960   */\n      swap1\n      pop\n        /* \"#utility.yul\":3834:3967   */\n      swap2\n      swap1\n      pop\n      jump\t// out\n        /* \"#utility.yul\":3973:4176   */\n    tag_224:\n        /* \"#utility.yul\":4091:4102   */\n      0x00\n        /* \"#utility.yul\":4125:4131   */\n      dup3\n        /* \"#utility.yul\":4120:4123   */\n      dup3\n        /* \"#utility.yul\":4113:4132   */\n      mstore\n        /* \"#utility.yul\":4165:4169   */\n      0x20\n        /* \"#utility.yul\":4160:4163   */\n      dup3\n        /* \"#utility.yul\":4156:4170   */\n      add\n        /* \"#utility.yul\":4141:4170   */\n      swap1\n      pop\n        /* \"#utility.yul\":3973:4176   */\n      swap3\n      swap2\n      pop\n      pop\n      jump\t// out\n        /* \"#utility.yul\":4182:4333   */\n    tag_225:\n        /* \"#utility.yul\":4268:4272   */\n      0x00\n        /* \"#utility.yul\":4291:4294   */\n      dup2\n        /* \"#utility.yul\":4283:4294   */\n      swap1\n      pop\n        /* \"#utility.yul\":4321:4325   */\n      0x20\n        /* \"#utility.yul\":4316:4319   */\n      dup3\n        /* \"#utility.yul\":4312:4326   */\n      add\n        /* \"#utility.yul\":4304:4326   */\n      swap1\n      pop\n        /* \"#utility.yul\":4182:4333   */\n      swap2\n      swap1\n      pop\n      jump\t// out\n        /* \"#utility.yul\":4409:5429   */\n    tag_226:\n        /* \"#utility.yul\":4506:4509   */\n      0x00\n        /* \"#utility.yul\":4542:4546   */\n      0x80\n        /* \"#utility.yul\":4537:4540   */\n      dup4\n        /* \"#utility.yul\":4533:4547   */\n      add\n        /* \"#utility.yul\":4629:4633   */\n      0x00\n        /* \"#utility.yul\":4622:4627   */\n      dup4\n        /* \"#utility.yul\":4618:4634   */\n      add\n        /* \"#utility.yul\":4612:4635   */\n      mload\n        /* \"#utility.yul\":4682:4685   */\n      dup5\n        /* \"#utility.yul\":4676:4680   */\n      dup3\n        /* \"#utility.yul\":4672:4686   */\n      sub\n        /* \"#utility.yul\":4665:4669   */\n      0x00\n        /* \"#utility.yul\":4660:4663   */\n      dup7\n        /* \"#utility.yul\":4656:4670   */\n      add\n        /* \"#utility.yul\":4649:4687   */\n      mstore\n        /* \"#utility.yul\":4708:4781   */\n      tag_319\n        /* \"#utility.yul\":4776:4780   */\n      dup3\n        /* \"#utility.yul\":4762:4774   */\n      dup3\n        /* \"#utility.yul\":4708:4781   */\n      tag_217\n      jump\t// in\n    tag_319:\n        /* \"#utility.yul\":4700:4781   */\n      swap2\n      pop\n        /* \"#utility.yul\":4557:4792   */\n      pop\n        /* \"#utility.yul\":4875:4879   */\n      0x20\n        /* \"#utility.yul\":4868:4873   */\n      dup4\n        /* \"#utility.yul\":4864:4880   */\n      add\n        /* \"#utility.yul\":4858:4881   */\n      mload\n        /* \"#utility.yul\":4928:4931   */\n      dup5\n        /* \"#utility.yul\":4922:4926   */\n      dup3\n        /* \"#utility.yul\":4918:4932   */\n      sub\n        /* \"#utility.yul\":4911:4915   */\n      0x20\n        /* \"#utility.yul\":4906:4909   */\n      dup7\n        /* \"#utility.yul\":4902:4916   */\n      add\n        /* \"#utility.yul\":4895:4933   */\n      mstore\n        /* \"#utility.yul\":4954:5027   */\n      tag_320\n        /* \"#utility.yul\":5022:5026   */\n      dup3\n        /* \"#utility.yul\":5008:5020   */\n      dup3\n        /* \"#utility.yul\":4954:5027   */\n      tag_217\n      jump\t// in\n    tag_320:\n        /* \"#utility.yul\":4946:5027   */\n      swap2\n      pop\n        /* \"#utility.yul\":4802:5038   */\n      pop\n        /* \"#utility.yul\":5128:5132   */\n      0x40\n        /* \"#utility.yul\":5121:5126   */\n      dup4\n        /* \"#utility.yul\":5117:5133   */\n      add\n        /* \"#utility.yul\":5111:5134   */\n      mload\n        /* \"#utility.yul\":5147:5210   */\n      tag_321\n        /* \"#utility.yul\":5204:5208   */\n      0x40\n        /* \"#utility.yul\":5199:5202   */\n      dup7\n        /* \"#utility.yul\":5195:5209   */\n      add\n        /* \"#utility.yul\":5181:5193   */\n      dup3\n        /* \"#utility.yul\":5147:5210   */\n      tag_220\n      jump\t// in\n    tag_321:\n        /* \"#utility.yul\":5048:5220   */\n      pop\n        /* \"#utility.yul\":5310:5314   */\n      0x60\n        /* \"#utility.yul\":5303:5308   */\n      dup4\n        /* \"#utility.yul\":5299:5315   */\n      add\n        /* \"#utility.yul\":5293:5316   */\n      mload\n        /* \"#utility.yul\":5329:5392   */\n      tag_322\n        /* \"#utility.yul\":5386:5390   */\n      0x60\n        /* \"#utility.yul\":5381:5384   */\n      dup7\n        /* \"#utility.yul\":5377:5391   */\n      add\n        /* \"#utility.yul\":5363:5375   */\n      dup3\n        /* \"#utility.yul\":5329:5392   */\n      tag_221\n      jump\t// in\n    tag_322:\n        /* \"#utility.yul\":5230:5402   */\n      pop\n        /* \"#utility.yul\":5419:5423   */\n      dup1\n        /* \"#utility.yul\":5412:5423   */\n      swap2\n      pop\n        /* \"#utility.yul\":4511:5429   */\n      pop\n        /* \"#utility.yul\":4409:5429   */\n      swap3\n      swap2\n      pop\n      pop\n      jump\t// out\n        /* \"#utility.yul\":5435:5667   */\n    tag_227:\n        /* \"#utility.yul\":5542:5552   */\n      0x00\n        /* \"#utility.yul\":5577:5661   */\n      tag_324\n        /* \"#utility.yul\":5657:5660   */\n      dup4\n        /* \"#utility.yul\":5649:5655   */\n      dup4\n        /* \"#utility.yul\":5577:5661   */\n      tag_226\n      jump\t// in\n    tag_324:\n        /* \"#utility.yul\":5563:5661   */\n      swap1\n      pop\n        /* \"#utility.yul\":5435:5667   */\n      swap3\n      swap2\n      pop\n      pop\n      jump\t// out\n        /* \"#utility.yul\":5673:5805   */\n    tag_228:\n        /* \"#utility.yul\":5762:5766   */\n      0x00\n        /* \"#utility.yul\":5794:5798   */\n      0x20\n        /* \"#utility.yul\":5789:5792   */\n      dup3\n        /* \"#utility.yul\":5785:5799   */\n      add\n        /* \"#utility.yul\":5777:5799   */\n      swap1\n      pop\n        /* \"#utility.yul\":5673:5805   */\n      swap2\n      swap1\n      pop\n      jump\t// out\n        /* \"#utility.yul\":5885:6948   */\n    tag_229:\n        /* \"#utility.yul\":6042:6045   */\n      0x00\n        /* \"#utility.yul\":6071:6144   */\n      tag_327\n        /* \"#utility.yul\":6138:6143   */\n      dup3\n        /* \"#utility.yul\":6071:6144   */\n      tag_223\n      jump\t// in\n    tag_327:\n        /* \"#utility.yul\":6160:6265   */\n      tag_328\n        /* \"#utility.yul\":6258:6264   */\n      dup2\n        /* \"#utility.yul\":6253:6256   */\n      dup6\n        /* \"#utility.yul\":6160:6265   */\n      tag_224\n      jump\t// in\n    tag_328:\n        /* \"#utility.yul\":6153:6265   */\n      swap4\n      pop\n        /* \"#utility.yul\":6291:6294   */\n      dup4\n        /* \"#utility.yul\":6336:6340   */\n      0x20\n        /* \"#utility.yul\":6328:6334   */\n      dup3\n        /* \"#utility.yul\":6324:6341   */\n      mul\n        /* \"#utility.yul\":6319:6322   */\n      dup6\n        /* \"#utility.yul\":6315:6342   */\n      add\n        /* \"#utility.yul\":6366:6441   */\n      tag_329\n        /* \"#utility.yul\":6435:6440   */\n      dup6\n        /* \"#utility.yul\":6366:6441   */\n      tag_225\n      jump\t// in\n    tag_329:\n        /* \"#utility.yul\":6464:6471   */\n      dup1\n        /* \"#utility.yul\":6495:6496   */\n      0x00\n        /* \"#utility.yul\":6480:6903   */\n    tag_330:\n        /* \"#utility.yul\":6505:6511   */\n      dup6\n        /* \"#utility.yul\":6502:6503   */\n      dup2\n        /* \"#utility.yul\":6499:6512   */\n      lt\n        /* \"#utility.yul\":6480:6903   */\n      iszero\n      tag_332\n      jumpi\n        /* \"#utility.yul\":6576:6585   */\n      dup5\n        /* \"#utility.yul\":6570:6574   */\n      dup5\n        /* \"#utility.yul\":6566:6586   */\n      sub\n        /* \"#utility.yul\":6561:6564   */\n      dup10\n        /* \"#utility.yul\":6554:6587   */\n      mstore\n        /* \"#utility.yul\":6627:6633   */\n      dup2\n        /* \"#utility.yul\":6621:6634   */\n      mload\n        /* \"#utility.yul\":6655:6757   */\n      tag_333\n        /* \"#utility.yul\":6752:6756   */\n      dup6\n        /* \"#utility.yul\":6737:6750   */\n      dup3\n        /* \"#utility.yul\":6655:6757   */\n      tag_227\n      jump\t// in\n    tag_333:\n        /* \"#utility.yul\":6647:6757   */\n      swap5\n      pop\n        /* \"#utility.yul\":6780:6859   */\n      tag_334\n        /* \"#utility.yul\":6852:6858   */\n      dup4\n        /* \"#utility.yul\":6780:6859   */\n      tag_228\n      jump\t// in\n    tag_334:\n        /* \"#utility.yul\":6770:6859   */\n      swap3\n      pop\n        /* \"#utility.yul\":6888:6892   */\n      0x20\n        /* \"#utility.yul\":6883:6886   */\n      dup11\n        /* \"#utility.yul\":6879:6893   */\n      add\n        /* \"#utility.yul\":6872:6893   */\n      swap10\n      pop\n        /* \"#utility.yul\":6540:6903   */\n      pop\n        /* \"#utility.yul\":6527:6528   */\n      0x01\n        /* \"#utility.yul\":6524:6525   */\n      dup2\n        /* \"#utility.yul\":6520:6529   */\n      add\n        /* \"#utility.yul\":6515:6529   */\n      swap1\n      pop\n        /* \"#utility.yul\":6480:6903   */\n      jump(tag_330)\n    tag_332:\n        /* \"#utility.yul\":6484:6498   */\n      pop\n        /* \"#utility.yul\":6919:6923   */\n      dup3\n        /* \"#utility.yul\":6912:6923   */\n      swap8\n      pop\n        /* \"#utility.yul\":6939:6942   */\n      dup8\n        /* \"#utility.yul\":6932:6942   */\n      swap6\n      pop\n        /* \"#utility.yul\":6047:6948   */\n      pop\n      pop\n      pop\n      pop\n      pop\n        /* \"#utility.yul\":5885:6948   */\n      swap3\n      swap2\n      pop\n      pop\n      jump\t// out\n        /* \"#utility.yul\":6954:7403   */\n    tag_20:\n        /* \"#utility.yul\":7135:7139   */\n      0x00\n        /* \"#utility.yul\":7173:7175   */\n      0x20\n        /* \"#utility.yul\":7162:7171   */\n      dup3\n        /* \"#utility.yul\":7158:7176   */\n      add\n        /* \"#utility.yul\":7150:7176   */\n      swap1\n      pop\n        /* \"#utility.yul\":7222:7231   */\n      dup2\n        /* \"#utility.yul\":7216:7220   */\n      dup2\n        /* \"#utility.yul\":7212:7232   */\n      sub\n        /* \"#utility.yul\":7208:7209   */\n      0x00\n        /* \"#utility.yul\":7197:7206   */\n      dup4\n        /* \"#utility.yul\":7193:7210   */\n      add\n        /* \"#utility.yul\":7186:7233   */\n      mstore\n        /* \"#utility.yul\":7250:7396   */\n      tag_336\n        /* \"#utility.yul\":7391:7395   */\n      dup2\n        /* \"#utility.yul\":7382:7388   */\n      dup5\n        /* \"#utility.yul\":7250:7396   */\n      tag_229\n      jump\t// in\n    tag_336:\n        /* \"#utility.yul\":7242:7396   */\n      swap1\n      pop\n        /* \"#utility.yul\":6954:7403   */\n      swap3\n      swap2\n      pop\n      pop\n      jump\t// out\n        /* \"#utility.yul\":7409:7526   */\n    tag_230:\n        /* \"#utility.yul\":7518:7519   */\n      0x00\n        /* \"#utility.yul\":7515:7516   */\n      dup1\n        /* \"#utility.yul\":7508:7520   */\n      revert\n        /* \"#utility.yul\":7532:7649   */\n    tag_231:\n        /* \"#utility.yul\":7641:7642   */\n      0x00\n        /* \"#utility.yul\":7638:7639   */\n      dup1\n        /* \"#utility.yul\":7631:7643   */\n      revert\n        /* \"#utility.yul\":7655:7835   */\n    tag_61:\n        /* \"#utility.yul\":7703:7780   */\n      0x4e487b7100000000000000000000000000000000000000000000000000000000\n        /* \"#utility.yul\":7700:7701   */\n      0x00\n        /* \"#utility.yul\":7693:7781   */\n      mstore\n        /* \"#utility.yul\":7800:7804   */\n      0x41\n        /* \"#utility.yul\":7797:7798   */\n      0x04\n        /* \"#utility.yul\":7790:7805   */\n      mstore\n        /* \"#utility.yul\":7824:7828   */\n      0x24\n        /* \"#utility.yul\":7821:7822   */\n      0x00\n        /* \"#utility.yul\":7814:7829   */\n      revert\n        /* \"#utility.yul\":7841:8122   */\n    tag_232:\n        /* \"#utility.yul\":7924:7951   */\n      tag_341\n        /* \"#utility.yul\":7946:7950   */\n      dup3\n        /* \"#utility.yul\":7924:7951   */\n      tag_216\n      jump\t// in\n    tag_341:\n        /* \"#utility.yul\":7916:7922   */\n      dup2\n        /* \"#utility.yul\":7912:7952   */\n      add\n        /* \"#utility.yul\":8054:8060   */\n      dup2\n        /* \"#utility.yul\":8042:8052   */\n      dup2\n        /* \"#utility.yul\":8039:8061   */\n      lt\n        /* \"#utility.yul\":8018:8036   */\n      0xffffffffffffffff\n        /* \"#utility.yul\":8006:8016   */\n      dup3\n        /* \"#utility.yul\":8003:8037   */\n      gt\n        /* \"#utility.yul\":8000:8062   */\n      or\n        /* \"#utility.yul\":7997:8085   */\n      iszero\n      tag_342\n      jumpi\n        /* \"#utility.yul\":8065:8083   */\n      tag_343\n      tag_61\n      jump\t// in\n    tag_343:\n        /* \"#utility.yul\":7997:8085   */\n    tag_342:\n        /* \"#utility.yul\":8105:8115   */\n      dup1\n        /* \"#utility.yul\":8101:8103   */\n      0x40\n        /* \"#utility.yul\":8094:8116   */\n      mstore\n        /* \"#utility.yul\":7884:8122   */\n      pop\n        /* \"#utility.yul\":7841:8122   */\n      pop\n      pop\n      jump\t// out\n        /* \"#utility.yul\":8128:8257   */\n    tag_233:\n        /* \"#utility.yul\":8162:8168   */\n      0x00\n        /* \"#utility.yul\":8189:8209   */\n      tag_345\n      tag_207\n      jump\t// in\n    tag_345:\n        /* \"#utility.yul\":8179:8209   */\n      swap1\n      pop\n        /* \"#utility.yul\":8218:8251   */\n      tag_346\n        /* \"#utility.yul\":8246:8250   */\n      dup3\n        /* \"#utility.yul\":8238:8244   */\n      dup3\n        /* \"#utility.yul\":8218:8251   */\n      tag_232\n      jump\t// in\n    tag_346:\n        /* \"#utility.yul\":8128:8257   */\n      swap2\n      swap1\n      pop\n      jump\t// out\n        /* \"#utility.yul\":8263:8571   */\n    tag_234:\n        /* \"#utility.yul\":8325:8329   */\n      0x00\n        /* \"#utility.yul\":8415:8433   */\n      0xffffffffffffffff\n        /* \"#utility.yul\":8407:8413   */\n      dup3\n        /* \"#utility.yul\":8404:8434   */\n      gt\n        /* \"#utility.yul\":8401:8457   */\n      iszero\n      tag_348\n      jumpi\n        /* \"#utility.yul\":8437:8455   */\n      tag_349\n      tag_61\n      jump\t// in\n    tag_349:\n        /* \"#utility.yul\":8401:8457   */\n    tag_348:\n        /* \"#utility.yul\":8475:8504   */\n      tag_350\n        /* \"#utility.yul\":8497:8503   */\n      dup3\n        /* \"#utility.yul\":8475:8504   */\n      tag_216\n      jump\t// in\n    tag_350:\n        /* \"#utility.yul\":8467:8504   */\n      swap1\n      pop\n        /* \"#utility.yul\":8559:8563   */\n      0x20\n        /* \"#utility.yul\":8553:8557   */\n      dup2\n        /* \"#utility.yul\":8549:8564   */\n      add\n        /* \"#utility.yul\":8541:8564   */\n      swap1\n      pop\n        /* \"#utility.yul\":8263:8571   */\n      swap2\n      swap1\n      pop\n      jump\t// out\n        /* \"#utility.yul\":8577:8725   */\n    tag_235:\n        /* \"#utility.yul\":8675:8681   */\n      dup3\n        /* \"#utility.yul\":8670:8673   */\n      dup2\n        /* \"#utility.yul\":8665:8668   */\n      dup4\n        /* \"#utility.yul\":8652:8682   */\n      calldatacopy\n        /* \"#utility.yul\":8716:8717   */\n      0x00\n        /* \"#utility.yul\":8707:8713   */\n      dup4\n        /* \"#utility.yul\":8702:8705   */\n      dup4\n        /* \"#utility.yul\":8698:8714   */\n      add\n        /* \"#utility.yul\":8691:8718   */\n      mstore\n        /* \"#utility.yul\":8577:8725   */\n      pop\n      pop\n      pop\n      jump\t// out\n        /* \"#utility.yul\":8731:9156   */\n    tag_236:\n        /* \"#utility.yul\":8809:8814   */\n      0x00\n        /* \"#utility.yul\":8834:8900   */\n      tag_353\n        /* \"#utility.yul\":8850:8899   */\n      tag_354\n        /* \"#utility.yul\":8892:8898   */\n      dup5\n        /* \"#utility.yul\":8850:8899   */\n      tag_234\n      jump\t// in\n    tag_354:\n        /* \"#utility.yul\":8834:8900   */\n      tag_233\n      jump\t// in\n    tag_353:\n        /* \"#utility.yul\":8825:8900   */\n      swap1\n      pop\n        /* \"#utility.yul\":8923:8929   */\n      dup3\n        /* \"#utility.yul\":8916:8921   */\n      dup2\n        /* \"#utility.yul\":8909:8930   */\n      mstore\n        /* \"#utility.yul\":8961:8965   */\n      0x20\n        /* \"#utility.yul\":8954:8959   */\n      dup2\n        /* \"#utility.yul\":8950:8966   */\n      add\n        /* \"#utility.yul\":8999:9002   */\n      dup5\n        /* \"#utility.yul\":8990:8996   */\n      dup5\n        /* \"#utility.yul\":8985:8988   */\n      dup5\n        /* \"#utility.yul\":8981:8997   */\n      add\n        /* \"#utility.yul\":8978:9003   */\n      gt\n        /* \"#utility.yul\":8975:9087   */\n      iszero\n      tag_355\n      jumpi\n        /* \"#utility.yul\":9006:9085   */\n      tag_356\n      tag_231\n      jump\t// in\n    tag_356:\n        /* \"#utility.yul\":8975:9087   */\n    tag_355:\n        /* \"#utility.yul\":9096:9150   */\n      tag_357\n        /* \"#utility.yul\":9143:9149   */\n      dup5\n        /* \"#utility.yul\":9138:9141   */\n      dup3\n        /* \"#utility.yul\":9133:9136   */\n      dup6\n        /* \"#utility.yul\":9096:9150   */\n      tag_235\n      jump\t// in\n    tag_357:\n        /* \"#utility.yul\":8815:9156   */\n      pop\n        /* \"#utility.yul\":8731:9156   */\n      swap4\n      swap3\n      pop\n      pop\n      pop\n      jump\t// out\n        /* \"#utility.yul\":9176:9516   */\n    tag_237:\n        /* \"#utility.yul\":9232:9237   */\n      0x00\n        /* \"#utility.yul\":9281:9284   */\n      dup3\n        /* \"#utility.yul\":9274:9278   */\n      0x1f\n        /* \"#utility.yul\":9266:9272   */\n      dup4\n        /* \"#utility.yul\":9262:9279   */\n      add\n        /* \"#utility.yul\":9258:9285   */\n      slt\n        /* \"#utility.yul\":9248:9370   */\n      tag_359\n      jumpi\n        /* \"#utility.yul\":9289:9368   */\n      tag_360\n      tag_230\n      jump\t// in\n    tag_360:\n        /* \"#utility.yul\":9248:9370   */\n    tag_359:\n        /* \"#utility.yul\":9406:9412   */\n      dup2\n        /* \"#utility.yul\":9393:9413   */\n      calldataload\n        /* \"#utility.yul\":9431:9510   */\n      tag_361\n        /* \"#utility.yul\":9506:9509   */\n      dup5\n        /* \"#utility.yul\":9498:9504   */\n      dup3\n        /* \"#utility.yul\":9491:9495   */\n      0x20\n        /* \"#utility.yul\":9483:9489   */\n      dup7\n        /* \"#utility.yul\":9479:9496   */\n      add\n        /* \"#utility.yul\":9431:9510   */\n      tag_236\n      jump\t// in\n    tag_361:\n        /* \"#utility.yul\":9422:9510   */\n      swap2\n      pop\n        /* \"#utility.yul\":9238:9516   */\n      pop\n        /* \"#utility.yul\":9176:9516   */\n      swap3\n      swap2\n      pop\n      pop\n      jump\t// out\n        /* \"#utility.yul\":9522:10031   */\n    tag_23:\n        /* \"#utility.yul\":9591:9597   */\n      0x00\n        /* \"#utility.yul\":9640:9642   */\n      0x20\n        /* \"#utility.yul\":9628:9637   */\n      dup3\n        /* \"#utility.yul\":9619:9626   */\n      dup5\n        /* \"#utility.yul\":9615:9638   */\n      sub\n        /* \"#utility.yul\":9611:9643   */\n      slt\n        /* \"#utility.yul\":9608:9727   */\n      iszero\n      tag_363\n      jumpi\n        /* \"#utility.yul\":9646:9725   */\n      tag_364\n      tag_208\n      jump\t// in\n    tag_364:\n        /* \"#utility.yul\":9608:9727   */\n    tag_363:\n        /* \"#utility.yul\":9794:9795   */\n      0x00\n        /* \"#utility.yul\":9783:9792   */\n      dup3\n        /* \"#utility.yul\":9779:9796   */\n      add\n        /* \"#utility.yul\":9766:9797   */\n      calldataload\n        /* \"#utility.yul\":9824:9842   */\n      0xffffffffffffffff\n        /* \"#utility.yul\":9816:9822   */\n      dup2\n        /* \"#utility.yul\":9813:9843   */\n      gt\n        /* \"#utility.yul\":9810:9927   */\n      iszero\n      tag_365\n      jumpi\n        /* \"#utility.yul\":9846:9925   */\n      tag_366\n      tag_209\n      jump\t// in\n    tag_366:\n        /* \"#utility.yul\":9810:9927   */\n    tag_365:\n        /* \"#utility.yul\":9951:10014   */\n      tag_367\n        /* \"#utility.yul\":10006:10013   */\n      dup5\n        /* \"#utility.yul\":9997:10003   */\n      dup3\n        /* \"#utility.yul\":9986:9995   */\n      dup6\n        /* \"#utility.yul\":9982:10004   */\n      add\n        /* \"#utility.yul\":9951:10014   */\n      tag_237\n      jump\t// in\n    tag_367:\n        /* \"#utility.yul\":9941:10014   */\n      swap2\n      pop\n        /* \"#utility.yul\":9737:10024   */\n      pop\n        /* \"#utility.yul\":9522:10031   */\n      swap3\n      swap2\n      pop\n      pop\n      jump\t// out\n        /* \"#utility.yul\":10037:10871   */\n    tag_27:\n        /* \"#utility.yul\":10125:10131   */\n      0x00\n        /* \"#utility.yul\":10133:10139   */\n      dup1\n        /* \"#utility.yul\":10182:10184   */\n      0x40\n        /* \"#utility.yul\":10170:10179   */\n      dup4\n        /* \"#utility.yul\":10161:10168   */\n      dup6\n        /* \"#utility.yul\":10157:10180   */\n      sub\n        /* \"#utility.yul\":10153:10185   */\n      slt\n        /* \"#utility.yul\":10150:10269   */\n      iszero\n      tag_369\n      jumpi\n        /* \"#utility.yul\":10188:10267   */\n      tag_370\n      tag_208\n      jump\t// in\n    tag_370:\n        /* \"#utility.yul\":10150:10269   */\n    tag_369:\n        /* \"#utility.yul\":10336:10337   */\n      0x00\n        /* \"#utility.yul\":10325:10334   */\n      dup4\n        /* \"#utility.yul\":10321:10338   */\n      add\n        /* \"#utility.yul\":10308:10339   */\n      calldataload\n        /* \"#utility.yul\":10366:10384   */\n      0xffffffffffffffff\n        /* \"#utility.yul\":10358:10364   */\n      dup2\n        /* \"#utility.yul\":10355:10385   */\n      gt\n        /* \"#utility.yul\":10352:10469   */\n      iszero\n      tag_371\n      jumpi\n        /* \"#utility.yul\":10388:10467   */\n      tag_372\n      tag_209\n      jump\t// in\n    tag_372:\n        /* \"#utility.yul\":10352:10469   */\n    tag_371:\n        /* \"#utility.yul\":10493:10556   */\n      tag_373\n        /* \"#utility.yul\":10548:10555   */\n      dup6\n        /* \"#utility.yul\":10539:10545   */\n      dup3\n        /* \"#utility.yul\":10528:10537   */\n      dup7\n        /* \"#utility.yul\":10524:10546   */\n      add\n        /* \"#utility.yul\":10493:10556   */\n      tag_237\n      jump\t// in\n    tag_373:\n        /* \"#utility.yul\":10483:10556   */\n      swap3\n      pop\n        /* \"#utility.yul\":10279:10566   */\n      pop\n        /* \"#utility.yul\":10633:10635   */\n      0x20\n        /* \"#utility.yul\":10622:10631   */\n      dup4\n        /* \"#utility.yul\":10618:10636   */\n      add\n        /* \"#utility.yul\":10605:10637   */\n      calldataload\n        /* \"#utility.yul\":10664:10682   */\n      0xffffffffffffffff\n        /* \"#utility.yul\":10656:10662   */\n      dup2\n        /* \"#utility.yul\":10653:10683   */\n      gt\n        /* \"#utility.yul\":10650:10767   */\n      iszero\n      tag_374\n      jumpi\n        /* \"#utility.yul\":10686:10765   */\n      tag_375\n      tag_209\n      jump\t// in\n    tag_375:\n        /* \"#utility.yul\":10650:10767   */\n    tag_374:\n        /* \"#utility.yul\":10791:10854   */\n      tag_376\n        /* \"#utility.yul\":10846:10853   */\n      dup6\n        /* \"#utility.yul\":10837:10843   */\n      dup3\n        /* \"#utility.yul\":10826:10835   */\n      dup7\n        /* \"#utility.yul\":10822:10844   */\n      add\n        /* \"#utility.yul\":10791:10854   */\n      tag_237\n      jump\t// in\n    tag_376:\n        /* \"#utility.yul\":10781:10854   */\n      swap2\n      pop\n        /* \"#utility.yul\":10576:10864   */\n      pop\n        /* \"#utility.yul\":10037:10871   */\n      swap3\n      pop\n      swap3\n      swap1\n      pop\n      jump\t// out\n        /* \"#utility.yul\":10877:10967   */\n    tag_238:\n        /* \"#utility.yul\":10911:10918   */\n      0x00\n        /* \"#utility.yul\":10954:10959   */\n      dup2\n        /* \"#utility.yul\":10947:10960   */\n      iszero\n        /* \"#utility.yul\":10940:10961   */\n      iszero\n        /* \"#utility.yul\":10929:10961   */\n      swap1\n      pop\n        /* \"#utility.yul\":10877:10967   */\n      swap2\n      swap1\n      pop\n      jump\t// out\n        /* \"#utility.yul\":10973:11082   */\n    tag_239:\n        /* \"#utility.yul\":11054:11075   */\n      tag_379\n        /* \"#utility.yul\":11069:11074   */\n      dup2\n        /* \"#utility.yul\":11054:11075   */\n      tag_238\n      jump\t// in\n    tag_379:\n        /* \"#utility.yul\":11049:11052   */\n      dup3\n        /* \"#utility.yul\":11042:11076   */\n      mstore\n        /* \"#utility.yul\":10973:11082   */\n      pop\n      pop\n      jump\t// out\n        /* \"#utility.yul\":11088:11298   */\n    tag_36:\n        /* \"#utility.yul\":11175:11179   */\n      0x00\n        /* \"#utility.yul\":11213:11215   */\n      0x20\n        /* \"#utility.yul\":11202:11211   */\n      dup3\n        /* \"#utility.yul\":11198:11216   */\n      add\n        /* \"#utility.yul\":11190:11216   */\n      swap1\n      pop\n        /* \"#utility.yul\":11226:11291   */\n      tag_381\n        /* \"#utility.yul\":11288:11289   */\n      0x00\n        /* \"#utility.yul\":11277:11286   */\n      dup4\n        /* \"#utility.yul\":11273:11290   */\n      add\n        /* \"#utility.yul\":11264:11270   */\n      dup5\n        /* \"#utility.yul\":11226:11291   */\n      tag_239\n      jump\t// in\n    tag_381:\n        /* \"#utility.yul\":11088:11298   */\n      swap3\n      swap2\n      pop\n      pop\n      jump\t// out\n        /* \"#utility.yul\":11304:12283   */\n    tag_39:\n        /* \"#utility.yul\":11401:11407   */\n      0x00\n        /* \"#utility.yul\":11409:11415   */\n      dup1\n        /* \"#utility.yul\":11417:11423   */\n      0x00\n        /* \"#utility.yul\":11466:11468   */\n      0x60\n        /* \"#utility.yul\":11454:11463   */\n      dup5\n        /* \"#utility.yul\":11445:11452   */\n      dup7\n        /* \"#utility.yul\":11441:11464   */\n      sub\n        /* \"#utility.yul\":11437:11469   */\n      slt\n        /* \"#utility.yul\":11434:11553   */\n      iszero\n      tag_383\n      jumpi\n        /* \"#utility.yul\":11472:11551   */\n      tag_384\n      tag_208\n      jump\t// in\n    tag_384:\n        /* \"#utility.yul\":11434:11553   */\n    tag_383:\n        /* \"#utility.yul\":11592:11593   */\n      0x00\n        /* \"#utility.yul\":11617:11670   */\n      tag_385\n        /* \"#utility.yul\":11662:11669   */\n      dup7\n        /* \"#utility.yul\":11653:11659   */\n      dup3\n        /* \"#utility.yul\":11642:11651   */\n      dup8\n        /* \"#utility.yul\":11638:11660   */\n      add\n        /* \"#utility.yul\":11617:11670   */\n      tag_212\n      jump\t// in\n    tag_385:\n        /* \"#utility.yul\":11607:11670   */\n      swap4\n      pop\n        /* \"#utility.yul\":11563:11680   */\n      pop\n        /* \"#utility.yul\":11747:11749   */\n      0x20\n        /* \"#utility.yul\":11736:11745   */\n      dup5\n        /* \"#utility.yul\":11732:11750   */\n      add\n        /* \"#utility.yul\":11719:11751   */\n      calldataload\n        /* \"#utility.yul\":11778:11796   */\n      0xffffffffffffffff\n        /* \"#utility.yul\":11770:11776   */\n      dup2\n        /* \"#utility.yul\":11767:11797   */\n      gt\n        /* \"#utility.yul\":11764:11881   */\n      iszero\n      tag_386\n      jumpi\n        /* \"#utility.yul\":11800:11879   */\n      tag_387\n      tag_209\n      jump\t// in\n    tag_387:\n        /* \"#utility.yul\":11764:11881   */\n    tag_386:\n        /* \"#utility.yul\":11905:11968   */\n      tag_388\n        /* \"#utility.yul\":11960:11967   */\n      dup7\n        /* \"#utility.yul\":11951:11957   */\n      dup3\n        /* \"#utility.yul\":11940:11949   */\n      dup8\n        /* \"#utility.yul\":11936:11958   */\n      add\n        /* \"#utility.yul\":11905:11968   */\n      tag_237\n      jump\t// in\n    tag_388:\n        /* \"#utility.yul\":11895:11968   */\n      swap3\n      pop\n        /* \"#utility.yul\":11690:11978   */\n      pop\n        /* \"#utility.yul\":12045:12047   */\n      0x40\n        /* \"#utility.yul\":12034:12043   */\n      dup5\n        /* \"#utility.yul\":12030:12048   */\n      add\n        /* \"#utility.yul\":12017:12049   */\n      calldataload\n        /* \"#utility.yul\":12076:12094   */\n      0xffffffffffffffff\n        /* \"#utility.yul\":12068:12074   */\n      dup2\n        /* \"#utility.yul\":12065:12095   */\n      gt\n        /* \"#utility.yul\":12062:12179   */\n      iszero\n      tag_389\n      jumpi\n        /* \"#utility.yul\":12098:12177   */\n      tag_390\n      tag_209\n      jump\t// in\n    tag_390:\n        /* \"#utility.yul\":12062:12179   */\n    tag_389:\n        /* \"#utility.yul\":12203:12266   */\n      tag_391\n        /* \"#utility.yul\":12258:12265   */\n      dup7\n        /* \"#utility.yul\":12249:12255   */\n      dup3\n        /* \"#utility.yul\":12238:12247   */\n      dup8\n        /* \"#utility.yul\":12234:12256   */\n      add\n        /* \"#utility.yul\":12203:12266   */\n      tag_237\n      jump\t// in\n    tag_391:\n        /* \"#utility.yul\":12193:12266   */\n      swap2\n      pop\n        /* \"#utility.yul\":11988:12276   */\n      pop\n        /* \"#utility.yul\":11304:12283   */\n      swap3\n      pop\n      swap3\n      pop\n      swap3\n      jump\t// out\n        /* \"#utility.yul\":12289:12458   */\n    tag_240:\n        /* \"#utility.yul\":12373:12384   */\n      0x00\n        /* \"#utility.yul\":12407:12413   */\n      dup3\n        /* \"#utility.yul\":12402:12405   */\n      dup3\n        /* \"#utility.yul\":12395:12414   */\n      mstore\n        /* \"#utility.yul\":12447:12451   */\n      0x20\n        /* \"#utility.yul\":12442:12445   */\n      dup3\n        /* \"#utility.yul\":12438:12452   */\n      add\n        /* \"#utility.yul\":12423:12452   */\n      swap1\n      pop\n        /* \"#utility.yul\":12289:12458   */\n      swap3\n      swap2\n      pop\n      pop\n      jump\t// out\n        /* \"#utility.yul\":12464:12627   */\n    tag_241:\n        /* \"#utility.yul\":12604:12619   */\n      0x494f43206e6f2065786973746500000000000000000000000000000000000000\n        /* \"#utility.yul\":12600:12601   */\n      0x00\n        /* \"#utility.yul\":12592:12598   */\n      dup3\n        /* \"#utility.yul\":12588:12602   */\n      add\n        /* \"#utility.yul\":12581:12620   */\n      mstore\n        /* \"#utility.yul\":12464:12627   */\n      pop\n      jump\t// out\n        /* \"#utility.yul\":12633:12999   */\n    tag_242:\n        /* \"#utility.yul\":12775:12778   */\n      0x00\n        /* \"#utility.yul\":12796:12863   */\n      tag_395\n        /* \"#utility.yul\":12860:12862   */\n      0x0d\n        /* \"#utility.yul\":12855:12858   */\n      dup4\n        /* \"#utility.yul\":12796:12863   */\n      tag_240\n      jump\t// in\n    tag_395:\n        /* \"#utility.yul\":12789:12863   */\n      swap2\n      pop\n        /* \"#utility.yul\":12872:12965   */\n      tag_396\n        /* \"#utility.yul\":12961:12964   */\n      dup3\n        /* \"#utility.yul\":12872:12965   */\n      tag_241\n      jump\t// in\n    tag_396:\n        /* \"#utility.yul\":12990:12992   */\n      0x20\n        /* \"#utility.yul\":12985:12988   */\n      dup3\n        /* \"#utility.yul\":12981:12993   */\n      add\n        /* \"#utility.yul\":12974:12993   */\n      swap1\n      pop\n        /* \"#utility.yul\":12633:12999   */\n      swap2\n      swap1\n      pop\n      jump\t// out\n        /* \"#utility.yul\":13005:13424   */\n    tag_46:\n        /* \"#utility.yul\":13171:13175   */\n      0x00\n        /* \"#utility.yul\":13209:13211   */\n      0x20\n        /* \"#utility.yul\":13198:13207   */\n      dup3\n        /* \"#utility.yul\":13194:13212   */\n      add\n        /* \"#utility.yul\":13186:13212   */\n      swap1\n      pop\n        /* \"#utility.yul\":13258:13267   */\n      dup2\n        /* \"#utility.yul\":13252:13256   */\n      dup2\n        /* \"#utility.yul\":13248:13268   */\n      sub\n        /* \"#utility.yul\":13244:13245   */\n      0x00\n        /* \"#utility.yul\":13233:13242   */\n      dup4\n        /* \"#utility.yul\":13229:13246   */\n      add\n        /* \"#utility.yul\":13222:13269   */\n      mstore\n        /* \"#utility.yul\":13286:13417   */\n      tag_398\n        /* \"#utility.yul\":13412:13416   */\n      dup2\n        /* \"#utility.yul\":13286:13417   */\n      tag_242\n      jump\t// in\n    tag_398:\n        /* \"#utility.yul\":13278:13417   */\n      swap1\n      pop\n        /* \"#utility.yul\":13005:13424   */\n      swap2\n      swap1\n      pop\n      jump\t// out\n        /* \"#utility.yul\":13430:13610   */\n    tag_243:\n        /* \"#utility.yul\":13478:13555   */\n      0x4e487b7100000000000000000000000000000000000000000000000000000000\n        /* \"#utility.yul\":13475:13476   */\n      0x00\n        /* \"#utility.yul\":13468:13556   */\n      mstore\n        /* \"#utility.yul\":13575:13579   */\n      0x22\n        /* \"#utility.yul\":13572:13573   */\n      0x04\n        /* \"#utility.yul\":13565:13580   */\n      mstore\n        /* \"#utility.yul\":13599:13603   */\n      0x24\n        /* \"#utility.yul\":13596:13597   */\n      0x00\n        /* \"#utility.yul\":13589:13604   */\n      revert\n        /* \"#utility.yul\":13616:13936   */\n    tag_48:\n        /* \"#utility.yul\":13660:13666   */\n      0x00\n        /* \"#utility.yul\":13697:13698   */\n      0x02\n        /* \"#utility.yul\":13691:13695   */\n      dup3\n        /* \"#utility.yul\":13687:13699   */\n      div\n        /* \"#utility.yul\":13677:13699   */\n      swap1\n      pop\n        /* \"#utility.yul\":13744:13745   */\n      0x01\n        /* \"#utility.yul\":13738:13742   */\n      dup3\n        /* \"#utility.yul\":13734:13746   */\n      and\n        /* \"#utility.yul\":13765:13783   */\n      dup1\n        /* \"#utility.yul\":13755:13836   */\n      tag_401\n      jumpi\n        /* \"#utility.yul\":13821:13825   */\n      0x7f\n        /* \"#utility.yul\":13813:13819   */\n      dup3\n        /* \"#utility.yul\":13809:13826   */\n      and\n        /* \"#utility.yul\":13799:13826   */\n      swap2\n      pop\n        /* \"#utility.yul\":13755:13836   */\n    tag_401:\n        /* \"#utility.yul\":13883:13885   */\n      0x20\n        /* \"#utility.yul\":13875:13881   */\n      dup3\n        /* \"#utility.yul\":13872:13886   */\n      lt\n        /* \"#utility.yul\":13852:13870   */\n      dup2\n        /* \"#utility.yul\":13849:13887   */\n      sub\n        /* \"#utility.yul\":13846:13930   */\n      tag_402\n      jumpi\n        /* \"#utility.yul\":13902:13920   */\n      tag_403\n      tag_243\n      jump\t// in\n    tag_403:\n        /* \"#utility.yul\":13846:13930   */\n    tag_402:\n        /* \"#utility.yul\":13667:13936   */\n      pop\n        /* \"#utility.yul\":13616:13936   */\n      swap2\n      swap1\n      pop\n      jump\t// out\n        /* \"#utility.yul\":13942:14122   */\n    tag_81:\n        /* \"#utility.yul\":13990:14067   */\n      0x4e487b7100000000000000000000000000000000000000000000000000000000\n        /* \"#utility.yul\":13987:13988   */\n      0x00\n        /* \"#utility.yul\":13980:14068   */\n      mstore\n        /* \"#utility.yul\":14087:14091   */\n      0x32\n        /* \"#utility.yul\":14084:14085   */\n      0x04\n        /* \"#utility.yul\":14077:14092   */\n      mstore\n        /* \"#utility.yul\":14111:14115   */\n      0x24\n        /* \"#utility.yul\":14108:14109   */\n      0x00\n        /* \"#utility.yul\":14101:14116   */\n      revert\n        /* \"#utility.yul\":14128:14269   */\n    tag_244:\n        /* \"#utility.yul\":14177:14181   */\n      0x00\n        /* \"#utility.yul\":14200:14203   */\n      dup2\n        /* \"#utility.yul\":14192:14203   */\n      swap1\n      pop\n        /* \"#utility.yul\":14223:14226   */\n      dup2\n        /* \"#utility.yul\":14220:14221   */\n      0x00\n        /* \"#utility.yul\":14213:14227   */\n      mstore\n        /* \"#utility.yul\":14257:14261   */\n      0x20\n        /* \"#utility.yul\":14254:14255   */\n      0x00\n        /* \"#utility.yul\":14244:14262   */\n      keccak256\n        /* \"#utility.yul\":14236:14262   */\n      swap1\n      pop\n        /* \"#utility.yul\":14128:14269   */\n      swap2\n      swap1\n      pop\n      jump\t// out\n        /* \"#utility.yul\":14275:14368   */\n    tag_245:\n        /* \"#utility.yul\":14312:14318   */\n      0x00\n        /* \"#utility.yul\":14359:14361   */\n      0x20\n        /* \"#utility.yul\":14354:14356   */\n      0x1f\n        /* \"#utility.yul\":14347:14352   */\n      dup4\n        /* \"#utility.yul\":14343:14357   */\n      add\n        /* \"#utility.yul\":14339:14362   */\n      div\n        /* \"#utility.yul\":14329:14362   */\n      swap1\n      pop\n        /* \"#utility.yul\":14275:14368   */\n      swap2\n      swap1\n      pop\n      jump\t// out\n        /* \"#utility.yul\":14374:14481   */\n    tag_246:\n        /* \"#utility.yul\":14418:14426   */\n      0x00\n        /* \"#utility.yul\":14468:14473   */\n      dup3\n        /* \"#utility.yul\":14462:14466   */\n      dup3\n        /* \"#utility.yul\":14458:14474   */\n      shl\n        /* \"#utility.yul\":14437:14474   */\n      swap1\n      pop\n        /* \"#utility.yul\":14374:14481   */\n      swap3\n      swap2\n      pop\n      pop\n      jump\t// out\n        /* \"#utility.yul\":14487:14880   */\n    tag_247:\n        /* \"#utility.yul\":14556:14562   */\n      0x00\n        /* \"#utility.yul\":14606:14607   */\n      0x08\n        /* \"#utility.yul\":14594:14604   */\n      dup4\n        /* \"#utility.yul\":14590:14608   */\n      mul\n        /* \"#utility.yul\":14629:14726   */\n      tag_409\n        /* \"#utility.yul\":14659:14725   */\n      0xffffffffffffffffffffffffffffffffffffffffffffffffffffffffffffffff\n        /* \"#utility.yul\":14648:14657   */\n      dup3\n        /* \"#utility.yul\":14629:14726   */\n      tag_246\n      jump\t// in\n    tag_409:\n        /* \"#utility.yul\":14747:14786   */\n      tag_410\n        /* \"#utility.yul\":14777:14785   */\n      dup7\n        /* \"#utility.yul\":14766:14775   */\n      dup4\n        /* \"#utility.yul\":14747:14786   */\n      tag_246\n      jump\t// in\n    tag_410:\n        /* \"#utility.yul\":14735:14786   */\n      swap6\n      pop\n        /* \"#utility.yul\":14819:14823   */\n      dup1\n        /* \"#utility.yul\":14815:14824   */\n      not\n        /* \"#utility.yul\":14808:14813   */\n      dup5\n        /* \"#utility.yul\":14804:14825   */\n      and\n        /* \"#utility.yul\":14795:14825   */\n      swap4\n      pop\n        /* \"#utility.yul\":14868:14872   */\n      dup1\n        /* \"#utility.yul\":14858:14866   */\n      dup7\n        /* \"#utility.yul\":14854:14873   */\n      and\n        /* \"#utility.yul\":14847:14852   */\n      dup5\n        /* \"#utility.yul\":14844:14874   */\n      or\n        /* \"#utility.yul\":14834:14874   */\n      swap3\n      pop\n        /* \"#utility.yul\":14563:14880   */\n      pop\n      pop\n        /* \"#utility.yul\":14487:14880   */\n      swap4\n      swap3\n      pop\n      pop\n      pop\n      jump\t// out\n        /* \"#utility.yul\":14886:14946   */\n    tag_248:\n        /* \"#utility.yul\":14914:14917   */\n      0x00\n        /* \"#utility.yul\":14935:14940   */\n      dup2\n        /* \"#utility.yul\":14928:14940   */\n      swap1\n      pop\n        /* \"#utility.yul\":14886:14946   */\n      swap2\n      swap1\n      pop\n      jump\t// out\n        /* \"#utility.yul\":14952:15094   */\n    tag_249:\n        /* \"#utility.yul\":15002:15011   */\n      0x00\n        /* \"#utility.yul\":15035:15088   */\n      tag_413\n        /* \"#utility.yul\":15053:15087   */\n      tag_414\n        /* \"#utility.yul\":15062:15086   */\n      tag_415\n        /* \"#utility.yul\":15080:15085   */\n      dup5\n        /* \"#utility.yul\":15062:15086   */\n      tag_210\n      jump\t// in\n    tag_415:\n        /* \"#utility.yul\":15053:15087   */\n      tag_248\n      jump\t// in\n    tag_414:\n        /* \"#utility.yul\":15035:15088   */\n      tag_210\n      jump\t// in\n    tag_413:\n        /* \"#utility.yul\":15022:15088   */\n      swap1\n      pop\n        /* \"#utility.yul\":14952:15094   */\n      swap2\n      swap1\n      pop\n      jump\t// out\n        /* \"#utility.yul\":15100:15175   */\n    tag_250:\n        /* \"#utility.yul\":15143:15146   */\n      0x00\n        /* \"#utility.yul\":15164:15169   */\n      dup2\n        /* \"#utility.yul\":15157:15169   */\n      swap1\n      pop\n        /* \"#utility.yul\":15100:15175   */\n      swap2\n      swap1\n      pop\n      jump\t// out\n        /* \"#utility.yul\":15181:15450   */\n    tag_251:\n        /* \"#utility.yul\":15291:15330   */\n      tag_418\n        /* \"#utility.yul\":15322:15329   */\n      dup4\n        /* \"#utility.yul\":15291:15330   */\n      tag_249\n      jump\t// in\n    tag_418:\n        /* \"#utility.yul\":15352:15443   */\n      tag_419\n        /* \"#utility.yul\":15401:15442   */\n      tag_420\n        /* \"#utility.yul\":15425:15441   */\n      dup3\n        /* \"#utility.yul\":15401:15442   */\n      tag_250\n      jump\t// in\n    tag_420:\n        /* \"#utility.yul\":15393:15399   */\n      dup5\n        /* \"#utility.yul\":15386:15390   */\n      dup5\n        /* \"#utility.yul\":15380:15391   */\n      sload\n        /* \"#utility.yul\":15352:15443   */\n      tag_247\n      jump\t// in\n    tag_419:\n        /* \"#utility.yul\":15346:15350   */\n      dup3\n        /* \"#utility.yul\":15339:15444   */\n      sstore\n        /* \"#utility.yul\":15257:15450   */\n      pop\n        /* \"#utility.yul\":15181:15450   */\n      pop\n      pop\n      pop\n      jump\t// out\n        /* \"#utility.yul\":15456:15529   */\n    tag_252:\n        /* \"#utility.yul\":15501:15504   */\n      0x00\n        /* \"#utility.yul\":15456:15529   */\n      swap1\n      jump\t// out\n        /* \"#utility.yul\":15535:15724   */\n    tag_253:\n        /* \"#utility.yul\":15612:15644   */\n      tag_423\n      tag_252\n      jump\t// in\n    tag_423:\n        /* \"#utility.yul\":15653:15718   */\n      tag_424\n        /* \"#utility.yul\":15711:15717   */\n      dup2\n        /* \"#utility.yul\":15703:15709   */\n      dup5\n        /* \"#utility.yul\":15697:15701   */\n      dup5\n        /* \"#utility.yul\":15653:15718   */\n      tag_251\n      jump\t// in\n    tag_424:\n        /* \"#utility.yul\":15588:15724   */\n      pop\n        /* \"#utility.yul\":15535:15724   */\n      pop\n      pop\n      jump\t// out\n        /* \"#utility.yul\":15730:15916   */\n    tag_254:\n        /* \"#utility.yul\":15790:15910   */\n    tag_426:\n        /* \"#utility.yul\":15807:15810   */\n      dup2\n        /* \"#utility.yul\":15800:15805   */\n      dup2\n        /* \"#utility.yul\":15797:15811   */\n      lt\n        /* \"#utility.yul\":15790:15910   */\n      iszero\n      tag_428\n      jumpi\n        /* \"#utility.yul\":15861:15900   */\n      tag_429\n        /* \"#utility.yul\":15898:15899   */\n      0x00\n        /* \"#utility.yul\":15891:15896   */\n      dup3\n        /* \"#utility.yul\":15861:15900   */\n      tag_253\n      jump\t// in\n    tag_429:\n        /* \"#utility.yul\":15834:15835   */\n      0x01\n        /* \"#utility.yul\":15827:15832   */\n      dup2\n        /* \"#utility.yul\":15823:15836   */\n      add\n        /* \"#utility.yul\":15814:15836   */\n      swap1\n      pop\n        /* \"#utility.yul\":15790:15910   */\n      jump(tag_426)\n    tag_428:\n        /* \"#utility.yul\":15730:15916   */\n      pop\n      pop\n      jump\t// out\n        /* \"#utility.yul\":15922:16465   */\n    tag_255:\n        /* \"#utility.yul\":16023:16025   */\n      0x1f\n        /* \"#utility.yul\":16018:16021   */\n      dup3\n        /* \"#utility.yul\":16015:16026   */\n      gt\n        /* \"#utility.yul\":16012:16458   */\n      iszero\n      tag_431\n      jumpi\n        /* \"#utility.yul\":16057:16095   */\n      tag_432\n        /* \"#utility.yul\":16089:16094   */\n      dup2\n        /* \"#utility.yul\":16057:16095   */\n      tag_244\n      jump\t// in\n    tag_432:\n        /* \"#utility.yul\":16141:16170   */\n      tag_433\n        /* \"#utility.yul\":16159:16169   */\n      dup5\n        /* \"#utility.yul\":16141:16170   */\n      tag_245\n      jump\t// in\n    tag_433:\n        /* \"#utility.yul\":16131:16139   */\n      dup2\n        /* \"#utility.yul\":16127:16171   */\n      add\n        /* \"#utility.yul\":16324:16326   */\n      0x20\n        /* \"#utility.yul\":16312:16322   */\n      dup6\n        /* \"#utility.yul\":16309:16327   */\n      lt\n        /* \"#utility.yul\":16306:16355   */\n      iszero\n      tag_434\n      jumpi\n        /* \"#utility.yul\":16345:16353   */\n      dup2\n        /* \"#utility.yul\":16330:16353   */\n      swap1\n      pop\n        /* \"#utility.yul\":16306:16355   */\n    tag_434:\n        /* \"#utility.yul\":16368:16448   */\n      tag_435\n        /* \"#utility.yul\":16424:16446   */\n      tag_436\n        /* \"#utility.yul\":16442:16445   */\n      dup6\n        /* \"#utility.yul\":16424:16446   */\n      tag_245\n      jump\t// in\n    tag_436:\n        /* \"#utility.yul\":16414:16422   */\n      dup4\n        /* \"#utility.yul\":16410:16447   */\n      add\n        /* \"#utility.yul\":16397:16408   */\n      dup3\n        /* \"#utility.yul\":16368:16448   */\n      tag_254\n      jump\t// in\n    tag_435:\n        /* \"#utility.yul\":16027:16458   */\n      pop\n      pop\n        /* \"#utility.yul\":16012:16458   */\n    tag_431:\n        /* \"#utility.yul\":15922:16465   */\n      pop\n      pop\n      pop\n      jump\t// out\n        /* \"#utility.yul\":16471:16588   */\n    tag_256:\n        /* \"#utility.yul\":16525:16533   */\n      0x00\n        /* \"#utility.yul\":16575:16580   */\n      dup3\n        /* \"#utility.yul\":16569:16573   */\n      dup3\n        /* \"#utility.yul\":16565:16581   */\n      shr\n        /* \"#utility.yul\":16544:16581   */\n      swap1\n      pop\n        /* \"#utility.yul\":16471:16588   */\n      swap3\n      swap2\n      pop\n      pop\n      jump\t// out\n        /* \"#utility.yul\":16594:16763   */\n    tag_257:\n        /* \"#utility.yul\":16638:16644   */\n      0x00\n        /* \"#utility.yul\":16671:16722   */\n      tag_439\n        /* \"#utility.yul\":16719:16720   */\n      0x00\n        /* \"#utility.yul\":16715:16721   */\n      not\n        /* \"#utility.yul\":16707:16712   */\n      dup5\n        /* \"#utility.yul\":16704:16705   */\n      0x08\n        /* \"#utility.yul\":16700:16713   */\n      mul\n        /* \"#utility.yul\":16671:16722   */\n      tag_256\n      jump\t// in\n    tag_439:\n        /* \"#utility.yul\":16667:16723   */\n      not\n        /* \"#utility.yul\":16752:16756   */\n      dup1\n        /* \"#utility.yul\":16746:16750   */\n      dup4\n        /* \"#utility.yul\":16742:16757   */\n      and\n        /* \"#utility.yul\":16732:16757   */\n      swap2\n      pop\n        /* \"#utility.yul\":16645:16763   */\n      pop\n        /* \"#utility.yul\":16594:16763   */\n      swap3\n      swap2\n      pop\n      pop\n      jump\t// out\n        /* \"#utility.yul\":16768:17063   */\n    tag_258:\n        /* \"#utility.yul\":16844:16848   */\n      0x00\n        /* \"#utility.yul\":16990:17019   */\n      tag_441\n        /* \"#utility.yul\":17015:17018   */\n      dup4\n        /* \"#utility.yul\":17009:17013   */\n      dup4\n        /* \"#utility.yul\":16990:17019   */\n      tag_257\n      jump\t// in\n    tag_441:\n        /* \"#utility.yul\":16982:17019   */\n      swap2\n      pop\n        /* \"#utility.yul\":17052:17055   */\n      dup3\n        /* \"#utility.yul\":17049:17050   */\n      0x02\n        /* \"#utility.yul\":17045:17056   */\n      mul\n        /* \"#utility.yul\":17039:17043   */\n      dup3\n        /* \"#utility.yul\":17036:17057   */\n      or\n        /* \"#utility.yul\":17028:17057   */\n      swap1\n      pop\n        /* \"#utility.yul\":16768:17063   */\n      swap3\n      swap2\n      pop\n      pop\n      jump\t// out\n        /* \"#utility.yul\":17068:18463   */\n    tag_85:\n        /* \"#utility.yul\":17185:17222   */\n      tag_443\n        /* \"#utility.yul\":17218:17221   */\n      dup3\n        /* \"#utility.yul\":17185:17222   */\n      tag_213\n      jump\t// in\n    tag_443:\n        /* \"#utility.yul\":17287:17305   */\n      0xffffffffffffffff\n        /* \"#utility.yul\":17279:17285   */\n      dup2\n        /* \"#utility.yul\":17276:17306   */\n      gt\n        /* \"#utility.yul\":17273:17329   */\n      iszero\n      tag_444\n      jumpi\n        /* \"#utility.yul\":17309:17327   */\n      tag_445\n      tag_61\n      jump\t// in\n    tag_445:\n        /* \"#utility.yul\":17273:17329   */\n    tag_444:\n        /* \"#utility.yul\":17353:17391   */\n      tag_446\n        /* \"#utility.yul\":17385:17389   */\n      dup3\n        /* \"#utility.yul\":17379:17390   */\n      sload\n        /* \"#utility.yul\":17353:17391   */\n      tag_48\n      jump\t// in\n    tag_446:\n        /* \"#utility.yul\":17438:17505   */\n      tag_447\n        /* \"#utility.yul\":17498:17504   */\n      dup3\n        /* \"#utility.yul\":17490:17496   */\n      dup3\n        /* \"#utility.yul\":17484:17488   */\n      dup6\n        /* \"#utility.yul\":17438:17505   */\n      tag_255\n      jump\t// in\n    tag_447:\n        /* \"#utility.yul\":17532:17533   */\n      0x00\n        /* \"#utility.yul\":17556:17560   */\n      0x20\n        /* \"#utility.yul\":17543:17560   */\n      swap1\n      pop\n        /* \"#utility.yul\":17588:17590   */\n      0x1f\n        /* \"#utility.yul\":17580:17586   */\n      dup4\n        /* \"#utility.yul\":17577:17591   */\n      gt\n        /* \"#utility.yul\":17605:17606   */\n      0x01\n        /* \"#utility.yul\":17600:18218   */\n      dup2\n      eq\n      tag_449\n      jumpi\n        /* \"#utility.yul\":18262:18263   */\n      0x00\n        /* \"#utility.yul\":18279:18285   */\n      dup5\n        /* \"#utility.yul\":18276:18353   */\n      iszero\n      tag_450\n      jumpi\n        /* \"#utility.yul\":18328:18337   */\n      dup3\n        /* \"#utility.yul\":18323:18326   */\n      dup8\n        /* \"#utility.yul\":18319:18338   */\n      add\n        /* \"#utility.yul\":18313:18339   */\n      mload\n        /* \"#utility.yul\":18304:18339   */\n      swap1\n      pop\n        /* \"#utility.yul\":18276:18353   */\n    tag_450:\n        /* \"#utility.yul\":18379:18446   */\n      tag_451\n        /* \"#utility.yul\":18439:18445   */\n      dup6\n        /* \"#utility.yul\":18432:18437   */\n      dup3\n        /* \"#utility.yul\":18379:18446   */\n      tag_258\n      jump\t// in\n    tag_451:\n        /* \"#utility.yul\":18373:18377   */\n      dup7\n        /* \"#utility.yul\":18366:18447   */\n      sstore\n        /* \"#utility.yul\":18235:18457   */\n      pop\n        /* \"#utility.yul\":17570:18457   */\n      jump(tag_448)\n        /* \"#utility.yul\":17600:18218   */\n    tag_449:\n        /* \"#utility.yul\":17652:17656   */\n      0x1f\n        /* \"#utility.yul\":17648:17657   */\n      not\n        /* \"#utility.yul\":17640:17646   */\n      dup5\n        /* \"#utility.yul\":17636:17658   */\n      and\n        /* \"#utility.yul\":17686:17723   */\n      tag_452\n        /* \"#utility.yul\":17718:17722   */\n      dup7\n        /* \"#utility.yul\":17686:17723   */\n      tag_244\n      jump\t// in\n    tag_452:\n        /* \"#utility.yul\":17745:17746   */\n      0x00\n        /* \"#utility.yul\":17759:17967   */\n    tag_453:\n        /* \"#utility.yul\":17773:17780   */\n      dup3\n        /* \"#utility.yul\":17770:17771   */\n      dup2\n        /* \"#utility.yul\":17767:17781   */\n      lt\n        /* \"#utility.yul\":17759:17967   */\n      iszero\n      tag_455\n      jumpi\n        /* \"#utility.yul\":17852:17861   */\n      dup5\n        /* \"#utility.yul\":17847:17850   */\n      dup10\n        /* \"#utility.yul\":17843:17862   */\n      add\n        /* \"#utility.yul\":17837:17863   */\n      mload\n        /* \"#utility.yul\":17829:17835   */\n      dup3\n        /* \"#utility.yul\":17822:17864   */\n      sstore\n        /* \"#utility.yul\":17903:17904   */\n      0x01\n        /* \"#utility.yul\":17895:17901   */\n      dup3\n        /* \"#utility.yul\":17891:17905   */\n      add\n        /* \"#utility.yul\":17881:17905   */\n      swap2\n      pop\n        /* \"#utility.yul\":17950:17952   */\n      0x20\n        /* \"#utility.yul\":17939:17948   */\n      dup6\n        /* \"#utility.yul\":17935:17953   */\n      add\n        /* \"#utility.yul\":17922:17953   */\n      swap5\n      pop\n        /* \"#utility.yul\":17796:17800   */\n      0x20\n        /* \"#utility.yul\":17793:17794   */\n      dup2\n        /* \"#utility.yul\":17789:17801   */\n      add\n        /* \"#utility.yul\":17784:17801   */\n      swap1\n      pop\n        /* \"#utility.yul\":17759:17967   */\n      jump(tag_453)\n    tag_455:\n        /* \"#utility.yul\":17995:18001   */\n      dup7\n        /* \"#utility.yul\":17986:17993   */\n      dup4\n        /* \"#utility.yul\":17983:18002   */\n      lt\n        /* \"#utility.yul\":17980:18159   */\n      iszero\n      tag_456\n      jumpi\n        /* \"#utility.yul\":18053:18062   */\n      dup5\n        /* \"#utility.yul\":18048:18051   */\n      dup10\n        /* \"#utility.yul\":18044:18063   */\n      add\n        /* \"#utility.yul\":18038:18064   */\n      mload\n        /* \"#utility.yul\":18096:18144   */\n      tag_457\n        /* \"#utility.yul\":18138:18142   */\n      0x1f\n        /* \"#utility.yul\":18130:18136   */\n      dup10\n        /* \"#utility.yul\":18126:18143   */\n      and\n        /* \"#utility.yul\":18115:18124   */\n      dup3\n        /* \"#utility.yul\":18096:18144   */\n      tag_257\n      jump\t// in\n    tag_457:\n        /* \"#utility.yul\":18088:18094   */\n      dup4\n        /* \"#utility.yul\":18081:18145   */\n      sstore\n        /* \"#utility.yul\":18003:18159   */\n      pop\n        /* \"#utility.yul\":17980:18159   */\n    tag_456:\n        /* \"#utility.yul\":18205:18206   */\n      0x01\n        /* \"#utility.yul\":18201:18202   */\n      0x02\n        /* \"#utility.yul\":18193:18199   */\n      dup9\n        /* \"#utility.yul\":18189:18203   */\n      mul\n        /* \"#utility.yul\":18185:18207   */\n      add\n        /* \"#utility.yul\":18179:18183   */\n      dup9\n        /* \"#utility.yul\":18172:18208   */\n      sstore\n        /* \"#utility.yul\":17607:18218   */\n      pop\n      pop\n      pop\n        /* \"#utility.yul\":17570:18457   */\n    tag_448:\n      pop\n        /* \"#utility.yul\":17160:18463   */\n      pop\n      pop\n      pop\n        /* \"#utility.yul\":17068:18463   */\n      pop\n      pop\n      jump\t// out\n        /* \"#utility.yul\":18469:18643   */\n    tag_259:\n        /* \"#utility.yul\":18609:18635   */\n      0x5469706f20646520494f43206e6f207065726d697469646f0000000000000000\n        /* \"#utility.yul\":18605:18606   */\n      0x00\n        /* \"#utility.yul\":18597:18603   */\n      dup3\n        /* \"#utility.yul\":18593:18607   */\n      add\n        /* \"#utility.yul\":18586:18636   */\n      mstore\n        /* \"#utility.yul\":18469:18643   */\n      pop\n      jump\t// out\n        /* \"#utility.yul\":18649:19015   */\n    tag_260:\n        /* \"#utility.yul\":18791:18794   */\n      0x00\n        /* \"#utility.yul\":18812:18879   */\n      tag_460\n        /* \"#utility.yul\":18876:18878   */\n      0x18\n        /* \"#utility.yul\":18871:18874   */\n      dup4\n        /* \"#utility.yul\":18812:18879   */\n      tag_240\n      jump\t// in\n    tag_460:\n        /* \"#utility.yul\":18805:18879   */\n      swap2\n      pop\n        /* \"#utility.yul\":18888:18981   */\n      tag_461\n        /* \"#utility.yul\":18977:18980   */\n      dup3\n        /* \"#utility.yul\":18888:18981   */\n      tag_259\n      jump\t// in\n    tag_461:\n        /* \"#utility.yul\":19006:19008   */\n      0x20\n        /* \"#utility.yul\":19001:19004   */\n      dup3\n        /* \"#utility.yul\":18997:19009   */\n      add\n        /* \"#utility.yul\":18990:19009   */\n      swap1\n      pop\n        /* \"#utility.yul\":18649:19015   */\n      swap2\n      swap1\n      pop\n      jump\t// out\n        /* \"#utility.yul\":19021:19440   */\n    tag_91:\n        /* \"#utility.yul\":19187:19191   */\n      0x00\n        /* \"#utility.yul\":19225:19227   */\n      0x20\n        /* \"#utility.yul\":19214:19223   */\n      dup3\n        /* \"#utility.yul\":19210:19228   */\n      add\n        /* \"#utility.yul\":19202:19228   */\n      swap1\n      pop\n        /* \"#utility.yul\":19274:19283   */\n      dup2\n        /* \"#utility.yul\":19268:19272   */\n      dup2\n        /* \"#utility.yul\":19264:19284   */\n      sub\n        /* \"#utility.yul\":19260:19261   */\n      0x00\n        /* \"#utility.yul\":19249:19258   */\n      dup4\n        /* \"#utility.yul\":19245:19262   */\n      add\n        /* \"#utility.yul\":19238:19285   */\n      mstore\n        /* \"#utility.yul\":19302:19433   */\n      tag_463\n        /* \"#utility.yul\":19428:19432   */\n      dup2\n        /* \"#utility.yul\":19302:19433   */\n      tag_260\n      jump\t// in\n    tag_463:\n        /* \"#utility.yul\":19294:19433   */\n      swap1\n      pop\n        /* \"#utility.yul\":19021:19440   */\n      swap2\n      swap1\n      pop\n      jump\t// out\n        /* \"#utility.yul\":19446:19619   */\n    tag_261:\n        /* \"#utility.yul\":19586:19611   */\n      0x466f726d61746f20646520494f4320696e76616c69646f000000000000000000\n        /* \"#utility.yul\":19582:19583   */\n      0x00\n        /* \"#utility.yul\":19574:19580   */\n      dup3\n        /* \"#utility.yul\":19570:19584   */\n      add\n        /* \"#utility.yul\":19563:19612   */\n      mstore\n        /* \"#utility.yul\":19446:19619   */\n      pop\n      jump\t// out\n        /* \"#utility.yul\":19625:19991   */\n    tag_262:\n        /* \"#utility.yul\":19767:19770   */\n      0x00\n        /* \"#utility.yul\":19788:19855   */\n      tag_466\n        /* \"#utility.yul\":19852:19854   */\n      0x17\n        /* \"#utility.yul\":19847:19850   */\n      dup4\n        /* \"#utility.yul\":19788:19855   */\n      tag_240\n      jump\t// in\n    tag_466:\n        /* \"#utility.yul\":19781:19855   */\n      swap2\n      pop\n        /* \"#utility.yul\":19864:19957   */\n      tag_467\n        /* \"#utility.yul\":19953:19956   */\n      dup3\n        /* \"#utility.yul\":19864:19957   */\n      tag_261\n      jump\t// in\n    tag_467:\n        /* \"#utility.yul\":19982:19984   */\n      0x20\n        /* \"#utility.yul\":19977:19980   */\n      dup3\n        /* \"#utility.yul\":19973:19985   */\n      add\n        /* \"#utility.yul\":19966:19985   */\n      swap1\n      pop\n        /* \"#utility.yul\":19625:19991   */\n      swap2\n      swap1\n      pop\n      jump\t// out\n        /* \"#utility.yul\":19997:20416   */\n    tag_96:\n        /* \"#utility.yul\":20163:20167   */\n      0x00\n        /* \"#utility.yul\":20201:20203   */\n      0x20\n        /* \"#utility.yul\":20190:20199   */\n      dup3\n        /* \"#utility.yul\":20186:20204   */\n      add\n        /* \"#utility.yul\":20178:20204   */\n      swap1\n      pop\n        /* \"#utility.yul\":20250:20259   */\n      dup2\n        /* \"#utility.yul\":20244:20248   */\n      dup2\n        /* \"#utility.yul\":20240:20260   */\n      sub\n        /* \"#utility.yul\":20236:20237   */\n      0x00\n        /* \"#utility.yul\":20225:20234   */\n      dup4\n        /* \"#utility.yul\":20221:20238   */\n      add\n        /* \"#utility.yul\":20214:20261   */\n      mstore\n        /* \"#utility.yul\":20278:20409   */\n      tag_469\n        /* \"#utility.yul\":20404:20408   */\n      dup2\n        /* \"#utility.yul\":20278:20409   */\n      tag_262\n      jump\t// in\n    tag_469:\n        /* \"#utility.yul\":20270:20409   */\n      swap1\n      pop\n        /* \"#utility.yul\":19997:20416   */\n      swap2\n      swap1\n      pop\n      jump\t// out\n        /* \"#utility.yul\":20422:20588   */\n    tag_263:\n        /* \"#utility.yul\":20562:20580   */\n      0x494f43207961207265706f727461646f00000000000000000000000000000000\n        /* \"#utility.yul\":20558:20559   */\n      0x00\n        /* \"#utility.yul\":20550:20556   */\n      dup3\n        /* \"#utility.yul\":20546:20560   */\n      add\n        /* \"#utility.yul\":20539:20581   */\n      mstore\n        /* \"#utility.yul\":20422:20588   */\n      pop\n      jump\t// out\n        /* \"#utility.yul\":20594:20960   */\n    tag_264:\n        /* \"#utility.yul\":20736:20739   */\n      0x00\n        /* \"#utility.yul\":20757:20824   */\n      tag_472\n        /* \"#utility.yul\":20821:20823   */\n      0x10\n        /* \"#utility.yul\":20816:20819   */\n      dup4\n        /* \"#utility.yul\":20757:20824   */\n      tag_240\n      jump\t// in\n    tag_472:\n        /* \"#utility.yul\":20750:20824   */\n      swap2\n      pop\n        /* \"#utility.yul\":20833:20926   */\n      tag_473\n        /* \"#utility.yul\":20922:20925   */\n      dup3\n        /* \"#utility.yul\":20833:20926   */\n      tag_263\n      jump\t// in\n    tag_473:\n        /* \"#utility.yul\":20951:20953   */\n      0x20\n        /* \"#utility.yul\":20946:20949   */\n      dup3\n        /* \"#utility.yul\":20942:20954   */\n      add\n        /* \"#utility.yul\":20935:20954   */\n      swap1\n      pop\n        /* \"#utility.yul\":20594:20960   */\n      swap2\n      swap1\n      pop\n      jump\t// out\n        /* \"#utility.yul\":20966:21385   */\n    tag_100:\n        /* \"#utility.yul\":21132:21136   */\n      0x00\n        /* \"#utility.yul\":21170:21172   */\n      0x20\n        /* \"#utility.yul\":21159:21168   */\n      dup3\n        /* \"#utility.yul\":21155:21173   */\n      add\n        /* \"#utility.yul\":21147:21173   */\n      swap1\n      pop\n        /* \"#utility.yul\":21219:21228   */\n      dup2\n        /* \"#utility.yul\":21213:21217   */\n      dup2\n        /* \"#utility.yul\":21209:21229   */\n      sub\n        /* \"#utility.yul\":21205:21206   */\n      0x00\n        /* \"#utility.yul\":21194:21203   */\n      dup4\n        /* \"#utility.yul\":21190:21207   */\n      add\n        /* \"#utility.yul\":21183:21230   */\n      mstore\n        /* \"#utility.yul\":21247:21378   */\n      tag_475\n        /* \"#utility.yul\":21373:21377   */\n      dup2\n        /* \"#utility.yul\":21247:21378   */\n      tag_264\n      jump\t// in\n    tag_475:\n        /* \"#utility.yul\":21239:21378   */\n      swap1\n      pop\n        /* \"#utility.yul\":20966:21385   */\n      swap2\n      swap1\n      pop\n      jump\t// out\n        /* \"#utility.yul\":21391:21571   */\n    tag_265:\n        /* \"#utility.yul\":21439:21516   */\n      0x4e487b7100000000000000000000000000000000000000000000000000000000\n        /* \"#utility.yul\":21436:21437   */\n      0x00\n        /* \"#utility.yul\":21429:21517   */\n      mstore\n        /* \"#utility.yul\":21536:21540   */\n      0x11\n        /* \"#utility.yul\":21533:21534   */\n      0x04\n        /* \"#utility.yul\":21526:21541   */\n      mstore\n        /* \"#utility.yul\":21560:21564   */\n      0x24\n        /* \"#utility.yul\":21557:21558   */\n      0x00\n        /* \"#utility.yul\":21550:21565   */\n      revert\n        /* \"#utility.yul\":21577:21810   */\n    tag_104:\n        /* \"#utility.yul\":21616:21619   */\n      0x00\n        /* \"#utility.yul\":21639:21663   */\n      tag_478\n        /* \"#utility.yul\":21657:21662   */\n      dup3\n        /* \"#utility.yul\":21639:21663   */\n      tag_210\n      jump\t// in\n    tag_478:\n        /* \"#utility.yul\":21630:21663   */\n      swap2\n      pop\n        /* \"#utility.yul\":21685:21751   */\n      0xffffffffffffffffffffffffffffffffffffffffffffffffffffffffffffffff\n        /* \"#utility.yul\":21678:21683   */\n      dup3\n        /* \"#utility.yul\":21675:21752   */\n      sub\n        /* \"#utility.yul\":21672:21775   */\n      tag_479\n      jumpi\n        /* \"#utility.yul\":21755:21773   */\n      tag_480\n      tag_265\n      jump\t// in\n    tag_480:\n        /* \"#utility.yul\":21672:21775   */\n    tag_479:\n        /* \"#utility.yul\":21802:21803   */\n      0x01\n        /* \"#utility.yul\":21795:21800   */\n      dup3\n        /* \"#utility.yul\":21791:21804   */\n      add\n        /* \"#utility.yul\":21784:21804   */\n      swap1\n      pop\n        /* \"#utility.yul\":21577:21810   */\n      swap2\n      swap1\n      pop\n      jump\t// out\n        /* \"#utility.yul\":21816:21964   */\n    tag_266:\n        /* \"#utility.yul\":21918:21929   */\n      0x00\n        /* \"#utility.yul\":21955:21958   */\n      dup2\n        /* \"#utility.yul\":21940:21958   */\n      swap1\n      pop\n        /* \"#utility.yul\":21816:21964   */\n      swap3\n      swap2\n      pop\n      pop\n      jump\t// out\n        /* \"#utility.yul\":21970:22360   */\n    tag_267:\n        /* \"#utility.yul\":22076:22079   */\n      0x00\n        /* \"#utility.yul\":22104:22143   */\n      tag_483\n        /* \"#utility.yul\":22137:22142   */\n      dup3\n        /* \"#utility.yul\":22104:22143   */\n      tag_213\n      jump\t// in\n    tag_483:\n        /* \"#utility.yul\":22159:22248   */\n      tag_484\n        /* \"#utility.yul\":22241:22247   */\n      dup2\n        /* \"#utility.yul\":22236:22239   */\n      dup6\n        /* \"#utility.yul\":22159:22248   */\n      tag_266\n      jump\t// in\n    tag_484:\n        /* \"#utility.yul\":22152:22248   */\n      swap4\n      pop\n        /* \"#utility.yul\":22257:22322   */\n      tag_485\n        /* \"#utility.yul\":22315:22321   */\n      dup2\n        /* \"#utility.yul\":22310:22313   */\n      dup6\n        /* \"#utility.yul\":22303:22307   */\n      0x20\n        /* \"#utility.yul\":22296:22301   */\n      dup7\n        /* \"#utility.yul\":22292:22308   */\n      add\n        /* \"#utility.yul\":22257:22322   */\n      tag_215\n      jump\t// in\n    tag_485:\n        /* \"#utility.yul\":22347:22353   */\n      dup1\n        /* \"#utility.yul\":22342:22345   */\n      dup5\n        /* \"#utility.yul\":22338:22354   */\n      add\n        /* \"#utility.yul\":22331:22354   */\n      swap2\n      pop\n        /* \"#utility.yul\":22080:22360   */\n      pop\n        /* \"#utility.yul\":21970:22360   */\n      swap3\n      swap2\n      pop\n      pop\n      jump\t// out\n        /* \"#utility.yul\":22366:22641   */\n    tag_116:\n        /* \"#utility.yul\":22498:22501   */\n      0x00\n        /* \"#utility.yul\":22520:22615   */\n      tag_487\n        /* \"#utility.yul\":22611:22614   */\n      dup3\n        /* \"#utility.yul\":22602:22608   */\n      dup5\n        /* \"#utility.yul\":22520:22615   */\n      tag_267\n      jump\t// in\n    tag_487:\n        /* \"#utility.yul\":22513:22615   */\n      swap2\n      pop\n        /* \"#utility.yul\":22632:22635   */\n      dup2\n        /* \"#utility.yul\":22625:22635   */\n      swap1\n      pop\n        /* \"#utility.yul\":22366:22641   */\n      swap3\n      swap2\n      pop\n      pop\n      jump\t// out\n        /* \"#utility.yul\":22671:23545   */\n    tag_268:\n        /* \"#utility.yul\":22774:22777   */\n      0x00\n        /* \"#utility.yul\":22811:22816   */\n      dup2\n        /* \"#utility.yul\":22805:22817   */\n      sload\n        /* \"#utility.yul\":22840:22876   */\n      tag_489\n        /* \"#utility.yul\":22866:22875   */\n      dup2\n        /* \"#utility.yul\":22840:22876   */\n      tag_48\n      jump\t// in\n    tag_489:\n        /* \"#utility.yul\":22892:22981   */\n      tag_490\n        /* \"#utility.yul\":22974:22980   */\n      dup2\n        /* \"#utility.yul\":22969:22972   */\n      dup7\n        /* \"#utility.yul\":22892:22981   */\n      tag_266\n      jump\t// in\n    tag_490:\n        /* \"#utility.yul\":22885:22981   */\n      swap5\n      pop\n        /* \"#utility.yul\":23012:23013   */\n      0x01\n        /* \"#utility.yul\":23001:23010   */\n      dup3\n        /* \"#utility.yul\":22997:23014   */\n      and\n        /* \"#utility.yul\":23028:23029   */\n      0x00\n        /* \"#utility.yul\":23023:23189   */\n      dup2\n      eq\n      tag_492\n      jumpi\n        /* \"#utility.yul\":23203:23204   */\n      0x01\n        /* \"#utility.yul\":23198:23539   */\n      dup2\n      eq\n      tag_493\n      jumpi\n        /* \"#utility.yul\":22990:23539   */\n      jump(tag_491)\n        /* \"#utility.yul\":23023:23189   */\n    tag_492:\n        /* \"#utility.yul\":23107:23111   */\n      0xff\n        /* \"#utility.yul\":23103:23112   */\n      not\n        /* \"#utility.yul\":23092:23101   */\n      dup4\n        /* \"#utility.yul\":23088:23113   */\n      and\n        /* \"#utility.yul\":23083:23086   */\n      dup7\n        /* \"#utility.yul\":23076:23114   */\n      mstore\n        /* \"#utility.yul\":23169:23175   */\n      dup2\n        /* \"#utility.yul\":23162:23176   */\n      iszero\n        /* \"#utility.yul\":23155:23177   */\n      iszero\n        /* \"#utility.yul\":23147:23153   */\n      dup3\n        /* \"#utility.yul\":23143:23178   */\n      mul\n        /* \"#utility.yul\":23138:23141   */\n      dup7\n        /* \"#utility.yul\":23134:23179   */\n      add\n        /* \"#utility.yul\":23127:23179   */\n      swap4\n      pop\n        /* \"#utility.yul\":23023:23189   */\n      jump(tag_491)\n        /* \"#utility.yul\":23198:23539   */\n    tag_493:\n        /* \"#utility.yul\":23265:23303   */\n      tag_494\n        /* \"#utility.yul\":23297:23302   */\n      dup6\n        /* \"#utility.yul\":23265:23303   */\n      tag_244\n      jump\t// in\n    tag_494:\n        /* \"#utility.yul\":23325:23326   */\n      0x00\n        /* \"#utility.yul\":23339:23493   */\n    tag_495:\n        /* \"#utility.yul\":23353:23359   */\n      dup4\n        /* \"#utility.yul\":23350:23351   */\n      dup2\n        /* \"#utility.yul\":23347:23360   */\n      lt\n        /* \"#utility.yul\":23339:23493   */\n      iszero\n      tag_497\n      jumpi\n        /* \"#utility.yul\":23427:23434   */\n      dup2\n        /* \"#utility.yul\":23421:23435   */\n      sload\n        /* \"#utility.yul\":23417:23418   */\n      dup2\n        /* \"#utility.yul\":23412:23415   */\n      dup10\n        /* \"#utility.yul\":23408:23419   */\n      add\n        /* \"#utility.yul\":23401:23436   */\n      mstore\n        /* \"#utility.yul\":23477:23478   */\n      0x01\n        /* \"#utility.yul\":23468:23475   */\n      dup3\n        /* \"#utility.yul\":23464:23479   */\n      add\n        /* \"#utility.yul\":23453:23479   */\n      swap2\n      pop\n        /* \"#utility.yul\":23375:23379   */\n      0x20\n        /* \"#utility.yul\":23372:23373   */\n      dup2\n        /* \"#utility.yul\":23368:23380   */\n      add\n        /* \"#utility.yul\":23363:23380   */\n      swap1\n      pop\n        /* \"#utility.yul\":23339:23493   */\n      jump(tag_495)\n    tag_497:\n        /* \"#utility.yul\":23522:23528   */\n      dup4\n        /* \"#utility.yul\":23517:23520   */\n      dup9\n        /* \"#utility.yul\":23513:23529   */\n      add\n        /* \"#utility.yul\":23506:23529   */\n      swap6\n      pop\n        /* \"#utility.yul\":23205:23539   */\n      pop\n      pop\n        /* \"#utility.yul\":22990:23539   */\n    tag_491:\n      pop\n        /* \"#utility.yul\":22778:23545   */\n      pop\n      pop\n        /* \"#utility.yul\":22671:23545   */\n      swap3\n      swap2\n      pop\n      pop\n      jump\t// out\n        /* \"#utility.yul\":23551:23820   */\n    tag_118:\n        /* \"#utility.yul\":23680:23683   */\n      0x00\n        /* \"#utility.yul\":23702:23794   */\n      tag_499\n        /* \"#utility.yul\":23790:23793   */\n      dup3\n        /* \"#utility.yul\":23781:23787   */\n      dup5\n        /* \"#utility.yul\":23702:23794   */\n      tag_268\n      jump\t// in\n    tag_499:\n        /* \"#utility.yul\":23695:23794   */\n      swap2\n      pop\n        /* \"#utility.yul\":23811:23814   */\n      dup2\n        /* \"#utility.yul\":23804:23814   */\n      swap1\n      pop\n        /* \"#utility.yul\":23551:23820   */\n      swap3\n      swap2\n      pop\n      pop\n      jump\t// out\n        /* \"#utility.yul\":23826:24203   */\n    tag_269:\n        /* \"#utility.yul\":23914:23917   */\n      0x00\n        /* \"#utility.yul\":23942:23981   */\n      tag_501\n        /* \"#utility.yul\":23975:23980   */\n      dup3\n        /* \"#utility.yul\":23942:23981   */\n      tag_213\n      jump\t// in\n    tag_501:\n        /* \"#utility.yul\":23997:24068   */\n      tag_502\n        /* \"#utility.yul\":24061:24067   */\n      dup2\n        /* \"#utility.yul\":24056:24059   */\n      dup6\n        /* \"#utility.yul\":23997:24068   */\n      tag_240\n      jump\t// in\n    tag_502:\n        /* \"#utility.yul\":23990:24068   */\n      swap4\n      pop\n        /* \"#utility.yul\":24077:24142   */\n      tag_503\n        /* \"#utility.yul\":24135:24141   */\n      dup2\n        /* \"#utility.yul\":24130:24133   */\n      dup6\n        /* \"#utility.yul\":24123:24127   */\n      0x20\n        /* \"#utility.yul\":24116:24121   */\n      dup7\n        /* \"#utility.yul\":24112:24128   */\n      add\n        /* \"#utility.yul\":24077:24142   */\n      tag_215\n      jump\t// in\n    tag_503:\n        /* \"#utility.yul\":24167:24196   */\n      tag_504\n        /* \"#utility.yul\":24189:24195   */\n      dup2\n        /* \"#utility.yul\":24167:24196   */\n      tag_216\n      jump\t// in\n    tag_504:\n        /* \"#utility.yul\":24162:24165   */\n      dup5\n        /* \"#utility.yul\":24158:24197   */\n      add\n        /* \"#utility.yul\":24151:24197   */\n      swap2\n      pop\n        /* \"#utility.yul\":23918:24203   */\n      pop\n        /* \"#utility.yul\":23826:24203   */\n      swap3\n      swap2\n      pop\n      pop\n      jump\t// out\n        /* \"#utility.yul\":24209:24723   */\n    tag_135:\n        /* \"#utility.yul\":24370:24374   */\n      0x00\n        /* \"#utility.yul\":24408:24410   */\n      0x40\n        /* \"#utility.yul\":24397:24406   */\n      dup3\n        /* \"#utility.yul\":24393:24411   */\n      add\n        /* \"#utility.yul\":24385:24411   */\n      swap1\n      pop\n        /* \"#utility.yul\":24457:24466   */\n      dup2\n        /* \"#utility.yul\":24451:24455   */\n      dup2\n        /* \"#utility.yul\":24447:24467   */\n      sub\n        /* \"#utility.yul\":24443:24444   */\n      0x00\n        /* \"#utility.yul\":24432:24441   */\n      dup4\n        /* \"#utility.yul\":24428:24445   */\n      add\n        /* \"#utility.yul\":24421:24468   */\n      mstore\n        /* \"#utility.yul\":24485:24563   */\n      tag_506\n        /* \"#utility.yul\":24558:24562   */\n      dup2\n        /* \"#utility.yul\":24549:24555   */\n      dup6\n        /* \"#utility.yul\":24485:24563   */\n      tag_269\n      jump\t// in\n    tag_506:\n        /* \"#utility.yul\":24477:24563   */\n      swap1\n      pop\n        /* \"#utility.yul\":24610:24619   */\n      dup2\n        /* \"#utility.yul\":24604:24608   */\n      dup2\n        /* \"#utility.yul\":24600:24620   */\n      sub\n        /* \"#utility.yul\":24595:24597   */\n      0x20\n        /* \"#utility.yul\":24584:24593   */\n      dup4\n        /* \"#utility.yul\":24580:24598   */\n      add\n        /* \"#utility.yul\":24573:24621   */\n      mstore\n        /* \"#utility.yul\":24638:24716   */\n      tag_507\n        /* \"#utility.yul\":24711:24715   */\n      dup2\n        /* \"#utility.yul\":24702:24708   */\n      dup5\n        /* \"#utility.yul\":24638:24716   */\n      tag_269\n      jump\t// in\n    tag_507:\n        /* \"#utility.yul\":24630:24716   */\n      swap1\n      pop\n        /* \"#utility.yul\":24209:24723   */\n      swap4\n      swap3\n      pop\n      pop\n      pop\n      jump\t// out\n        /* \"#utility.yul\":24729:24881   */\n    tag_270:\n        /* \"#utility.yul\":24869:24873   */\n      0x4950000000000000000000000000000000000000000000000000000000000000\n        /* \"#utility.yul\":24865:24866   */\n      0x00\n        /* \"#utility.yul\":24857:24863   */\n      dup3\n        /* \"#utility.yul\":24853:24867   */\n      add\n        /* \"#utility.yul\":24846:24874   */\n      mstore\n        /* \"#utility.yul\":24729:24881   */\n      pop\n      jump\t// out\n        /* \"#utility.yul\":24887:25287   */\n    tag_271:\n        /* \"#utility.yul\":25047:25050   */\n      0x00\n        /* \"#utility.yul\":25068:25152   */\n      tag_510\n        /* \"#utility.yul\":25150:25151   */\n      0x02\n        /* \"#utility.yul\":25145:25148   */\n      dup4\n        /* \"#utility.yul\":25068:25152   */\n      tag_266\n      jump\t// in\n    tag_510:\n        /* \"#utility.yul\":25061:25152   */\n      swap2\n      pop\n        /* \"#utility.yul\":25161:25254   */\n      tag_511\n        /* \"#utility.yul\":25250:25253   */\n      dup3\n        /* \"#utility.yul\":25161:25254   */\n      tag_270\n      jump\t// in\n    tag_511:\n        /* \"#utility.yul\":25279:25280   */\n      0x02\n        /* \"#utility.yul\":25274:25277   */\n      dup3\n        /* \"#utility.yul\":25270:25281   */\n      add\n        /* \"#utility.yul\":25263:25281   */\n      swap1\n      pop\n        /* \"#utility.yul\":24887:25287   */\n      swap2\n      swap1\n      pop\n      jump\t// out\n        /* \"#utility.yul\":25293:25674   */\n    tag_148:\n        /* \"#utility.yul\":25478:25481   */\n      0x00\n        /* \"#utility.yul\":25500:25648   */\n      tag_513\n        /* \"#utility.yul\":25644:25647   */\n      dup3\n        /* \"#utility.yul\":25500:25648   */\n      tag_271\n      jump\t// in\n    tag_513:\n        /* \"#utility.yul\":25493:25648   */\n      swap2\n      pop\n        /* \"#utility.yul\":25665:25668   */\n      dup2\n        /* \"#utility.yul\":25658:25668   */\n      swap1\n      pop\n        /* \"#utility.yul\":25293:25674   */\n      swap2\n      swap1\n      pop\n      jump\t// out\n        /* \"#utility.yul\":25680:25833   */\n    tag_272:\n        /* \"#utility.yul\":25820:25825   */\n      0x55524c0000000000000000000000000000000000000000000000000000000000\n        /* \"#utility.yul\":25816:25817   */\n      0x00\n        /* \"#utility.yul\":25808:25814   */\n      dup3\n        /* \"#utility.yul\":25804:25818   */\n      add\n        /* \"#utility.yul\":25797:25826   */\n      mstore\n        /* \"#utility.yul\":25680:25833   */\n      pop\n      jump\t// out\n        /* \"#utility.yul\":25839:26239   */\n    tag_273:\n        /* \"#utility.yul\":25999:26002   */\n      0x00\n        /* \"#utility.yul\":26020:26104   */\n      tag_516\n        /* \"#utility.yul\":26102:26103   */\n      0x03\n        /* \"#utility.yul\":26097:26100   */\n      dup4\n        /* \"#utility.yul\":26020:26104   */\n      tag_266\n      jump\t// in\n    tag_516:\n        /* \"#utility.yul\":26013:26104   */\n      swap2\n      pop\n        /* \"#utility.yul\":26113:26206   */\n      tag_517\n        /* \"#utility.yul\":26202:26205   */\n      dup3\n        /* \"#utility.yul\":26113:26206   */\n      tag_272\n      jump\t// in\n    tag_517:\n        /* \"#utility.yul\":26231:26232   */\n      0x03\n        /* \"#utility.yul\":26226:26229   */\n      dup3\n        /* \"#utility.yul\":26222:26233   */\n      add\n        /* \"#utility.yul\":26215:26233   */\n      swap1\n      pop\n        /* \"#utility.yul\":25839:26239   */\n      swap2\n      swap1\n      pop\n      jump\t// out\n        /* \"#utility.yul\":26245:26626   */\n    tag_155:\n        /* \"#utility.yul\":26430:26433   */\n      0x00\n        /* \"#utility.yul\":26452:26600   */\n      tag_519\n        /* \"#utility.yul\":26596:26599   */\n      dup3\n        /* \"#utility.yul\":26452:26600   */\n      tag_273\n      jump\t// in\n    tag_519:\n        /* \"#utility.yul\":26445:26600   */\n      swap2\n      pop\n        /* \"#utility.yul\":26617:26620   */\n      dup2\n        /* \"#utility.yul\":26610:26620   */\n      swap1\n      pop\n        /* \"#utility.yul\":26245:26626   */\n      swap2\n      swap1\n      pop\n      jump\t// out\n        /* \"#utility.yul\":26632:26786   */\n    tag_274:\n        /* \"#utility.yul\":26772:26778   */\n      0x4861736800000000000000000000000000000000000000000000000000000000\n        /* \"#utility.yul\":26768:26769   */\n      0x00\n        /* \"#utility.yul\":26760:26766   */\n      dup3\n        /* \"#utility.yul\":26756:26770   */\n      add\n        /* \"#utility.yul\":26749:26779   */\n      mstore\n        /* \"#utility.yul\":26632:26786   */\n      pop\n      jump\t// out\n        /* \"#utility.yul\":26792:27192   */\n    tag_275:\n        /* \"#utility.yul\":26952:26955   */\n      0x00\n        /* \"#utility.yul\":26973:27057   */\n      tag_522\n        /* \"#utility.yul\":27055:27056   */\n      0x04\n        /* \"#utility.yul\":27050:27053   */\n      dup4\n        /* \"#utility.yul\":26973:27057   */\n      tag_266\n      jump\t// in\n    tag_522:\n        /* \"#utility.yul\":26966:27057   */\n      swap2\n      pop\n        /* \"#utility.yul\":27066:27159   */\n      tag_523\n        /* \"#utility.yul\":27155:27158   */\n      dup3\n        /* \"#utility.yul\":27066:27159   */\n      tag_274\n      jump\t// in\n    tag_523:\n        /* \"#utility.yul\":27184:27185   */\n      0x04\n        /* \"#utility.yul\":27179:27182   */\n      dup3\n        /* \"#utility.yul\":27175:27186   */\n      add\n        /* \"#utility.yul\":27168:27186   */\n      swap1\n      pop\n        /* \"#utility.yul\":26792:27192   */\n      swap2\n      swap1\n      pop\n      jump\t// out\n        /* \"#utility.yul\":27198:27579   */\n    tag_164:\n        /* \"#utility.yul\":27383:27386   */\n      0x00\n        /* \"#utility.yul\":27405:27553   */\n      tag_525\n        /* \"#utility.yul\":27549:27552   */\n      dup3\n        /* \"#utility.yul\":27405:27553   */\n      tag_275\n      jump\t// in\n    tag_525:\n        /* \"#utility.yul\":27398:27553   */\n      swap2\n      pop\n        /* \"#utility.yul\":27570:27573   */\n      dup2\n        /* \"#utility.yul\":27563:27573   */\n      swap1\n      pop\n        /* \"#utility.yul\":27198:27579   */\n      swap2\n      swap1\n      pop\n      jump\t// out\n        /* \"#utility.yul\":27585:27740   */\n    tag_276:\n        /* \"#utility.yul\":27725:27732   */\n      0x456d61696c000000000000000000000000000000000000000000000000000000\n        /* \"#utility.yul\":27721:27722   */\n      0x00\n        /* \"#utility.yul\":27713:27719   */\n      dup3\n        /* \"#utility.yul\":27709:27723   */\n      add\n        /* \"#utility.yul\":27702:27733   */\n      mstore\n        /* \"#utility.yul\":27585:27740   */\n      pop\n      jump\t// out\n        /* \"#utility.yul\":27746:28146   */\n    tag_277:\n        /* \"#utility.yul\":27906:27909   */\n      0x00\n        /* \"#utility.yul\":27927:28011   */\n      tag_528\n        /* \"#utility.yul\":28009:28010   */\n      0x05\n        /* \"#utility.yul\":28004:28007   */\n      dup4\n        /* \"#utility.yul\":27927:28011   */\n      tag_266\n      jump\t// in\n    tag_528:\n        /* \"#utility.yul\":27920:28011   */\n      swap2\n      pop\n        /* \"#utility.yul\":28020:28113   */\n      tag_529\n        /* \"#utility.yul\":28109:28112   */\n      dup3\n        /* \"#utility.yul\":28020:28113   */\n      tag_276\n      jump\t// in\n    tag_529:\n        /* \"#utility.yul\":28138:28139   */\n      0x05\n        /* \"#utility.yul\":28133:28136   */\n      dup3\n        /* \"#utility.yul\":28129:28140   */\n      add\n        /* \"#utility.yul\":28122:28140   */\n      swap1\n      pop\n        /* \"#utility.yul\":27746:28146   */\n      swap2\n      swap1\n      pop\n      jump\t// out\n        /* \"#utility.yul\":28152:28533   */\n    tag_169:\n        /* \"#utility.yul\":28337:28340   */\n      0x00\n        /* \"#utility.yul\":28359:28507   */\n      tag_531\n        /* \"#utility.yul\":28503:28506   */\n      dup3\n        /* \"#utility.yul\":28359:28507   */\n      tag_277\n      jump\t// in\n    tag_531:\n        /* \"#utility.yul\":28352:28507   */\n      swap2\n      pop\n        /* \"#utility.yul\":28524:28527   */\n      dup2\n        /* \"#utility.yul\":28517:28527   */\n      swap1\n      pop\n        /* \"#utility.yul\":28152:28533   */\n      swap2\n      swap1\n      pop\n      jump\t// out\n        /* \"#utility.yul\":28539:28733   */\n    tag_187:\n        /* \"#utility.yul\":28579:28583   */\n      0x00\n        /* \"#utility.yul\":28599:28619   */\n      tag_533\n        /* \"#utility.yul\":28617:28618   */\n      dup3\n        /* \"#utility.yul\":28599:28619   */\n      tag_210\n      jump\t// in\n    tag_533:\n        /* \"#utility.yul\":28594:28619   */\n      swap2\n      pop\n        /* \"#utility.yul\":28633:28653   */\n      tag_534\n        /* \"#utility.yul\":28651:28652   */\n      dup4\n        /* \"#utility.yul\":28633:28653   */\n      tag_210\n      jump\t// in\n    tag_534:\n        /* \"#utility.yul\":28628:28653   */\n      swap3\n      pop\n        /* \"#utility.yul\":28677:28678   */\n      dup3\n        /* \"#utility.yul\":28674:28675   */\n      dup3\n        /* \"#utility.yul\":28670:28679   */\n      sub\n        /* \"#utility.yul\":28662:28679   */\n      swap1\n      pop\n        /* \"#utility.yul\":28701:28702   */\n      dup2\n        /* \"#utility.yul\":28695:28699   */\n      dup2\n        /* \"#utility.yul\":28692:28703   */\n      gt\n        /* \"#utility.yul\":28689:28726   */\n      iszero\n      tag_535\n      jumpi\n        /* \"#utility.yul\":28706:28724   */\n      tag_536\n      tag_265\n      jump\t// in\n    tag_536:\n        /* \"#utility.yul\":28689:28726   */\n    tag_535:\n        /* \"#utility.yul\":28539:28733   */\n      swap3\n      swap2\n      pop\n      pop\n      jump\t// out\n        /* \"#utility.yul\":28739:28930   */\n    tag_194:\n        /* \"#utility.yul\":28779:28782   */\n      0x00\n        /* \"#utility.yul\":28798:28818   */\n      tag_538\n        /* \"#utility.yul\":28816:28817   */\n      dup3\n        /* \"#utility.yul\":28798:28818   */\n      tag_210\n      jump\t// in\n    tag_538:\n        /* \"#utility.yul\":28793:28818   */\n      swap2\n      pop\n        /* \"#utility.yul\":28832:28852   */\n      tag_539\n        /* \"#utility.yul\":28850:28851   */\n      dup4\n        /* \"#utility.yul\":28832:28852   */\n      tag_210\n      jump\t// in\n    tag_539:\n        /* \"#utility.yul\":28827:28852   */\n      swap3\n      pop\n        /* \"#utility.yul\":28875:28876   */\n      dup3\n        /* \"#utility.yul\":28872:28873   */\n      dup3\n        /* \"#utility.yul\":28868:28877   */\n      add\n        /* \"#utility.yul\":28861:28877   */\n      swap1\n      pop\n        /* \"#utility.yul\":28896:28899   */\n      dup1\n        /* \"#utility.yul\":28893:28894   */\n      dup3\n        /* \"#utility.yul\":28890:28900   */\n      gt\n        /* \"#utility.yul\":28887:28923   */\n      iszero\n      tag_540\n      jumpi\n        /* \"#utility.yul\":28903:28921   */\n      tag_541\n      tag_265\n      jump\t// in\n    tag_541:\n        /* \"#utility.yul\":28887:28923   */\n    tag_540:\n        /* \"#utility.yul\":28739:28930   */\n      swap3\n      swap2\n      pop\n      pop\n      jump\t// out\n\n    auxdata: 0xa264697066735822122027bde8c126876ef5e6048254cd56da6f9e1e9fce6b3a2f2eb1198970276908dc64736f6c63430008190033\n}\n",
				"bytecode": {
					"linkReferences": {},
					"object": "60806040525f600155348015610013575f80fd5b5060028060018154018082558091505060019003905f5260205f20015f6040518060400160405280600281526020017f49500000000000000000000000000000000000000000000000000000000000008152509091909150908161007791906103e3565b5060028060018154018082558091505060019003905f5260205f20015f6040518060400160405280600381526020017f55524c0000000000000000000000000000000000000000000000000000000000815250909190915090816100db91906103e3565b5060028060018154018082558091505060019003905f5260205f20015f6040518060400160405280600481526020017f48617368000000000000000000000000000000000000000000000000000000008152509091909150908161013f91906103e3565b5060028060018154018082558091505060019003905f5260205f20015f6040518060400160405280600581526020017f456d61696c000000000000000000000000000000000000000000000000000000815250909190915090816101a391906103e3565b506104b2565b5f81519050919050565b7f4e487b71000000000000000000000000000000000000000000000000000000005f52604160045260245ffd5b7f4e487b71000000000000000000000000000000000000000000000000000000005f52602260045260245ffd5b5f600282049050600182168061022457607f821691505b602082108103610237576102366101e0565b5b50919050565b5f819050815f5260205f209050919050565b5f6020601f8301049050919050565b5f82821b905092915050565b5f600883026102997fffffffffffffffffffffffffffffffffffffffffffffffffffffffffffffffff8261025e565b6102a3868361025e565b95508019841693508086168417925050509392505050565b5f819050919050565b5f819050919050565b5f6102e76102e26102dd846102bb565b6102c4565b6102bb565b9050919050565b5f819050919050565b610300836102cd565b61031461030c826102ee565b84845461026a565b825550505050565b5f90565b61032861031c565b6103338184846102f7565b505050565b5b818110156103565761034b5f82610320565b600181019050610339565b5050565b601f82111561039b5761036c8161023d565b6103758461024f565b81016020851015610384578190505b6103986103908561024f565b830182610338565b50505b505050565b5f82821c905092915050565b5f6103bb5f19846008026103a0565b1980831691505092915050565b5f6103d383836103ac565b9150826002028217905092915050565b6103ec826101a9565b67ffffffffffffffff811115610405576104046101b3565b5b61040f825461020d565b61041a82828561035a565b5f60209050601f83116001811461044b575f8415610439578287015190505b61044385826103c8565b8655506104aa565b601f1984166104598661023d565b5f5b828110156104805784890151825560018201915060208501945060208101905061045b565b8683101561049d5784890151610499601f8916826103ac565b8355505b6001600288020188555050505b505050505050565b611e3d806104bf5f395ff3fe608060405234801561000f575f80fd5b506004361061007b575f3560e01c80639290aaa2116100595780639290aaa2146100e9578063ccd666d214610105578063e8e4633314610121578063f6b7af94146101515761007b565b8063390b61161461007f57806355f40ba9146100af5780636143a4ec146100cd575b5f80fd5b61009960048036038101906100949190611066565b61016d565b6040516100a691906111b6565b60405180910390f35b6100b7610359565b6040516100c491906112f8565b60405180910390f35b6100e760048036038101906100e29190611444565b6105e8565b005b61010360048036038101906100fe919061148b565b61061d565b005b61011f600480360381019061011a9190611066565b6107dd565b005b61013b60048036038101906101369190611444565b6108ae565b604051610148919061151b565b60405180910390f35b61016b60048036038101906101669190611534565b610944565b005b610175610f8e565b60015482106101b9576040517f08c379a00000000000000000000000000000000000000000000000000000000081526004016101b090611616565b60405180910390fd5b5f808381526020019081526020015f206040518060800160405290815f820180546101e390611661565b80601f016020809104026020016040519081016040528092919081815260200182805461020f90611661565b801561025a5780601f106102315761010080835404028352916020019161025a565b820191905f5260205f20905b81548152906001019060200180831161023d57829003601f168201915b5050505050815260200160018201805461027390611661565b80601f016020809104026020016040519081016040528092919081815260200182805461029f90611661565b80156102ea5780601f106102c1576101008083540402835291602001916102ea565b820191905f5260205f20905b8154815290600101906020018083116102cd57829003601f168201915b50505050508152602001600282015f9054906101000a900473ffffffffffffffffffffffffffffffffffffffff1673ffffffffffffffffffffffffffffffffffffffff1673ffffffffffffffffffffffffffffffffffffffff1681526020016003820154815250509050919050565b60605f60015467ffffffffffffffff81111561037857610377611320565b5b6040519080825280602002602001820160405280156103b157816020015b61039e610f8e565b8152602001906001900390816103965790505b5090505f5b6001548110156105e0575f805f8381526020019081526020015f2090505f73ffffffffffffffffffffffffffffffffffffffff16816002015f9054906101000a900473ffffffffffffffffffffffffffffffffffffffff1673ffffffffffffffffffffffffffffffffffffffff16146105d257806040518060800160405290815f8201805461044490611661565b80601f016020809104026020016040519081016040528092919081815260200182805461047090611661565b80156104bb5780601f10610492576101008083540402835291602001916104bb565b820191905f5260205f20905b81548152906001019060200180831161049e57829003601f168201915b505050505081526020016001820180546104d490611661565b80601f016020809104026020016040519081016040528092919081815260200182805461050090611661565b801561054b5780601f106105225761010080835404028352916020019161054b565b820191905f5260205f20905b81548152906001019060200180831161052e57829003601f168201915b50505050508152602001600282015f9054906101000a900473ffffffffffffffffffffffffffffffffffffffff1673ffffffffffffffffffffffffffffffffffffffff1673ffffffffffffffffffffffffffffffffffffffff1681526020016003820154815250508383815181106105c6576105c5611691565b5b60200260200101819052505b5080806001019150506103b6565b508091505090565b600281908060018154018082558091505060019003905f5260205f20015f909190919091509081610619919061185b565b5050565b61062682610ad8565b610665576040517f08c379a000000000000000000000000000000000000000000000000000000000815260040161065c90611974565b60405180910390fd5b61066f8282610b7a565b6106ae576040517f08c379a00000000000000000000000000000000000000000000000000000000081526004016106a5906119dc565b60405180910390fd5b6106b7816108ae565b156106f7576040517f08c379a00000000000000000000000000000000000000000000000000000000081526004016106ee90611a44565b60405180910390fd5b5f60405180608001604052808481526020018381526020013373ffffffffffffffffffffffffffffffffffffffff168152602001428152509050805f8060015481526020019081526020015f205f820151815f019081610757919061185b565b50602082015181600101908161076d919061185b565b506040820151816002015f6101000a81548173ffffffffffffffffffffffffffffffffffffffff021916908373ffffffffffffffffffffffffffffffffffffffff1602179055506060820151816003015590505060015f8154809291906107d390611a8f565b9190505550505050565b6001548110610821576040517f08c379a000000000000000000000000000000000000000000000000000000000815260040161081890611616565b60405180910390fd5b5f808281526020019081526020015f205f8082015f6108409190610fca565b600182015f61084f9190610fca565b600282015f6101000a81549073ffffffffffffffffffffffffffffffffffffffff0219169055600382015f90555050807fece49e958a603088b69df25dbed8fa3def065badcd84c0fd126f55d875b3e20460405160405180910390a250565b5f805f90505b60015481101561093a57826040516020016108cf9190611b10565b604051602081830303815290604052805190602001205f808381526020019081526020015f206001016040516020016109089190611ba6565b604051602081830303815290604052805190602001200361092d57600191505061093f565b80806001019150506108b4565b505f90505b919050565b6001548310610988576040517f08c379a000000000000000000000000000000000000000000000000000000000815260040161097f90611616565b60405180910390fd5b61099182610ad8565b6109d0576040517f08c379a00000000000000000000000000000000000000000000000000000000081526004016109c790611974565b60405180910390fd5b6109da8282610b7a565b610a19576040517f08c379a0000000000000000000000000000000000000000000000000000000008152600401610a10906119dc565b60405180910390fd5b610a22816108ae565b15610a62576040517f08c379a0000000000000000000000000000000000000000000000000000000008152600401610a5990611a44565b60405180910390fd5b5f805f8581526020019081526020015f20905082815f019081610a85919061185b565b5081816001019081610a97919061185b565b50837f9893f2f232e4ab0d3d56384866504b1d510affb204a862b80a809cdeb61079db8484604051610aca929190611bf4565b60405180910390a250505050565b5f805f90505b600280549050811015610b705760028181548110610aff57610afe611691565b5b905f5260205f2001604051602001610b179190611ba6565b6040516020818303038152906040528051906020012083604051602001610b3e9190611b10565b6040516020818303038152906040528051906020012003610b63576001915050610b75565b8080600101915050610ade565b505f90505b919050565b5f80829050604051602001610b8e90611c73565b6040516020818303038152906040528051906020012084604051602001610bb59190611b10565b6040516020818303038152906040528051906020012003610c05576003610bfc827f2e00000000000000000000000000000000000000000000000000000000000000610dd2565b14915050610dcc565b604051602001610c1490611cd1565b6040516020818303038152906040528051906020012084604051602001610c3b9190611b10565b6040516020818303038152906040528051906020012003610ce357610c95836040518060400160405280600781526020017f687474703a2f2f00000000000000000000000000000000000000000000000000815250610e71565b80610cdb5750610cda836040518060400160405280600881526020017f68747470733a2f2f000000000000000000000000000000000000000000000000815250610e71565b5b915050610dcc565b604051602001610cf290611d2f565b6040516020818303038152906040528051906020012084604051602001610d199190611b10565b6040516020818303038152906040528051906020012003610d41576040815114915050610dcc565b604051602001610d5090611d8d565b6040516020818303038152906040528051906020012084604051602001610d779190611b10565b6040516020818303038152906040528051906020012003610dc7576001610dbe827f4000000000000000000000000000000000000000000000000000000000000000610dd2565b14915050610dcc565b5f9150505b92915050565b5f805f90505f5b8451811015610e6657837effffffffffffffffffffffffffffffffffffffffffffffffffffffffffffff1916858281518110610e1857610e17611691565b5b602001015160f81c60f81b7effffffffffffffffffffffffffffffffffffffffffffffffffffffffffffff191603610e59578180610e5590611a8f565b9250505b8080600101915050610dd9565b508091505092915050565b5f808390505f839050805182511015610e8e575f92505050610f88565b5f5b81518351610e9e9190611da1565b8111610f81575f600190505f5b8351811015610f5957838181518110610ec757610ec6611691565b5b602001015160f81c60f81b7effffffffffffffffffffffffffffffffffffffffffffffffffffffffffffff1916858285610f019190611dd4565b81518110610f1257610f11611691565b5b602001015160f81c60f81b7effffffffffffffffffffffffffffffffffffffffffffffffffffffffffffff191614610f4c575f9150610f59565b8080600101915050610eab565b508015610f6d576001945050505050610f88565b508080610f7990611a8f565b915050610e90565b505f925050505b92915050565b604051806080016040528060608152602001606081526020015f73ffffffffffffffffffffffffffffffffffffffff1681526020015f81525090565b508054610fd690611661565b5f825580601f10610fe75750611004565b601f0160209004905f5260205f20908101906110039190611007565b5b50565b5b8082111561101e575f815f905550600101611008565b5090565b5f604051905090565b5f80fd5b5f80fd5b5f819050919050565b61104581611033565b811461104f575f80fd5b50565b5f813590506110608161103c565b92915050565b5f6020828403121561107b5761107a61102b565b5b5f61108884828501611052565b91505092915050565b5f81519050919050565b5f82825260208201905092915050565b8281835e5f83830152505050565b5f601f19601f8301169050919050565b5f6110d382611091565b6110dd818561109b565b93506110ed8185602086016110ab565b6110f6816110b9565b840191505092915050565b5f73ffffffffffffffffffffffffffffffffffffffff82169050919050565b5f61112a82611101565b9050919050565b61113a81611120565b82525050565b61114981611033565b82525050565b5f608083015f8301518482035f86015261116982826110c9565b9150506020830151848203602086015261118382826110c9565b91505060408301516111986040860182611131565b5060608301516111ab6060860182611140565b508091505092915050565b5f6020820190508181035f8301526111ce818461114f565b905092915050565b5f81519050919050565b5f82825260208201905092915050565b5f819050602082019050919050565b5f608083015f8301518482035f86015261121982826110c9565b9150506020830151848203602086015261123382826110c9565b91505060408301516112486040860182611131565b50606083015161125b6060860182611140565b508091505092915050565b5f61127183836111ff565b905092915050565b5f602082019050919050565b5f61128f826111d6565b61129981856111e0565b9350836020820285016112ab856111f0565b805f5b858110156112e657848403895281516112c78582611266565b94506112d283611279565b925060208a019950506001810190506112ae565b50829750879550505050505092915050565b5f6020820190508181035f8301526113108184611285565b905092915050565b5f80fd5b5f80fd5b7f4e487b71000000000000000000000000000000000000000000000000000000005f52604160045260245ffd5b611356826110b9565b810181811067ffffffffffffffff8211171561137557611374611320565b5b80604052505050565b5f611387611022565b9050611393828261134d565b919050565b5f67ffffffffffffffff8211156113b2576113b1611320565b5b6113bb826110b9565b9050602081019050919050565b828183375f83830152505050565b5f6113e86113e384611398565b61137e565b9050828152602081018484840111156114045761140361131c565b5b61140f8482856113c8565b509392505050565b5f82601f83011261142b5761142a611318565b5b813561143b8482602086016113d6565b91505092915050565b5f602082840312156114595761145861102b565b5b5f82013567ffffffffffffffff8111156114765761147561102f565b5b61148284828501611417565b91505092915050565b5f80604083850312156114a1576114a061102b565b5b5f83013567ffffffffffffffff8111156114be576114bd61102f565b5b6114ca85828601611417565b925050602083013567ffffffffffffffff8111156114eb576114ea61102f565b5b6114f785828601611417565b9150509250929050565b5f8115159050919050565b61151581611501565b82525050565b5f60208201905061152e5f83018461150c565b92915050565b5f805f6060848603121561154b5761154a61102b565b5b5f61155886828701611052565b935050602084013567ffffffffffffffff8111156115795761157861102f565b5b61158586828701611417565b925050604084013567ffffffffffffffff8111156115a6576115a561102f565b5b6115b286828701611417565b9150509250925092565b5f82825260208201905092915050565b7f494f43206e6f20657869737465000000000000000000000000000000000000005f82015250565b5f611600600d836115bc565b915061160b826115cc565b602082019050919050565b5f6020820190508181035f83015261162d816115f4565b9050919050565b7f4e487b71000000000000000000000000000000000000000000000000000000005f52602260045260245ffd5b5f600282049050600182168061167857607f821691505b60208210810361168b5761168a611634565b5b50919050565b7f4e487b71000000000000000000000000000000000000000000000000000000005f52603260045260245ffd5b5f819050815f5260205f209050919050565b5f6020601f8301049050919050565b5f82821b905092915050565b5f6008830261171a7fffffffffffffffffffffffffffffffffffffffffffffffffffffffffffffffff826116df565b61172486836116df565b95508019841693508086168417925050509392505050565b5f819050919050565b5f61175f61175a61175584611033565b61173c565b611033565b9050919050565b5f819050919050565b61177883611745565b61178c61178482611766565b8484546116eb565b825550505050565b5f90565b6117a0611794565b6117ab81848461176f565b505050565b5b818110156117ce576117c35f82611798565b6001810190506117b1565b5050565b601f821115611813576117e4816116be565b6117ed846116d0565b810160208510156117fc578190505b611810611808856116d0565b8301826117b0565b50505b505050565b5f82821c905092915050565b5f6118335f1984600802611818565b1980831691505092915050565b5f61184b8383611824565b9150826002028217905092915050565b61186482611091565b67ffffffffffffffff81111561187d5761187c611320565b5b6118878254611661565b6118928282856117d2565b5f60209050601f8311600181146118c3575f84156118b1578287015190505b6118bb8582611840565b865550611922565b601f1984166118d1866116be565b5f5b828110156118f8578489015182556001820191506020850194506020810190506118d3565b868310156119155784890151611911601f891682611824565b8355505b6001600288020188555050505b505050505050565b7f5469706f20646520494f43206e6f207065726d697469646f00000000000000005f82015250565b5f61195e6018836115bc565b91506119698261192a565b602082019050919050565b5f6020820190508181035f83015261198b81611952565b9050919050565b7f466f726d61746f20646520494f4320696e76616c69646f0000000000000000005f82015250565b5f6119c66017836115bc565b91506119d182611992565b602082019050919050565b5f6020820190508181035f8301526119f3816119ba565b9050919050565b7f494f43207961207265706f727461646f000000000000000000000000000000005f82015250565b5f611a2e6010836115bc565b9150611a39826119fa565b602082019050919050565b5f6020820190508181035f830152611a5b81611a22565b9050919050565b7f4e487b71000000000000000000000000000000000000000000000000000000005f52601160045260245ffd5b5f611a9982611033565b91507fffffffffffffffffffffffffffffffffffffffffffffffffffffffffffffffff8203611acb57611aca611a62565b5b600182019050919050565b5f81905092915050565b5f611aea82611091565b611af48185611ad6565b9350611b048185602086016110ab565b80840191505092915050565b5f611b1b8284611ae0565b915081905092915050565b5f8154611b3281611661565b611b3c8186611ad6565b9450600182165f8114611b565760018114611b6b57611b9d565b60ff1983168652811515820286019350611b9d565b611b74856116be565b5f5b83811015611b9557815481890152600182019150602081019050611b76565b838801955050505b50505092915050565b5f611bb18284611b26565b915081905092915050565b5f611bc682611091565b611bd081856115bc565b9350611be08185602086016110ab565b611be9816110b9565b840191505092915050565b5f6040820190508181035f830152611c0c8185611bbc565b90508181036020830152611c208184611bbc565b90509392505050565b7f49500000000000000000000000000000000000000000000000000000000000005f82015250565b5f611c5d600283611ad6565b9150611c6882611c29565b600282019050919050565b5f611c7d82611c51565b9150819050919050565b7f55524c00000000000000000000000000000000000000000000000000000000005f82015250565b5f611cbb600383611ad6565b9150611cc682611c87565b600382019050919050565b5f611cdb82611caf565b9150819050919050565b7f48617368000000000000000000000000000000000000000000000000000000005f82015250565b5f611d19600483611ad6565b9150611d2482611ce5565b600482019050919050565b5f611d3982611d0d565b9150819050919050565b7f456d61696c0000000000000000000000000000000000000000000000000000005f82015250565b5f611d77600583611ad6565b9150611d8282611d43565b600582019050919050565b5f611d9782611d6b565b9150819050919050565b5f611dab82611033565b9150611db683611033565b9250828203905081811115611dce57611dcd611a62565b5b92915050565b5f611dde82611033565b9150611de983611033565b9250828201905080821115611e0157611e00611a62565b5b9291505056fea264697066735822122027bde8c126876ef5e6048254cd56da6f9e1e9fce6b3a2f2eb1198970276908dc64736f6c63430008190033",
					"opcodes": "PUSH1 0x80 PUSH1 0x40 MSTORE PUSH0 PUSH1 0x1 SSTORE CALLVALUE DUP1 ISZERO PUSH2 0x13 JUMPI PUSH0 DUP1 REVERT JUMPDEST POP PUSH1 0x2 DUP1 PUSH1 0x1 DUP2 SLOAD ADD DUP1 DUP3 SSTORE DUP1 SWAP2 POP POP PUSH1 0x1 SWAP1 SUB SWAP1 PUSH0 MSTORE PUSH1 0x20 PUSH0 KECCAK256 ADD PUSH0 PUSH1 0x40 MLOAD DUP1 PUSH1 0x40 ADD PUSH1 0x40 MSTORE DUP1 PUSH1 0x2 DUP2 MSTORE PUSH1 0x20 ADD PUSH32 0x4950000000000000000000000000000000000000000000000000000000000000 DUP2 MSTORE POP SWAP1 SWAP2 SWAP1 SWAP2 POP SWAP1 DUP2 PUSH2 0x77 SWAP2 SWAP1 PUSH2 0x3E3 JUMP JUMPDEST POP PUSH1 0x2 DUP1 PUSH1 0x1 DUP2 SLOAD ADD DUP1 DUP3 SSTORE DUP1 SWAP2 POP POP PUSH1 0x1 SWAP1 SUB SWAP1 PUSH0 MSTORE PUSH1 0x20 PUSH0 KECCAK256 ADD PUSH0 PUSH1 0x40 MLOAD DUP1 PUSH1 0x40 ADD PUSH1 0x40 MSTORE DUP1 PUSH1 0x3 DUP2 MSTORE PUSH1 0x20 ADD PUSH32 0x55524C0000000000000000000000000000000000000000000000000000000000 DUP2 MSTORE POP SWAP1 SWAP2 SWAP1 SWAP2 POP SWAP1 DUP2 PUSH2 0xDB SWAP2 SWAP1 PUSH2 0x3E3 JUMP JUMPDEST POP PUSH1 0x2 DUP1 PUSH1 0x1 DUP2 SLOAD ADD DUP1 DUP3 SSTORE DUP1 SWAP2 POP POP PUSH1 0x1 SWAP1 SUB SWAP1 PUSH0 MSTORE PUSH1 0x20 PUSH0 KECCAK256 ADD PUSH0 PUSH1 0x40 MLOAD DUP1 PUSH1 0x40 ADD PUSH1 0x40 MSTORE DUP1 PUSH1 0x4 DUP2 MSTORE PUSH1 0x20 ADD PUSH32 0x4861736800000000000000000000000000000000000000000000000000000000 DUP2 MSTORE POP SWAP1 SWAP2 SWAP1 SWAP2 POP SWAP1 DUP2 PUSH2 0x13F SWAP2 SWAP1 PUSH2 0x3E3 JUMP JUMPDEST POP PUSH1 0x2 DUP1 PUSH1 0x1 DUP2 SLOAD ADD DUP1 DUP3 SSTORE DUP1 SWAP2 POP POP PUSH1 0x1 SWAP1 SUB SWAP1 PUSH0 MSTORE PUSH1 0x20 PUSH0 KECCAK256 ADD PUSH0 PUSH1 0x40 MLOAD DUP1 PUSH1 0x40 ADD PUSH1 0x40 MSTORE DUP1 PUSH1 0x5 DUP2 MSTORE PUSH1 0x20 ADD PUSH32 0x456D61696C000000000000000000000000000000000000000000000000000000 DUP2 MSTORE POP SWAP1 SWAP2 SWAP1 SWAP2 POP SWAP1 DUP2 PUSH2 0x1A3 SWAP2 SWAP1 PUSH2 0x3E3 JUMP JUMPDEST POP PUSH2 0x4B2 JUMP JUMPDEST PUSH0 DUP2 MLOAD SWAP1 POP SWAP2 SWAP1 POP JUMP JUMPDEST PUSH32 0x4E487B7100000000000000000000000000000000000000000000000000000000 PUSH0 MSTORE PUSH1 0x41 PUSH1 0x4 MSTORE PUSH1 0x24 PUSH0 REVERT JUMPDEST PUSH32 0x4E487B7100000000000000000000000000000000000000000000000000000000 PUSH0 MSTORE PUSH1 0x22 PUSH1 0x4 MSTORE PUSH1 0x24 PUSH0 REVERT JUMPDEST PUSH0 PUSH1 0x2 DUP3 DIV SWAP1 POP PUSH1 0x1 DUP3 AND DUP1 PUSH2 0x224 JUMPI PUSH1 0x7F DUP3 AND SWAP2 POP JUMPDEST PUSH1 0x20 DUP3 LT DUP2 SUB PUSH2 0x237 JUMPI PUSH2 0x236 PUSH2 0x1E0 JUMP JUMPDEST JUMPDEST POP SWAP2 SWAP1 POP JUMP JUMPDEST PUSH0 DUP2 SWAP1 POP DUP2 PUSH0 MSTORE PUSH1 0x20 PUSH0 KECCAK256 SWAP1 POP SWAP2 SWAP1 POP JUMP JUMPDEST PUSH0 PUSH1 0x20 PUSH1 0x1F DUP4 ADD DIV SWAP1 POP SWAP2 SWAP1 POP JUMP JUMPDEST PUSH0 DUP3 DUP3 SHL SWAP1 POP SWAP3 SWAP2 POP POP JUMP JUMPDEST PUSH0 PUSH1 0x8 DUP4 MUL PUSH2 0x299 PUSH32 0xFFFFFFFFFFFFFFFFFFFFFFFFFFFFFFFFFFFFFFFFFFFFFFFFFFFFFFFFFFFFFFFF DUP3 PUSH2 0x25E JUMP JUMPDEST PUSH2 0x2A3 DUP7 DUP4 PUSH2 0x25E JUMP JUMPDEST SWAP6 POP DUP1 NOT DUP5 AND SWAP4 POP DUP1 DUP7 AND DUP5 OR SWAP3 POP POP POP SWAP4 SWAP3 POP POP POP JUMP JUMPDEST PUSH0 DUP2 SWAP1 POP SWAP2 SWAP1 POP JUMP JUMPDEST PUSH0 DUP2 SWAP1 POP SWAP2 SWAP1 POP JUMP JUMPDEST PUSH0 PUSH2 0x2E7 PUSH2 0x2E2 PUSH2 0x2DD DUP5 PUSH2 0x2BB JUMP JUMPDEST PUSH2 0x2C4 JUMP JUMPDEST PUSH2 0x2BB JUMP JUMPDEST SWAP1 POP SWAP2 SWAP1 POP JUMP JUMPDEST PUSH0 DUP2 SWAP1 POP SWAP2 SWAP1 POP JUMP JUMPDEST PUSH2 0x300 DUP4 PUSH2 0x2CD JUMP JUMPDEST PUSH2 0x314 PUSH2 0x30C DUP3 PUSH2 0x2EE JUMP JUMPDEST DUP5 DUP5 SLOAD PUSH2 0x26A JUMP JUMPDEST DUP3 SSTORE POP POP POP POP JUMP JUMPDEST PUSH0 SWAP1 JUMP JUMPDEST PUSH2 0x328 PUSH2 0x31C JUMP JUMPDEST PUSH2 0x333 DUP2 DUP5 DUP5 PUSH2 0x2F7 JUMP JUMPDEST POP POP POP JUMP JUMPDEST JUMPDEST DUP2 DUP2 LT ISZERO PUSH2 0x356 JUMPI PUSH2 0x34B PUSH0 DUP3 PUSH2 0x320 JUMP JUMPDEST PUSH1 0x1 DUP2 ADD SWAP1 POP PUSH2 0x339 JUMP JUMPDEST POP POP JUMP JUMPDEST PUSH1 0x1F DUP3 GT ISZERO PUSH2 0x39B JUMPI PUSH2 0x36C DUP2 PUSH2 0x23D JUMP JUMPDEST PUSH2 0x375 DUP5 PUSH2 0x24F JUMP JUMPDEST DUP2 ADD PUSH1 0x20 DUP6 LT ISZERO PUSH2 0x384 JUMPI DUP2 SWAP1 POP JUMPDEST PUSH2 0x398 PUSH2 0x390 DUP6 PUSH2 0x24F JUMP JUMPDEST DUP4 ADD DUP3 PUSH2 0x338 JUMP JUMPDEST POP POP JUMPDEST POP POP POP JUMP JUMPDEST PUSH0 DUP3 DUP3 SHR SWAP1 POP SWAP3 SWAP2 POP POP JUMP JUMPDEST PUSH0 PUSH2 0x3BB PUSH0 NOT DUP5 PUSH1 0x8 MUL PUSH2 0x3A0 JUMP JUMPDEST NOT DUP1 DUP4 AND SWAP2 POP POP SWAP3 SWAP2 POP POP JUMP JUMPDEST PUSH0 PUSH2 0x3D3 DUP4 DUP4 PUSH2 0x3AC JUMP JUMPDEST SWAP2 POP DUP3 PUSH1 0x2 MUL DUP3 OR SWAP1 POP SWAP3 SWAP2 POP POP JUMP JUMPDEST PUSH2 0x3EC DUP3 PUSH2 0x1A9 JUMP JUMPDEST PUSH8 0xFFFFFFFFFFFFFFFF DUP2 GT ISZERO PUSH2 0x405 JUMPI PUSH2 0x404 PUSH2 0x1B3 JUMP JUMPDEST JUMPDEST PUSH2 0x40F DUP3 SLOAD PUSH2 0x20D JUMP JUMPDEST PUSH2 0x41A DUP3 DUP3 DUP6 PUSH2 0x35A JUMP JUMPDEST PUSH0 PUSH1 0x20 SWAP1 POP PUSH1 0x1F DUP4 GT PUSH1 0x1 DUP2 EQ PUSH2 0x44B JUMPI PUSH0 DUP5 ISZERO PUSH2 0x439 JUMPI DUP3 DUP8 ADD MLOAD SWAP1 POP JUMPDEST PUSH2 0x443 DUP6 DUP3 PUSH2 0x3C8 JUMP JUMPDEST DUP7 SSTORE POP PUSH2 0x4AA JUMP JUMPDEST PUSH1 0x1F NOT DUP5 AND PUSH2 0x459 DUP7 PUSH2 0x23D JUMP JUMPDEST PUSH0 JUMPDEST DUP3 DUP2 LT ISZERO PUSH2 0x480 JUMPI DUP5 DUP10 ADD MLOAD DUP3 SSTORE PUSH1 0x1 DUP3 ADD SWAP2 POP PUSH1 0x20 DUP6 ADD SWAP5 POP PUSH1 0x20 DUP2 ADD SWAP1 POP PUSH2 0x45B JUMP JUMPDEST DUP7 DUP4 LT ISZERO PUSH2 0x49D JUMPI DUP5 DUP10 ADD MLOAD PUSH2 0x499 PUSH1 0x1F DUP10 AND DUP3 PUSH2 0x3AC JUMP JUMPDEST DUP4 SSTORE POP JUMPDEST PUSH1 0x1 PUSH1 0x2 DUP9 MUL ADD DUP9 SSTORE POP POP POP JUMPDEST POP POP POP POP POP POP JUMP JUMPDEST PUSH2 0x1E3D DUP1 PUSH2 0x4BF PUSH0 CODECOPY PUSH0 RETURN INVALID PUSH1 0x80 PUSH1 0x40 MSTORE CALLVALUE DUP1 ISZERO PUSH2 0xF JUMPI PUSH0 DUP1 REVERT JUMPDEST POP PUSH1 0x4 CALLDATASIZE LT PUSH2 0x7B JUMPI PUSH0 CALLDATALOAD PUSH1 0xE0 SHR DUP1 PUSH4 0x9290AAA2 GT PUSH2 0x59 JUMPI DUP1 PUSH4 0x9290AAA2 EQ PUSH2 0xE9 JUMPI DUP1 PUSH4 0xCCD666D2 EQ PUSH2 0x105 JUMPI DUP1 PUSH4 0xE8E46333 EQ PUSH2 0x121 JUMPI DUP1 PUSH4 0xF6B7AF94 EQ PUSH2 0x151 JUMPI PUSH2 0x7B JUMP JUMPDEST DUP1 PUSH4 0x390B6116 EQ PUSH2 0x7F JUMPI DUP1 PUSH4 0x55F40BA9 EQ PUSH2 0xAF JUMPI DUP1 PUSH4 0x6143A4EC EQ PUSH2 0xCD JUMPI JUMPDEST PUSH0 DUP1 REVERT JUMPDEST PUSH2 0x99 PUSH1 0x4 DUP1 CALLDATASIZE SUB DUP2 ADD SWAP1 PUSH2 0x94 SWAP2 SWAP1 PUSH2 0x1066 JUMP JUMPDEST PUSH2 0x16D JUMP JUMPDEST PUSH1 0x40 MLOAD PUSH2 0xA6 SWAP2 SWAP1 PUSH2 0x11B6 JUMP JUMPDEST PUSH1 0x40 MLOAD DUP1 SWAP2 SUB SWAP1 RETURN JUMPDEST PUSH2 0xB7 PUSH2 0x359 JUMP JUMPDEST PUSH1 0x40 MLOAD PUSH2 0xC4 SWAP2 SWAP1 PUSH2 0x12F8 JUMP JUMPDEST PUSH1 0x40 MLOAD DUP1 SWAP2 SUB SWAP1 RETURN JUMPDEST PUSH2 0xE7 PUSH1 0x4 DUP1 CALLDATASIZE SUB DUP2 ADD SWAP1 PUSH2 0xE2 SWAP2 SWAP1 PUSH2 0x1444 JUMP JUMPDEST PUSH2 0x5E8 JUMP JUMPDEST STOP JUMPDEST PUSH2 0x103 PUSH1 0x4 DUP1 CALLDATASIZE SUB DUP2 ADD SWAP1 PUSH2 0xFE SWAP2 SWAP1 PUSH2 0x148B JUMP JUMPDEST PUSH2 0x61D JUMP JUMPDEST STOP JUMPDEST PUSH2 0x11F PUSH1 0x4 DUP1 CALLDATASIZE SUB DUP2 ADD SWAP1 PUSH2 0x11A SWAP2 SWAP1 PUSH2 0x1066 JUMP JUMPDEST PUSH2 0x7DD JUMP JUMPDEST STOP JUMPDEST PUSH2 0x13B PUSH1 0x4 DUP1 CALLDATASIZE SUB DUP2 ADD SWAP1 PUSH2 0x136 SWAP2 SWAP1 PUSH2 0x1444 JUMP JUMPDEST PUSH2 0x8AE JUMP JUMPDEST PUSH1 0x40 MLOAD PUSH2 0x148 SWAP2 SWAP1 PUSH2 0x151B JUMP JUMPDEST PUSH1 0x40 MLOAD DUP1 SWAP2 SUB SWAP1 RETURN JUMPDEST PUSH2 0x16B PUSH1 0x4 DUP1 CALLDATASIZE SUB DUP2 ADD SWAP1 PUSH2 0x166 SWAP2 SWAP1 PUSH2 0x1534 JUMP JUMPDEST PUSH2 0x944 JUMP JUMPDEST STOP JUMPDEST PUSH2 0x175 PUSH2 0xF8E JUMP JUMPDEST PUSH1 0x1 SLOAD DUP3 LT PUSH2 0x1B9 JUMPI PUSH1 0x40 MLOAD PUSH32 0x8C379A000000000000000000000000000000000000000000000000000000000 DUP2 MSTORE PUSH1 0x4 ADD PUSH2 0x1B0 SWAP1 PUSH2 0x1616 JUMP JUMPDEST PUSH1 0x40 MLOAD DUP1 SWAP2 SUB SWAP1 REVERT JUMPDEST PUSH0 DUP1 DUP4 DUP2 MSTORE PUSH1 0x20 ADD SWAP1 DUP2 MSTORE PUSH1 0x20 ADD PUSH0 KECCAK256 PUSH1 0x40 MLOAD DUP1 PUSH1 0x80 ADD PUSH1 0x40 MSTORE SWAP1 DUP2 PUSH0 DUP3 ADD DUP1 SLOAD PUSH2 0x1E3 SWAP1 PUSH2 0x1661 JUMP JUMPDEST DUP1 PUSH1 0x1F ADD PUSH1 0x20 DUP1 SWAP2 DIV MUL PUSH1 0x20 ADD PUSH1 0x40 MLOAD SWAP1 DUP2 ADD PUSH1 0x40 MSTORE DUP1 SWAP3 SWAP2 SWAP1 DUP2 DUP2 MSTORE PUSH1 0x20 ADD DUP3 DUP1 SLOAD PUSH2 0x20F SWAP1 PUSH2 0x1661 JUMP JUMPDEST DUP1 ISZERO PUSH2 0x25A JUMPI DUP1 PUSH1 0x1F LT PUSH2 0x231 JUMPI PUSH2 0x100 DUP1 DUP4 SLOAD DIV MUL DUP4 MSTORE SWAP2 PUSH1 0x20 ADD SWAP2 PUSH2 0x25A JUMP JUMPDEST DUP3 ADD SWAP2 SWAP1 PUSH0 MSTORE PUSH1 0x20 PUSH0 KECCAK256 SWAP1 JUMPDEST DUP2 SLOAD DUP2 MSTORE SWAP1 PUSH1 0x1 ADD SWAP1 PUSH1 0x20 ADD DUP1 DUP4 GT PUSH2 0x23D JUMPI DUP3 SWAP1 SUB PUSH1 0x1F AND DUP3 ADD SWAP2 JUMPDEST POP POP POP POP POP DUP2 MSTORE PUSH1 0x20 ADD PUSH1 0x1 DUP3 ADD DUP1 SLOAD PUSH2 0x273 SWAP1 PUSH2 0x1661 JUMP JUMPDEST DUP1 PUSH1 0x1F ADD PUSH1 0x20 DUP1 SWAP2 DIV MUL PUSH1 0x20 ADD PUSH1 0x40 MLOAD SWAP1 DUP2 ADD PUSH1 0x40 MSTORE DUP1 SWAP3 SWAP2 SWAP1 DUP2 DUP2 MSTORE PUSH1 0x20 ADD DUP3 DUP1 SLOAD PUSH2 0x29F SWAP1 PUSH2 0x1661 JUMP JUMPDEST DUP1 ISZERO PUSH2 0x2EA JUMPI DUP1 PUSH1 0x1F LT PUSH2 0x2C1 JUMPI PUSH2 0x100 DUP1 DUP4 SLOAD DIV MUL DUP4 MSTORE SWAP2 PUSH1 0x20 ADD SWAP2 PUSH2 0x2EA JUMP JUMPDEST DUP3 ADD SWAP2 SWAP1 PUSH0 MSTORE PUSH1 0x20 PUSH0 KECCAK256 SWAP1 JUMPDEST DUP2 SLOAD DUP2 MSTORE SWAP1 PUSH1 0x1 ADD SWAP1 PUSH1 0x20 ADD DUP1 DUP4 GT PUSH2 0x2CD JUMPI DUP3 SWAP1 SUB PUSH1 0x1F AND DUP3 ADD SWAP2 JUMPDEST POP POP POP POP POP DUP2 MSTORE PUSH1 0x20 ADD PUSH1 0x2 DUP3 ADD PUSH0 SWAP1 SLOAD SWAP1 PUSH2 0x100 EXP SWAP1 DIV PUSH20 0xFFFFFFFFFFFFFFFFFFFFFFFFFFFFFFFFFFFFFFFF AND PUSH20 0xFFFFFFFFFFFFFFFFFFFFFFFFFFFFFFFFFFFFFFFF AND PUSH20 0xFFFFFFFFFFFFFFFFFFFFFFFFFFFFFFFFFFFFFFFF AND DUP2 MSTORE PUSH1 0x20 ADD PUSH1 0x3 DUP3 ADD SLOAD DUP2 MSTORE POP POP SWAP1 POP SWAP2 SWAP1 POP JUMP JUMPDEST PUSH1 0x60 PUSH0 PUSH1 0x1 SLOAD PUSH8 0xFFFFFFFFFFFFFFFF DUP2 GT ISZERO PUSH2 0x378 JUMPI PUSH2 0x377 PUSH2 0x1320 JUMP JUMPDEST JUMPDEST PUSH1 0x40 MLOAD SWAP1 DUP1 DUP3 MSTORE DUP1 PUSH1 0x20 MUL PUSH1 0x20 ADD DUP3 ADD PUSH1 0x40 MSTORE DUP1 ISZERO PUSH2 0x3B1 JUMPI DUP2 PUSH1 0x20 ADD JUMPDEST PUSH2 0x39E PUSH2 0xF8E JUMP JUMPDEST DUP2 MSTORE PUSH1 0x20 ADD SWAP1 PUSH1 0x1 SWAP1 SUB SWAP1 DUP2 PUSH2 0x396 JUMPI SWAP1 POP JUMPDEST POP SWAP1 POP PUSH0 JUMPDEST PUSH1 0x1 SLOAD DUP2 LT ISZERO PUSH2 0x5E0 JUMPI PUSH0 DUP1 PUSH0 DUP4 DUP2 MSTORE PUSH1 0x20 ADD SWAP1 DUP2 MSTORE PUSH1 0x20 ADD PUSH0 KECCAK256 SWAP1 POP PUSH0 PUSH20 0xFFFFFFFFFFFFFFFFFFFFFFFFFFFFFFFFFFFFFFFF AND DUP2 PUSH1 0x2 ADD PUSH0 SWAP1 SLOAD SWAP1 PUSH2 0x100 EXP SWAP1 DIV PUSH20 0xFFFFFFFFFFFFFFFFFFFFFFFFFFFFFFFFFFFFFFFF AND PUSH20 0xFFFFFFFFFFFFFFFFFFFFFFFFFFFFFFFFFFFFFFFF AND EQ PUSH2 0x5D2 JUMPI DUP1 PUSH1 0x40 MLOAD DUP1 PUSH1 0x80 ADD PUSH1 0x40 MSTORE SWAP1 DUP2 PUSH0 DUP3 ADD DUP1 SLOAD PUSH2 0x444 SWAP1 PUSH2 0x1661 JUMP JUMPDEST DUP1 PUSH1 0x1F ADD PUSH1 0x20 DUP1 SWAP2 DIV MUL PUSH1 0x20 ADD PUSH1 0x40 MLOAD SWAP1 DUP2 ADD PUSH1 0x40 MSTORE DUP1 SWAP3 SWAP2 SWAP1 DUP2 DUP2 MSTORE PUSH1 0x20 ADD DUP3 DUP1 SLOAD PUSH2 0x470 SWAP1 PUSH2 0x1661 JUMP JUMPDEST DUP1 ISZERO PUSH2 0x4BB JUMPI DUP1 PUSH1 0x1F LT PUSH2 0x492 JUMPI PUSH2 0x100 DUP1 DUP4 SLOAD DIV MUL DUP4 MSTORE SWAP2 PUSH1 0x20 ADD SWAP2 PUSH2 0x4BB JUMP JUMPDEST DUP3 ADD SWAP2 SWAP1 PUSH0 MSTORE PUSH1 0x20 PUSH0 KECCAK256 SWAP1 JUMPDEST DUP2 SLOAD DUP2 MSTORE SWAP1 PUSH1 0x1 ADD SWAP1 PUSH1 0x20 ADD DUP1 DUP4 GT PUSH2 0x49E JUMPI DUP3 SWAP1 SUB PUSH1 0x1F AND DUP3 ADD SWAP2 JUMPDEST POP POP POP POP POP DUP2 MSTORE PUSH1 0x20 ADD PUSH1 0x1 DUP3 ADD DUP1 SLOAD PUSH2 0x4D4 SWAP1 PUSH2 0x1661 JUMP JUMPDEST DUP1 PUSH1 0x1F ADD PUSH1 0x20 DUP1 SWAP2 DIV MUL PUSH1 0x20 ADD PUSH1 0x40 MLOAD SWAP1 DUP2 ADD PUSH1 0x40 MSTORE DUP1 SWAP3 SWAP2 SWAP1 DUP2 DUP2 MSTORE PUSH1 0x20 ADD DUP3 DUP1 SLOAD PUSH2 0x500 SWAP1 PUSH2 0x1661 JUMP JUMPDEST DUP1 ISZERO PUSH2 0x54B JUMPI DUP1 PUSH1 0x1F LT PUSH2 0x522 JUMPI PUSH2 0x100 DUP1 DUP4 SLOAD DIV MUL DUP4 MSTORE SWAP2 PUSH1 0x20 ADD SWAP2 PUSH2 0x54B JUMP JUMPDEST DUP3 ADD SWAP2 SWAP1 PUSH0 MSTORE PUSH1 0x20 PUSH0 KECCAK256 SWAP1 JUMPDEST DUP2 SLOAD DUP2 MSTORE SWAP1 PUSH1 0x1 ADD SWAP1 PUSH1 0x20 ADD DUP1 DUP4 GT PUSH2 0x52E JUMPI DUP3 SWAP1 SUB PUSH1 0x1F AND DUP3 ADD SWAP2 JUMPDEST POP POP POP POP POP DUP2 MSTORE PUSH1 0x20 ADD PUSH1 0x2 DUP3 ADD PUSH0 SWAP1 SLOAD SWAP1 PUSH2 0x100 EXP SWAP1 DIV PUSH20 0xFFFFFFFFFFFFFFFFFFFFFFFFFFFFFFFFFFFFFFFF AND PUSH20 0xFFFFFFFFFFFFFFFFFFFFFFFFFFFFFFFFFFFFFFFF AND PUSH20 0xFFFFFFFFFFFFFFFFFFFFFFFFFFFFFFFFFFFFFFFF AND DUP2 MSTORE PUSH1 0x20 ADD PUSH1 0x3 DUP3 ADD SLOAD DUP2 MSTORE POP POP DUP4 DUP4 DUP2 MLOAD DUP2 LT PUSH2 0x5C6 JUMPI PUSH2 0x5C5 PUSH2 0x1691 JUMP JUMPDEST JUMPDEST PUSH1 0x20 MUL PUSH1 0x20 ADD ADD DUP2 SWAP1 MSTORE POP JUMPDEST POP DUP1 DUP1 PUSH1 0x1 ADD SWAP2 POP POP PUSH2 0x3B6 JUMP JUMPDEST POP DUP1 SWAP2 POP POP SWAP1 JUMP JUMPDEST PUSH1 0x2 DUP2 SWAP1 DUP1 PUSH1 0x1 DUP2 SLOAD ADD DUP1 DUP3 SSTORE DUP1 SWAP2 POP POP PUSH1 0x1 SWAP1 SUB SWAP1 PUSH0 MSTORE PUSH1 0x20 PUSH0 KECCAK256 ADD PUSH0 SWAP1 SWAP2 SWAP1 SWAP2 SWAP1 SWAP2 POP SWAP1 DUP2 PUSH2 0x619 SWAP2 SWAP1 PUSH2 0x185B JUMP JUMPDEST POP POP JUMP JUMPDEST PUSH2 0x626 DUP3 PUSH2 0xAD8 JUMP JUMPDEST PUSH2 0x665 JUMPI PUSH1 0x40 MLOAD PUSH32 0x8C379A000000000000000000000000000000000000000000000000000000000 DUP2 MSTORE PUSH1 0x4 ADD PUSH2 0x65C SWAP1 PUSH2 0x1974 JUMP JUMPDEST PUSH1 0x40 MLOAD DUP1 SWAP2 SUB SWAP1 REVERT JUMPDEST PUSH2 0x66F DUP3 DUP3 PUSH2 0xB7A JUMP JUMPDEST PUSH2 0x6AE JUMPI PUSH1 0x40 MLOAD PUSH32 0x8C379A000000000000000000000000000000000000000000000000000000000 DUP2 MSTORE PUSH1 0x4 ADD PUSH2 0x6A5 SWAP1 PUSH2 0x19DC JUMP JUMPDEST PUSH1 0x40 MLOAD DUP1 SWAP2 SUB SWAP1 REVERT JUMPDEST PUSH2 0x6B7 DUP2 PUSH2 0x8AE JUMP JUMPDEST ISZERO PUSH2 0x6F7 JUMPI PUSH1 0x40 MLOAD PUSH32 0x8C379A000000000000000000000000000000000000000000000000000000000 DUP2 MSTORE PUSH1 0x4 ADD PUSH2 0x6EE SWAP1 PUSH2 0x1A44 JUMP JUMPDEST PUSH1 0x40 MLOAD DUP1 SWAP2 SUB SWAP1 REVERT JUMPDEST PUSH0 PUSH1 0x40 MLOAD DUP1 PUSH1 0x80 ADD PUSH1 0x40 MSTORE DUP1 DUP5 DUP2 MSTORE PUSH1 0x20 ADD DUP4 DUP2 MSTORE PUSH1 0x20 ADD CALLER PUSH20 0xFFFFFFFFFFFFFFFFFFFFFFFFFFFFFFFFFFFFFFFF AND DUP2 MSTORE PUSH1 0x20 ADD TIMESTAMP DUP2 MSTORE POP SWAP1 POP DUP1 PUSH0 DUP1 PUSH1 0x1 SLOAD DUP2 MSTORE PUSH1 0x20 ADD SWAP1 DUP2 MSTORE PUSH1 0x20 ADD PUSH0 KECCAK256 PUSH0 DUP3 ADD MLOAD DUP2 PUSH0 ADD SWAP1 DUP2 PUSH2 0x757 SWAP2 SWAP1 PUSH2 0x185B JUMP JUMPDEST POP PUSH1 0x20 DUP3 ADD MLOAD DUP2 PUSH1 0x1 ADD SWAP1 DUP2 PUSH2 0x76D SWAP2 SWAP1 PUSH2 0x185B JUMP JUMPDEST POP PUSH1 0x40 DUP3 ADD MLOAD DUP2 PUSH1 0x2 ADD PUSH0 PUSH2 0x100 EXP DUP2 SLOAD DUP2 PUSH20 0xFFFFFFFFFFFFFFFFFFFFFFFFFFFFFFFFFFFFFFFF MUL NOT AND SWAP1 DUP4 PUSH20 0xFFFFFFFFFFFFFFFFFFFFFFFFFFFFFFFFFFFFFFFF AND MUL OR SWAP1 SSTORE POP PUSH1 0x60 DUP3 ADD MLOAD DUP2 PUSH1 0x3 ADD SSTORE SWAP1 POP POP PUSH1 0x1 PUSH0 DUP2 SLOAD DUP1 SWAP3 SWAP2 SWAP1 PUSH2 0x7D3 SWAP1 PUSH2 0x1A8F JUMP JUMPDEST SWAP2 SWAP1 POP SSTORE POP POP POP POP JUMP JUMPDEST PUSH1 0x1 SLOAD DUP2 LT PUSH2 0x821 JUMPI PUSH1 0x40 MLOAD PUSH32 0x8C379A000000000000000000000000000000000000000000000000000000000 DUP2 MSTORE PUSH1 0x4 ADD PUSH2 0x818 SWAP1 PUSH2 0x1616 JUMP JUMPDEST PUSH1 0x40 MLOAD DUP1 SWAP2 SUB SWAP1 REVERT JUMPDEST PUSH0 DUP1 DUP3 DUP2 MSTORE PUSH1 0x20 ADD SWAP1 DUP2 MSTORE PUSH1 0x20 ADD PUSH0 KECCAK256 PUSH0 DUP1 DUP3 ADD PUSH0 PUSH2 0x840 SWAP2 SWAP1 PUSH2 0xFCA JUMP JUMPDEST PUSH1 0x1 DUP3 ADD PUSH0 PUSH2 0x84F SWAP2 SWAP1 PUSH2 0xFCA JUMP JUMPDEST PUSH1 0x2 DUP3 ADD PUSH0 PUSH2 0x100 EXP DUP2 SLOAD SWAP1 PUSH20 0xFFFFFFFFFFFFFFFFFFFFFFFFFFFFFFFFFFFFFFFF MUL NOT AND SWAP1 SSTORE PUSH1 0x3 DUP3 ADD PUSH0 SWAP1 SSTORE POP POP DUP1 PUSH32 0xECE49E958A603088B69DF25DBED8FA3DEF065BADCD84C0FD126F55D875B3E204 PUSH1 0x40 MLOAD PUSH1 0x40 MLOAD DUP1 SWAP2 SUB SWAP1 LOG2 POP JUMP JUMPDEST PUSH0 DUP1 PUSH0 SWAP1 POP JUMPDEST PUSH1 0x1 SLOAD DUP2 LT ISZERO PUSH2 0x93A JUMPI DUP3 PUSH1 0x40 MLOAD PUSH1 0x20 ADD PUSH2 0x8CF SWAP2 SWAP1 PUSH2 0x1B10 JUMP JUMPDEST PUSH1 0x40 MLOAD PUSH1 0x20 DUP2 DUP4 SUB SUB DUP2 MSTORE SWAP1 PUSH1 0x40 MSTORE DUP1 MLOAD SWAP1 PUSH1 0x20 ADD KECCAK256 PUSH0 DUP1 DUP4 DUP2 MSTORE PUSH1 0x20 ADD SWAP1 DUP2 MSTORE PUSH1 0x20 ADD PUSH0 KECCAK256 PUSH1 0x1 ADD PUSH1 0x40 MLOAD PUSH1 0x20 ADD PUSH2 0x908 SWAP2 SWAP1 PUSH2 0x1BA6 JUMP JUMPDEST PUSH1 0x40 MLOAD PUSH1 0x20 DUP2 DUP4 SUB SUB DUP2 MSTORE SWAP1 PUSH1 0x40 MSTORE DUP1 MLOAD SWAP1 PUSH1 0x20 ADD KECCAK256 SUB PUSH2 0x92D JUMPI PUSH1 0x1 SWAP2 POP POP PUSH2 0x93F JUMP JUMPDEST DUP1 DUP1 PUSH1 0x1 ADD SWAP2 POP POP PUSH2 0x8B4 JUMP JUMPDEST POP PUSH0 SWAP1 POP JUMPDEST SWAP2 SWAP1 POP JUMP JUMPDEST PUSH1 0x1 SLOAD DUP4 LT PUSH2 0x988 JUMPI PUSH1 0x40 MLOAD PUSH32 0x8C379A000000000000000000000000000000000000000000000000000000000 DUP2 MSTORE PUSH1 0x4 ADD PUSH2 0x97F SWAP1 PUSH2 0x1616 JUMP JUMPDEST PUSH1 0x40 MLOAD DUP1 SWAP2 SUB SWAP1 REVERT JUMPDEST PUSH2 0x991 DUP3 PUSH2 0xAD8 JUMP JUMPDEST PUSH2 0x9D0 JUMPI PUSH1 0x40 MLOAD PUSH32 0x8C379A000000000000000000000000000000000000000000000000000000000 DUP2 MSTORE PUSH1 0x4 ADD PUSH2 0x9C7 SWAP1 PUSH2 0x1974 JUMP JUMPDEST PUSH1 0x40 MLOAD DUP1 SWAP2 SUB SWAP1 REVERT JUMPDEST PUSH2 0x9DA DUP3 DUP3 PUSH2 0xB7A JUMP JUMPDEST PUSH2 0xA19 JUMPI PUSH1 0x40 MLOAD PUSH32 0x8C379A000000000000000000000000000000000000000000000000000000000 DUP2 MSTORE PUSH1 0x4 ADD PUSH2 0xA10 SWAP1 PUSH2 0x19DC JUMP JUMPDEST PUSH1 0x40 MLOAD DUP1 SWAP2 SUB SWAP1 REVERT JUMPDEST PUSH2 0xA22 DUP2 PUSH2 0x8AE JUMP JUMPDEST ISZERO PUSH2 0xA62 JUMPI PUSH1 0x40 MLOAD PUSH32 0x8C379A000000000000000000000000000000000000000000000000000000000 DUP2 MSTORE PUSH1 0x4 ADD PUSH2 0xA59 SWAP1 PUSH2 0x1A44 JUMP JUMPDEST PUSH1 0x40 MLOAD DUP1 SWAP2 SUB SWAP1 REVERT JUMPDEST PUSH0 DUP1 PUSH0 DUP6 DUP2 MSTORE PUSH1 0x20 ADD SWAP1 DUP2 MSTORE PUSH1 0x20 ADD PUSH0 KECCAK256 SWAP1 POP DUP3 DUP2 PUSH0 ADD SWAP1 DUP2 PUSH2 0xA85 SWAP2 SWAP1 PUSH2 0x185B JUMP JUMPDEST POP DUP2 DUP2 PUSH1 0x1 ADD SWAP1 DUP2 PUSH2 0xA97 SWAP2 SWAP1 PUSH2 0x185B JUMP JUMPDEST POP DUP4 PUSH32 0x9893F2F232E4AB0D3D56384866504B1D510AFFB204A862B80A809CDEB61079DB DUP5 DUP5 PUSH1 0x40 MLOAD PUSH2 0xACA SWAP3 SWAP2 SWAP1 PUSH2 0x1BF4 JUMP JUMPDEST PUSH1 0x40 MLOAD DUP1 SWAP2 SUB SWAP1 LOG2 POP POP POP POP JUMP JUMPDEST PUSH0 DUP1 PUSH0 SWAP1 POP JUMPDEST PUSH1 0x2 DUP1 SLOAD SWAP1 POP DUP2 LT ISZERO PUSH2 0xB70 JUMPI PUSH1 0x2 DUP2 DUP2 SLOAD DUP2 LT PUSH2 0xAFF JUMPI PUSH2 0xAFE PUSH2 0x1691 JUMP JUMPDEST JUMPDEST SWAP1 PUSH0 MSTORE PUSH1 0x20 PUSH0 KECCAK256 ADD PUSH1 0x40 MLOAD PUSH1 0x20 ADD PUSH2 0xB17 SWAP2 SWAP1 PUSH2 0x1BA6 JUMP JUMPDEST PUSH1 0x40 MLOAD PUSH1 0x20 DUP2 DUP4 SUB SUB DUP2 MSTORE SWAP1 PUSH1 0x40 MSTORE DUP1 MLOAD SWAP1 PUSH1 0x20 ADD KECCAK256 DUP4 PUSH1 0x40 MLOAD PUSH1 0x20 ADD PUSH2 0xB3E SWAP2 SWAP1 PUSH2 0x1B10 JUMP JUMPDEST PUSH1 0x40 MLOAD PUSH1 0x20 DUP2 DUP4 SUB SUB DUP2 MSTORE SWAP1 PUSH1 0x40 MSTORE DUP1 MLOAD SWAP1 PUSH1 0x20 ADD KECCAK256 SUB PUSH2 0xB63 JUMPI PUSH1 0x1 SWAP2 POP POP PUSH2 0xB75 JUMP JUMPDEST DUP1 DUP1 PUSH1 0x1 ADD SWAP2 POP POP PUSH2 0xADE JUMP JUMPDEST POP PUSH0 SWAP1 POP JUMPDEST SWAP2 SWAP1 POP JUMP JUMPDEST PUSH0 DUP1 DUP3 SWAP1 POP PUSH1 0x40 MLOAD PUSH1 0x20 ADD PUSH2 0xB8E SWAP1 PUSH2 0x1C73 JUMP JUMPDEST PUSH1 0x40 MLOAD PUSH1 0x20 DUP2 DUP4 SUB SUB DUP2 MSTORE SWAP1 PUSH1 0x40 MSTORE DUP1 MLOAD SWAP1 PUSH1 0x20 ADD KECCAK256 DUP5 PUSH1 0x40 MLOAD PUSH1 0x20 ADD PUSH2 0xBB5 SWAP2 SWAP1 PUSH2 0x1B10 JUMP JUMPDEST PUSH1 0x40 MLOAD PUSH1 0x20 DUP2 DUP4 SUB SUB DUP2 MSTORE SWAP1 PUSH1 0x40 MSTORE DUP1 MLOAD SWAP1 PUSH1 0x20 ADD KECCAK256 SUB PUSH2 0xC05 JUMPI PUSH1 0x3 PUSH2 0xBFC DUP3 PUSH32 0x2E00000000000000000000000000000000000000000000000000000000000000 PUSH2 0xDD2 JUMP JUMPDEST EQ SWAP2 POP POP PUSH2 0xDCC JUMP JUMPDEST PUSH1 0x40 MLOAD PUSH1 0x20 ADD PUSH2 0xC14 SWAP1 PUSH2 0x1CD1 JUMP JUMPDEST PUSH1 0x40 MLOAD PUSH1 0x20 DUP2 DUP4 SUB SUB DUP2 MSTORE SWAP1 PUSH1 0x40 MSTORE DUP1 MLOAD SWAP1 PUSH1 0x20 ADD KECCAK256 DUP5 PUSH1 0x40 MLOAD PUSH1 0x20 ADD PUSH2 0xC3B SWAP2 SWAP1 PUSH2 0x1B10 JUMP JUMPDEST PUSH1 0x40 MLOAD PUSH1 0x20 DUP2 DUP4 SUB SUB DUP2 MSTORE SWAP1 PUSH1 0x40 MSTORE DUP1 MLOAD SWAP1 PUSH1 0x20 ADD KECCAK256 SUB PUSH2 0xCE3 JUMPI PUSH2 0xC95 DUP4 PUSH1 0x40 MLOAD DUP1 PUSH1 0x40 ADD PUSH1 0x40 MSTORE DUP1 PUSH1 0x7 DUP2 MSTORE PUSH1 0x20 ADD PUSH32 0x687474703A2F2F00000000000000000000000000000000000000000000000000 DUP2 MSTORE POP PUSH2 0xE71 JUMP JUMPDEST DUP1 PUSH2 0xCDB JUMPI POP PUSH2 0xCDA DUP4 PUSH1 0x40 MLOAD DUP1 PUSH1 0x40 ADD PUSH1 0x40 MSTORE DUP1 PUSH1 0x8 DUP2 MSTORE PUSH1 0x20 ADD PUSH32 0x68747470733A2F2F000000000000000000000000000000000000000000000000 DUP2 MSTORE POP PUSH2 0xE71 JUMP JUMPDEST JUMPDEST SWAP2 POP POP PUSH2 0xDCC JUMP JUMPDEST PUSH1 0x40 MLOAD PUSH1 0x20 ADD PUSH2 0xCF2 SWAP1 PUSH2 0x1D2F JUMP JUMPDEST PUSH1 0x40 MLOAD PUSH1 0x20 DUP2 DUP4 SUB SUB DUP2 MSTORE SWAP1 PUSH1 0x40 MSTORE DUP1 MLOAD SWAP1 PUSH1 0x20 ADD KECCAK256 DUP5 PUSH1 0x40 MLOAD PUSH1 0x20 ADD PUSH2 0xD19 SWAP2 SWAP1 PUSH2 0x1B10 JUMP JUMPDEST PUSH1 0x40 MLOAD PUSH1 0x20 DUP2 DUP4 SUB SUB DUP2 MSTORE SWAP1 PUSH1 0x40 MSTORE DUP1 MLOAD SWAP1 PUSH1 0x20 ADD KECCAK256 SUB PUSH2 0xD41 JUMPI PUSH1 0x40 DUP2 MLOAD EQ SWAP2 POP POP PUSH2 0xDCC JUMP JUMPDEST PUSH1 0x40 MLOAD PUSH1 0x20 ADD PUSH2 0xD50 SWAP1 PUSH2 0x1D8D JUMP JUMPDEST PUSH1 0x40 MLOAD PUSH1 0x20 DUP2 DUP4 SUB SUB DUP2 MSTORE SWAP1 PUSH1 0x40 MSTORE DUP1 MLOAD SWAP1 PUSH1 0x20 ADD KECCAK256 DUP5 PUSH1 0x40 MLOAD PUSH1 0x20 ADD PUSH2 0xD77 SWAP2 SWAP1 PUSH2 0x1B10 JUMP JUMPDEST PUSH1 0x40 MLOAD PUSH1 0x20 DUP2 DUP4 SUB SUB DUP2 MSTORE SWAP1 PUSH1 0x40 MSTORE DUP1 MLOAD SWAP1 PUSH1 0x20 ADD KECCAK256 SUB PUSH2 0xDC7 JUMPI PUSH1 0x1 PUSH2 0xDBE DUP3 PUSH32 0x4000000000000000000000000000000000000000000000000000000000000000 PUSH2 0xDD2 JUMP JUMPDEST EQ SWAP2 POP POP PUSH2 0xDCC JUMP JUMPDEST PUSH0 SWAP2 POP POP JUMPDEST SWAP3 SWAP2 POP POP JUMP JUMPDEST PUSH0 DUP1 PUSH0 SWAP1 POP PUSH0 JUMPDEST DUP5 MLOAD DUP2 LT ISZERO PUSH2 0xE66 JUMPI DUP4 PUSH31 0xFFFFFFFFFFFFFFFFFFFFFFFFFFFFFFFFFFFFFFFFFFFFFFFFFFFFFFFFFFFFFF NOT AND DUP6 DUP3 DUP2 MLOAD DUP2 LT PUSH2 0xE18 JUMPI PUSH2 0xE17 PUSH2 0x1691 JUMP JUMPDEST JUMPDEST PUSH1 0x20 ADD ADD MLOAD PUSH1 0xF8 SHR PUSH1 0xF8 SHL PUSH31 0xFFFFFFFFFFFFFFFFFFFFFFFFFFFFFFFFFFFFFFFFFFFFFFFFFFFFFFFFFFFFFF NOT AND SUB PUSH2 0xE59 JUMPI DUP2 DUP1 PUSH2 0xE55 SWAP1 PUSH2 0x1A8F JUMP JUMPDEST SWAP3 POP POP JUMPDEST DUP1 DUP1 PUSH1 0x1 ADD SWAP2 POP POP PUSH2 0xDD9 JUMP JUMPDEST POP DUP1 SWAP2 POP POP SWAP3 SWAP2 POP POP JUMP JUMPDEST PUSH0 DUP1 DUP4 SWAP1 POP PUSH0 DUP4 SWAP1 POP DUP1 MLOAD DUP3 MLOAD LT ISZERO PUSH2 0xE8E JUMPI PUSH0 SWAP3 POP POP POP PUSH2 0xF88 JUMP JUMPDEST PUSH0 JUMPDEST DUP2 MLOAD DUP4 MLOAD PUSH2 0xE9E SWAP2 SWAP1 PUSH2 0x1DA1 JUMP JUMPDEST DUP2 GT PUSH2 0xF81 JUMPI PUSH0 PUSH1 0x1 SWAP1 POP PUSH0 JUMPDEST DUP4 MLOAD DUP2 LT ISZERO PUSH2 0xF59 JUMPI DUP4 DUP2 DUP2 MLOAD DUP2 LT PUSH2 0xEC7 JUMPI PUSH2 0xEC6 PUSH2 0x1691 JUMP JUMPDEST JUMPDEST PUSH1 0x20 ADD ADD MLOAD PUSH1 0xF8 SHR PUSH1 0xF8 SHL PUSH31 0xFFFFFFFFFFFFFFFFFFFFFFFFFFFFFFFFFFFFFFFFFFFFFFFFFFFFFFFFFFFFFF NOT AND DUP6 DUP3 DUP6 PUSH2 0xF01 SWAP2 SWAP1 PUSH2 0x1DD4 JUMP JUMPDEST DUP2 MLOAD DUP2 LT PUSH2 0xF12 JUMPI PUSH2 0xF11 PUSH2 0x1691 JUMP JUMPDEST JUMPDEST PUSH1 0x20 ADD ADD MLOAD PUSH1 0xF8 SHR PUSH1 0xF8 SHL PUSH31 0xFFFFFFFFFFFFFFFFFFFFFFFFFFFFFFFFFFFFFFFFFFFFFFFFFFFFFFFFFFFFFF NOT AND EQ PUSH2 0xF4C JUMPI PUSH0 SWAP2 POP PUSH2 0xF59 JUMP JUMPDEST DUP1 DUP1 PUSH1 0x1 ADD SWAP2 POP POP PUSH2 0xEAB JUMP JUMPDEST POP DUP1 ISZERO PUSH2 0xF6D JUMPI PUSH1 0x1 SWAP5 POP POP POP POP POP PUSH2 0xF88 JUMP JUMPDEST POP DUP1 DUP1 PUSH2 0xF79 SWAP1 PUSH2 0x1A8F JUMP JUMPDEST SWAP2 POP POP PUSH2 0xE90 JUMP JUMPDEST POP PUSH0 SWAP3 POP POP POP JUMPDEST SWAP3 SWAP2 POP POP JUMP JUMPDEST PUSH1 0x40 MLOAD DUP1 PUSH1 0x80 ADD PUSH1 0x40 MSTORE DUP1 PUSH1 0x60 DUP2 MSTORE PUSH1 0x20 ADD PUSH1 0x60 DUP2 MSTORE PUSH1 0x20 ADD PUSH0 PUSH20 0xFFFFFFFFFFFFFFFFFFFFFFFFFFFFFFFFFFFFFFFF AND DUP2 MSTORE PUSH1 0x20 ADD PUSH0 DUP2 MSTORE POP SWAP1 JUMP JUMPDEST POP DUP1 SLOAD PUSH2 0xFD6 SWAP1 PUSH2 0x1661 JUMP JUMPDEST PUSH0 DUP3 SSTORE DUP1 PUSH1 0x1F LT PUSH2 0xFE7 JUMPI POP PUSH2 0x1004 JUMP JUMPDEST PUSH1 0x1F ADD PUSH1 0x20 SWAP1 DIV SWAP1 PUSH0 MSTORE PUSH1 0x20 PUSH0 KECCAK256 SWAP1 DUP2 ADD SWAP1 PUSH2 0x1003 SWAP2 SWAP1 PUSH2 0x1007 JUMP JUMPDEST JUMPDEST POP JUMP JUMPDEST JUMPDEST DUP1 DUP3 GT ISZERO PUSH2 0x101E JUMPI PUSH0 DUP2 PUSH0 SWAP1 SSTORE POP PUSH1 0x1 ADD PUSH2 0x1008 JUMP JUMPDEST POP SWAP1 JUMP JUMPDEST PUSH0 PUSH1 0x40 MLOAD SWAP1 POP SWAP1 JUMP JUMPDEST PUSH0 DUP1 REVERT JUMPDEST PUSH0 DUP1 REVERT JUMPDEST PUSH0 DUP2 SWAP1 POP SWAP2 SWAP1 POP JUMP JUMPDEST PUSH2 0x1045 DUP2 PUSH2 0x1033 JUMP JUMPDEST DUP2 EQ PUSH2 0x104F JUMPI PUSH0 DUP1 REVERT JUMPDEST POP JUMP JUMPDEST PUSH0 DUP2 CALLDATALOAD SWAP1 POP PUSH2 0x1060 DUP2 PUSH2 0x103C JUMP JUMPDEST SWAP3 SWAP2 POP POP JUMP JUMPDEST PUSH0 PUSH1 0x20 DUP3 DUP5 SUB SLT ISZERO PUSH2 0x107B JUMPI PUSH2 0x107A PUSH2 0x102B JUMP JUMPDEST JUMPDEST PUSH0 PUSH2 0x1088 DUP5 DUP3 DUP6 ADD PUSH2 0x1052 JUMP JUMPDEST SWAP2 POP POP SWAP3 SWAP2 POP POP JUMP JUMPDEST PUSH0 DUP2 MLOAD SWAP1 POP SWAP2 SWAP1 POP JUMP JUMPDEST PUSH0 DUP3 DUP3 MSTORE PUSH1 0x20 DUP3 ADD SWAP1 POP SWAP3 SWAP2 POP POP JUMP JUMPDEST DUP3 DUP2 DUP4 MCOPY PUSH0 DUP4 DUP4 ADD MSTORE POP POP POP JUMP JUMPDEST PUSH0 PUSH1 0x1F NOT PUSH1 0x1F DUP4 ADD AND SWAP1 POP SWAP2 SWAP1 POP JUMP JUMPDEST PUSH0 PUSH2 0x10D3 DUP3 PUSH2 0x1091 JUMP JUMPDEST PUSH2 0x10DD DUP2 DUP6 PUSH2 0x109B JUMP JUMPDEST SWAP4 POP PUSH2 0x10ED DUP2 DUP6 PUSH1 0x20 DUP7 ADD PUSH2 0x10AB JUMP JUMPDEST PUSH2 0x10F6 DUP2 PUSH2 0x10B9 JUMP JUMPDEST DUP5 ADD SWAP2 POP POP SWAP3 SWAP2 POP POP JUMP JUMPDEST PUSH0 PUSH20 0xFFFFFFFFFFFFFFFFFFFFFFFFFFFFFFFFFFFFFFFF DUP3 AND SWAP1 POP SWAP2 SWAP1 POP JUMP JUMPDEST PUSH0 PUSH2 0x112A DUP3 PUSH2 0x1101 JUMP JUMPDEST SWAP1 POP SWAP2 SWAP1 POP JUMP JUMPDEST PUSH2 0x113A DUP2 PUSH2 0x1120 JUMP JUMPDEST DUP3 MSTORE POP POP JUMP JUMPDEST PUSH2 0x1149 DUP2 PUSH2 0x1033 JUMP JUMPDEST DUP3 MSTORE POP POP JUMP JUMPDEST PUSH0 PUSH1 0x80 DUP4 ADD PUSH0 DUP4 ADD MLOAD DUP5 DUP3 SUB PUSH0 DUP7 ADD MSTORE PUSH2 0x1169 DUP3 DUP3 PUSH2 0x10C9 JUMP JUMPDEST SWAP2 POP POP PUSH1 0x20 DUP4 ADD MLOAD DUP5 DUP3 SUB PUSH1 0x20 DUP7 ADD MSTORE PUSH2 0x1183 DUP3 DUP3 PUSH2 0x10C9 JUMP JUMPDEST SWAP2 POP POP PUSH1 0x40 DUP4 ADD MLOAD PUSH2 0x1198 PUSH1 0x40 DUP7 ADD DUP3 PUSH2 0x1131 JUMP JUMPDEST POP PUSH1 0x60 DUP4 ADD MLOAD PUSH2 0x11AB PUSH1 0x60 DUP7 ADD DUP3 PUSH2 0x1140 JUMP JUMPDEST POP DUP1 SWAP2 POP POP SWAP3 SWAP2 POP POP JUMP JUMPDEST PUSH0 PUSH1 0x20 DUP3 ADD SWAP1 POP DUP2 DUP2 SUB PUSH0 DUP4 ADD MSTORE PUSH2 0x11CE DUP2 DUP5 PUSH2 0x114F JUMP JUMPDEST SWAP1 POP SWAP3 SWAP2 POP POP JUMP JUMPDEST PUSH0 DUP2 MLOAD SWAP1 POP SWAP2 SWAP1 POP JUMP JUMPDEST PUSH0 DUP3 DUP3 MSTORE PUSH1 0x20 DUP3 ADD SWAP1 POP SWAP3 SWAP2 POP POP JUMP JUMPDEST PUSH0 DUP2 SWAP1 POP PUSH1 0x20 DUP3 ADD SWAP1 POP SWAP2 SWAP1 POP JUMP JUMPDEST PUSH0 PUSH1 0x80 DUP4 ADD PUSH0 DUP4 ADD MLOAD DUP5 DUP3 SUB PUSH0 DUP7 ADD MSTORE PUSH2 0x1219 DUP3 DUP3 PUSH2 0x10C9 JUMP JUMPDEST SWAP2 POP POP PUSH1 0x20 DUP4 ADD MLOAD DUP5 DUP3 SUB PUSH1 0x20 DUP7 ADD MSTORE PUSH2 0x1233 DUP3 DUP3 PUSH2 0x10C9 JUMP JUMPDEST SWAP2 POP POP PUSH1 0x40 DUP4 ADD MLOAD PUSH2 0x1248 PUSH1 0x40 DUP7 ADD DUP3 PUSH2 0x1131 JUMP JUMPDEST POP PUSH1 0x60 DUP4 ADD MLOAD PUSH2 0x125B PUSH1 0x60 DUP7 ADD DUP3 PUSH2 0x1140 JUMP JUMPDEST POP DUP1 SWAP2 POP POP SWAP3 SWAP2 POP POP JUMP JUMPDEST PUSH0 PUSH2 0x1271 DUP4 DUP4 PUSH2 0x11FF JUMP JUMPDEST SWAP1 POP SWAP3 SWAP2 POP POP JUMP JUMPDEST PUSH0 PUSH1 0x20 DUP3 ADD SWAP1 POP SWAP2 SWAP1 POP JUMP JUMPDEST PUSH0 PUSH2 0x128F DUP3 PUSH2 0x11D6 JUMP JUMPDEST PUSH2 0x1299 DUP2 DUP6 PUSH2 0x11E0 JUMP JUMPDEST SWAP4 POP DUP4 PUSH1 0x20 DUP3 MUL DUP6 ADD PUSH2 0x12AB DUP6 PUSH2 0x11F0 JUMP JUMPDEST DUP1 PUSH0 JUMPDEST DUP6 DUP2 LT ISZERO PUSH2 0x12E6 JUMPI DUP5 DUP5 SUB DUP10 MSTORE DUP2 MLOAD PUSH2 0x12C7 DUP6 DUP3 PUSH2 0x1266 JUMP JUMPDEST SWAP5 POP PUSH2 0x12D2 DUP4 PUSH2 0x1279 JUMP JUMPDEST SWAP3 POP PUSH1 0x20 DUP11 ADD SWAP10 POP POP PUSH1 0x1 DUP2 ADD SWAP1 POP PUSH2 0x12AE JUMP JUMPDEST POP DUP3 SWAP8 POP DUP8 SWAP6 POP POP POP POP POP POP SWAP3 SWAP2 POP POP JUMP JUMPDEST PUSH0 PUSH1 0x20 DUP3 ADD SWAP1 POP DUP2 DUP2 SUB PUSH0 DUP4 ADD MSTORE PUSH2 0x1310 DUP2 DUP5 PUSH2 0x1285 JUMP JUMPDEST SWAP1 POP SWAP3 SWAP2 POP POP JUMP JUMPDEST PUSH0 DUP1 REVERT JUMPDEST PUSH0 DUP1 REVERT JUMPDEST PUSH32 0x4E487B7100000000000000000000000000000000000000000000000000000000 PUSH0 MSTORE PUSH1 0x41 PUSH1 0x4 MSTORE PUSH1 0x24 PUSH0 REVERT JUMPDEST PUSH2 0x1356 DUP3 PUSH2 0x10B9 JUMP JUMPDEST DUP2 ADD DUP2 DUP2 LT PUSH8 0xFFFFFFFFFFFFFFFF DUP3 GT OR ISZERO PUSH2 0x1375 JUMPI PUSH2 0x1374 PUSH2 0x1320 JUMP JUMPDEST JUMPDEST DUP1 PUSH1 0x40 MSTORE POP POP POP JUMP JUMPDEST PUSH0 PUSH2 0x1387 PUSH2 0x1022 JUMP JUMPDEST SWAP1 POP PUSH2 0x1393 DUP3 DUP3 PUSH2 0x134D JUMP JUMPDEST SWAP2 SWAP1 POP JUMP JUMPDEST PUSH0 PUSH8 0xFFFFFFFFFFFFFFFF DUP3 GT ISZERO PUSH2 0x13B2 JUMPI PUSH2 0x13B1 PUSH2 0x1320 JUMP JUMPDEST JUMPDEST PUSH2 0x13BB DUP3 PUSH2 0x10B9 JUMP JUMPDEST SWAP1 POP PUSH1 0x20 DUP2 ADD SWAP1 POP SWAP2 SWAP1 POP JUMP JUMPDEST DUP3 DUP2 DUP4 CALLDATACOPY PUSH0 DUP4 DUP4 ADD MSTORE POP POP POP JUMP JUMPDEST PUSH0 PUSH2 0x13E8 PUSH2 0x13E3 DUP5 PUSH2 0x1398 JUMP JUMPDEST PUSH2 0x137E JUMP JUMPDEST SWAP1 POP DUP3 DUP2 MSTORE PUSH1 0x20 DUP2 ADD DUP5 DUP5 DUP5 ADD GT ISZERO PUSH2 0x1404 JUMPI PUSH2 0x1403 PUSH2 0x131C JUMP JUMPDEST JUMPDEST PUSH2 0x140F DUP5 DUP3 DUP6 PUSH2 0x13C8 JUMP JUMPDEST POP SWAP4 SWAP3 POP POP POP JUMP JUMPDEST PUSH0 DUP3 PUSH1 0x1F DUP4 ADD SLT PUSH2 0x142B JUMPI PUSH2 0x142A PUSH2 0x1318 JUMP JUMPDEST JUMPDEST DUP2 CALLDATALOAD PUSH2 0x143B DUP5 DUP3 PUSH1 0x20 DUP7 ADD PUSH2 0x13D6 JUMP JUMPDEST SWAP2 POP POP SWAP3 SWAP2 POP POP JUMP JUMPDEST PUSH0 PUSH1 0x20 DUP3 DUP5 SUB SLT ISZERO PUSH2 0x1459 JUMPI PUSH2 0x1458 PUSH2 0x102B JUMP JUMPDEST JUMPDEST PUSH0 DUP3 ADD CALLDATALOAD PUSH8 0xFFFFFFFFFFFFFFFF DUP2 GT ISZERO PUSH2 0x1476 JUMPI PUSH2 0x1475 PUSH2 0x102F JUMP JUMPDEST JUMPDEST PUSH2 0x1482 DUP5 DUP3 DUP6 ADD PUSH2 0x1417 JUMP JUMPDEST SWAP2 POP POP SWAP3 SWAP2 POP POP JUMP JUMPDEST PUSH0 DUP1 PUSH1 0x40 DUP4 DUP6 SUB SLT ISZERO PUSH2 0x14A1 JUMPI PUSH2 0x14A0 PUSH2 0x102B JUMP JUMPDEST JUMPDEST PUSH0 DUP4 ADD CALLDATALOAD PUSH8 0xFFFFFFFFFFFFFFFF DUP2 GT ISZERO PUSH2 0x14BE JUMPI PUSH2 0x14BD PUSH2 0x102F JUMP JUMPDEST JUMPDEST PUSH2 0x14CA DUP6 DUP3 DUP7 ADD PUSH2 0x1417 JUMP JUMPDEST SWAP3 POP POP PUSH1 0x20 DUP4 ADD CALLDATALOAD PUSH8 0xFFFFFFFFFFFFFFFF DUP2 GT ISZERO PUSH2 0x14EB JUMPI PUSH2 0x14EA PUSH2 0x102F JUMP JUMPDEST JUMPDEST PUSH2 0x14F7 DUP6 DUP3 DUP7 ADD PUSH2 0x1417 JUMP JUMPDEST SWAP2 POP POP SWAP3 POP SWAP3 SWAP1 POP JUMP JUMPDEST PUSH0 DUP2 ISZERO ISZERO SWAP1 POP SWAP2 SWAP1 POP JUMP JUMPDEST PUSH2 0x1515 DUP2 PUSH2 0x1501 JUMP JUMPDEST DUP3 MSTORE POP POP JUMP JUMPDEST PUSH0 PUSH1 0x20 DUP3 ADD SWAP1 POP PUSH2 0x152E PUSH0 DUP4 ADD DUP5 PUSH2 0x150C JUMP JUMPDEST SWAP3 SWAP2 POP POP JUMP JUMPDEST PUSH0 DUP1 PUSH0 PUSH1 0x60 DUP5 DUP7 SUB SLT ISZERO PUSH2 0x154B JUMPI PUSH2 0x154A PUSH2 0x102B JUMP JUMPDEST JUMPDEST PUSH0 PUSH2 0x1558 DUP7 DUP3 DUP8 ADD PUSH2 0x1052 JUMP JUMPDEST SWAP4 POP POP PUSH1 0x20 DUP5 ADD CALLDATALOAD PUSH8 0xFFFFFFFFFFFFFFFF DUP2 GT ISZERO PUSH2 0x1579 JUMPI PUSH2 0x1578 PUSH2 0x102F JUMP JUMPDEST JUMPDEST PUSH2 0x1585 DUP7 DUP3 DUP8 ADD PUSH2 0x1417 JUMP JUMPDEST SWAP3 POP POP PUSH1 0x40 DUP5 ADD CALLDATALOAD PUSH8 0xFFFFFFFFFFFFFFFF DUP2 GT ISZERO PUSH2 0x15A6 JUMPI PUSH2 0x15A5 PUSH2 0x102F JUMP JUMPDEST JUMPDEST PUSH2 0x15B2 DUP7 DUP3 DUP8 ADD PUSH2 0x1417 JUMP JUMPDEST SWAP2 POP POP SWAP3 POP SWAP3 POP SWAP3 JUMP JUMPDEST PUSH0 DUP3 DUP3 MSTORE PUSH1 0x20 DUP3 ADD SWAP1 POP SWAP3 SWAP2 POP POP JUMP JUMPDEST PUSH32 0x494F43206E6F2065786973746500000000000000000000000000000000000000 PUSH0 DUP3 ADD MSTORE POP JUMP JUMPDEST PUSH0 PUSH2 0x1600 PUSH1 0xD DUP4 PUSH2 0x15BC JUMP JUMPDEST SWAP2 POP PUSH2 0x160B DUP3 PUSH2 0x15CC JUMP JUMPDEST PUSH1 0x20 DUP3 ADD SWAP1 POP SWAP2 SWAP1 POP JUMP JUMPDEST PUSH0 PUSH1 0x20 DUP3 ADD SWAP1 POP DUP2 DUP2 SUB PUSH0 DUP4 ADD MSTORE PUSH2 0x162D DUP2 PUSH2 0x15F4 JUMP JUMPDEST SWAP1 POP SWAP2 SWAP1 POP JUMP JUMPDEST PUSH32 0x4E487B7100000000000000000000000000000000000000000000000000000000 PUSH0 MSTORE PUSH1 0x22 PUSH1 0x4 MSTORE PUSH1 0x24 PUSH0 REVERT JUMPDEST PUSH0 PUSH1 0x2 DUP3 DIV SWAP1 POP PUSH1 0x1 DUP3 AND DUP1 PUSH2 0x1678 JUMPI PUSH1 0x7F DUP3 AND SWAP2 POP JUMPDEST PUSH1 0x20 DUP3 LT DUP2 SUB PUSH2 0x168B JUMPI PUSH2 0x168A PUSH2 0x1634 JUMP JUMPDEST JUMPDEST POP SWAP2 SWAP1 POP JUMP JUMPDEST PUSH32 0x4E487B7100000000000000000000000000000000000000000000000000000000 PUSH0 MSTORE PUSH1 0x32 PUSH1 0x4 MSTORE PUSH1 0x24 PUSH0 REVERT JUMPDEST PUSH0 DUP2 SWAP1 POP DUP2 PUSH0 MSTORE PUSH1 0x20 PUSH0 KECCAK256 SWAP1 POP SWAP2 SWAP1 POP JUMP JUMPDEST PUSH0 PUSH1 0x20 PUSH1 0x1F DUP4 ADD DIV SWAP1 POP SWAP2 SWAP1 POP JUMP JUMPDEST PUSH0 DUP3 DUP3 SHL SWAP1 POP SWAP3 SWAP2 POP POP JUMP JUMPDEST PUSH0 PUSH1 0x8 DUP4 MUL PUSH2 0x171A PUSH32 0xFFFFFFFFFFFFFFFFFFFFFFFFFFFFFFFFFFFFFFFFFFFFFFFFFFFFFFFFFFFFFFFF DUP3 PUSH2 0x16DF JUMP JUMPDEST PUSH2 0x1724 DUP7 DUP4 PUSH2 0x16DF JUMP JUMPDEST SWAP6 POP DUP1 NOT DUP5 AND SWAP4 POP DUP1 DUP7 AND DUP5 OR SWAP3 POP POP POP SWAP4 SWAP3 POP POP POP JUMP JUMPDEST PUSH0 DUP2 SWAP1 POP SWAP2 SWAP1 POP JUMP JUMPDEST PUSH0 PUSH2 0x175F PUSH2 0x175A PUSH2 0x1755 DUP5 PUSH2 0x1033 JUMP JUMPDEST PUSH2 0x173C JUMP JUMPDEST PUSH2 0x1033 JUMP JUMPDEST SWAP1 POP SWAP2 SWAP1 POP JUMP JUMPDEST PUSH0 DUP2 SWAP1 POP SWAP2 SWAP1 POP JUMP JUMPDEST PUSH2 0x1778 DUP4 PUSH2 0x1745 JUMP JUMPDEST PUSH2 0x178C PUSH2 0x1784 DUP3 PUSH2 0x1766 JUMP JUMPDEST DUP5 DUP5 SLOAD PUSH2 0x16EB JUMP JUMPDEST DUP3 SSTORE POP POP POP POP JUMP JUMPDEST PUSH0 SWAP1 JUMP JUMPDEST PUSH2 0x17A0 PUSH2 0x1794 JUMP JUMPDEST PUSH2 0x17AB DUP2 DUP5 DUP5 PUSH2 0x176F JUMP JUMPDEST POP POP POP JUMP JUMPDEST JUMPDEST DUP2 DUP2 LT ISZERO PUSH2 0x17CE JUMPI PUSH2 0x17C3 PUSH0 DUP3 PUSH2 0x1798 JUMP JUMPDEST PUSH1 0x1 DUP2 ADD SWAP1 POP PUSH2 0x17B1 JUMP JUMPDEST POP POP JUMP JUMPDEST PUSH1 0x1F DUP3 GT ISZERO PUSH2 0x1813 JUMPI PUSH2 0x17E4 DUP2 PUSH2 0x16BE JUMP JUMPDEST PUSH2 0x17ED DUP5 PUSH2 0x16D0 JUMP JUMPDEST DUP2 ADD PUSH1 0x20 DUP6 LT ISZERO PUSH2 0x17FC JUMPI DUP2 SWAP1 POP JUMPDEST PUSH2 0x1810 PUSH2 0x1808 DUP6 PUSH2 0x16D0 JUMP JUMPDEST DUP4 ADD DUP3 PUSH2 0x17B0 JUMP JUMPDEST POP POP JUMPDEST POP POP POP JUMP JUMPDEST PUSH0 DUP3 DUP3 SHR SWAP1 POP SWAP3 SWAP2 POP POP JUMP JUMPDEST PUSH0 PUSH2 0x1833 PUSH0 NOT DUP5 PUSH1 0x8 MUL PUSH2 0x1818 JUMP JUMPDEST NOT DUP1 DUP4 AND SWAP2 POP POP SWAP3 SWAP2 POP POP JUMP JUMPDEST PUSH0 PUSH2 0x184B DUP4 DUP4 PUSH2 0x1824 JUMP JUMPDEST SWAP2 POP DUP3 PUSH1 0x2 MUL DUP3 OR SWAP1 POP SWAP3 SWAP2 POP POP JUMP JUMPDEST PUSH2 0x1864 DUP3 PUSH2 0x1091 JUMP JUMPDEST PUSH8 0xFFFFFFFFFFFFFFFF DUP2 GT ISZERO PUSH2 0x187D JUMPI PUSH2 0x187C PUSH2 0x1320 JUMP JUMPDEST JUMPDEST PUSH2 0x1887 DUP3 SLOAD PUSH2 0x1661 JUMP JUMPDEST PUSH2 0x1892 DUP3 DUP3 DUP6 PUSH2 0x17D2 JUMP JUMPDEST PUSH0 PUSH1 0x20 SWAP1 POP PUSH1 0x1F DUP4 GT PUSH1 0x1 DUP2 EQ PUSH2 0x18C3 JUMPI PUSH0 DUP5 ISZERO PUSH2 0x18B1 JUMPI DUP3 DUP8 ADD MLOAD SWAP1 POP JUMPDEST PUSH2 0x18BB DUP6 DUP3 PUSH2 0x1840 JUMP JUMPDEST DUP7 SSTORE POP PUSH2 0x1922 JUMP JUMPDEST PUSH1 0x1F NOT DUP5 AND PUSH2 0x18D1 DUP7 PUSH2 0x16BE JUMP JUMPDEST PUSH0 JUMPDEST DUP3 DUP2 LT ISZERO PUSH2 0x18F8 JUMPI DUP5 DUP10 ADD MLOAD DUP3 SSTORE PUSH1 0x1 DUP3 ADD SWAP2 POP PUSH1 0x20 DUP6 ADD SWAP5 POP PUSH1 0x20 DUP2 ADD SWAP1 POP PUSH2 0x18D3 JUMP JUMPDEST DUP7 DUP4 LT ISZERO PUSH2 0x1915 JUMPI DUP5 DUP10 ADD MLOAD PUSH2 0x1911 PUSH1 0x1F DUP10 AND DUP3 PUSH2 0x1824 JUMP JUMPDEST DUP4 SSTORE POP JUMPDEST PUSH1 0x1 PUSH1 0x2 DUP9 MUL ADD DUP9 SSTORE POP POP POP JUMPDEST POP POP POP POP POP POP JUMP JUMPDEST PUSH32 0x5469706F20646520494F43206E6F207065726D697469646F0000000000000000 PUSH0 DUP3 ADD MSTORE POP JUMP JUMPDEST PUSH0 PUSH2 0x195E PUSH1 0x18 DUP4 PUSH2 0x15BC JUMP JUMPDEST SWAP2 POP PUSH2 0x1969 DUP3 PUSH2 0x192A JUMP JUMPDEST PUSH1 0x20 DUP3 ADD SWAP1 POP SWAP2 SWAP1 POP JUMP JUMPDEST PUSH0 PUSH1 0x20 DUP3 ADD SWAP1 POP DUP2 DUP2 SUB PUSH0 DUP4 ADD MSTORE PUSH2 0x198B DUP2 PUSH2 0x1952 JUMP JUMPDEST SWAP1 POP SWAP2 SWAP1 POP JUMP JUMPDEST PUSH32 0x466F726D61746F20646520494F4320696E76616C69646F000000000000000000 PUSH0 DUP3 ADD MSTORE POP JUMP JUMPDEST PUSH0 PUSH2 0x19C6 PUSH1 0x17 DUP4 PUSH2 0x15BC JUMP JUMPDEST SWAP2 POP PUSH2 0x19D1 DUP3 PUSH2 0x1992 JUMP JUMPDEST PUSH1 0x20 DUP3 ADD SWAP1 POP SWAP2 SWAP1 POP JUMP JUMPDEST PUSH0 PUSH1 0x20 DUP3 ADD SWAP1 POP DUP2 DUP2 SUB PUSH0 DUP4 ADD MSTORE PUSH2 0x19F3 DUP2 PUSH2 0x19BA JUMP JUMPDEST SWAP1 POP SWAP2 SWAP1 POP JUMP JUMPDEST PUSH32 0x494F43207961207265706F727461646F00000000000000000000000000000000 PUSH0 DUP3 ADD MSTORE POP JUMP JUMPDEST PUSH0 PUSH2 0x1A2E PUSH1 0x10 DUP4 PUSH2 0x15BC JUMP JUMPDEST SWAP2 POP PUSH2 0x1A39 DUP3 PUSH2 0x19FA JUMP JUMPDEST PUSH1 0x20 DUP3 ADD SWAP1 POP SWAP2 SWAP1 POP JUMP JUMPDEST PUSH0 PUSH1 0x20 DUP3 ADD SWAP1 POP DUP2 DUP2 SUB PUSH0 DUP4 ADD MSTORE PUSH2 0x1A5B DUP2 PUSH2 0x1A22 JUMP JUMPDEST SWAP1 POP SWAP2 SWAP1 POP JUMP JUMPDEST PUSH32 0x4E487B7100000000000000000000000000000000000000000000000000000000 PUSH0 MSTORE PUSH1 0x11 PUSH1 0x4 MSTORE PUSH1 0x24 PUSH0 REVERT JUMPDEST PUSH0 PUSH2 0x1A99 DUP3 PUSH2 0x1033 JUMP JUMPDEST SWAP2 POP PUSH32 0xFFFFFFFFFFFFFFFFFFFFFFFFFFFFFFFFFFFFFFFFFFFFFFFFFFFFFFFFFFFFFFFF DUP3 SUB PUSH2 0x1ACB JUMPI PUSH2 0x1ACA PUSH2 0x1A62 JUMP JUMPDEST JUMPDEST PUSH1 0x1 DUP3 ADD SWAP1 POP SWAP2 SWAP1 POP JUMP JUMPDEST PUSH0 DUP2 SWAP1 POP SWAP3 SWAP2 POP POP JUMP JUMPDEST PUSH0 PUSH2 0x1AEA DUP3 PUSH2 0x1091 JUMP JUMPDEST PUSH2 0x1AF4 DUP2 DUP6 PUSH2 0x1AD6 JUMP JUMPDEST SWAP4 POP PUSH2 0x1B04 DUP2 DUP6 PUSH1 0x20 DUP7 ADD PUSH2 0x10AB JUMP JUMPDEST DUP1 DUP5 ADD SWAP2 POP POP SWAP3 SWAP2 POP POP JUMP JUMPDEST PUSH0 PUSH2 0x1B1B DUP3 DUP5 PUSH2 0x1AE0 JUMP JUMPDEST SWAP2 POP DUP2 SWAP1 POP SWAP3 SWAP2 POP POP JUMP JUMPDEST PUSH0 DUP2 SLOAD PUSH2 0x1B32 DUP2 PUSH2 0x1661 JUMP JUMPDEST PUSH2 0x1B3C DUP2 DUP7 PUSH2 0x1AD6 JUMP JUMPDEST SWAP5 POP PUSH1 0x1 DUP3 AND PUSH0 DUP2 EQ PUSH2 0x1B56 JUMPI PUSH1 0x1 DUP2 EQ PUSH2 0x1B6B JUMPI PUSH2 0x1B9D JUMP JUMPDEST PUSH1 0xFF NOT DUP4 AND DUP7 MSTORE DUP2 ISZERO ISZERO DUP3 MUL DUP7 ADD SWAP4 POP PUSH2 0x1B9D JUMP JUMPDEST PUSH2 0x1B74 DUP6 PUSH2 0x16BE JUMP JUMPDEST PUSH0 JUMPDEST DUP4 DUP2 LT ISZERO PUSH2 0x1B95 JUMPI DUP2 SLOAD DUP2 DUP10 ADD MSTORE PUSH1 0x1 DUP3 ADD SWAP2 POP PUSH1 0x20 DUP2 ADD SWAP1 POP PUSH2 0x1B76 JUMP JUMPDEST DUP4 DUP9 ADD SWAP6 POP POP POP JUMPDEST POP POP POP SWAP3 SWAP2 POP POP JUMP JUMPDEST PUSH0 PUSH2 0x1BB1 DUP3 DUP5 PUSH2 0x1B26 JUMP JUMPDEST SWAP2 POP DUP2 SWAP1 POP SWAP3 SWAP2 POP POP JUMP JUMPDEST PUSH0 PUSH2 0x1BC6 DUP3 PUSH2 0x1091 JUMP JUMPDEST PUSH2 0x1BD0 DUP2 DUP6 PUSH2 0x15BC JUMP JUMPDEST SWAP4 POP PUSH2 0x1BE0 DUP2 DUP6 PUSH1 0x20 DUP7 ADD PUSH2 0x10AB JUMP JUMPDEST PUSH2 0x1BE9 DUP2 PUSH2 0x10B9 JUMP JUMPDEST DUP5 ADD SWAP2 POP POP SWAP3 SWAP2 POP POP JUMP JUMPDEST PUSH0 PUSH1 0x40 DUP3 ADD SWAP1 POP DUP2 DUP2 SUB PUSH0 DUP4 ADD MSTORE PUSH2 0x1C0C DUP2 DUP6 PUSH2 0x1BBC JUMP JUMPDEST SWAP1 POP DUP2 DUP2 SUB PUSH1 0x20 DUP4 ADD MSTORE PUSH2 0x1C20 DUP2 DUP5 PUSH2 0x1BBC JUMP JUMPDEST SWAP1 POP SWAP4 SWAP3 POP POP POP JUMP JUMPDEST PUSH32 0x4950000000000000000000000000000000000000000000000000000000000000 PUSH0 DUP3 ADD MSTORE POP JUMP JUMPDEST PUSH0 PUSH2 0x1C5D PUSH1 0x2 DUP4 PUSH2 0x1AD6 JUMP JUMPDEST SWAP2 POP PUSH2 0x1C68 DUP3 PUSH2 0x1C29 JUMP JUMPDEST PUSH1 0x2 DUP3 ADD SWAP1 POP SWAP2 SWAP1 POP JUMP JUMPDEST PUSH0 PUSH2 0x1C7D DUP3 PUSH2 0x1C51 JUMP JUMPDEST SWAP2 POP DUP2 SWAP1 POP SWAP2 SWAP1 POP JUMP JUMPDEST PUSH32 0x55524C0000000000000000000000000000000000000000000000000000000000 PUSH0 DUP3 ADD MSTORE POP JUMP JUMPDEST PUSH0 PUSH2 0x1CBB PUSH1 0x3 DUP4 PUSH2 0x1AD6 JUMP JUMPDEST SWAP2 POP PUSH2 0x1CC6 DUP3 PUSH2 0x1C87 JUMP JUMPDEST PUSH1 0x3 DUP3 ADD SWAP1 POP SWAP2 SWAP1 POP JUMP JUMPDEST PUSH0 PUSH2 0x1CDB DUP3 PUSH2 0x1CAF JUMP JUMPDEST SWAP2 POP DUP2 SWAP1 POP SWAP2 SWAP1 POP JUMP JUMPDEST PUSH32 0x4861736800000000000000000000000000000000000000000000000000000000 PUSH0 DUP3 ADD MSTORE POP JUMP JUMPDEST PUSH0 PUSH2 0x1D19 PUSH1 0x4 DUP4 PUSH2 0x1AD6 JUMP JUMPDEST SWAP2 POP PUSH2 0x1D24 DUP3 PUSH2 0x1CE5 JUMP JUMPDEST PUSH1 0x4 DUP3 ADD SWAP1 POP SWAP2 SWAP1 POP JUMP JUMPDEST PUSH0 PUSH2 0x1D39 DUP3 PUSH2 0x1D0D JUMP JUMPDEST SWAP2 POP DUP2 SWAP1 POP SWAP2 SWAP1 POP JUMP JUMPDEST PUSH32 0x456D61696C000000000000000000000000000000000000000000000000000000 PUSH0 DUP3 ADD MSTORE POP JUMP JUMPDEST PUSH0 PUSH2 0x1D77 PUSH1 0x5 DUP4 PUSH2 0x1AD6 JUMP JUMPDEST SWAP2 POP PUSH2 0x1D82 DUP3 PUSH2 0x1D43 JUMP JUMPDEST PUSH1 0x5 DUP3 ADD SWAP1 POP SWAP2 SWAP1 POP JUMP JUMPDEST PUSH0 PUSH2 0x1D97 DUP3 PUSH2 0x1D6B JUMP JUMPDEST SWAP2 POP DUP2 SWAP1 POP SWAP2 SWAP1 POP JUMP JUMPDEST PUSH0 PUSH2 0x1DAB DUP3 PUSH2 0x1033 JUMP JUMPDEST SWAP2 POP PUSH2 0x1DB6 DUP4 PUSH2 0x1033 JUMP JUMPDEST SWAP3 POP DUP3 DUP3 SUB SWAP1 POP DUP2 DUP2 GT ISZERO PUSH2 0x1DCE JUMPI PUSH2 0x1DCD PUSH2 0x1A62 JUMP JUMPDEST JUMPDEST SWAP3 SWAP2 POP POP JUMP JUMPDEST PUSH0 PUSH2 0x1DDE DUP3 PUSH2 0x1033 JUMP JUMPDEST SWAP2 POP PUSH2 0x1DE9 DUP4 PUSH2 0x1033 JUMP JUMPDEST SWAP3 POP DUP3 DUP3 ADD SWAP1 POP DUP1 DUP3 GT ISZERO PUSH2 0x1E01 JUMPI PUSH2 0x1E00 PUSH2 0x1A62 JUMP JUMPDEST JUMPDEST SWAP3 SWAP2 POP POP JUMP INVALID LOG2 PUSH5 0x6970667358 0x22 SLT KECCAK256 0x27 0xBD 0xE8 0xC1 0x26 DUP8 PUSH15 0xF5E6048254CD56DA6F9E1E9FCE6B3A 0x2F 0x2E 0xB1 NOT DUP10 PUSH17 0x276908DC64736F6C634300081900330000 "
				},
				"gasEstimates": {
					"creation": {
						"codeDepositCost": "1548200",
						"executionCost": "infinite",
						"totalCost": "infinite"
					},
					"external": {
						"actualizarIOC(uint256,string,string)": "infinite",
						"agregarIOC(string,string)": "infinite",
						"agregarTipoPermitido(string)": "infinite",
						"eliminarIOC(uint256)": "infinite",
						"esIOCReportado(string)": "infinite",
						"obtenerIOC(uint256)": "infinite",
						"obtenerTodosIOCs()": "infinite"
					},
					"internal": {
						"contarCaracteres(bytes memory,bytes1)": "infinite",
						"contieneSubcadena(string memory,string memory)": "infinite",
						"esTipoPermitido(string memory)": "infinite",
						"validarFormato(string memory,string memory)": "infinite"
					}
				},
				"methodIdentifiers": {
					"actualizarIOC(uint256,string,string)": "f6b7af94",
					"agregarIOC(string,string)": "9290aaa2",
					"agregarTipoPermitido(string)": "6143a4ec",
					"eliminarIOC(uint256)": "ccd666d2",
					"esIOCReportado(string)": "e8e46333",
					"obtenerIOC(uint256)": "390b6116",
					"obtenerTodosIOCs()": "55f40ba9"
				}
			},
			"storageLayout": {
				"storage": [
					{
						"astId": 15,
						"contract": "contracts/IOCBase2.sol:ThreatIntelligence",
						"label": "iocs",
						"offset": 0,
						"slot": "0",
						"type": "t_mapping(t_uint256,t_struct(IOC)10_storage)"
					},
					{
						"astId": 18,
						"contract": "contracts/IOCBase2.sol:ThreatIntelligence",
						"label": "totalIOCs",
						"offset": 0,
						"slot": "1",
						"type": "t_uint256"
					},
					{
						"astId": 21,
						"contract": "contracts/IOCBase2.sol:ThreatIntelligence",
						"label": "tiposPermitidos",
						"offset": 0,
						"slot": "2",
						"type": "t_array(t_string_storage)dyn_storage"
					}
				],
				"types": {
					"t_address": {
						"encoding": "inplace",
						"label": "address",
						"numberOfBytes": "20"
					},
					"t_array(t_string_storage)dyn_storage": {
						"base": "t_string_storage",
						"encoding": "dynamic_array",
						"label": "string[]",
						"numberOfBytes": "32"
					},
					"t_mapping(t_uint256,t_struct(IOC)10_storage)": {
						"encoding": "mapping",
						"key": "t_uint256",
						"label": "mapping(uint256 => struct ThreatIntelligence.IOC)",
						"numberOfBytes": "32",
						"value": "t_struct(IOC)10_storage"
					},
					"t_string_storage": {
						"encoding": "bytes",
						"label": "string",
						"numberOfBytes": "32"
					},
					"t_struct(IOC)10_storage": {
						"encoding": "inplace",
						"label": "struct ThreatIntelligence.IOC",
						"members": [
							{
								"astId": 3,
								"contract": "contracts/IOCBase2.sol:ThreatIntelligence",
								"label": "tipo",
								"offset": 0,
								"slot": "0",
								"type": "t_string_storage"
							},
							{
								"astId": 5,
								"contract": "contracts/IOCBase2.sol:ThreatIntelligence",
								"label": "valor",
								"offset": 0,
								"slot": "1",
								"type": "t_string_storage"
							},
							{
								"astId": 7,
								"contract": "contracts/IOCBase2.sol:ThreatIntelligence",
								"label": "reportadoPor",
								"offset": 0,
								"slot": "2",
								"type": "t_address"
							},
							{
								"astId": 9,
								"contract": "contracts/IOCBase2.sol:ThreatIntelligence",
								"label": "fechaReporte",
								"offset": 0,
								"slot": "3",
								"type": "t_uint256"
							}
						],
						"numberOfBytes": "128"
					},
					"t_uint256": {
						"encoding": "inplace",
						"label": "uint256",
						"numberOfBytes": "32"
					}
				}
			},
			"userdoc": {
				"kind": "user",
				"methods": {},
				"version": 1
			}
		}
	}
}