{
	"data": {
		"bytecode": {
			"linkReferences": {},
			"object": "60806040525f600155348015610013575f80fd5b5060028060018154018082558091505060019003905f5260205f20015f6040518060400160405280600281526020017f49500000000000000000000000000000000000000000000000000000000000008152509091909150908161007791906103e3565b5060028060018154018082558091505060019003905f5260205f20015f6040518060400160405280600381526020017f55524c0000000000000000000000000000000000000000000000000000000000815250909190915090816100db91906103e3565b5060028060018154018082558091505060019003905f5260205f20015f6040518060400160405280600481526020017f48617368000000000000000000000000000000000000000000000000000000008152509091909150908161013f91906103e3565b5060028060018154018082558091505060019003905f5260205f20015f6040518060400160405280600581526020017f456d61696c000000000000000000000000000000000000000000000000000000815250909190915090816101a391906103e3565b506104b2565b5f81519050919050565b7f4e487b71000000000000000000000000000000000000000000000000000000005f52604160045260245ffd5b7f4e487b71000000000000000000000000000000000000000000000000000000005f52602260045260245ffd5b5f600282049050600182168061022457607f821691505b602082108103610237576102366101e0565b5b50919050565b5f819050815f5260205f209050919050565b5f6020601f8301049050919050565b5f82821b905092915050565b5f600883026102997fffffffffffffffffffffffffffffffffffffffffffffffffffffffffffffffff8261025e565b6102a3868361025e565b95508019841693508086168417925050509392505050565b5f819050919050565b5f819050919050565b5f6102e76102e26102dd846102bb565b6102c4565b6102bb565b9050919050565b5f819050919050565b610300836102cd565b61031461030c826102ee565b84845461026a565b825550505050565b5f90565b61032861031c565b6103338184846102f7565b505050565b5b818110156103565761034b5f82610320565b600181019050610339565b5050565b601f82111561039b5761036c8161023d565b6103758461024f565b81016020851015610384578190505b6103986103908561024f565b830182610338565b50505b505050565b5f82821c905092915050565b5f6103bb5f19846008026103a0565b1980831691505092915050565b5f6103d383836103ac565b9150826002028217905092915050565b6103ec826101a9565b67ffffffffffffffff811115610405576104046101b3565b5b61040f825461020d565b61041a82828561035a565b5f60209050601f83116001811461044b575f8415610439578287015190505b61044385826103c8565b8655506104aa565b601f1984166104598661023d565b5f5b828110156104805784890151825560018201915060208501945060208101905061045b565b8683101561049d5784890151610499601f8916826103ac565b8355505b6001600288020188555050505b505050505050565b611e3d806104bf5f395ff3fe608060405234801561000f575f80fd5b506004361061007b575f3560e01c80639290aaa2116100595780639290aaa2146100e9578063ccd666d214610105578063e8e4633314610121578063f6b7af94146101515761007b565b8063390b61161461007f57806355f40ba9146100af5780636143a4ec146100cd575b5f80fd5b61009960048036038101906100949190611066565b61016d565b6040516100a691906111b6565b60405180910390f35b6100b7610359565b6040516100c491906112f8565b60405180910390f35b6100e760048036038101906100e29190611444565b6105e8565b005b61010360048036038101906100fe919061148b565b61061d565b005b61011f600480360381019061011a9190611066565b6107dd565b005b61013b60048036038101906101369190611444565b6108ae565b604051610148919061151b565b60405180910390f35b61016b60048036038101906101669190611534565b610944565b005b610175610f8e565b60015482106101b9576040517f08c379a00000000000000000000000000000000000000000000000000000000081526004016101b090611616565b60405180910390fd5b5f808381526020019081526020015f206040518060800160405290815f820180546101e390611661565b80601f016020809104026020016040519081016040528092919081815260200182805461020f90611661565b801561025a5780601f106102315761010080835404028352916020019161025a565b820191905f5260205f20905b81548152906001019060200180831161023d57829003601f168201915b5050505050815260200160018201805461027390611661565b80601f016020809104026020016040519081016040528092919081815260200182805461029f90611661565b80156102ea5780601f106102c1576101008083540402835291602001916102ea565b820191905f5260205f20905b8154815290600101906020018083116102cd57829003601f168201915b50505050508152602001600282015f9054906101000a900473ffffffffffffffffffffffffffffffffffffffff1673ffffffffffffffffffffffffffffffffffffffff1673ffffffffffffffffffffffffffffffffffffffff1681526020016003820154815250509050919050565b60605f60015467ffffffffffffffff81111561037857610377611320565b5b6040519080825280602002602001820160405280156103b157816020015b61039e610f8e565b8152602001906001900390816103965790505b5090505f5b6001548110156105e0575f805f8381526020019081526020015f2090505f73ffffffffffffffffffffffffffffffffffffffff16816002015f9054906101000a900473ffffffffffffffffffffffffffffffffffffffff1673ffffffffffffffffffffffffffffffffffffffff16146105d257806040518060800160405290815f8201805461044490611661565b80601f016020809104026020016040519081016040528092919081815260200182805461047090611661565b80156104bb5780601f10610492576101008083540402835291602001916104bb565b820191905f5260205f20905b81548152906001019060200180831161049e57829003601f168201915b505050505081526020016001820180546104d490611661565b80601f016020809104026020016040519081016040528092919081815260200182805461050090611661565b801561054b5780601f106105225761010080835404028352916020019161054b565b820191905f5260205f20905b81548152906001019060200180831161052e57829003601f168201915b50505050508152602001600282015f9054906101000a900473ffffffffffffffffffffffffffffffffffffffff1673ffffffffffffffffffffffffffffffffffffffff1673ffffffffffffffffffffffffffffffffffffffff1681526020016003820154815250508383815181106105c6576105c5611691565b5b60200260200101819052505b5080806001019150506103b6565b508091505090565b600281908060018154018082558091505060019003905f5260205f20015f909190919091509081610619919061185b565b5050565b61062682610ad8565b610665576040517f08c379a000000000000000000000000000000000000000000000000000000000815260040161065c90611974565b60405180910390fd5b61066f8282610b7a565b6106ae576040517f08c379a00000000000000000000000000000000000000000000000000000000081526004016106a5906119dc565b60405180910390fd5b6106b7816108ae565b156106f7576040517f08c379a00000000000000000000000000000000000000000000000000000000081526004016106ee90611a44565b60405180910390fd5b5f60405180608001604052808481526020018381526020013373ffffffffffffffffffffffffffffffffffffffff168152602001428152509050805f8060015481526020019081526020015f205f820151815f019081610757919061185b565b50602082015181600101908161076d919061185b565b506040820151816002015f6101000a81548173ffffffffffffffffffffffffffffffffffffffff021916908373ffffffffffffffffffffffffffffffffffffffff1602179055506060820151816003015590505060015f8154809291906107d390611a8f565b9190505550505050565b6001548110610821576040517f08c379a000000000000000000000000000000000000000000000000000000000815260040161081890611616565b60405180910390fd5b5f808281526020019081526020015f205f8082015f6108409190610fca565b600182015f61084f9190610fca565b600282015f6101000a81549073ffffffffffffffffffffffffffffffffffffffff0219169055600382015f90555050807fece49e958a603088b69df25dbed8fa3def065badcd84c0fd126f55d875b3e20460405160405180910390a250565b5f805f90505b60015481101561093a57826040516020016108cf9190611b10565b604051602081830303815290604052805190602001205f808381526020019081526020015f206001016040516020016109089190611ba6565b604051602081830303815290604052805190602001200361092d57600191505061093f565b80806001019150506108b4565b505f90505b919050565b6001548310610988576040517f08c379a000000000000000000000000000000000000000000000000000000000815260040161097f90611616565b60405180910390fd5b61099182610ad8565b6109d0576040517f08c379a00000000000000000000000000000000000000000000000000000000081526004016109c790611974565b60405180910390fd5b6109da8282610b7a565b610a19576040517f08c379a0000000000000000000000000000000000000000000000000000000008152600401610a10906119dc565b60405180910390fd5b610a22816108ae565b15610a62576040517f08c379a0000000000000000000000000000000000000000000000000000000008152600401610a5990611a44565b60405180910390fd5b5f805f8581526020019081526020015f20905082815f019081610a85919061185b565b5081816001019081610a97919061185b565b50837f9893f2f232e4ab0d3d56384866504b1d510affb204a862b80a809cdeb61079db8484604051610aca929190611bf4565b60405180910390a250505050565b5f805f90505b600280549050811015610b705760028181548110610aff57610afe611691565b5b905f5260205f2001604051602001610b179190611ba6565b6040516020818303038152906040528051906020012083604051602001610b3e9190611b10565b6040516020818303038152906040528051906020012003610b63576001915050610b75565b8080600101915050610ade565b505f90505b919050565b5f80829050604051602001610b8e90611c73565b6040516020818303038152906040528051906020012084604051602001610bb59190611b10565b6040516020818303038152906040528051906020012003610c05576003610bfc827f2e00000000000000000000000000000000000000000000000000000000000000610dd2565b14915050610dcc565b604051602001610c1490611cd1565b6040516020818303038152906040528051906020012084604051602001610c3b9190611b10565b6040516020818303038152906040528051906020012003610ce357610c95836040518060400160405280600781526020017f687474703a2f2f00000000000000000000000000000000000000000000000000815250610e71565b80610cdb5750610cda836040518060400160405280600881526020017f68747470733a2f2f000000000000000000000000000000000000000000000000815250610e71565b5b915050610dcc565b604051602001610cf290611d2f565b6040516020818303038152906040528051906020012084604051602001610d199190611b10565b6040516020818303038152906040528051906020012003610d41576040815114915050610dcc565b604051602001610d5090611d8d565b6040516020818303038152906040528051906020012084604051602001610d779190611b10565b6040516020818303038152906040528051906020012003610dc7576001610dbe827f4000000000000000000000000000000000000000000000000000000000000000610dd2565b14915050610dcc565b5f9150505b92915050565b5f805f90505f5b8451811015610e6657837effffffffffffffffffffffffffffffffffffffffffffffffffffffffffffff1916858281518110610e1857610e17611691565b5b602001015160f81c60f81b7effffffffffffffffffffffffffffffffffffffffffffffffffffffffffffff191603610e59578180610e5590611a8f565b9250505b8080600101915050610dd9565b508091505092915050565b5f808390505f839050805182511015610e8e575f92505050610f88565b5f5b81518351610e9e9190611da1565b8111610f81575f600190505f5b8351811015610f5957838181518110610ec757610ec6611691565b5b602001015160f81c60f81b7effffffffffffffffffffffffffffffffffffffffffffffffffffffffffffff1916858285610f019190611dd4565b81518110610f1257610f11611691565b5b602001015160f81c60f81b7effffffffffffffffffffffffffffffffffffffffffffffffffffffffffffff191614610f4c575f9150610f59565b8080600101915050610eab565b508015610f6d576001945050505050610f88565b508080610f7990611a8f565b915050610e90565b505f925050505b92915050565b604051806080016040528060608152602001606081526020015f73ffffffffffffffffffffffffffffffffffffffff1681526020015f81525090565b508054610fd690611661565b5f825580601f10610fe75750611004565b601f0160209004905f5260205f20908101906110039190611007565b5b50565b5b8082111561101e575f815f905550600101611008565b5090565b5f604051905090565b5f80fd5b5f80fd5b5f819050919050565b61104581611033565b811461104f575f80fd5b50565b5f813590506110608161103c565b92915050565b5f6020828403121561107b5761107a61102b565b5b5f61108884828501611052565b91505092915050565b5f81519050919050565b5f82825260208201905092915050565b8281835e5f83830152505050565b5f601f19601f8301169050919050565b5f6110d382611091565b6110dd818561109b565b93506110ed8185602086016110ab565b6110f6816110b9565b840191505092915050565b5f73ffffffffffffffffffffffffffffffffffffffff82169050919050565b5f61112a82611101565b9050919050565b61113a81611120565b82525050565b61114981611033565b82525050565b5f608083015f8301518482035f86015261116982826110c9565b9150506020830151848203602086015261118382826110c9565b91505060408301516111986040860182611131565b5060608301516111ab6060860182611140565b508091505092915050565b5f6020820190508181035f8301526111ce818461114f565b905092915050565b5f81519050919050565b5f82825260208201905092915050565b5f819050602082019050919050565b5f608083015f8301518482035f86015261121982826110c9565b9150506020830151848203602086015261123382826110c9565b91505060408301516112486040860182611131565b50606083015161125b6060860182611140565b508091505092915050565b5f61127183836111ff565b905092915050565b5f602082019050919050565b5f61128f826111d6565b61129981856111e0565b9350836020820285016112ab856111f0565b805f5b858110156112e657848403895281516112c78582611266565b94506112d283611279565b925060208a019950506001810190506112ae565b50829750879550505050505092915050565b5f6020820190508181035f8301526113108184611285565b905092915050565b5f80fd5b5f80fd5b7f4e487b71000000000000000000000000000000000000000000000000000000005f52604160045260245ffd5b611356826110b9565b810181811067ffffffffffffffff8211171561137557611374611320565b5b80604052505050565b5f611387611022565b9050611393828261134d565b919050565b5f67ffffffffffffffff8211156113b2576113b1611320565b5b6113bb826110b9565b9050602081019050919050565b828183375f83830152505050565b5f6113e86113e384611398565b61137e565b9050828152602081018484840111156114045761140361131c565b5b61140f8482856113c8565b509392505050565b5f82601f83011261142b5761142a611318565b5b813561143b8482602086016113d6565b91505092915050565b5f602082840312156114595761145861102b565b5b5f82013567ffffffffffffffff8111156114765761147561102f565b5b61148284828501611417565b91505092915050565b5f80604083850312156114a1576114a061102b565b5b5f83013567ffffffffffffffff8111156114be576114bd61102f565b5b6114ca85828601611417565b925050602083013567ffffffffffffffff8111156114eb576114ea61102f565b5b6114f785828601611417565b9150509250929050565b5f8115159050919050565b61151581611501565b82525050565b5f60208201905061152e5f83018461150c565b92915050565b5f805f6060848603121561154b5761154a61102b565b5b5f61155886828701611052565b935050602084013567ffffffffffffffff8111156115795761157861102f565b5b61158586828701611417565b925050604084013567ffffffffffffffff8111156115a6576115a561102f565b5b6115b286828701611417565b9150509250925092565b5f82825260208201905092915050565b7f494f43206e6f20657869737465000000000000000000000000000000000000005f82015250565b5f611600600d836115bc565b915061160b826115cc565b602082019050919050565b5f6020820190508181035f83015261162d816115f4565b9050919050565b7f4e487b71000000000000000000000000000000000000000000000000000000005f52602260045260245ffd5b5f600282049050600182168061167857607f821691505b60208210810361168b5761168a611634565b5b50919050565b7f4e487b71000000000000000000000000000000000000000000000000000000005f52603260045260245ffd5b5f819050815f5260205f209050919050565b5f6020601f8301049050919050565b5f82821b905092915050565b5f6008830261171a7fffffffffffffffffffffffffffffffffffffffffffffffffffffffffffffffff826116df565b61172486836116df565b95508019841693508086168417925050509392505050565b5f819050919050565b5f61175f61175a61175584611033565b61173c565b611033565b9050919050565b5f819050919050565b61177883611745565b61178c61178482611766565b8484546116eb565b825550505050565b5f90565b6117a0611794565b6117ab81848461176f565b505050565b5b818110156117ce576117c35f82611798565b6001810190506117b1565b5050565b601f821115611813576117e4816116be565b6117ed846116d0565b810160208510156117fc578190505b611810611808856116d0565b8301826117b0565b50505b505050565b5f82821c905092915050565b5f6118335f1984600802611818565b1980831691505092915050565b5f61184b8383611824565b9150826002028217905092915050565b61186482611091565b67ffffffffffffffff81111561187d5761187c611320565b5b6118878254611661565b6118928282856117d2565b5f60209050601f8311600181146118c3575f84156118b1578287015190505b6118bb8582611840565b865550611922565b601f1984166118d1866116be565b5f5b828110156118f8578489015182556001820191506020850194506020810190506118d3565b868310156119155784890151611911601f891682611824565b8355505b6001600288020188555050505b505050505050565b7f5469706f20646520494f43206e6f207065726d697469646f00000000000000005f82015250565b5f61195e6018836115bc565b91506119698261192a565b602082019050919050565b5f6020820190508181035f83015261198b81611952565b9050919050565b7f466f726d61746f20646520494f4320696e76616c69646f0000000000000000005f82015250565b5f6119c66017836115bc565b91506119d182611992565b602082019050919050565b5f6020820190508181035f8301526119f3816119ba565b9050919050565b7f494f43207961207265706f727461646f000000000000000000000000000000005f82015250565b5f611a2e6010836115bc565b9150611a39826119fa565b602082019050919050565b5f6020820190508181035f830152611a5b81611a22565b9050919050565b7f4e487b71000000000000000000000000000000000000000000000000000000005f52601160045260245ffd5b5f611a9982611033565b91507fffffffffffffffffffffffffffffffffffffffffffffffffffffffffffffffff8203611acb57611aca611a62565b5b600182019050919050565b5f81905092915050565b5f611aea82611091565b611af48185611ad6565b9350611b048185602086016110ab565b80840191505092915050565b5f611b1b8284611ae0565b915081905092915050565b5f8154611b3281611661565b611b3c8186611ad6565b9450600182165f8114611b565760018114611b6b57611b9d565b60ff1983168652811515820286019350611b9d565b611b74856116be565b5f5b83811015611b9557815481890152600182019150602081019050611b76565b838801955050505b50505092915050565b5f611bb18284611b26565b915081905092915050565b5f611bc682611091565b611bd081856115bc565b9350611be08185602086016110ab565b611be9816110b9565b840191505092915050565b5f6040820190508181035f830152611c0c8185611bbc565b90508181036020830152611c208184611bbc565b90509392505050565b7f49500000000000000000000000000000000000000000000000000000000000005f82015250565b5f611c5d600283611ad6565b9150611c6882611c29565b600282019050919050565b5f611c7d82611c51565b9150819050919050565b7f55524c00000000000000000000000000000000000000000000000000000000005f82015250565b5f611cbb600383611ad6565b9150611cc682611c87565b600382019050919050565b5f611cdb82611caf565b9150819050919050565b7f48617368000000000000000000000000000000000000000000000000000000005f82015250565b5f611d19600483611ad6565b9150611d2482611ce5565b600482019050919050565b5f611d3982611d0d565b9150819050919050565b7f456d61696c0000000000000000000000000000000000000000000000000000005f82015250565b5f611d77600583611ad6565b9150611d8282611d43565b600582019050919050565b5f611d9782611d6b565b9150819050919050565b5f611dab82611033565b9150611db683611033565b9250828203905081811115611dce57611dcd611a62565b5b92915050565b5f611dde82611033565b9150611de983611033565b9250828201905080821115611e0157611e00611a62565b5b9291505056fea264697066735822122027bde8c126876ef5e6048254cd56da6f9e1e9fce6b3a2f2eb1198970276908dc64736f6c63430008190033",
			"opcodes": "PUSH1 0x80 PUSH1 0x40 MSTORE PUSH0 PUSH1 0x1 SSTORE CALLVALUE DUP1 ISZERO PUSH2 0x13 JUMPI PUSH0 DUP1 REVERT JUMPDEST POP PUSH1 0x2 DUP1 PUSH1 0x1 DUP2 SLOAD ADD DUP1 DUP3 SSTORE DUP1 SWAP2 POP POP PUSH1 0x1 SWAP1 SUB SWAP1 PUSH0 MSTORE PUSH1 0x20 PUSH0 KECCAK256 ADD PUSH0 PUSH1 0x40 MLOAD DUP1 PUSH1 0x40 ADD PUSH1 0x40 MSTORE DUP1 PUSH1 0x2 DUP2 MSTORE PUSH1 0x20 ADD PUSH32 0x4950000000000000000000000000000000000000000000000000000000000000 DUP2 MSTORE POP SWAP1 SWAP2 SWAP1 SWAP2 POP SWAP1 DUP2 PUSH2 0x77 SWAP2 SWAP1 PUSH2 0x3E3 JUMP JUMPDEST POP PUSH1 0x2 DUP1 PUSH1 0x1 DUP2 SLOAD ADD DUP1 DUP3 SSTORE DUP1 SWAP2 POP POP PUSH1 0x1 SWAP1 SUB SWAP1 PUSH0 MSTORE PUSH1 0x20 PUSH0 KECCAK256 ADD PUSH0 PUSH1 0x40 MLOAD DUP1 PUSH1 0x40 ADD PUSH1 0x40 MSTORE DUP1 PUSH1 0x3 DUP2 MSTORE PUSH1 0x20 ADD PUSH32 0x55524C0000000000000000000000000000000000000000000000000000000000 DUP2 MSTORE POP SWAP1 SWAP2 SWAP1 SWAP2 POP SWAP1 DUP2 PUSH2 0xDB SWAP2 SWAP1 PUSH2 0x3E3 JUMP JUMPDEST POP PUSH1 0x2 DUP1 PUSH1 0x1 DUP2 SLOAD ADD DUP1 DUP3 SSTORE DUP1 SWAP2 POP POP PUSH1 0x1 SWAP1 SUB SWAP1 PUSH0 MSTORE PUSH1 0x20 PUSH0 KECCAK256 ADD PUSH0 PUSH1 0x40 MLOAD DUP1 PUSH1 0x40 ADD PUSH1 0x40 MSTORE DUP1 PUSH1 0x4 DUP2 MSTORE PUSH1 0x20 ADD PUSH32 0x4861736800000000000000000000000000000000000000000000000000000000 DUP2 MSTORE POP SWAP1 SWAP2 SWAP1 SWAP2 POP SWAP1 DUP2 PUSH2 0x13F SWAP2 SWAP1 PUSH2 0x3E3 JUMP JUMPDEST POP PUSH1 0x2 DUP1 PUSH1 0x1 DUP2 SLOAD ADD DUP1 DUP3 SSTORE DUP1 SWAP2 POP POP PUSH1 0x1 SWAP1 SUB SWAP1 PUSH0 MSTORE PUSH1 0x20 PUSH0 KECCAK256 ADD PUSH0 PUSH1 0x40 MLOAD DUP1 PUSH1 0x40 ADD PUSH1 0x40 MSTORE DUP1 PUSH1 0x5 DUP2 MSTORE PUSH1 0x20 ADD PUSH32 0x456D61696C000000000000000000000000000000000000000000000000000000 DUP2 MSTORE POP SWAP1 SWAP2 SWAP1 SWAP2 POP SWAP1 DUP2 PUSH2 0x1A3 SWAP2 SWAP1 PUSH2 0x3E3 JUMP JUMPDEST POP PUSH2 0x4B2 JUMP JUMPDEST PUSH0 DUP2 MLOAD SWAP1 POP SWAP2 SWAP1 POP JUMP JUMPDEST PUSH32 0x4E487B7100000000000000000000000000000000000000000000000000000000 PUSH0 MSTORE PUSH1 0x41 PUSH1 0x4 MSTORE PUSH1 0x24 PUSH0 REVERT JUMPDEST PUSH32 0x4E487B7100000000000000000000000000000000000000000000000000000000 PUSH0 MSTORE PUSH1 0x22 PUSH1 0x4 MSTORE PUSH1 0x24 PUSH0 REVERT JUMPDEST PUSH0 PUSH1 0x2 DUP3 DIV SWAP1 POP PUSH1 0x1 DUP3 AND DUP1 PUSH2 0x224 JUMPI PUSH1 0x7F DUP3 AND SWAP2 POP JUMPDEST PUSH1 0x20 DUP3 LT DUP2 SUB PUSH2 0x237 JUMPI PUSH2 0x236 PUSH2 0x1E0 JUMP JUMPDEST JUMPDEST POP SWAP2 SWAP1 POP JUMP JUMPDEST PUSH0 DUP2 SWAP1 POP DUP2 PUSH0 MSTORE PUSH1 0x20 PUSH0 KECCAK256 SWAP1 POP SWAP2 SWAP1 POP JUMP JUMPDEST PUSH0 PUSH1 0x20 PUSH1 0x1F DUP4 ADD DIV SWAP1 POP SWAP2 SWAP1 POP JUMP JUMPDEST PUSH0 DUP3 DUP3 SHL SWAP1 POP SWAP3 SWAP2 POP POP JUMP JUMPDEST PUSH0 PUSH1 0x8 DUP4 MUL PUSH2 0x299 PUSH32 0xFFFFFFFFFFFFFFFFFFFFFFFFFFFFFFFFFFFFFFFFFFFFFFFFFFFFFFFFFFFFFFFF DUP3 PUSH2 0x25E JUMP JUMPDEST PUSH2 0x2A3 DUP7 DUP4 PUSH2 0x25E JUMP JUMPDEST SWAP6 POP DUP1 NOT DUP5 AND SWAP4 POP DUP1 DUP7 AND DUP5 OR SWAP3 POP POP POP SWAP4 SWAP3 POP POP POP JUMP JUMPDEST PUSH0 DUP2 SWAP1 POP SWAP2 SWAP1 POP JUMP JUMPDEST PUSH0 DUP2 SWAP1 POP SWAP2 SWAP1 POP JUMP JUMPDEST PUSH0 PUSH2 0x2E7 PUSH2 0x2E2 PUSH2 0x2DD DUP5 PUSH2 0x2BB JUMP JUMPDEST PUSH2 0x2C4 JUMP JUMPDEST PUSH2 0x2BB JUMP JUMPDEST SWAP1 POP SWAP2 SWAP1 POP JUMP JUMPDEST PUSH0 DUP2 SWAP1 POP SWAP2 SWAP1 POP JUMP JUMPDEST PUSH2 0x300 DUP4 PUSH2 0x2CD JUMP JUMPDEST PUSH2 0x314 PUSH2 0x30C DUP3 PUSH2 0x2EE JUMP JUMPDEST DUP5 DUP5 SLOAD PUSH2 0x26A JUMP JUMPDEST DUP3 SSTORE POP POP POP POP JUMP JUMPDEST PUSH0 SWAP1 JUMP JUMPDEST PUSH2 0x328 PUSH2 0x31C JUMP JUMPDEST PUSH2 0x333 DUP2 DUP5 DUP5 PUSH2 0x2F7 JUMP JUMPDEST POP POP POP JUMP JUMPDEST JUMPDEST DUP2 DUP2 LT ISZERO PUSH2 0x356 JUMPI PUSH2 0x34B PUSH0 DUP3 PUSH2 0x320 JUMP JUMPDEST PUSH1 0x1 DUP2 ADD SWAP1 POP PUSH2 0x339 JUMP JUMPDEST POP POP JUMP JUMPDEST PUSH1 0x1F DUP3 GT ISZERO PUSH2 0x39B JUMPI PUSH2 0x36C DUP2 PUSH2 0x23D JUMP JUMPDEST PUSH2 0x375 DUP5 PUSH2 0x24F JUMP JUMPDEST DUP2 ADD PUSH1 0x20 DUP6 LT ISZERO PUSH2 0x384 JUMPI DUP2 SWAP1 POP JUMPDEST PUSH2 0x398 PUSH2 0x390 DUP6 PUSH2 0x24F JUMP JUMPDEST DUP4 ADD DUP3 PUSH2 0x338 JUMP JUMPDEST POP POP JUMPDEST POP POP POP JUMP JUMPDEST PUSH0 DUP3 DUP3 SHR SWAP1 POP SWAP3 SWAP2 POP POP JUMP JUMPDEST PUSH0 PUSH2 0x3BB PUSH0 NOT DUP5 PUSH1 0x8 MUL PUSH2 0x3A0 JUMP JUMPDEST NOT DUP1 DUP4 AND SWAP2 POP POP SWAP3 SWAP2 POP POP JUMP JUMPDEST PUSH0 PUSH2 0x3D3 DUP4 DUP4 PUSH2 0x3AC JUMP JUMPDEST SWAP2 POP DUP3 PUSH1 0x2 MUL DUP3 OR SWAP1 POP SWAP3 SWAP2 POP POP JUMP JUMPDEST PUSH2 0x3EC DUP3 PUSH2 0x1A9 JUMP JUMPDEST PUSH8 0xFFFFFFFFFFFFFFFF DUP2 GT ISZERO PUSH2 0x405 JUMPI PUSH2 0x404 PUSH2 0x1B3 JUMP JUMPDEST JUMPDEST PUSH2 0x40F DUP3 SLOAD PUSH2 0x20D JUMP JUMPDEST PUSH2 0x41A DUP3 DUP3 DUP6 PUSH2 0x35A JUMP JUMPDEST PUSH0 PUSH1 0x20 SWAP1 POP PUSH1 0x1F DUP4 GT PUSH1 0x1 DUP2 EQ PUSH2 0x44B JUMPI PUSH0 DUP5 ISZERO PUSH2 0x439 JUMPI DUP3 DUP8 ADD MLOAD SWAP1 POP JUMPDEST PUSH2 0x443 DUP6 DUP3 PUSH2 0x3C8 JUMP JUMPDEST DUP7 SSTORE POP PUSH2 0x4AA JUMP JUMPDEST PUSH1 0x1F NOT DUP5 AND PUSH2 0x459 DUP7 PUSH2 0x23D JUMP JUMPDEST PUSH0 JUMPDEST DUP3 DUP2 LT ISZERO PUSH2 0x480 JUMPI DUP5 DUP10 ADD MLOAD DUP3 SSTORE PUSH1 0x1 DUP3 ADD SWAP2 POP PUSH1 0x20 DUP6 ADD SWAP5 POP PUSH1 0x20 DUP2 ADD SWAP1 POP PUSH2 0x45B JUMP JUMPDEST DUP7 DUP4 LT ISZERO PUSH2 0x49D JUMPI DUP5 DUP10 ADD MLOAD PUSH2 0x499 PUSH1 0x1F DUP10 AND DUP3 PUSH2 0x3AC JUMP JUMPDEST DUP4 SSTORE POP JUMPDEST PUSH1 0x1 PUSH1 0x2 DUP9 MUL ADD DUP9 SSTORE POP POP POP JUMPDEST POP POP POP POP POP POP JUMP JUMPDEST PUSH2 0x1E3D DUP1 PUSH2 0x4BF PUSH0 CODECOPY PUSH0 RETURN INVALID PUSH1 0x80 PUSH1 0x40 MSTORE CALLVALUE DUP1 ISZERO PUSH2 0xF JUMPI PUSH0 DUP1 REVERT JUMPDEST POP PUSH1 0x4 CALLDATASIZE LT PUSH2 0x7B JUMPI PUSH0 CALLDATALOAD PUSH1 0xE0 SHR DUP1 PUSH4 0x9290AAA2 GT PUSH2 0x59 JUMPI DUP1 PUSH4 0x9290AAA2 EQ PUSH2 0xE9 JUMPI DUP1 PUSH4 0xCCD666D2 EQ PUSH2 0x105 JUMPI DUP1 PUSH4 0xE8E46333 EQ PUSH2 0x121 JUMPI DUP1 PUSH4 0xF6B7AF94 EQ PUSH2 0x151 JUMPI PUSH2 0x7B JUMP JUMPDEST DUP1 PUSH4 0x390B6116 EQ PUSH2 0x7F JUMPI DUP1 PUSH4 0x55F40BA9 EQ PUSH2 0xAF JUMPI DUP1 PUSH4 0x6143A4EC EQ PUSH2 0xCD JUMPI JUMPDEST PUSH0 DUP1 REVERT JUMPDEST PUSH2 0x99 PUSH1 0x4 DUP1 CALLDATASIZE SUB DUP2 ADD SWAP1 PUSH2 0x94 SWAP2 SWAP1 PUSH2 0x1066 JUMP JUMPDEST PUSH2 0x16D JUMP JUMPDEST PUSH1 0x40 MLOAD PUSH2 0xA6 SWAP2 SWAP1 PUSH2 0x11B6 JUMP JUMPDEST PUSH1 0x40 MLOAD DUP1 SWAP2 SUB SWAP1 RETURN JUMPDEST PUSH2 0xB7 PUSH2 0x359 JUMP JUMPDEST PUSH1 0x40 MLOAD PUSH2 0xC4 SWAP2 SWAP1 PUSH2 0x12F8 JUMP JUMPDEST PUSH1 0x40 MLOAD DUP1 SWAP2 SUB SWAP1 RETURN JUMPDEST PUSH2 0xE7 PUSH1 0x4 DUP1 CALLDATASIZE SUB DUP2 ADD SWAP1 PUSH2 0xE2 SWAP2 SWAP1 PUSH2 0x1444 JUMP JUMPDEST PUSH2 0x5E8 JUMP JUMPDEST STOP JUMPDEST PUSH2 0x103 PUSH1 0x4 DUP1 CALLDATASIZE SUB DUP2 ADD SWAP1 PUSH2 0xFE SWAP2 SWAP1 PUSH2 0x148B JUMP JUMPDEST PUSH2 0x61D JUMP JUMPDEST STOP JUMPDEST PUSH2 0x11F PUSH1 0x4 DUP1 CALLDATASIZE SUB DUP2 ADD SWAP1 PUSH2 0x11A SWAP2 SWAP1 PUSH2 0x1066 JUMP JUMPDEST PUSH2 0x7DD JUMP JUMPDEST STOP JUMPDEST PUSH2 0x13B PUSH1 0x4 DUP1 CALLDATASIZE SUB DUP2 ADD SWAP1 PUSH2 0x136 SWAP2 SWAP1 PUSH2 0x1444 JUMP JUMPDEST PUSH2 0x8AE JUMP JUMPDEST PUSH1 0x40 MLOAD PUSH2 0x148 SWAP2 SWAP1 PUSH2 0x151B JUMP JUMPDEST PUSH1 0x40 MLOAD DUP1 SWAP2 SUB SWAP1 RETURN JUMPDEST PUSH2 0x16B PUSH1 0x4 DUP1 CALLDATASIZE SUB DUP2 ADD SWAP1 PUSH2 0x166 SWAP2 SWAP1 PUSH2 0x1534 JUMP JUMPDEST PUSH2 0x944 JUMP JUMPDEST STOP JUMPDEST PUSH2 0x175 PUSH2 0xF8E JUMP JUMPDEST PUSH1 0x1 SLOAD DUP3 LT PUSH2 0x1B9 JUMPI PUSH1 0x40 MLOAD PUSH32 0x8C379A000000000000000000000000000000000000000000000000000000000 DUP2 MSTORE PUSH1 0x4 ADD PUSH2 0x1B0 SWAP1 PUSH2 0x1616 JUMP JUMPDEST PUSH1 0x40 MLOAD DUP1 SWAP2 SUB SWAP1 REVERT JUMPDEST PUSH0 DUP1 DUP4 DUP2 MSTORE PUSH1 0x20 ADD SWAP1 DUP2 MSTORE PUSH1 0x20 ADD PUSH0 KECCAK256 PUSH1 0x40 MLOAD DUP1 PUSH1 0x80 ADD PUSH1 0x40 MSTORE SWAP1 DUP2 PUSH0 DUP3 ADD DUP1 SLOAD PUSH2 0x1E3 SWAP1 PUSH2 0x1661 JUMP JUMPDEST DUP1 PUSH1 0x1F ADD PUSH1 0x20 DUP1 SWAP2 DIV MUL PUSH1 0x20 ADD PUSH1 0x40 MLOAD SWAP1 DUP2 ADD PUSH1 0x40 MSTORE DUP1 SWAP3 SWAP2 SWAP1 DUP2 DUP2 MSTORE PUSH1 0x20 ADD DUP3 DUP1 SLOAD PUSH2 0x20F SWAP1 PUSH2 0x1661 JUMP JUMPDEST DUP1 ISZERO PUSH2 0x25A JUMPI DUP1 PUSH1 0x1F LT PUSH2 0x231 JUMPI PUSH2 0x100 DUP1 DUP4 SLOAD DIV MUL DUP4 MSTORE SWAP2 PUSH1 0x20 ADD SWAP2 PUSH2 0x25A JUMP JUMPDEST DUP3 ADD SWAP2 SWAP1 PUSH0 MSTORE PUSH1 0x20 PUSH0 KECCAK256 SWAP1 JUMPDEST DUP2 SLOAD DUP2 MSTORE SWAP1 PUSH1 0x1 ADD SWAP1 PUSH1 0x20 ADD DUP1 DUP4 GT PUSH2 0x23D JUMPI DUP3 SWAP1 SUB PUSH1 0x1F AND DUP3 ADD SWAP2 JUMPDEST POP POP POP POP POP DUP2 MSTORE PUSH1 0x20 ADD PUSH1 0x1 DUP3 ADD DUP1 SLOAD PUSH2 0x273 SWAP1 PUSH2 0x1661 JUMP JUMPDEST DUP1 PUSH1 0x1F ADD PUSH1 0x20 DUP1 SWAP2 DIV MUL PUSH1 0x20 ADD PUSH1 0x40 MLOAD SWAP1 DUP2 ADD PUSH1 0x40 MSTORE DUP1 SWAP3 SWAP2 SWAP1 DUP2 DUP2 MSTORE PUSH1 0x20 ADD DUP3 DUP1 SLOAD PUSH2 0x29F SWAP1 PUSH2 0x1661 JUMP JUMPDEST DUP1 ISZERO PUSH2 0x2EA JUMPI DUP1 PUSH1 0x1F LT PUSH2 0x2C1 JUMPI PUSH2 0x100 DUP1 DUP4 SLOAD DIV MUL DUP4 MSTORE SWAP2 PUSH1 0x20 ADD SWAP2 PUSH2 0x2EA JUMP JUMPDEST DUP3 ADD SWAP2 SWAP1 PUSH0 MSTORE PUSH1 0x20 PUSH0 KECCAK256 SWAP1 JUMPDEST DUP2 SLOAD DUP2 MSTORE SWAP1 PUSH1 0x1 ADD SWAP1 PUSH1 0x20 ADD DUP1 DUP4 GT PUSH2 0x2CD JUMPI DUP3 SWAP1 SUB PUSH1 0x1F AND DUP3 ADD SWAP2 JUMPDEST POP POP POP POP POP DUP2 MSTORE PUSH1 0x20 ADD PUSH1 0x2 DUP3 ADD PUSH0 SWAP1 SLOAD SWAP1 PUSH2 0x100 EXP SWAP1 DIV PUSH20 0xFFFFFFFFFFFFFFFFFFFFFFFFFFFFFFFFFFFFFFFF AND PUSH20 0xFFFFFFFFFFFFFFFFFFFFFFFFFFFFFFFFFFFFFFFF AND PUSH20 0xFFFFFFFFFFFFFFFFFFFFFFFFFFFFFFFFFFFFFFFF AND DUP2 MSTORE PUSH1 0x20 ADD PUSH1 0x3 DUP3 ADD SLOAD DUP2 MSTORE POP POP SWAP1 POP SWAP2 SWAP1 POP JUMP JUMPDEST PUSH1 0x60 PUSH0 PUSH1 0x1 SLOAD PUSH8 0xFFFFFFFFFFFFFFFF DUP2 GT ISZERO PUSH2 0x378 JUMPI PUSH2 0x377 PUSH2 0x1320 JUMP JUMPDEST JUMPDEST PUSH1 0x40 MLOAD SWAP1 DUP1 DUP3 MSTORE DUP1 PUSH1 0x20 MUL PUSH1 0x20 ADD DUP3 ADD PUSH1 0x40 MSTORE DUP1 ISZERO PUSH2 0x3B1 JUMPI DUP2 PUSH1 0x20 ADD JUMPDEST PUSH2 0x39E PUSH2 0xF8E JUMP JUMPDEST DUP2 MSTORE PUSH1 0x20 ADD SWAP1 PUSH1 0x1 SWAP1 SUB SWAP1 DUP2 PUSH2 0x396 JUMPI SWAP1 POP JUMPDEST POP SWAP1 POP PUSH0 JUMPDEST PUSH1 0x1 SLOAD DUP2 LT ISZERO PUSH2 0x5E0 JUMPI PUSH0 DUP1 PUSH0 DUP4 DUP2 MSTORE PUSH1 0x20 ADD SWAP1 DUP2 MSTORE PUSH1 0x20 ADD PUSH0 KECCAK256 SWAP1 POP PUSH0 PUSH20 0xFFFFFFFFFFFFFFFFFFFFFFFFFFFFFFFFFFFFFFFF AND DUP2 PUSH1 0x2 ADD PUSH0 SWAP1 SLOAD SWAP1 PUSH2 0x100 EXP SWAP1 DIV PUSH20 0xFFFFFFFFFFFFFFFFFFFFFFFFFFFFFFFFFFFFFFFF AND PUSH20 0xFFFFFFFFFFFFFFFFFFFFFFFFFFFFFFFFFFFFFFFF AND EQ PUSH2 0x5D2 JUMPI DUP1 PUSH1 0x40 MLOAD DUP1 PUSH1 0x80 ADD PUSH1 0x40 MSTORE SWAP1 DUP2 PUSH0 DUP3 ADD DUP1 SLOAD PUSH2 0x444 SWAP1 PUSH2 0x1661 JUMP JUMPDEST DUP1 PUSH1 0x1F ADD PUSH1 0x20 DUP1 SWAP2 DIV MUL PUSH1 0x20 ADD PUSH1 0x40 MLOAD SWAP1 DUP2 ADD PUSH1 0x40 MSTORE DUP1 SWAP3 SWAP2 SWAP1 DUP2 DUP2 MSTORE PUSH1 0x20 ADD DUP3 DUP1 SLOAD PUSH2 0x470 SWAP1 PUSH2 0x1661 JUMP JUMPDEST DUP1 ISZERO PUSH2 0x4BB JUMPI DUP1 PUSH1 0x1F LT PUSH2 0x492 JUMPI PUSH2 0x100 DUP1 DUP4 SLOAD DIV MUL DUP4 MSTORE SWAP2 PUSH1 0x20 ADD SWAP2 PUSH2 0x4BB JUMP JUMPDEST DUP3 ADD SWAP2 SWAP1 PUSH0 MSTORE PUSH1 0x20 PUSH0 KECCAK256 SWAP1 JUMPDEST DUP2 SLOAD DUP2 MSTORE SWAP1 PUSH1 0x1 ADD SWAP1 PUSH1 0x20 ADD DUP1 DUP4 GT PUSH2 0x49E JUMPI DUP3 SWAP1 SUB PUSH1 0x1F AND DUP3 ADD SWAP2 JUMPDEST POP POP POP POP POP DUP2 MSTORE PUSH1 0x20 ADD PUSH1 0x1 DUP3 ADD DUP1 SLOAD PUSH2 0x4D4 SWAP1 PUSH2 0x1661 JUMP JUMPDEST DUP1 PUSH1 0x1F ADD PUSH1 0x20 DUP1 SWAP2 DIV MUL PUSH1 0x20 ADD PUSH1 0x40 MLOAD SWAP1 DUP2 ADD PUSH1 0x40 MSTORE DUP1 SWAP3 SWAP2 SWAP1 DUP2 DUP2 MSTORE PUSH1 0x20 ADD DUP3 DUP1 SLOAD PUSH2 0x500 SWAP1 PUSH2 0x1661 JUMP JUMPDEST DUP1 ISZERO PUSH2 0x54B JUMPI DUP1 PUSH1 0x1F LT PUSH2 0x522 JUMPI PUSH2 0x100 DUP1 DUP4 SLOAD DIV MUL DUP4 MSTORE SWAP2 PUSH1 0x20 ADD SWAP2 PUSH2 0x54B JUMP JUMPDEST DUP3 ADD SWAP2 SWAP1 PUSH0 MSTORE PUSH1 0x20 PUSH0 KECCAK256 SWAP1 JUMPDEST DUP2 SLOAD DUP2 MSTORE SWAP1 PUSH1 0x1 ADD SWAP1 PUSH1 0x20 ADD DUP1 DUP4 GT PUSH2 0x52E JUMPI DUP3 SWAP1 SUB PUSH1 0x1F AND DUP3 ADD SWAP2 JUMPDEST POP POP POP POP POP DUP2 MSTORE PUSH1 0x20 ADD PUSH1 0x2 DUP3 ADD PUSH0 SWAP1 SLOAD SWAP1 PUSH2 0x100 EXP SWAP1 DIV PUSH20 0xFFFFFFFFFFFFFFFFFFFFFFFFFFFFFFFFFFFFFFFF AND PUSH20 0xFFFFFFFFFFFFFFFFFFFFFFFFFFFFFFFFFFFFFFFF AND PUSH20 0xFFFFFFFFFFFFFFFFFFFFFFFFFFFFFFFFFFFFFFFF AND DUP2 MSTORE PUSH1 0x20 ADD PUSH1 0x3 DUP3 ADD SLOAD DUP2 MSTORE POP POP DUP4 DUP4 DUP2 MLOAD DUP2 LT PUSH2 0x5C6 JUMPI PUSH2 0x5C5 PUSH2 0x1691 JUMP JUMPDEST JUMPDEST PUSH1 0x20 MUL PUSH1 0x20 ADD ADD DUP2 SWAP1 MSTORE POP JUMPDEST POP DUP1 DUP1 PUSH1 0x1 ADD SWAP2 POP POP PUSH2 0x3B6 JUMP JUMPDEST POP DUP1 SWAP2 POP POP SWAP1 JUMP JUMPDEST PUSH1 0x2 DUP2 SWAP1 DUP1 PUSH1 0x1 DUP2 SLOAD ADD DUP1 DUP3 SSTORE DUP1 SWAP2 POP POP PUSH1 0x1 SWAP1 SUB SWAP1 PUSH0 MSTORE PUSH1 0x20 PUSH0 KECCAK256 ADD PUSH0 SWAP1 SWAP2 SWAP1 SWAP2 SWAP1 SWAP2 POP SWAP1 DUP2 PUSH2 0x619 SWAP2 SWAP1 PUSH2 0x185B JUMP JUMPDEST POP POP JUMP JUMPDEST PUSH2 0x626 DUP3 PUSH2 0xAD8 JUMP JUMPDEST PUSH2 0x665 JUMPI PUSH1 0x40 MLOAD PUSH32 0x8C379A000000000000000000000000000000000000000000000000000000000 DUP2 MSTORE PUSH1 0x4 ADD PUSH2 0x65C SWAP1 PUSH2 0x1974 JUMP JUMPDEST PUSH1 0x40 MLOAD DUP1 SWAP2 SUB SWAP1 REVERT JUMPDEST PUSH2 0x66F DUP3 DUP3 PUSH2 0xB7A JUMP JUMPDEST PUSH2 0x6AE JUMPI PUSH1 0x40 MLOAD PUSH32 0x8C379A000000000000000000000000000000000000000000000000000000000 DUP2 MSTORE PUSH1 0x4 ADD PUSH2 0x6A5 SWAP1 PUSH2 0x19DC JUMP JUMPDEST PUSH1 0x40 MLOAD DUP1 SWAP2 SUB SWAP1 REVERT JUMPDEST PUSH2 0x6B7 DUP2 PUSH2 0x8AE JUMP JUMPDEST ISZERO PUSH2 0x6F7 JUMPI PUSH1 0x40 MLOAD PUSH32 0x8C379A000000000000000000000000000000000000000000000000000000000 DUP2 MSTORE PUSH1 0x4 ADD PUSH2 0x6EE SWAP1 PUSH2 0x1A44 JUMP JUMPDEST PUSH1 0x40 MLOAD DUP1 SWAP2 SUB SWAP1 REVERT JUMPDEST PUSH0 PUSH1 0x40 MLOAD DUP1 PUSH1 0x80 ADD PUSH1 0x40 MSTORE DUP1 DUP5 DUP2 MSTORE PUSH1 0x20 ADD DUP4 DUP2 MSTORE PUSH1 0x20 ADD CALLER PUSH20 0xFFFFFFFFFFFFFFFFFFFFFFFFFFFFFFFFFFFFFFFF AND DUP2 MSTORE PUSH1 0x20 ADD TIMESTAMP DUP2 MSTORE POP SWAP1 POP DUP1 PUSH0 DUP1 PUSH1 0x1 SLOAD DUP2 MSTORE PUSH1 0x20 ADD SWAP1 DUP2 MSTORE PUSH1 0x20 ADD PUSH0 KECCAK256 PUSH0 DUP3 ADD MLOAD DUP2 PUSH0 ADD SWAP1 DUP2 PUSH2 0x757 SWAP2 SWAP1 PUSH2 0x185B JUMP JUMPDEST POP PUSH1 0x20 DUP3 ADD MLOAD DUP2 PUSH1 0x1 ADD SWAP1 DUP2 PUSH2 0x76D SWAP2 SWAP1 PUSH2 0x185B JUMP JUMPDEST POP PUSH1 0x40 DUP3 ADD MLOAD DUP2 PUSH1 0x2 ADD PUSH0 PUSH2 0x100 EXP DUP2 SLOAD DUP2 PUSH20 0xFFFFFFFFFFFFFFFFFFFFFFFFFFFFFFFFFFFFFFFF MUL NOT AND SWAP1 DUP4 PUSH20 0xFFFFFFFFFFFFFFFFFFFFFFFFFFFFFFFFFFFFFFFF AND MUL OR SWAP1 SSTORE POP PUSH1 0x60 DUP3 ADD MLOAD DUP2 PUSH1 0x3 ADD SSTORE SWAP1 POP POP PUSH1 0x1 PUSH0 DUP2 SLOAD DUP1 SWAP3 SWAP2 SWAP1 PUSH2 0x7D3 SWAP1 PUSH2 0x1A8F JUMP JUMPDEST SWAP2 SWAP1 POP SSTORE POP POP POP POP JUMP JUMPDEST PUSH1 0x1 SLOAD DUP2 LT PUSH2 0x821 JUMPI PUSH1 0x40 MLOAD PUSH32 0x8C379A000000000000000000000000000000000000000000000000000000000 DUP2 MSTORE PUSH1 0x4 ADD PUSH2 0x818 SWAP1 PUSH2 0x1616 JUMP JUMPDEST PUSH1 0x40 MLOAD DUP1 SWAP2 SUB SWAP1 REVERT JUMPDEST PUSH0 DUP1 DUP3 DUP2 MSTORE PUSH1 0x20 ADD SWAP1 DUP2 MSTORE PUSH1 0x20 ADD PUSH0 KECCAK256 PUSH0 DUP1 DUP3 ADD PUSH0 PUSH2 0x840 SWAP2 SWAP1 PUSH2 0xFCA JUMP JUMPDEST PUSH1 0x1 DUP3 ADD PUSH0 PUSH2 0x84F SWAP2 SWAP1 PUSH2 0xFCA JUMP JUMPDEST PUSH1 0x2 DUP3 ADD PUSH0 PUSH2 0x100 EXP DUP2 SLOAD SWAP1 PUSH20 0xFFFFFFFFFFFFFFFFFFFFFFFFFFFFFFFFFFFFFFFF MUL NOT AND SWAP1 SSTORE PUSH1 0x3 DUP3 ADD PUSH0 SWAP1 SSTORE POP POP DUP1 PUSH32 0xECE49E958A603088B69DF25DBED8FA3DEF065BADCD84C0FD126F55D875B3E204 PUSH1 0x40 MLOAD PUSH1 0x40 MLOAD DUP1 SWAP2 SUB SWAP1 LOG2 POP JUMP JUMPDEST PUSH0 DUP1 PUSH0 SWAP1 POP JUMPDEST PUSH1 0x1 SLOAD DUP2 LT ISZERO PUSH2 0x93A JUMPI DUP3 PUSH1 0x40 MLOAD PUSH1 0x20 ADD PUSH2 0x8CF SWAP2 SWAP1 PUSH2 0x1B10 JUMP JUMPDEST PUSH1 0x40 MLOAD PUSH1 0x20 DUP2 DUP4 SUB SUB DUP2 MSTORE SWAP1 PUSH1 0x40 MSTORE DUP1 MLOAD SWAP1 PUSH1 0x20 ADD KECCAK256 PUSH0 DUP1 DUP4 DUP2 MSTORE PUSH1 0x20 ADD SWAP1 DUP2 MSTORE PUSH1 0x20 ADD PUSH0 KECCAK256 PUSH1 0x1 ADD PUSH1 0x40 MLOAD PUSH1 0x20 ADD PUSH2 0x908 SWAP2 SWAP1 PUSH2 0x1BA6 JUMP JUMPDEST PUSH1 0x40 MLOAD PUSH1 0x20 DUP2 DUP4 SUB SUB DUP2 MSTORE SWAP1 PUSH1 0x40 MSTORE DUP1 MLOAD SWAP1 PUSH1 0x20 ADD KECCAK256 SUB PUSH2 0x92D JUMPI PUSH1 0x1 SWAP2 POP POP PUSH2 0x93F JUMP JUMPDEST DUP1 DUP1 PUSH1 0x1 ADD SWAP2 POP POP PUSH2 0x8B4 JUMP JUMPDEST POP PUSH0 SWAP1 POP JUMPDEST SWAP2 SWAP1 POP JUMP JUMPDEST PUSH1 0x1 SLOAD DUP4 LT PUSH2 0x988 JUMPI PUSH1 0x40 MLOAD PUSH32 0x8C379A000000000000000000000000000000000000000000000000000000000 DUP2 MSTORE PUSH1 0x4 ADD PUSH2 0x97F SWAP1 PUSH2 0x1616 JUMP JUMPDEST PUSH1 0x40 MLOAD DUP1 SWAP2 SUB SWAP1 REVERT JUMPDEST PUSH2 0x991 DUP3 PUSH2 0xAD8 JUMP JUMPDEST PUSH2 0x9D0 JUMPI PUSH1 0x40 MLOAD PUSH32 0x8C379A000000000000000000000000000000000000000000000000000000000 DUP2 MSTORE PUSH1 0x4 ADD PUSH2 0x9C7 SWAP1 PUSH2 0x1974 JUMP JUMPDEST PUSH1 0x40 MLOAD DUP1 SWAP2 SUB SWAP1 REVERT JUMPDEST PUSH2 0x9DA DUP3 DUP3 PUSH2 0xB7A JUMP JUMPDEST PUSH2 0xA19 JUMPI PUSH1 0x40 MLOAD PUSH32 0x8C379A000000000000000000000000000000000000000000000000000000000 DUP2 MSTORE PUSH1 0x4 ADD PUSH2 0xA10 SWAP1 PUSH2 0x19DC JUMP JUMPDEST PUSH1 0x40 MLOAD DUP1 SWAP2 SUB SWAP1 REVERT JUMPDEST PUSH2 0xA22 DUP2 PUSH2 0x8AE JUMP JUMPDEST ISZERO PUSH2 0xA62 JUMPI PUSH1 0x40 MLOAD PUSH32 0x8C379A000000000000000000000000000000000000000000000000000000000 DUP2 MSTORE PUSH1 0x4 ADD PUSH2 0xA59 SWAP1 PUSH2 0x1A44 JUMP JUMPDEST PUSH1 0x40 MLOAD DUP1 SWAP2 SUB SWAP1 REVERT JUMPDEST PUSH0 DUP1 PUSH0 DUP6 DUP2 MSTORE PUSH1 0x20 ADD SWAP1 DUP2 MSTORE PUSH1 0x20 ADD PUSH0 KECCAK256 SWAP1 POP DUP3 DUP2 PUSH0 ADD SWAP1 DUP2 PUSH2 0xA85 SWAP2 SWAP1 PUSH2 0x185B JUMP JUMPDEST POP DUP2 DUP2 PUSH1 0x1 ADD SWAP1 DUP2 PUSH2 0xA97 SWAP2 SWAP1 PUSH2 0x185B JUMP JUMPDEST POP DUP4 PUSH32 0x9893F2F232E4AB0D3D56384866504B1D510AFFB204A862B80A809CDEB61079DB DUP5 DUP5 PUSH1 0x40 MLOAD PUSH2 0xACA SWAP3 SWAP2 SWAP1 PUSH2 0x1BF4 JUMP JUMPDEST PUSH1 0x40 MLOAD DUP1 SWAP2 SUB SWAP1 LOG2 POP POP POP POP JUMP JUMPDEST PUSH0 DUP1 PUSH0 SWAP1 POP JUMPDEST PUSH1 0x2 DUP1 SLOAD SWAP1 POP DUP2 LT ISZERO PUSH2 0xB70 JUMPI PUSH1 0x2 DUP2 DUP2 SLOAD DUP2 LT PUSH2 0xAFF JUMPI PUSH2 0xAFE PUSH2 0x1691 JUMP JUMPDEST JUMPDEST SWAP1 PUSH0 MSTORE PUSH1 0x20 PUSH0 KECCAK256 ADD PUSH1 0x40 MLOAD PUSH1 0x20 ADD PUSH2 0xB17 SWAP2 SWAP1 PUSH2 0x1BA6 JUMP JUMPDEST PUSH1 0x40 MLOAD PUSH1 0x20 DUP2 DUP4 SUB SUB DUP2 MSTORE SWAP1 PUSH1 0x40 MSTORE DUP1 MLOAD SWAP1 PUSH1 0x20 ADD KECCAK256 DUP4 PUSH1 0x40 MLOAD PUSH1 0x20 ADD PUSH2 0xB3E SWAP2 SWAP1 PUSH2 0x1B10 JUMP JUMPDEST PUSH1 0x40 MLOAD PUSH1 0x20 DUP2 DUP4 SUB SUB DUP2 MSTORE SWAP1 PUSH1 0x40 MSTORE DUP1 MLOAD SWAP1 PUSH1 0x20 ADD KECCAK256 SUB PUSH2 0xB63 JUMPI PUSH1 0x1 SWAP2 POP POP PUSH2 0xB75 JUMP JUMPDEST DUP1 DUP1 PUSH1 0x1 ADD SWAP2 POP POP PUSH2 0xADE JUMP JUMPDEST POP PUSH0 SWAP1 POP JUMPDEST SWAP2 SWAP1 POP JUMP JUMPDEST PUSH0 DUP1 DUP3 SWAP1 POP PUSH1 0x40 MLOAD PUSH1 0x20 ADD PUSH2 0xB8E SWAP1 PUSH2 0x1C73 JUMP JUMPDEST PUSH1 0x40 MLOAD PUSH1 0x20 DUP2 DUP4 SUB SUB DUP2 MSTORE SWAP1 PUSH1 0x40 MSTORE DUP1 MLOAD SWAP1 PUSH1 0x20 ADD KECCAK256 DUP5 PUSH1 0x40 MLOAD PUSH1 0x20 ADD PUSH2 0xBB5 SWAP2 SWAP1 PUSH2 0x1B10 JUMP JUMPDEST PUSH1 0x40 MLOAD PUSH1 0x20 DUP2 DUP4 SUB SUB DUP2 MSTORE SWAP1 PUSH1 0x40 MSTORE DUP1 MLOAD SWAP1 PUSH1 0x20 ADD KECCAK256 SUB PUSH2 0xC05 JUMPI PUSH1 0x3 PUSH2 0xBFC DUP3 PUSH32 0x2E00000000000000000000000000000000000000000000000000000000000000 PUSH2 0xDD2 JUMP JUMPDEST EQ SWAP2 POP POP PUSH2 0xDCC JUMP JUMPDEST PUSH1 0x40 MLOAD PUSH1 0x20 ADD PUSH2 0xC14 SWAP1 PUSH2 0x1CD1 JUMP JUMPDEST PUSH1 0x40 MLOAD PUSH1 0x20 DUP2 DUP4 SUB SUB DUP2 MSTORE SWAP1 PUSH1 0x40 MSTORE DUP1 MLOAD SWAP1 PUSH1 0x20 ADD KECCAK256 DUP5 PUSH1 0x40 MLOAD PUSH1 0x20 ADD PUSH2 0xC3B SWAP2 SWAP1 PUSH2 0x1B10 JUMP JUMPDEST PUSH1 0x40 MLOAD PUSH1 0x20 DUP2 DUP4 SUB SUB DUP2 MSTORE SWAP1 PUSH1 0x40 MSTORE DUP1 MLOAD SWAP1 PUSH1 0x20 ADD KECCAK256 SUB PUSH2 0xCE3 JUMPI PUSH2 0xC95 DUP4 PUSH1 0x40 MLOAD DUP1 PUSH1 0x40 ADD PUSH1 0x40 MSTORE DUP1 PUSH1 0x7 DUP2 MSTORE PUSH1 0x20 ADD PUSH32 0x687474703A2F2F00000000000000000000000000000000000000000000000000 DUP2 MSTORE POP PUSH2 0xE71 JUMP JUMPDEST DUP1 PUSH2 0xCDB JUMPI POP PUSH2 0xCDA DUP4 PUSH1 0x40 MLOAD DUP1 PUSH1 0x40 ADD PUSH1 0x40 MSTORE DUP1 PUSH1 0x8 DUP2 MSTORE PUSH1 0x20 ADD PUSH32 0x68747470733A2F2F000000000000000000000000000000000000000000000000 DUP2 MSTORE POP PUSH2 0xE71 JUMP JUMPDEST JUMPDEST SWAP2 POP POP PUSH2 0xDCC JUMP JUMPDEST PUSH1 0x40 MLOAD PUSH1 0x20 ADD PUSH2 0xCF2 SWAP1 PUSH2 0x1D2F JUMP JUMPDEST PUSH1 0x40 MLOAD PUSH1 0x20 DUP2 DUP4 SUB SUB DUP2 MSTORE SWAP1 PUSH1 0x40 MSTORE DUP1 MLOAD SWAP1 PUSH1 0x20 ADD KECCAK256 DUP5 PUSH1 0x40 MLOAD PUSH1 0x20 ADD PUSH2 0xD19 SWAP2 SWAP1 PUSH2 0x1B10 JUMP JUMPDEST PUSH1 0x40 MLOAD PUSH1 0x20 DUP2 DUP4 SUB SUB DUP2 MSTORE SWAP1 PUSH1 0x40 MSTORE DUP1 MLOAD SWAP1 PUSH1 0x20 ADD KECCAK256 SUB PUSH2 0xD41 JUMPI PUSH1 0x40 DUP2 MLOAD EQ SWAP2 POP POP PUSH2 0xDCC JUMP JUMPDEST PUSH1 0x40 MLOAD PUSH1 0x20 ADD PUSH2 0xD50 SWAP1 PUSH2 0x1D8D JUMP JUMPDEST PUSH1 0x40 MLOAD PUSH1 0x20 DUP2 DUP4 SUB SUB DUP2 MSTORE SWAP1 PUSH1 0x40 MSTORE DUP1 MLOAD SWAP1 PUSH1 0x20 ADD KECCAK256 DUP5 PUSH1 0x40 MLOAD PUSH1 0x20 ADD PUSH2 0xD77 SWAP2 SWAP1 PUSH2 0x1B10 JUMP JUMPDEST PUSH1 0x40 MLOAD PUSH1 0x20 DUP2 DUP4 SUB SUB DUP2 MSTORE SWAP1 PUSH1 0x40 MSTORE DUP1 MLOAD SWAP1 PUSH1 0x20 ADD KECCAK256 SUB PUSH2 0xDC7 JUMPI PUSH1 0x1 PUSH2 0xDBE DUP3 PUSH32 0x4000000000000000000000000000000000000000000000000000000000000000 PUSH2 0xDD2 JUMP JUMPDEST EQ SWAP2 POP POP PUSH2 0xDCC JUMP JUMPDEST PUSH0 SWAP2 POP POP JUMPDEST SWAP3 SWAP2 POP POP JUMP JUMPDEST PUSH0 DUP1 PUSH0 SWAP1 POP PUSH0 JUMPDEST DUP5 MLOAD DUP2 LT ISZERO PUSH2 0xE66 JUMPI DUP4 PUSH31 0xFFFFFFFFFFFFFFFFFFFFFFFFFFFFFFFFFFFFFFFFFFFFFFFFFFFFFFFFFFFFFF NOT AND DUP6 DUP3 DUP2 MLOAD DUP2 LT PUSH2 0xE18 JUMPI PUSH2 0xE17 PUSH2 0x1691 JUMP JUMPDEST JUMPDEST PUSH1 0x20 ADD ADD MLOAD PUSH1 0xF8 SHR PUSH1 0xF8 SHL PUSH31 0xFFFFFFFFFFFFFFFFFFFFFFFFFFFFFFFFFFFFFFFFFFFFFFFFFFFFFFFFFFFFFF NOT AND SUB PUSH2 0xE59 JUMPI DUP2 DUP1 PUSH2 0xE55 SWAP1 PUSH2 0x1A8F JUMP JUMPDEST SWAP3 POP POP JUMPDEST DUP1 DUP1 PUSH1 0x1 ADD SWAP2 POP POP PUSH2 0xDD9 JUMP JUMPDEST POP DUP1 SWAP2 POP POP SWAP3 SWAP2 POP POP JUMP JUMPDEST PUSH0 DUP1 DUP4 SWAP1 POP PUSH0 DUP4 SWAP1 POP DUP1 MLOAD DUP3 MLOAD LT ISZERO PUSH2 0xE8E JUMPI PUSH0 SWAP3 POP POP POP PUSH2 0xF88 JUMP JUMPDEST PUSH0 JUMPDEST DUP2 MLOAD DUP4 MLOAD PUSH2 0xE9E SWAP2 SWAP1 PUSH2 0x1DA1 JUMP JUMPDEST DUP2 GT PUSH2 0xF81 JUMPI PUSH0 PUSH1 0x1 SWAP1 POP PUSH0 JUMPDEST DUP4 MLOAD DUP2 LT ISZERO PUSH2 0xF59 JUMPI DUP4 DUP2 DUP2 MLOAD DUP2 LT PUSH2 0xEC7 JUMPI PUSH2 0xEC6 PUSH2 0x1691 JUMP JUMPDEST JUMPDEST PUSH1 0x20 ADD ADD MLOAD PUSH1 0xF8 SHR PUSH1 0xF8 SHL PUSH31 0xFFFFFFFFFFFFFFFFFFFFFFFFFFFFFFFFFFFFFFFFFFFFFFFFFFFFFFFFFFFFFF NOT AND DUP6 DUP3 DUP6 PUSH2 0xF01 SWAP2 SWAP1 PUSH2 0x1DD4 JUMP JUMPDEST DUP2 MLOAD DUP2 LT PUSH2 0xF12 JUMPI PUSH2 0xF11 PUSH2 0x1691 JUMP JUMPDEST JUMPDEST PUSH1 0x20 ADD ADD MLOAD PUSH1 0xF8 SHR PUSH1 0xF8 SHL PUSH31 0xFFFFFFFFFFFFFFFFFFFFFFFFFFFFFFFFFFFFFFFFFFFFFFFFFFFFFFFFFFFFFF NOT AND EQ PUSH2 0xF4C JUMPI PUSH0 SWAP2 POP PUSH2 0xF59 JUMP JUMPDEST DUP1 DUP1 PUSH1 0x1 ADD SWAP2 POP POP PUSH2 0xEAB JUMP JUMPDEST POP DUP1 ISZERO PUSH2 0xF6D JUMPI PUSH1 0x1 SWAP5 POP POP POP POP POP PUSH2 0xF88 JUMP JUMPDEST POP DUP1 DUP1 PUSH2 0xF79 SWAP1 PUSH2 0x1A8F JUMP JUMPDEST SWAP2 POP POP PUSH2 0xE90 JUMP JUMPDEST POP PUSH0 SWAP3 POP POP POP JUMPDEST SWAP3 SWAP2 POP POP JUMP JUMPDEST PUSH1 0x40 MLOAD DUP1 PUSH1 0x80 ADD PUSH1 0x40 MSTORE DUP1 PUSH1 0x60 DUP2 MSTORE PUSH1 0x20 ADD PUSH1 0x60 DUP2 MSTORE PUSH1 0x20 ADD PUSH0 PUSH20 0xFFFFFFFFFFFFFFFFFFFFFFFFFFFFFFFFFFFFFFFF AND DUP2 MSTORE PUSH1 0x20 ADD PUSH0 DUP2 MSTORE POP SWAP1 JUMP JUMPDEST POP DUP1 SLOAD PUSH2 0xFD6 SWAP1 PUSH2 0x1661 JUMP JUMPDEST PUSH0 DUP3 SSTORE DUP1 PUSH1 0x1F LT PUSH2 0xFE7 JUMPI POP PUSH2 0x1004 JUMP JUMPDEST PUSH1 0x1F ADD PUSH1 0x20 SWAP1 DIV SWAP1 PUSH0 MSTORE PUSH1 0x20 PUSH0 KECCAK256 SWAP1 DUP2 ADD SWAP1 PUSH2 0x1003 SWAP2 SWAP1 PUSH2 0x1007 JUMP JUMPDEST JUMPDEST POP JUMP JUMPDEST JUMPDEST DUP1 DUP3 GT ISZERO PUSH2 0x101E JUMPI PUSH0 DUP2 PUSH0 SWAP1 SSTORE POP PUSH1 0x1 ADD PUSH2 0x1008 JUMP JUMPDEST POP SWAP1 JUMP JUMPDEST PUSH0 PUSH1 0x40 MLOAD SWAP1 POP SWAP1 JUMP JUMPDEST PUSH0 DUP1 REVERT JUMPDEST PUSH0 DUP1 REVERT JUMPDEST PUSH0 DUP2 SWAP1 POP SWAP2 SWAP1 POP JUMP JUMPDEST PUSH2 0x1045 DUP2 PUSH2 0x1033 JUMP JUMPDEST DUP2 EQ PUSH2 0x104F JUMPI PUSH0 DUP1 REVERT JUMPDEST POP JUMP JUMPDEST PUSH0 DUP2 CALLDATALOAD SWAP1 POP PUSH2 0x1060 DUP2 PUSH2 0x103C JUMP JUMPDEST SWAP3 SWAP2 POP POP JUMP JUMPDEST PUSH0 PUSH1 0x20 DUP3 DUP5 SUB SLT ISZERO PUSH2 0x107B JUMPI PUSH2 0x107A PUSH2 0x102B JUMP JUMPDEST JUMPDEST PUSH0 PUSH2 0x1088 DUP5 DUP3 DUP6 ADD PUSH2 0x1052 JUMP JUMPDEST SWAP2 POP POP SWAP3 SWAP2 POP POP JUMP JUMPDEST PUSH0 DUP2 MLOAD SWAP1 POP SWAP2 SWAP1 POP JUMP JUMPDEST PUSH0 DUP3 DUP3 MSTORE PUSH1 0x20 DUP3 ADD SWAP1 POP SWAP3 SWAP2 POP POP JUMP JUMPDEST DUP3 DUP2 DUP4 MCOPY PUSH0 DUP4 DUP4 ADD MSTORE POP POP POP JUMP JUMPDEST PUSH0 PUSH1 0x1F NOT PUSH1 0x1F DUP4 ADD AND SWAP1 POP SWAP2 SWAP1 POP JUMP JUMPDEST PUSH0 PUSH2 0x10D3 DUP3 PUSH2 0x1091 JUMP JUMPDEST PUSH2 0x10DD DUP2 DUP6 PUSH2 0x109B JUMP JUMPDEST SWAP4 POP PUSH2 0x10ED DUP2 DUP6 PUSH1 0x20 DUP7 ADD PUSH2 0x10AB JUMP JUMPDEST PUSH2 0x10F6 DUP2 PUSH2 0x10B9 JUMP JUMPDEST DUP5 ADD SWAP2 POP POP SWAP3 SWAP2 POP POP JUMP JUMPDEST PUSH0 PUSH20 0xFFFFFFFFFFFFFFFFFFFFFFFFFFFFFFFFFFFFFFFF DUP3 AND SWAP1 POP SWAP2 SWAP1 POP JUMP JUMPDEST PUSH0 PUSH2 0x112A DUP3 PUSH2 0x1101 JUMP JUMPDEST SWAP1 POP SWAP2 SWAP1 POP JUMP JUMPDEST PUSH2 0x113A DUP2 PUSH2 0x1120 JUMP JUMPDEST DUP3 MSTORE POP POP JUMP JUMPDEST PUSH2 0x1149 DUP2 PUSH2 0x1033 JUMP JUMPDEST DUP3 MSTORE POP POP JUMP JUMPDEST PUSH0 PUSH1 0x80 DUP4 ADD PUSH0 DUP4 ADD MLOAD DUP5 DUP3 SUB PUSH0 DUP7 ADD MSTORE PUSH2 0x1169 DUP3 DUP3 PUSH2 0x10C9 JUMP JUMPDEST SWAP2 POP POP PUSH1 0x20 DUP4 ADD MLOAD DUP5 DUP3 SUB PUSH1 0x20 DUP7 ADD MSTORE PUSH2 0x1183 DUP3 DUP3 PUSH2 0x10C9 JUMP JUMPDEST SWAP2 POP POP PUSH1 0x40 DUP4 ADD MLOAD PUSH2 0x1198 PUSH1 0x40 DUP7 ADD DUP3 PUSH2 0x1131 JUMP JUMPDEST POP PUSH1 0x60 DUP4 ADD MLOAD PUSH2 0x11AB PUSH1 0x60 DUP7 ADD DUP3 PUSH2 0x1140 JUMP JUMPDEST POP DUP1 SWAP2 POP POP SWAP3 SWAP2 POP POP JUMP JUMPDEST PUSH0 PUSH1 0x20 DUP3 ADD SWAP1 POP DUP2 DUP2 SUB PUSH0 DUP4 ADD MSTORE PUSH2 0x11CE DUP2 DUP5 PUSH2 0x114F JUMP JUMPDEST SWAP1 POP SWAP3 SWAP2 POP POP JUMP JUMPDEST PUSH0 DUP2 MLOAD SWAP1 POP SWAP2 SWAP1 POP JUMP JUMPDEST PUSH0 DUP3 DUP3 MSTORE PUSH1 0x20 DUP3 ADD SWAP1 POP SWAP3 SWAP2 POP POP JUMP JUMPDEST PUSH0 DUP2 SWAP1 POP PUSH1 0x20 DUP3 ADD SWAP1 POP SWAP2 SWAP1 POP JUMP JUMPDEST PUSH0 PUSH1 0x80 DUP4 ADD PUSH0 DUP4 ADD MLOAD DUP5 DUP3 SUB PUSH0 DUP7 ADD MSTORE PUSH2 0x1219 DUP3 DUP3 PUSH2 0x10C9 JUMP JUMPDEST SWAP2 POP POP PUSH1 0x20 DUP4 ADD MLOAD DUP5 DUP3 SUB PUSH1 0x20 DUP7 ADD MSTORE PUSH2 0x1233 DUP3 DUP3 PUSH2 0x10C9 JUMP JUMPDEST SWAP2 POP POP PUSH1 0x40 DUP4 ADD MLOAD PUSH2 0x1248 PUSH1 0x40 DUP7 ADD DUP3 PUSH2 0x1131 JUMP JUMPDEST POP PUSH1 0x60 DUP4 ADD MLOAD PUSH2 0x125B PUSH1 0x60 DUP7 ADD DUP3 PUSH2 0x1140 JUMP JUMPDEST POP DUP1 SWAP2 POP POP SWAP3 SWAP2 POP POP JUMP JUMPDEST PUSH0 PUSH2 0x1271 DUP4 DUP4 PUSH2 0x11FF JUMP JUMPDEST SWAP1 POP SWAP3 SWAP2 POP POP JUMP JUMPDEST PUSH0 PUSH1 0x20 DUP3 ADD SWAP1 POP SWAP2 SWAP1 POP JUMP JUMPDEST PUSH0 PUSH2 0x128F DUP3 PUSH2 0x11D6 JUMP JUMPDEST PUSH2 0x1299 DUP2 DUP6 PUSH2 0x11E0 JUMP JUMPDEST SWAP4 POP DUP4 PUSH1 0x20 DUP3 MUL DUP6 ADD PUSH2 0x12AB DUP6 PUSH2 0x11F0 JUMP JUMPDEST DUP1 PUSH0 JUMPDEST DUP6 DUP2 LT ISZERO PUSH2 0x12E6 JUMPI DUP5 DUP5 SUB DUP10 MSTORE DUP2 MLOAD PUSH2 0x12C7 DUP6 DUP3 PUSH2 0x1266 JUMP JUMPDEST SWAP5 POP PUSH2 0x12D2 DUP4 PUSH2 0x1279 JUMP JUMPDEST SWAP3 POP PUSH1 0x20 DUP11 ADD SWAP10 POP POP PUSH1 0x1 DUP2 ADD SWAP1 POP PUSH2 0x12AE JUMP JUMPDEST POP DUP3 SWAP8 POP DUP8 SWAP6 POP POP POP POP POP POP SWAP3 SWAP2 POP POP JUMP JUMPDEST PUSH0 PUSH1 0x20 DUP3 ADD SWAP1 POP DUP2 DUP2 SUB PUSH0 DUP4 ADD MSTORE PUSH2 0x1310 DUP2 DUP5 PUSH2 0x1285 JUMP JUMPDEST SWAP1 POP SWAP3 SWAP2 POP POP JUMP JUMPDEST PUSH0 DUP1 REVERT JUMPDEST PUSH0 DUP1 REVERT JUMPDEST PUSH32 0x4E487B7100000000000000000000000000000000000000000000000000000000 PUSH0 MSTORE PUSH1 0x41 PUSH1 0x4 MSTORE PUSH1 0x24 PUSH0 REVERT JUMPDEST PUSH2 0x1356 DUP3 PUSH2 0x10B9 JUMP JUMPDEST DUP2 ADD DUP2 DUP2 LT PUSH8 0xFFFFFFFFFFFFFFFF DUP3 GT OR ISZERO PUSH2 0x1375 JUMPI PUSH2 0x1374 PUSH2 0x1320 JUMP JUMPDEST JUMPDEST DUP1 PUSH1 0x40 MSTORE POP POP POP JUMP JUMPDEST PUSH0 PUSH2 0x1387 PUSH2 0x1022 JUMP JUMPDEST SWAP1 POP PUSH2 0x1393 DUP3 DUP3 PUSH2 0x134D JUMP JUMPDEST SWAP2 SWAP1 POP JUMP JUMPDEST PUSH0 PUSH8 0xFFFFFFFFFFFFFFFF DUP3 GT ISZERO PUSH2 0x13B2 JUMPI PUSH2 0x13B1 PUSH2 0x1320 JUMP JUMPDEST JUMPDEST PUSH2 0x13BB DUP3 PUSH2 0x10B9 JUMP JUMPDEST SWAP1 POP PUSH1 0x20 DUP2 ADD SWAP1 POP SWAP2 SWAP1 POP JUMP JUMPDEST DUP3 DUP2 DUP4 CALLDATACOPY PUSH0 DUP4 DUP4 ADD MSTORE POP POP POP JUMP JUMPDEST PUSH0 PUSH2 0x13E8 PUSH2 0x13E3 DUP5 PUSH2 0x1398 JUMP JUMPDEST PUSH2 0x137E JUMP JUMPDEST SWAP1 POP DUP3 DUP2 MSTORE PUSH1 0x20 DUP2 ADD DUP5 DUP5 DUP5 ADD GT ISZERO PUSH2 0x1404 JUMPI PUSH2 0x1403 PUSH2 0x131C JUMP JUMPDEST JUMPDEST PUSH2 0x140F DUP5 DUP3 DUP6 PUSH2 0x13C8 JUMP JUMPDEST POP SWAP4 SWAP3 POP POP POP JUMP JUMPDEST PUSH0 DUP3 PUSH1 0x1F DUP4 ADD SLT PUSH2 0x142B JUMPI PUSH2 0x142A PUSH2 0x1318 JUMP JUMPDEST JUMPDEST DUP2 CALLDATALOAD PUSH2 0x143B DUP5 DUP3 PUSH1 0x20 DUP7 ADD PUSH2 0x13D6 JUMP JUMPDEST SWAP2 POP POP SWAP3 SWAP2 POP POP JUMP JUMPDEST PUSH0 PUSH1 0x20 DUP3 DUP5 SUB SLT ISZERO PUSH2 0x1459 JUMPI PUSH2 0x1458 PUSH2 0x102B JUMP JUMPDEST JUMPDEST PUSH0 DUP3 ADD CALLDATALOAD PUSH8 0xFFFFFFFFFFFFFFFF DUP2 GT ISZERO PUSH2 0x1476 JUMPI PUSH2 0x1475 PUSH2 0x102F JUMP JUMPDEST JUMPDEST PUSH2 0x1482 DUP5 DUP3 DUP6 ADD PUSH2 0x1417 JUMP JUMPDEST SWAP2 POP POP SWAP3 SWAP2 POP POP JUMP JUMPDEST PUSH0 DUP1 PUSH1 0x40 DUP4 DUP6 SUB SLT ISZERO PUSH2 0x14A1 JUMPI PUSH2 0x14A0 PUSH2 0x102B JUMP JUMPDEST JUMPDEST PUSH0 DUP4 ADD CALLDATALOAD PUSH8 0xFFFFFFFFFFFFFFFF DUP2 GT ISZERO PUSH2 0x14BE JUMPI PUSH2 0x14BD PUSH2 0x102F JUMP JUMPDEST JUMPDEST PUSH2 0x14CA DUP6 DUP3 DUP7 ADD PUSH2 0x1417 JUMP JUMPDEST SWAP3 POP POP PUSH1 0x20 DUP4 ADD CALLDATALOAD PUSH8 0xFFFFFFFFFFFFFFFF DUP2 GT ISZERO PUSH2 0x14EB JUMPI PUSH2 0x14EA PUSH2 0x102F JUMP JUMPDEST JUMPDEST PUSH2 0x14F7 DUP6 DUP3 DUP7 ADD PUSH2 0x1417 JUMP JUMPDEST SWAP2 POP POP SWAP3 POP SWAP3 SWAP1 POP JUMP JUMPDEST PUSH0 DUP2 ISZERO ISZERO SWAP1 POP SWAP2 SWAP1 POP JUMP JUMPDEST PUSH2 0x1515 DUP2 PUSH2 0x1501 JUMP JUMPDEST DUP3 MSTORE POP POP JUMP JUMPDEST PUSH0 PUSH1 0x20 DUP3 ADD SWAP1 POP PUSH2 0x152E PUSH0 DUP4 ADD DUP5 PUSH2 0x150C JUMP JUMPDEST SWAP3 SWAP2 POP POP JUMP JUMPDEST PUSH0 DUP1 PUSH0 PUSH1 0x60 DUP5 DUP7 SUB SLT ISZERO PUSH2 0x154B JUMPI PUSH2 0x154A PUSH2 0x102B JUMP JUMPDEST JUMPDEST PUSH0 PUSH2 0x1558 DUP7 DUP3 DUP8 ADD PUSH2 0x1052 JUMP JUMPDEST SWAP4 POP POP PUSH1 0x20 DUP5 ADD CALLDATALOAD PUSH8 0xFFFFFFFFFFFFFFFF DUP2 GT ISZERO PUSH2 0x1579 JUMPI PUSH2 0x1578 PUSH2 0x102F JUMP JUMPDEST JUMPDEST PUSH2 0x1585 DUP7 DUP3 DUP8 ADD PUSH2 0x1417 JUMP JUMPDEST SWAP3 POP POP PUSH1 0x40 DUP5 ADD CALLDATALOAD PUSH8 0xFFFFFFFFFFFFFFFF DUP2 GT ISZERO PUSH2 0x15A6 JUMPI PUSH2 0x15A5 PUSH2 0x102F JUMP JUMPDEST JUMPDEST PUSH2 0x15B2 DUP7 DUP3 DUP8 ADD PUSH2 0x1417 JUMP JUMPDEST SWAP2 POP POP SWAP3 POP SWAP3 POP SWAP3 JUMP JUMPDEST PUSH0 DUP3 DUP3 MSTORE PUSH1 0x20 DUP3 ADD SWAP1 POP SWAP3 SWAP2 POP POP JUMP JUMPDEST PUSH32 0x494F43206E6F2065786973746500000000000000000000000000000000000000 PUSH0 DUP3 ADD MSTORE POP JUMP JUMPDEST PUSH0 PUSH2 0x1600 PUSH1 0xD DUP4 PUSH2 0x15BC JUMP JUMPDEST SWAP2 POP PUSH2 0x160B DUP3 PUSH2 0x15CC JUMP JUMPDEST PUSH1 0x20 DUP3 ADD SWAP1 POP SWAP2 SWAP1 POP JUMP JUMPDEST PUSH0 PUSH1 0x20 DUP3 ADD SWAP1 POP DUP2 DUP2 SUB PUSH0 DUP4 ADD MSTORE PUSH2 0x162D DUP2 PUSH2 0x15F4 JUMP JUMPDEST SWAP1 POP SWAP2 SWAP1 POP JUMP JUMPDEST PUSH32 0x4E487B7100000000000000000000000000000000000000000000000000000000 PUSH0 MSTORE PUSH1 0x22 PUSH1 0x4 MSTORE PUSH1 0x24 PUSH0 REVERT JUMPDEST PUSH0 PUSH1 0x2 DUP3 DIV SWAP1 POP PUSH1 0x1 DUP3 AND DUP1 PUSH2 0x1678 JUMPI PUSH1 0x7F DUP3 AND SWAP2 POP JUMPDEST PUSH1 0x20 DUP3 LT DUP2 SUB PUSH2 0x168B JUMPI PUSH2 0x168A PUSH2 0x1634 JUMP JUMPDEST JUMPDEST POP SWAP2 SWAP1 POP JUMP JUMPDEST PUSH32 0x4E487B7100000000000000000000000000000000000000000000000000000000 PUSH0 MSTORE PUSH1 0x32 PUSH1 0x4 MSTORE PUSH1 0x24 PUSH0 REVERT JUMPDEST PUSH0 DUP2 SWAP1 POP DUP2 PUSH0 MSTORE PUSH1 0x20 PUSH0 KECCAK256 SWAP1 POP SWAP2 SWAP1 POP JUMP JUMPDEST PUSH0 PUSH1 0x20 PUSH1 0x1F DUP4 ADD DIV SWAP1 POP SWAP2 SWAP1 POP JUMP JUMPDEST PUSH0 DUP3 DUP3 SHL SWAP1 POP SWAP3 SWAP2 POP POP JUMP JUMPDEST PUSH0 PUSH1 0x8 DUP4 MUL PUSH2 0x171A PUSH32 0xFFFFFFFFFFFFFFFFFFFFFFFFFFFFFFFFFFFFFFFFFFFFFFFFFFFFFFFFFFFFFFFF DUP3 PUSH2 0x16DF JUMP JUMPDEST PUSH2 0x1724 DUP7 DUP4 PUSH2 0x16DF JUMP JUMPDEST SWAP6 POP DUP1 NOT DUP5 AND SWAP4 POP DUP1 DUP7 AND DUP5 OR SWAP3 POP POP POP SWAP4 SWAP3 POP POP POP JUMP JUMPDEST PUSH0 DUP2 SWAP1 POP SWAP2 SWAP1 POP JUMP JUMPDEST PUSH0 PUSH2 0x175F PUSH2 0x175A PUSH2 0x1755 DUP5 PUSH2 0x1033 JUMP JUMPDEST PUSH2 0x173C JUMP JUMPDEST PUSH2 0x1033 JUMP JUMPDEST SWAP1 POP SWAP2 SWAP1 POP JUMP JUMPDEST PUSH0 DUP2 SWAP1 POP SWAP2 SWAP1 POP JUMP JUMPDEST PUSH2 0x1778 DUP4 PUSH2 0x1745 JUMP JUMPDEST PUSH2 0x178C PUSH2 0x1784 DUP3 PUSH2 0x1766 JUMP JUMPDEST DUP5 DUP5 SLOAD PUSH2 0x16EB JUMP JUMPDEST DUP3 SSTORE POP POP POP POP JUMP JUMPDEST PUSH0 SWAP1 JUMP JUMPDEST PUSH2 0x17A0 PUSH2 0x1794 JUMP JUMPDEST PUSH2 0x17AB DUP2 DUP5 DUP5 PUSH2 0x176F JUMP JUMPDEST POP POP POP JUMP JUMPDEST JUMPDEST DUP2 DUP2 LT ISZERO PUSH2 0x17CE JUMPI PUSH2 0x17C3 PUSH0 DUP3 PUSH2 0x1798 JUMP JUMPDEST PUSH1 0x1 DUP2 ADD SWAP1 POP PUSH2 0x17B1 JUMP JUMPDEST POP POP JUMP JUMPDEST PUSH1 0x1F DUP3 GT ISZERO PUSH2 0x1813 JUMPI PUSH2 0x17E4 DUP2 PUSH2 0x16BE JUMP JUMPDEST PUSH2 0x17ED DUP5 PUSH2 0x16D0 JUMP JUMPDEST DUP2 ADD PUSH1 0x20 DUP6 LT ISZERO PUSH2 0x17FC JUMPI DUP2 SWAP1 POP JUMPDEST PUSH2 0x1810 PUSH2 0x1808 DUP6 PUSH2 0x16D0 JUMP JUMPDEST DUP4 ADD DUP3 PUSH2 0x17B0 JUMP JUMPDEST POP POP JUMPDEST POP POP POP JUMP JUMPDEST PUSH0 DUP3 DUP3 SHR SWAP1 POP SWAP3 SWAP2 POP POP JUMP JUMPDEST PUSH0 PUSH2 0x1833 PUSH0 NOT DUP5 PUSH1 0x8 MUL PUSH2 0x1818 JUMP JUMPDEST NOT DUP1 DUP4 AND SWAP2 POP POP SWAP3 SWAP2 POP POP JUMP JUMPDEST PUSH0 PUSH2 0x184B DUP4 DUP4 PUSH2 0x1824 JUMP JUMPDEST SWAP2 POP DUP3 PUSH1 0x2 MUL DUP3 OR SWAP1 POP SWAP3 SWAP2 POP POP JUMP JUMPDEST PUSH2 0x1864 DUP3 PUSH2 0x1091 JUMP JUMPDEST PUSH8 0xFFFFFFFFFFFFFFFF DUP2 GT ISZERO PUSH2 0x187D JUMPI PUSH2 0x187C PUSH2 0x1320 JUMP JUMPDEST JUMPDEST PUSH2 0x1887 DUP3 SLOAD PUSH2 0x1661 JUMP JUMPDEST PUSH2 0x1892 DUP3 DUP3 DUP6 PUSH2 0x17D2 JUMP JUMPDEST PUSH0 PUSH1 0x20 SWAP1 POP PUSH1 0x1F DUP4 GT PUSH1 0x1 DUP2 EQ PUSH2 0x18C3 JUMPI PUSH0 DUP5 ISZERO PUSH2 0x18B1 JUMPI DUP3 DUP8 ADD MLOAD SWAP1 POP JUMPDEST PUSH2 0x18BB DUP6 DUP3 PUSH2 0x1840 JUMP JUMPDEST DUP7 SSTORE POP PUSH2 0x1922 JUMP JUMPDEST PUSH1 0x1F NOT DUP5 AND PUSH2 0x18D1 DUP7 PUSH2 0x16BE JUMP JUMPDEST PUSH0 JUMPDEST DUP3 DUP2 LT ISZERO PUSH2 0x18F8 JUMPI DUP5 DUP10 ADD MLOAD DUP3 SSTORE PUSH1 0x1 DUP3 ADD SWAP2 POP PUSH1 0x20 DUP6 ADD SWAP5 POP PUSH1 0x20 DUP2 ADD SWAP1 POP PUSH2 0x18D3 JUMP JUMPDEST DUP7 DUP4 LT ISZERO PUSH2 0x1915 JUMPI DUP5 DUP10 ADD MLOAD PUSH2 0x1911 PUSH1 0x1F DUP10 AND DUP3 PUSH2 0x1824 JUMP JUMPDEST DUP4 SSTORE POP JUMPDEST PUSH1 0x1 PUSH1 0x2 DUP9 MUL ADD DUP9 SSTORE POP POP POP JUMPDEST POP POP POP POP POP POP JUMP JUMPDEST PUSH32 0x5469706F20646520494F43206E6F207065726D697469646F0000000000000000 PUSH0 DUP3 ADD MSTORE POP JUMP JUMPDEST PUSH0 PUSH2 0x195E PUSH1 0x18 DUP4 PUSH2 0x15BC JUMP JUMPDEST SWAP2 POP PUSH2 0x1969 DUP3 PUSH2 0x192A JUMP JUMPDEST PUSH1 0x20 DUP3 ADD SWAP1 POP SWAP2 SWAP1 POP JUMP JUMPDEST PUSH0 PUSH1 0x20 DUP3 ADD SWAP1 POP DUP2 DUP2 SUB PUSH0 DUP4 ADD MSTORE PUSH2 0x198B DUP2 PUSH2 0x1952 JUMP JUMPDEST SWAP1 POP SWAP2 SWAP1 POP JUMP JUMPDEST PUSH32 0x466F726D61746F20646520494F4320696E76616C69646F000000000000000000 PUSH0 DUP3 ADD MSTORE POP JUMP JUMPDEST PUSH0 PUSH2 0x19C6 PUSH1 0x17 DUP4 PUSH2 0x15BC JUMP JUMPDEST SWAP2 POP PUSH2 0x19D1 DUP3 PUSH2 0x1992 JUMP JUMPDEST PUSH1 0x20 DUP3 ADD SWAP1 POP SWAP2 SWAP1 POP JUMP JUMPDEST PUSH0 PUSH1 0x20 DUP3 ADD SWAP1 POP DUP2 DUP2 SUB PUSH0 DUP4 ADD MSTORE PUSH2 0x19F3 DUP2 PUSH2 0x19BA JUMP JUMPDEST SWAP1 POP SWAP2 SWAP1 POP JUMP JUMPDEST PUSH32 0x494F43207961207265706F727461646F00000000000000000000000000000000 PUSH0 DUP3 ADD MSTORE POP JUMP JUMPDEST PUSH0 PUSH2 0x1A2E PUSH1 0x10 DUP4 PUSH2 0x15BC JUMP JUMPDEST SWAP2 POP PUSH2 0x1A39 DUP3 PUSH2 0x19FA JUMP JUMPDEST PUSH1 0x20 DUP3 ADD SWAP1 POP SWAP2 SWAP1 POP JUMP JUMPDEST PUSH0 PUSH1 0x20 DUP3 ADD SWAP1 POP DUP2 DUP2 SUB PUSH0 DUP4 ADD MSTORE PUSH2 0x1A5B DUP2 PUSH2 0x1A22 JUMP JUMPDEST SWAP1 POP SWAP2 SWAP1 POP JUMP JUMPDEST PUSH32 0x4E487B7100000000000000000000000000000000000000000000000000000000 PUSH0 MSTORE PUSH1 0x11 PUSH1 0x4 MSTORE PUSH1 0x24 PUSH0 REVERT JUMPDEST PUSH0 PUSH2 0x1A99 DUP3 PUSH2 0x1033 JUMP JUMPDEST SWAP2 POP PUSH32 0xFFFFFFFFFFFFFFFFFFFFFFFFFFFFFFFFFFFFFFFFFFFFFFFFFFFFFFFFFFFFFFFF DUP3 SUB PUSH2 0x1ACB JUMPI PUSH2 0x1ACA PUSH2 0x1A62 JUMP JUMPDEST JUMPDEST PUSH1 0x1 DUP3 ADD SWAP1 POP SWAP2 SWAP1 POP JUMP JUMPDEST PUSH0 DUP2 SWAP1 POP SWAP3 SWAP2 POP POP JUMP JUMPDEST PUSH0 PUSH2 0x1AEA DUP3 PUSH2 0x1091 JUMP JUMPDEST PUSH2 0x1AF4 DUP2 DUP6 PUSH2 0x1AD6 JUMP JUMPDEST SWAP4 POP PUSH2 0x1B04 DUP2 DUP6 PUSH1 0x20 DUP7 ADD PUSH2 0x10AB JUMP JUMPDEST DUP1 DUP5 ADD SWAP2 POP POP SWAP3 SWAP2 POP POP JUMP JUMPDEST PUSH0 PUSH2 0x1B1B DUP3 DUP5 PUSH2 0x1AE0 JUMP JUMPDEST SWAP2 POP DUP2 SWAP1 POP SWAP3 SWAP2 POP POP JUMP JUMPDEST PUSH0 DUP2 SLOAD PUSH2 0x1B32 DUP2 PUSH2 0x1661 JUMP JUMPDEST PUSH2 0x1B3C DUP2 DUP7 PUSH2 0x1AD6 JUMP JUMPDEST SWAP5 POP PUSH1 0x1 DUP3 AND PUSH0 DUP2 EQ PUSH2 0x1B56 JUMPI PUSH1 0x1 DUP2 EQ PUSH2 0x1B6B JUMPI PUSH2 0x1B9D JUMP JUMPDEST PUSH1 0xFF NOT DUP4 AND DUP7 MSTORE DUP2 ISZERO ISZERO DUP3 MUL DUP7 ADD SWAP4 POP PUSH2 0x1B9D JUMP JUMPDEST PUSH2 0x1B74 DUP6 PUSH2 0x16BE JUMP JUMPDEST PUSH0 JUMPDEST DUP4 DUP2 LT ISZERO PUSH2 0x1B95 JUMPI DUP2 SLOAD DUP2 DUP10 ADD MSTORE PUSH1 0x1 DUP3 ADD SWAP2 POP PUSH1 0x20 DUP2 ADD SWAP1 POP PUSH2 0x1B76 JUMP JUMPDEST DUP4 DUP9 ADD SWAP6 POP POP POP JUMPDEST POP POP POP SWAP3 SWAP2 POP POP JUMP JUMPDEST PUSH0 PUSH2 0x1BB1 DUP3 DUP5 PUSH2 0x1B26 JUMP JUMPDEST SWAP2 POP DUP2 SWAP1 POP SWAP3 SWAP2 POP POP JUMP JUMPDEST PUSH0 PUSH2 0x1BC6 DUP3 PUSH2 0x1091 JUMP JUMPDEST PUSH2 0x1BD0 DUP2 DUP6 PUSH2 0x15BC JUMP JUMPDEST SWAP4 POP PUSH2 0x1BE0 DUP2 DUP6 PUSH1 0x20 DUP7 ADD PUSH2 0x10AB JUMP JUMPDEST PUSH2 0x1BE9 DUP2 PUSH2 0x10B9 JUMP JUMPDEST DUP5 ADD SWAP2 POP POP SWAP3 SWAP2 POP POP JUMP JUMPDEST PUSH0 PUSH1 0x40 DUP3 ADD SWAP1 POP DUP2 DUP2 SUB PUSH0 DUP4 ADD MSTORE PUSH2 0x1C0C DUP2 DUP6 PUSH2 0x1BBC JUMP JUMPDEST SWAP1 POP DUP2 DUP2 SUB PUSH1 0x20 DUP4 ADD MSTORE PUSH2 0x1C20 DUP2 DUP5 PUSH2 0x1BBC JUMP JUMPDEST SWAP1 POP SWAP4 SWAP3 POP POP POP JUMP JUMPDEST PUSH32 0x4950000000000000000000000000000000000000000000000000000000000000 PUSH0 DUP3 ADD MSTORE POP JUMP JUMPDEST PUSH0 PUSH2 0x1C5D PUSH1 0x2 DUP4 PUSH2 0x1AD6 JUMP JUMPDEST SWAP2 POP PUSH2 0x1C68 DUP3 PUSH2 0x1C29 JUMP JUMPDEST PUSH1 0x2 DUP3 ADD SWAP1 POP SWAP2 SWAP1 POP JUMP JUMPDEST PUSH0 PUSH2 0x1C7D DUP3 PUSH2 0x1C51 JUMP JUMPDEST SWAP2 POP DUP2 SWAP1 POP SWAP2 SWAP1 POP JUMP JUMPDEST PUSH32 0x55524C0000000000000000000000000000000000000000000000000000000000 PUSH0 DUP3 ADD MSTORE POP JUMP JUMPDEST PUSH0 PUSH2 0x1CBB PUSH1 0x3 DUP4 PUSH2 0x1AD6 JUMP JUMPDEST SWAP2 POP PUSH2 0x1CC6 DUP3 PUSH2 0x1C87 JUMP JUMPDEST PUSH1 0x3 DUP3 ADD SWAP1 POP SWAP2 SWAP1 POP JUMP JUMPDEST PUSH0 PUSH2 0x1CDB DUP3 PUSH2 0x1CAF JUMP JUMPDEST SWAP2 POP DUP2 SWAP1 POP SWAP2 SWAP1 POP JUMP JUMPDEST PUSH32 0x4861736800000000000000000000000000000000000000000000000000000000 PUSH0 DUP3 ADD MSTORE POP JUMP JUMPDEST PUSH0 PUSH2 0x1D19 PUSH1 0x4 DUP4 PUSH2 0x1AD6 JUMP JUMPDEST SWAP2 POP PUSH2 0x1D24 DUP3 PUSH2 0x1CE5 JUMP JUMPDEST PUSH1 0x4 DUP3 ADD SWAP1 POP SWAP2 SWAP1 POP JUMP JUMPDEST PUSH0 PUSH2 0x1D39 DUP3 PUSH2 0x1D0D JUMP JUMPDEST SWAP2 POP DUP2 SWAP1 POP SWAP2 SWAP1 POP JUMP JUMPDEST PUSH32 0x456D61696C000000000000000000000000000000000000000000000000000000 PUSH0 DUP3 ADD MSTORE POP JUMP JUMPDEST PUSH0 PUSH2 0x1D77 PUSH1 0x5 DUP4 PUSH2 0x1AD6 JUMP JUMPDEST SWAP2 POP PUSH2 0x1D82 DUP3 PUSH2 0x1D43 JUMP JUMPDEST PUSH1 0x5 DUP3 ADD SWAP1 POP SWAP2 SWAP1 POP JUMP JUMPDEST PUSH0 PUSH2 0x1D97 DUP3 PUSH2 0x1D6B JUMP JUMPDEST SWAP2 POP DUP2 SWAP1 POP SWAP2 SWAP1 POP JUMP JUMPDEST PUSH0 PUSH2 0x1DAB DUP3 PUSH2 0x1033 JUMP JUMPDEST SWAP2 POP PUSH2 0x1DB6 DUP4 PUSH2 0x1033 JUMP JUMPDEST SWAP3 POP DUP3 DUP3 SUB SWAP1 POP DUP2 DUP2 GT ISZERO PUSH2 0x1DCE JUMPI PUSH2 0x1DCD PUSH2 0x1A62 JUMP JUMPDEST JUMPDEST SWAP3 SWAP2 POP POP JUMP JUMPDEST PUSH0 PUSH2 0x1DDE DUP3 PUSH2 0x1033 JUMP JUMPDEST SWAP2 POP PUSH2 0x1DE9 DUP4 PUSH2 0x1033 JUMP JUMPDEST SWAP3 POP DUP3 DUP3 ADD SWAP1 POP DUP1 DUP3 GT ISZERO PUSH2 0x1E01 JUMPI PUSH2 0x1E00 PUSH2 0x1A62 JUMP JUMPDEST JUMPDEST SWAP3 SWAP2 POP POP JUMP INVALID LOG2 PUSH5 0x6970667358 0x22 SLT KECCAK256 0x27 0xBD 0xE8 0xC1 0x26 DUP8 PUSH15 0xF5E6048254CD56DA6F9E1E9FCE6B3A 0x2F 0x2E 0xB1 NOT DUP10 PUSH17 0x276908DC64736F6C634300081900330000 "
		},
		"gasEstimates": {
			"creation": {
				"codeDepositCost": "1548200",
				"executionCost": "infinite",
				"totalCost": "infinite"
			},
			"external": {
				"actualizarIOC(uint256,string,string)": "infinite",
				"agregarIOC(string,string)": "infinite",
				"agregarTipoPermitido(string)": "infinite",
				"eliminarIOC(uint256)": "infinite",
				"esIOCReportado(string)": "infinite",
				"obtenerIOC(uint256)": "infinite",
				"obtenerTodosIOCs()": "infinite"
			},
			"internal": {
				"contarCaracteres(bytes memory,bytes1)": "infinite",
				"contieneSubcadena(string memory,string memory)": "infinite",
				"esTipoPermitido(string memory)": "infinite",
				"validarFormato(string memory,string memory)": "infinite"
			}
		},
		"methodIdentifiers": {
			"actualizarIOC(uint256,string,string)": "f6b7af94",
			"agregarIOC(string,string)": "9290aaa2",
			"agregarTipoPermitido(string)": "6143a4ec",
			"eliminarIOC(uint256)": "ccd666d2",
			"esIOCReportado(string)": "e8e46333",
			"obtenerIOC(uint256)": "390b6116",
			"obtenerTodosIOCs()": "55f40ba9"
		}
	},
	"abi": [
		{
			"inputs": [],
			"stateMutability": "nonpayable",
			"type": "constructor"
		},
		{
			"anonymous": false,
			"inputs": [
				{
					"indexed": true,
					"internalType": "uint256",
					"name": "id",
					"type": "uint256"
				},
				{
					"indexed": false,
					"internalType": "string",
					"name": "tipo",
					"type": "string"
				},
				{
					"indexed": false,
					"internalType": "string",
					"name": "valor",
					"type": "string"
				}
			],
			"name": "IOCAdded",
			"type": "event"
		},
		{
			"anonymous": false,
			"inputs": [
				{
					"indexed": true,
					"internalType": "uint256",
					"name": "id",
					"type": "uint256"
				}
			],
			"name": "IOCDeleted",
			"type": "event"
		},
		{
			"anonymous": false,
			"inputs": [
				{
					"indexed": true,
					"internalType": "uint256",
					"name": "id",
					"type": "uint256"
				},
				{
					"indexed": false,
					"internalType": "string",
					"name": "tipo",
					"type": "string"
				},
				{
					"indexed": false,
					"internalType": "string",
					"name": "valor",
					"type": "string"
				}
			],
			"name": "IOCUpdated",
			"type": "event"
		},
		{
			"inputs": [
				{
					"internalType": "uint256",
					"name": "_id",
					"type": "uint256"
				},
				{
					"internalType": "string",
					"name": "_tipo",
					"type": "string"
				},
				{
					"internalType": "string",
					"name": "_valor",
					"type": "string"
				}
			],
			"name": "actualizarIOC",
			"outputs": [],
			"stateMutability": "nonpayable",
			"type": "function"
		},
		{
			"inputs": [
				{
					"internalType": "string",
					"name": "_tipo",
					"type": "string"
				},
				{
					"internalType": "string",
					"name": "_valor",
					"type": "string"
				}
			],
			"name": "agregarIOC",
			"outputs": [],
			"stateMutability": "nonpayable",
			"type": "function"
		},
		{
			"inputs": [
				{
					"internalType": "string",
					"name": "_nuevoTipo",
					"type": "string"
				}
			],
			"name": "agregarTipoPermitido",
			"outputs": [],
			"stateMutability": "nonpayable",
			"type": "function"
		},
		{
			"inputs": [
				{
					"internalType": "uint256",
					"name": "_id",
					"type": "uint256"
				}
			],
			"name": "eliminarIOC",
			"outputs": [],
			"stateMutability": "nonpayable",
			"type": "function"
		},
		{
			"inputs": [
				{
					"internalType": "string",
					"name": "_valor",
					"type": "string"
				}
			],
			"name": "esIOCReportado",
			"outputs": [
				{
					"internalType": "bool",
					"name": "",
					"type": "bool"
				}
			],
			"stateMutability": "view",
			"type": "function"
		},
		{
			"inputs": [
				{
					"internalType": "uint256",
					"name": "_id",
					"type": "uint256"
				}
			],
			"name": "obtenerIOC",
			"outputs": [
				{
					"components": [
						{
							"internalType": "string",
							"name": "tipo",
							"type": "string"
						},
						{
							"internalType": "string",
							"name": "valor",
							"type": "string"
						},
						{
							"internalType": "address",
							"name": "reportadoPor",
							"type": "address"
						},
						{
							"internalType": "uint256",
							"name": "fechaReporte",
							"type": "uint256"
						}
					],
					"internalType": "struct ThreatIntelligence.IOC",
					"name": "",
					"type": "tuple"
				}
			],
			"stateMutability": "view",
			"type": "function"
		},
		{
			"inputs": [],
			"name": "obtenerTodosIOCs",
			"outputs": [
				{
					"components": [
						{
							"internalType": "string",
							"name": "tipo",
							"type": "string"
						},
						{
							"internalType": "string",
							"name": "valor",
							"type": "string"
						},
						{
							"internalType": "address",
							"name": "reportadoPor",
							"type": "address"
						},
						{
							"internalType": "uint256",
							"name": "fechaReporte",
							"type": "uint256"
						}
					],
					"internalType": "struct ThreatIntelligence.IOC[]",
					"name": "",
					"type": "tuple[]"
				}
			],
			"stateMutability": "view",
			"type": "function"
		}
	]
}